{"abi":[{"type":"function","name":"DEFAULT_ADMIN_ROLE","inputs":[],"outputs":[{"name":"","type":"bytes32","internalType":"bytes32"}],"stateMutability":"view"},{"type":"function","name":"UPGRADE_INTERFACE_VERSION","inputs":[],"outputs":[{"name":"","type":"string","internalType":"string"}],"stateMutability":"view"},{"type":"function","name":"WHITELIST_ROLE","inputs":[],"outputs":[{"name":"","type":"bytes32","internalType":"bytes32"}],"stateMutability":"view"},{"type":"function","name":"acceptGenesisCeremony","inputs":[],"outputs":[],"stateMutability":"nonpayable"},{"type":"function","name":"computeAllStake","inputs":[{"name":"domain","type":"address","internalType":"address"},{"name":"epoch","type":"uint256","internalType":"uint256"}],"outputs":[{"name":"","type":"uint256","internalType":"uint256"}],"stateMutability":"view"},{"type":"function","name":"computeAllStakeForAcceptingEpoch","inputs":[{"name":"domain","type":"address","internalType":"address"}],"outputs":[{"name":"","type":"uint256","internalType":"uint256"}],"stateMutability":"view"},{"type":"function","name":"currentAcceptingEpochByDomain","inputs":[{"name":"domain","type":"address","internalType":"address"}],"outputs":[{"name":"currentAcceptingEpoch","type":"uint256","internalType":"uint256"}],"stateMutability":"view"},{"type":"function","name":"domainGenesisAccepted","inputs":[{"name":"domain","type":"address","internalType":"address"}],"outputs":[{"name":"","type":"bool","internalType":"bool"}],"stateMutability":"view"},{"type":"function","name":"epochDurationByDomain","inputs":[{"name":"domain","type":"address","internalType":"address"}],"outputs":[{"name":"epochDuration","type":"uint256","internalType":"uint256"}],"stateMutability":"view"},{"type":"function","name":"getAcceptingEpoch","inputs":[{"name":"domain","type":"address","internalType":"address"}],"outputs":[{"name":"","type":"uint256","internalType":"uint256"}],"stateMutability":"view"},{"type":"function","name":"getAttesterStake","inputs":[{"name":"domain","type":"address","internalType":"address"},{"name":"epoch","type":"uint256","internalType":"uint256"},{"name":"attester","type":"address","internalType":"address"}],"outputs":[{"name":"","type":"uint256","internalType":"uint256"}],"stateMutability":"view"},{"type":"function","name":"getAttesterStakeForAcceptingEpoch","inputs":[{"name":"domain","type":"address","internalType":"address"},{"name":"attester","type":"address","internalType":"address"}],"outputs":[{"name":"","type":"uint256","internalType":"uint256"}],"stateMutability":"view"},{"type":"function","name":"getCustodianStake","inputs":[{"name":"domain","type":"address","internalType":"address"},{"name":"epoch","type":"uint256","internalType":"uint256"},{"name":"custodian","type":"address","internalType":"address"}],"outputs":[{"name":"","type":"uint256","internalType":"uint256"}],"stateMutability":"view"},{"type":"function","name":"getCustodianStakeForAcceptingEpoch","inputs":[{"name":"domain","type":"address","internalType":"address"},{"name":"custodian","type":"address","internalType":"address"}],"outputs":[{"name":"","type":"uint256","internalType":"uint256"}],"stateMutability":"view"},{"type":"function","name":"getEpochByL1BlockTime","inputs":[{"name":"domain","type":"address","internalType":"address"}],"outputs":[{"name":"","type":"uint256","internalType":"uint256"}],"stateMutability":"view"},{"type":"function","name":"getEpochDuration","inputs":[{"name":"domain","type":"address","internalType":"address"}],"outputs":[{"name":"","type":"uint256","internalType":"uint256"}],"stateMutability":"view"},{"type":"function","name":"getNextAcceptingEpochWithException","inputs":[{"name":"domain","type":"address","internalType":"address"}],"outputs":[{"name":"","type":"uint256","internalType":"uint256"}],"stateMutability":"view"},{"type":"function","name":"getNextPresentEpochWithException","inputs":[{"name":"domain","type":"address","internalType":"address"}],"outputs":[{"name":"","type":"uint256","internalType":"uint256"}],"stateMutability":"view"},{"type":"function","name":"getRegisteredAttesters","inputs":[{"name":"domain","type":"address","internalType":"address"}],"outputs":[{"name":"","type":"address[]","internalType":"address[]"}],"stateMutability":"view"},{"type":"function","name":"getRegisteredCustodians","inputs":[{"name":"domain","type":"address","internalType":"address"}],"outputs":[{"name":"","type":"address[]","internalType":"address[]"}],"stateMutability":"view"},{"type":"function","name":"getRoleAdmin","inputs":[{"name":"role","type":"bytes32","internalType":"bytes32"}],"outputs":[{"name":"","type":"bytes32","internalType":"bytes32"}],"stateMutability":"view"},{"type":"function","name":"getStake","inputs":[{"name":"domain","type":"address","internalType":"address"},{"name":"epoch","type":"uint256","internalType":"uint256"},{"name":"custodian","type":"address","internalType":"address"},{"name":"attester","type":"address","internalType":"address"}],"outputs":[{"name":"","type":"uint256","internalType":"uint256"}],"stateMutability":"view"},{"type":"function","name":"getStakeForAcceptingEpoch","inputs":[{"name":"domain","type":"address","internalType":"address"},{"name":"custodian","type":"address","internalType":"address"},{"name":"attester","type":"address","internalType":"address"}],"outputs":[{"name":"","type":"uint256","internalType":"uint256"}],"stateMutability":"view"},{"type":"function","name":"getStakedAttestersForAcceptingEpoch","inputs":[{"name":"domain","type":"address","internalType":"address"}],"outputs":[{"name":"","type":"address[]","internalType":"address[]"}],"stateMutability":"view"},{"type":"function","name":"getUnstake","inputs":[{"name":"domain","type":"address","internalType":"address"},{"name":"epoch","type":"uint256","internalType":"uint256"},{"name":"custodian","type":"address","internalType":"address"},{"name":"attester","type":"address","internalType":"address"}],"outputs":[{"name":"","type":"uint256","internalType":"uint256"}],"stateMutability":"view"},{"type":"function","name":"getUnstakeForAcceptingEpoch","inputs":[{"name":"domain","type":"address","internalType":"address"},{"name":"custodian","type":"address","internalType":"address"},{"name":"attester","type":"address","internalType":"address"}],"outputs":[{"name":"","type":"uint256","internalType":"uint256"}],"stateMutability":"view"},{"type":"function","name":"grantRole","inputs":[{"name":"role","type":"bytes32","internalType":"bytes32"},{"name":"account","type":"address","internalType":"address"}],"outputs":[],"stateMutability":"nonpayable"},{"type":"function","name":"hasRole","inputs":[{"name":"role","type":"bytes32","internalType":"bytes32"},{"name":"account","type":"address","internalType":"address"}],"outputs":[{"name":"","type":"bool","internalType":"bool"}],"stateMutability":"view"},{"type":"function","name":"initialize","inputs":[],"outputs":[],"stateMutability":"nonpayable"},{"type":"function","name":"initialize","inputs":[{"name":"_token","type":"address","internalType":"contract IERC20"}],"outputs":[],"stateMutability":"nonpayable"},{"type":"function","name":"proxiableUUID","inputs":[],"outputs":[{"name":"","type":"bytes32","internalType":"bytes32"}],"stateMutability":"view"},{"type":"function","name":"registerDomain","inputs":[{"name":"epochDuration","type":"uint256","internalType":"uint256"},{"name":"custodians","type":"address[]","internalType":"address[]"}],"outputs":[],"stateMutability":"nonpayable"},{"type":"function","name":"removeAddressFromWhitelist","inputs":[{"name":"addr","type":"address","internalType":"address"}],"outputs":[],"stateMutability":"nonpayable"},{"type":"function","name":"renounceRole","inputs":[{"name":"role","type":"bytes32","internalType":"bytes32"},{"name":"callerConfirmation","type":"address","internalType":"address"}],"outputs":[],"stateMutability":"nonpayable"},{"type":"function","name":"revokeRole","inputs":[{"name":"role","type":"bytes32","internalType":"bytes32"},{"name":"account","type":"address","internalType":"address"}],"outputs":[],"stateMutability":"nonpayable"},{"type":"function","name":"rewardArray","inputs":[{"name":"attesters","type":"address[]","internalType":"address[]"},{"name":"amounts","type":"uint256[]","internalType":"uint256[]"},{"name":"custodians","type":"address[]","internalType":"address[]"}],"outputs":[],"stateMutability":"nonpayable"},{"type":"function","name":"rewardFromDomain","inputs":[{"name":"attester","type":"address","internalType":"address"},{"name":"amount","type":"uint256","internalType":"uint256"},{"name":"custodian","type":"address","internalType":"address"}],"outputs":[],"stateMutability":"nonpayable"},{"type":"function","name":"rollOverEpoch","inputs":[],"outputs":[],"stateMutability":"nonpayable"},{"type":"function","name":"setAcceptingEpoch","inputs":[{"name":"domain","type":"address","internalType":"address"},{"name":"newEpoch","type":"uint256","internalType":"uint256"}],"outputs":[],"stateMutability":"nonpayable"},{"type":"function","name":"slash","inputs":[{"name":"custodians","type":"address[]","internalType":"address[]"},{"name":"attesters","type":"address[]","internalType":"address[]"},{"name":"amounts","type":"uint256[]","internalType":"uint256[]"},{"name":"refundAmounts","type":"uint256[]","internalType":"uint256[]"}],"outputs":[],"stateMutability":"nonpayable"},{"type":"function","name":"stake","inputs":[{"name":"domain","type":"address","internalType":"address"},{"name":"custodian","type":"address","internalType":"contract IERC20"},{"name":"amount","type":"uint256","internalType":"uint256"}],"outputs":[],"stateMutability":"nonpayable"},{"type":"function","name":"stakesByDomainEpochCustodian","inputs":[{"name":"domain","type":"address","internalType":"address"},{"name":"epoch","type":"uint256","internalType":"uint256"},{"name":"custodian","type":"address","internalType":"address"}],"outputs":[{"name":"stake","type":"uint256","internalType":"uint256"}],"stateMutability":"view"},{"type":"function","name":"stakesByDomainEpochCustodianAttester","inputs":[{"name":"domain","type":"address","internalType":"address"},{"name":"epoch","type":"uint256","internalType":"uint256"},{"name":"custodian","type":"address","internalType":"address"},{"name":"attester","type":"address","internalType":"address"}],"outputs":[{"name":"stake","type":"uint256","internalType":"uint256"}],"stateMutability":"view"},{"type":"function","name":"supportsInterface","inputs":[{"name":"interfaceId","type":"bytes4","internalType":"bytes4"}],"outputs":[{"name":"","type":"bool","internalType":"bool"}],"stateMutability":"view"},{"type":"function","name":"token","inputs":[],"outputs":[{"name":"","type":"address","internalType":"contract IERC20"}],"stateMutability":"view"},{"type":"function","name":"unstake","inputs":[{"name":"domain","type":"address","internalType":"address"},{"name":"custodian","type":"address","internalType":"address"},{"name":"amount","type":"uint256","internalType":"uint256"}],"outputs":[],"stateMutability":"nonpayable"},{"type":"function","name":"unstakesByDomainEpochCustodianAttester","inputs":[{"name":"domain","type":"address","internalType":"address"},{"name":"epoch","type":"uint256","internalType":"uint256"},{"name":"custodian","type":"address","internalType":"address"},{"name":"attester","type":"address","internalType":"address"}],"outputs":[{"name":"stake","type":"uint256","internalType":"uint256"}],"stateMutability":"view"},{"type":"function","name":"upgradeToAndCall","inputs":[{"name":"newImplementation","type":"address","internalType":"address"},{"name":"data","type":"bytes","internalType":"bytes"}],"outputs":[],"stateMutability":"payable"},{"type":"function","name":"whitelistAddress","inputs":[{"name":"addr","type":"address","internalType":"address"}],"outputs":[],"stateMutability":"nonpayable"},{"type":"event","name":"AttesterEpochRolledOver","inputs":[{"name":"attester","type":"address","indexed":true,"internalType":"address"},{"name":"epoch","type":"uint256","indexed":true,"internalType":"uint256"},{"name":"custodian","type":"address","indexed":true,"internalType":"address"},{"name":"stake","type":"uint256","indexed":false,"internalType":"uint256"},{"name":"unstake","type":"uint256","indexed":false,"internalType":"uint256"}],"anonymous":false},{"type":"event","name":"AttesterStaked","inputs":[{"name":"domain","type":"address","indexed":true,"internalType":"address"},{"name":"epoch","type":"uint256","indexed":true,"internalType":"uint256"},{"name":"custodian","type":"address","indexed":true,"internalType":"address"},{"name":"attester","type":"address","indexed":false,"internalType":"address"},{"name":"stake","type":"uint256","indexed":false,"internalType":"uint256"}],"anonymous":false},{"type":"event","name":"AttesterUnstaked","inputs":[{"name":"domain","type":"address","indexed":true,"internalType":"address"},{"name":"epoch","type":"uint256","indexed":true,"internalType":"uint256"},{"name":"custodian","type":"address","indexed":true,"internalType":"address"},{"name":"attester","type":"address","indexed":false,"internalType":"address"},{"name":"stake","type":"uint256","indexed":false,"internalType":"uint256"}],"anonymous":false},{"type":"event","name":"EpochRolledOver","inputs":[{"name":"domain","type":"address","indexed":true,"internalType":"address"},{"name":"epoch","type":"uint256","indexed":false,"internalType":"uint256"}],"anonymous":false},{"type":"event","name":"Initialized","inputs":[{"name":"version","type":"uint64","indexed":false,"internalType":"uint64"}],"anonymous":false},{"type":"event","name":"RoleAdminChanged","inputs":[{"name":"role","type":"bytes32","indexed":true,"internalType":"bytes32"},{"name":"previousAdminRole","type":"bytes32","indexed":true,"internalType":"bytes32"},{"name":"newAdminRole","type":"bytes32","indexed":true,"internalType":"bytes32"}],"anonymous":false},{"type":"event","name":"RoleGranted","inputs":[{"name":"role","type":"bytes32","indexed":true,"internalType":"bytes32"},{"name":"account","type":"address","indexed":true,"internalType":"address"},{"name":"sender","type":"address","indexed":true,"internalType":"address"}],"anonymous":false},{"type":"event","name":"RoleRevoked","inputs":[{"name":"role","type":"bytes32","indexed":true,"internalType":"bytes32"},{"name":"account","type":"address","indexed":true,"internalType":"address"},{"name":"sender","type":"address","indexed":true,"internalType":"address"}],"anonymous":false},{"type":"event","name":"Upgraded","inputs":[{"name":"implementation","type":"address","indexed":true,"internalType":"address"}],"anonymous":false},{"type":"error","name":"AccessControlBadConfirmation","inputs":[]},{"type":"error","name":"AccessControlUnauthorizedAccount","inputs":[{"name":"account","type":"address","internalType":"address"},{"name":"neededRole","type":"bytes32","internalType":"bytes32"}]},{"type":"error","name":"AddressEmptyCode","inputs":[{"name":"target","type":"address","internalType":"address"}]},{"type":"error","name":"CustodianTransferAmountMismatch","inputs":[]},{"type":"error","name":"ERC1967InvalidImplementation","inputs":[{"name":"implementation","type":"address","internalType":"address"}]},{"type":"error","name":"ERC1967NonPayable","inputs":[]},{"type":"error","name":"EpochDurationNotSet","inputs":[]},{"type":"error","name":"FailedCall","inputs":[]},{"type":"error","name":"GenesisAlreadyAccepted","inputs":[]},{"type":"error","name":"InvalidInitialization","inputs":[]},{"type":"error","name":"NotInitializing","inputs":[]},{"type":"error","name":"ReentrancyGuardReentrantCall","inputs":[]},{"type":"error","name":"StakeExceedsGenesisStake","inputs":[]},{"type":"error","name":"UUPSUnauthorizedCallContext","inputs":[]},{"type":"error","name":"UUPSUnsupportedProxiableUUID","inputs":[{"name":"slot","type":"bytes32","internalType":"bytes32"}]}],"bytecode":{"object":"0x60a0604052306080523480156012575f80fd5b50600160095560805161319661003e5f395f8181611e5901528181611e820152611fc301526131965ff3fe6080604052600436106102a5575f3560e01c80635e00bf461161016f578063a78d1fef116100d8578063c4d66de811610092578063d547741f1161006d578063d547741f146108a8578063d980b40d146108c7578063e6e3fb3a146108e6578063fc0c546a1461092b575f80fd5b8063c4d66de81461083c578063d1ba90ff1461085b578063d37304f814610889575f80fd5b8063a78d1fef14610763578063a885c97514610782578063a887b71c146107a1578063ad3cb1cc146107b5578063b1de97f7146107f2578063bf6eac2f1461081d575f80fd5b806386af70d11161012957806386af70d1146106a357806391d14854146106df57806392a2ebf3146106fe57806393dfb85c146107125780639db92f6814610731578063a217fddf14610750575f80fd5b80635e00bf46146105f357806360829f8a14610612578063771fcfc4146106315780637a997ab7146106505780637d93768b146106705780638129fc1c1461068f575f80fd5b806336568abe116102115780634f1ef286116101cb5780634f1ef2861461053b57806352d1902d1461054e57806355bdbe4c14610562578063574663a91461058157806357dd6a94146105a05780635c534359146105bf575f80fd5b806336568abe146104755780633bccf635146104945780633debeadc146104bf57806341566585146104de5780634234a479146104fd5780634e76a1391461051c575f80fd5b8063248a9ca311610262578063248a9ca3146103bb57806324fdfddf146103da578063286dd3f5146103f95780632f2ff15d14610418578063341d5ef51461043757806334eada3a14610456575f80fd5b806301ffc9a7146102a95780630c8f522f146102dd5780630ce52af5146103305780631789aeb41461034f5780631dc8b9491461037b57806322fceb751461039c575b5f80fd5b3480156102b4575f80fd5b506102c86102c3366004612ae0565b610961565b60405190151581526020015b60405180910390f35b3480156102e8575f80fd5b506103226102f7366004612b1b565b600560209081525f948552604080862082529385528385208152918452828420909152825290205481565b6040519081526020016102d4565b34801561033b575f80fd5b5061032261034a366004612b6b565b610997565b34801561035a575f80fd5b5061036e610369366004612baa565b6109cc565b6040516102d49190612bc5565b348015610386575f80fd5b5061039a610395366004612c05565b610ab6565b005b3480156103a7575f80fd5b506103226103b6366004612baa565b610bf2565b3480156103c6575f80fd5b506103226103d5366004612c2f565b610c0c565b3480156103e5575f80fd5b506103226103f4366004612b6b565b610c2c565b348015610404575f80fd5b5061039a610413366004612baa565b610ca3565b348015610423575f80fd5b5061039a610432366004612c46565b610cc8565b348015610442575f80fd5b5061036e610451366004612baa565b610cea565b348015610461575f80fd5b50610322610470366004612c74565b610dcd565b348015610480575f80fd5b5061039a61048f366004612c46565b610dea565b34801561049f575f80fd5b506103226104ae366004612baa565b60016020525f908152604090205481565b3480156104ca575f80fd5b506103226104d9366004612cb1565b610e22565b3480156104e9575f80fd5b5061039a6104f8366004612baa565b610e36565b348015610508575f80fd5b5061036e610517366004612baa565b610e57565b348015610527575f80fd5b5061039a610536366004612d24565b610fa5565b61039a610549366004612dd4565b611042565b348015610559575f80fd5b5061032261105d565b34801561056d575f80fd5b5061032261057c366004612c05565b611078565b34801561058c575f80fd5b5061032261059b366004612baa565b61110d565b3480156105ab575f80fd5b506103226105ba366004612baa565b61111b565b3480156105ca575f80fd5b506103226105d9366004612baa565b6001600160a01b03165f9081526001602052604090205490565b3480156105fe575f80fd5b5061039a61060d366004612b6b565b61114a565b34801561061d575f80fd5b5061039a61062c366004612e97565b611168565b34801561063c575f80fd5b5061032261064b366004612baa565b6111fd565b34801561065b575f80fd5b506103225f8051602061310183398151915281565b34801561067b575f80fd5b5061032261068a366004612b1b565b611215565b34801561069a575f80fd5b5061039a611252565b3480156106ae575f80fd5b506103226106bd366004612b6b565b600760209081525f938452604080852082529284528284209052825290205481565b3480156106ea575f80fd5b506102c86106f9366004612c46565b611347565b348015610709575f80fd5b5061039a61137d565b34801561071d575f80fd5b5061032261072c366004612b1b565b61150f565b34801561073c575f80fd5b5061032261074b366004612cb1565b61154c565b34801561075b575f80fd5b506103225f81565b34801561076e575f80fd5b5061032261077d366004612c74565b611560565b34801561078d575f80fd5b5061039a61079c366004612ed5565b611575565b3480156107ac575f80fd5b5061039a611797565b3480156107c0575f80fd5b506107e5604051806040016040528060058152602001640352e302e360dc1b81525081565b6040516102d49190612f9f565b3480156107fd575f80fd5b5061032261080c366004612baa565b60026020525f908152604090205481565b348015610828575f80fd5b5061039a610837366004612e97565b6117a9565b348015610847575f80fd5b5061039a610856366004612baa565b6119d4565b348015610866575f80fd5b506102c8610875366004612baa565b60086020525f908152604090205460ff1681565b348015610894575f80fd5b5061039a6108a3366004612fd4565b611ae3565b3480156108b3575f80fd5b5061039a6108c2366004612c46565b611b61565b3480156108d2575f80fd5b506103226108e1366004612baa565b611b7d565b3480156108f1575f80fd5b50610322610900366004612b1b565b600660209081525f948552604080862082529385528385208152918452828420909152825290205481565b348015610936575f80fd5b505f54610949906001600160a01b031681565b6040516001600160a01b0390911681526020016102d4565b5f6001600160e01b03198216637965db0b60e01b148061099157506301ffc9a760e01b6001600160e01b03198316145b92915050565b6001600160a01b038084165f9081526007602090815260408083208684528252808320938516835292905220545b9392505050565b6001600160a01b0381165f908152600360205260408120606091906109f090611bd6565b6001600160401b03811115610a0757610a07612dc0565b604051908082528060200260200182016040528015610a30578160200160208202803683370190505b5090505f5b6001600160a01b0384165f908152600360205260409020610a5590611bd6565b811015610aaf576001600160a01b0384165f908152600360205260409020610a7d9082611bdf565b828281518110610a8f57610a8f61301b565b6001600160a01b0390921660209283029190910190910152600101610a35565b5092915050565b610abf82611b7d565b811115610b255760405162461bcd60e51b815260206004820152602960248201527f4e45575f45504f43485f4d5553545f42455f4c4553535f5448414e5f5052455360448201526808a9ca8be8aa09e86960bb1b60648201526084015b60405180910390fd5b610b2e82610bf2565b8111610b905760405162461bcd60e51b815260206004820152602b60248201527f4e45575f45504f43485f4d5553545f42455f4849474845525f5448414e5f435560448201526a0a4a48a9ca8be8aa09e86960ab1b6064820152608401610b1c565b336001600160a01b03831614610bd75760405162461bcd60e51b815260206004820152600c60248201526b15539055551213d49256915160a21b6044820152606401610b1c565b6001600160a01b039091165f90815260026020526040902055565b6001600160a01b03165f9081526002602052604090205490565b5f9081525f80516020613141833981519152602052604090206001015490565b5f80805b6001600160a01b0386165f908152600460205260409020610c5090611bd6565b811015610c9a576001600160a01b0386165f908152600460205260409020610c869087908790610c809085611bdf565b8761150f565b610c909083613043565b9150600101610c30565b50949350505050565b5f610cad81611bea565b610cc45f8051602061310183398151915283611b61565b5050565b610cd182610c0c565b610cda81611bea565b610ce48383611bf7565b50505050565b6001600160a01b0381165f90815260046020526040812060609190610d0e90611bd6565b6001600160401b03811115610d2557610d25612dc0565b604051908082528060200260200182016040528015610d4e578160200160208202803683370190505b5090505f5b6001600160a01b0384165f908152600460205260409020610d7390611bd6565b811015610aaf576001600160a01b0384165f908152600460205260409020610d9b9082611bdf565b828281518110610dad57610dad61301b565b6001600160a01b0390921660209283029190910190910152600101610d53565b5f610de284610ddb86610bf2565b8585611215565b949350505050565b6001600160a01b0381163314610e135760405163334bd91960e11b815260040160405180910390fd5b610e1d8282611c98565b505050565b5f6109c583610e3085610bf2565b84610c2c565b5f610e4081611bea565b610cc45f8051602061310183398151915283610cc8565b6001600160a01b0381165f90815260036020526040812060609190610e7b90611bd6565b90505f805b82811015610ed3576001600160a01b0385165f908152600360205260408120610ea99083611bdf565b90505f610eb68783610e22565b1115610eca5782610ec681613056565b9350505b50600101610e80565b505f816001600160401b03811115610eed57610eed612dc0565b604051908082528060200260200182016040528015610f16578160200160208202803683370190505b5090505f805b84811015610f9a576001600160a01b0387165f908152600360205260408120610f459083611bdf565b90505f610f528983610e22565b1115610f915780848481518110610f6b57610f6b61301b565b6001600160a01b039092166020928302919091019091015282610f8d81613056565b9350505b50600101610f1c565b509095945050505050565b610fad611d11565b5f5b8581101561102f5761102733888884818110610fcd57610fcd61301b565b9050602002016020810190610fe29190612baa565b858585818110610ff457610ff461301b565b90506020020160208101906110099190612baa565b88888681811061101b5761101b61301b565b90506020020135611d3b565b600101610faf565b5061103a6001600955565b505050505050565b61104a611e4e565b61105382611ef2565b610cc48282611efc565b5f611066611fb8565b505f8051602061312183398151915290565b5f8061108384610cea565b90505f61108f856109cc565b90505f805b8351811015611103575f5b83518110156110fa576110e688888785815181106110bf576110bf61301b565b60200260200101518785815181106110d9576110d961301b565b602002602001015161150f565b6110f09084613043565b925060010161109f565b50600101611094565b5095945050505050565b5f6109918261057c84610bf2565b5f61112582610bf2565b156111435761113382611b7d565b61113e906001613043565b610991565b5f92915050565b611152611d11565b61115e33848385611d3b565b610e1d6001600955565b5f8051602061310183398151915261117f81611bea565b611187611d11565b61119c84611194866111fd565b853386612001565b826001600160a01b03166111af856111fd565b60408051338152602081018690526001600160a01b038816917fd41c64546a5c34c283150998874c7ee0412c8954f57aef484c681f6e137827df910160405180910390a4610ce46001600955565b5f61120782610bf2565b156111435761113382610bf2565b6001600160a01b039384165f9081526006602090815260408083209583529481528482209386168252928352838120919094168452905290205490565b5f61125b612055565b805490915060ff600160401b82041615906001600160401b03165f811580156112815750825b90505f826001600160401b0316600114801561129c5750303b155b9050811580156112aa575080155b156112c85760405163f92ee8a960e01b815260040160405180910390fd5b845467ffffffffffffffff1916600117855583156112f257845460ff60401b1916600160401b1785555b6112fa61207d565b831561134057845460ff60401b19168555604051600181527fc7f505b2f371ae2175ee4913f4499e1f2633a7b5936321eed1cdaeb6115181d29060200160405180910390a15b5050505050565b5f9182525f80516020613141833981519152602090815260408084206001600160a01b0393909316845291905290205460ff1690565b611385611d11565b335f8181526008602052604090205460ff16156113b45760405162fe178760e01b815260040160405180910390fd5b6001600160a01b0381165f908152600860209081526040808320805460ff191660019081179091559091529020546113ee576113ee61306e565b6113f781611b7d565b6001600160a01b0382165f908152600260205260408120919091555b6001600160a01b0382165f90815260036020526040902061143390611bd6565b811015611501576001600160a01b0382165f90815260036020526040812061145b9083611bdf565b90505f5b6001600160a01b0384165f90815260046020526040902061147f90611bd6565b8110156114f7576001600160a01b0384165f9081526004602052604081206114a79083611bdf565b90505f6114b6865f848761150f565b90505f6114c287610bf2565b11156114ed575f6114d287610bf2565b11156114ed576114ed866114e588610bf2565b84878561208d565b505060010161145f565b5050600101611413565b505061150d6001600955565b565b6001600160a01b039384165f9081526005602090815260408083209583529481528482209386168252928352838120919094168452905290205490565b5f6109c58361155a85610bf2565b84610997565b5f610de28461156e86610bf2565b858561150f565b61157d611d11565b5f5b85811015611782575f611646611607336115b98b8b878181106115a4576115a461301b565b90506020020160208101906103b69190612baa565b8d8d878181106115cb576115cb61301b565b90506020020160208101906115e09190612baa565b8c8c888181106115f2576115f261301b565b905060200201602081019061072c9190612baa565b61164188888681811061161c5761161c61301b565b905060200201358787878181106116355761163561301b565b90506020020135612118565b612118565b90506116a03089898581811061165e5761165e61301b565b90506020020160208101906116739190612baa565b8c8c868181106116855761168561301b565b905060200201602081019061169a9190612baa565b84612127565b611719336116ad33610bf2565b8c8c868181106116bf576116bf61301b565b90506020020160208101906116d49190612baa565b8b8b878181106116e6576116e661301b565b90506020020160208101906116fb9190612baa565b8a8a8881811061170d5761170d61301b565b90506020020135612194565b6117793361172633610bf2565b8c8c868181106117385761173861301b565b905060200201602081019061174d9190612baa565b8b8b8781811061175f5761175f61301b565b90506020020160208101906117749190612baa565b6121d4565b5060010161157f565b5061178d6001600955565b5050505050505050565b61150d336117a433610bf2565b612246565b5f805160206131018339815191526117c081611bea565b6117c8611d11565b6001600160a01b0384165f9081526003602052604090206117e99033612363565b505f80546040516370a0823160e01b81523060048201526001600160a01b03909116906370a0823190602401602060405180830381865afa158015611830573d5f803e3d5ffd5b505050506040513d601f19601f820116820180604052508101906118549190613082565b6040516323b872dd60e01b8152336004820152306024820152604481018590529091506001600160a01b038516906323b872dd906064016020604051808303815f875af11580156118a7573d5f803e3d5ffd5b505050506040513d601f19601f820116820180604052508101906118cb9190613099565b506118d68382613043565b5f546040516370a0823160e01b81523060048201526001600160a01b03909116906370a0823190602401602060405180830381865afa15801561191b573d5f803e3d5ffd5b505050506040513d601f19601f8201168201806040525081019061193f9190613082565b1461195d57604051631910d68360e21b815260040160405180910390fd5b6119728561196a876111fd565b86338761208d565b836001600160a01b0316611985866111fd565b60408051338152602081018790526001600160a01b038916917f7be65c2ae4d3c544de23b1db5bea4d541c02b93a5f4302852f4dc9880e0cb554910160405180910390a450610ce46001600955565b5f6119dd612055565b805490915060ff600160401b82041615906001600160401b03165f81158015611a035750825b90505f826001600160401b03166001148015611a1e5750303b155b905081158015611a2c575080155b15611a4a5760405163f92ee8a960e01b815260040160405180910390fd5b845467ffffffffffffffff191660011785558315611a7457845460ff60401b1916600160401b1785555b611a7c612377565b5f80546001600160a01b0319166001600160a01b038816179055831561103a57845460ff60401b19168555604051600181527fc7f505b2f371ae2175ee4913f4499e1f2633a7b5936321eed1cdaeb6115181d29060200160405180910390a1505050505050565b611aeb611d11565b335f8181526001602052604081208590555b82811015611b5557611b4c848483818110611b1a57611b1a61301b565b9050602002016020810190611b2f9190612baa565b6001600160a01b0384165f90815260046020526040902090612363565b50600101611afd565b5050610e1d6001600955565b611b6a82610c0c565b611b7381611bea565b610ce48383611c98565b6001600160a01b0381165f908152600160205260408120548103611bb45760405163143c378b60e01b815260040160405180910390fd5b6001600160a01b0382165f9081526001602052604090205461099190426130b8565b5f610991825490565b5f6109c58383612389565b611bf481336123af565b50565b5f5f80516020613141833981519152611c108484611347565b611c8f575f848152602082815260408083206001600160a01b03871684529091529020805460ff19166001179055611c453390565b6001600160a01b0316836001600160a01b0316857f2f8788117e7eff1d82e926ec794901d17c78024a50270940304540a733656f0d60405160405180910390a46001915050610991565b5f915050610991565b5f5f80516020613141833981519152611cb18484611347565b15611c8f575f848152602082815260408083206001600160a01b0387168085529252808320805460ff1916905551339287917ff6391f5c32d9c69d2a47ea670b442974b53935d1edc7fd64eb21e047a839171b9190a46001915050610991565b600260095403611d3457604051633ee5aeb560e01b815260040160405180910390fd5b6002600955565b303303611d805760405162461bcd60e51b81526020600482015260136024820152724f6e6c792065787465726e616c2063616c6c7360681b6044820152606401610b1c565b5f546001600160a01b03838116911614611dd25760405162461bcd60e51b815260206004820152601360248201527226bab9ba103ab9b2903130b9b2903a37b5b2b760691b6044820152606401610b1c565b5f546040516323b872dd60e01b81526001600160a01b038681166004830152858116602483015260448201849052909116906323b872dd906064015b6020604051808303815f875af1158015611e2a573d5f803e3d5ffd5b505050506040513d601f19601f820116820180604052508101906113409190613099565b306001600160a01b037f0000000000000000000000000000000000000000000000000000000000000000161480611ed457507f00000000000000000000000000000000000000000000000000000000000000006001600160a01b0316611ec85f80516020613121833981519152546001600160a01b031690565b6001600160a01b031614155b1561150d5760405163703e46dd60e11b815260040160405180910390fd5b5f610cc481611bea565b816001600160a01b03166352d1902d6040518163ffffffff1660e01b8152600401602060405180830381865afa925050508015611f56575060408051601f3d908101601f19168201909252611f5391810190613082565b60015b611f7e57604051634c9c8ce360e01b81526001600160a01b0383166004820152602401610b1c565b5f805160206131218339815191528114611fae57604051632a87526960e21b815260048101829052602401610b1c565b610e1d83836123e8565b306001600160a01b037f0000000000000000000000000000000000000000000000000000000000000000161461150d5760405163703e46dd60e11b815260040160405180910390fd5b6001600160a01b038086165f90815260066020908152604080832088845282528083208785168452825280832093861683529290529081208054839290612049908490613043565b90915550505050505050565b5f807ff0c57e16840df040f15088dc2f81fe391c3923bec73e23a9662efc9c229c6a00610991565b61208561243d565b61150d612377565b6001600160a01b038086165f908152600560209081526040808320888452825280832087851684528252808320938616835292905290812080548392906120d5908490613043565b90915550506001600160a01b038086165f908152600760209081526040808320888452825280832093871683529290529081208054839290612049908490613043565b5f8282188284100282186109c5565b306001600160a01b03851603612168575f546001600160a01b0380841691160361215c5761215784848484612462565b610ce4565b6121578484848461254e565b5f546001600160a01b038084169116036121885761215784848484611d3b565b610ce4848484846126d5565b835f6121a28783878761150f565b9050828110156121be576121b987838787856127ae565b6121cb565b6121cb87838787876127ae565b50505050505050565b5f6121e18585858561150f565b90505f6121ef856001613043565b90505f6121fe87838787611215565b9050828111156121cb576001600160a01b038088165f9081526006602090815260408083208684528252808320848a16845282528083209388168352929052208390556121cb565b5f5b6001600160a01b0383165f90815260036020526040902061226890611bd6565b8110156122fd576001600160a01b0383165f9081526003602052604081206122909083611bdf565b90505f5b6001600160a01b0385165f9081526004602052604090206122b490611bd6565b8110156122f3576001600160a01b0385165f9081526004602052604081206122dc9083611bdf565b90506122ea86868386612839565b50600101612294565b5050600101612248565b50612309816001613043565b6001600160a01b0383165f81815260026020526040908190209290925590517fb693195b5ff3e376f8b562486abc516e10fe2467b75f0e4165e79cf4ab70dc41906123579084815260200190565b60405180910390a25050565b5f6109c5836001600160a01b038416612902565b61237f61243d565b611bf45f33611bf7565b5f825f01828154811061239e5761239e61301b565b905f5260205f200154905092915050565b6123b98282611347565b610cc45760405163e2517d3f60e01b81526001600160a01b038216600482015260248101839052604401610b1c565b6123f18261294e565b6040516001600160a01b038316907fbc7cd75a20ee27fd9adebab32041f755214dbc6bffa90cc0225b39da2e5c2d3b905f90a280511561243557610e1d82826129b1565b610cc4612a23565b612445612a42565b61150d57604051631afcd79f60e31b815260040160405180910390fd5b6001600160a01b03841630146124c45760405162461bcd60e51b815260206004820152602160248201527f4f6e6c7920636f6e74726163742063616e2063616c6c206469726563746c79206044820152603160f81b6064820152608401610b1c565b5f546001600160a01b038381169116146125165760405162461bcd60e51b815260206004820152601360248201527226bab9ba103ab9b2903130b9b2903a37b5b2b760691b6044820152606401610b1c565b5f5460405163a9059cbb60e01b81526001600160a01b038581166004830152602482018490529091169063a9059cbb90604401611e0e565b6001600160a01b03841630146125b05760405162461bcd60e51b815260206004820152602160248201527f4f6e6c7920636f6e74726163742063616e2063616c6c206469726563746c79206044820152601960f91b6064820152608401610b1c565b5f546001600160a01b038084169116036126075760405162461bcd60e51b815260206004820152601860248201527726bab9ba103ab9b29031bab9ba37b234b0b7103a37b5b2b760411b6044820152606401610b1c565b5f5460405163095ea7b360e01b81526001600160a01b038481166004830152602482018490529091169063095ea7b3906044016020604051808303815f875af1158015612656573d5f803e3d5ffd5b505050506040513d601f19601f8201168201806040525081019061267a9190613099565b506040516318950c7160e01b81526001600160a01b038481166004830152602482018390528316906318950c71906044015b5f604051808303815f87803b1580156126c3575f80fd5b505af115801561178d573d5f803e3d5ffd5b30330361271a5760405162461bcd60e51b81526020600482015260136024820152724f6e6c792065787465726e616c2063616c6c7360681b6044820152606401610b1c565b5f546001600160a01b038084169116036127715760405162461bcd60e51b815260206004820152601860248201527726bab9ba103ab9b29031bab9ba37b234b0b7103a37b5b2b760411b6044820152606401610b1c565b60405163c4652d8360e01b81526001600160a01b03858116600483015284811660248301526044820183905283169063c4652d83906064016126ac565b6001600160a01b038086165f908152600560209081526040808320888452825280832087851684528252808320938616835292905290812080548392906127f69084906130d7565b90915550506001600160a01b038086165f9081526007602090815260408083208884528252808320938716835292905290812080548392906120499084906130d7565b5f6128468585858561150f565b90505f61285f86612858876001613043565b8686611215565b90508181111561286c5750805b5f61287782846130d7565b905061289087612888886001613043565b87878561208d565b81156128a2576128a230858785612462565b846001600160a01b031686856001600160a01b03167f3ddb7f725ac69363a1df8296c965af4d268f31b082480dcd8419d284fb7fd34286866040516128f1929190918252602082015260400190565b60405180910390a450505050505050565b5f81815260018301602052604081205461294757508154600181810184555f848152602080822090930184905584548482528286019093526040902091909155610991565b505f610991565b806001600160a01b03163b5f0361298357604051634c9c8ce360e01b81526001600160a01b0382166004820152602401610b1c565b5f8051602061312183398151915280546001600160a01b0319166001600160a01b0392909216919091179055565b60605f80846001600160a01b0316846040516129cd91906130ea565b5f60405180830381855af49150503d805f8114612a05576040519150601f19603f3d011682016040523d82523d5f602084013e612a0a565b606091505b5091509150612a1a858383612a5b565b95945050505050565b341561150d5760405163b398979f60e01b815260040160405180910390fd5b5f612a4b612055565b54600160401b900460ff16919050565b606082612a7057612a6b82612ab7565b6109c5565b8151158015612a8757506001600160a01b0384163b155b15612ab057604051639996b31560e01b81526001600160a01b0385166004820152602401610b1c565b50806109c5565b805115612ac75780518082602001fd5b60405163d6bda27560e01b815260040160405180910390fd5b5f60208284031215612af0575f80fd5b81356001600160e01b0319811681146109c5575f80fd5b6001600160a01b0381168114611bf4575f80fd5b5f805f8060808587031215612b2e575f80fd5b8435612b3981612b07565b9350602085013592506040850135612b5081612b07565b91506060850135612b6081612b07565b939692955090935050565b5f805f60608486031215612b7d575f80fd5b8335612b8881612b07565b9250602084013591506040840135612b9f81612b07565b809150509250925092565b5f60208284031215612bba575f80fd5b81356109c581612b07565b602080825282518282018190525f918401906040840190835b81811015610f9a5783516001600160a01b0316835260209384019390920191600101612bde565b5f8060408385031215612c16575f80fd5b8235612c2181612b07565b946020939093013593505050565b5f60208284031215612c3f575f80fd5b5035919050565b5f8060408385031215612c57575f80fd5b823591506020830135612c6981612b07565b809150509250929050565b5f805f60608486031215612c86575f80fd5b8335612c9181612b07565b92506020840135612ca181612b07565b91506040840135612b9f81612b07565b5f8060408385031215612cc2575f80fd5b8235612ccd81612b07565b91506020830135612c6981612b07565b5f8083601f840112612ced575f80fd5b5081356001600160401b03811115612d03575f80fd5b6020830191508360208260051b8501011115612d1d575f80fd5b9250929050565b5f805f805f8060608789031215612d39575f80fd5b86356001600160401b03811115612d4e575f80fd5b612d5a89828a01612cdd565b90975095505060208701356001600160401b03811115612d78575f80fd5b612d8489828a01612cdd565b90955093505060408701356001600160401b03811115612da2575f80fd5b612dae89828a01612cdd565b979a9699509497509295939492505050565b634e487b7160e01b5f52604160045260245ffd5b5f8060408385031215612de5575f80fd5b8235612df081612b07565b915060208301356001600160401b03811115612e0a575f80fd5b8301601f81018513612e1a575f80fd5b80356001600160401b03811115612e3357612e33612dc0565b604051601f8201601f19908116603f011681016001600160401b0381118282101715612e6157612e61612dc0565b604052818152828201602001871015612e78575f80fd5b816020840160208301375f602083830101528093505050509250929050565b5f805f60608486031215612ea9575f80fd5b8335612eb481612b07565b92506020840135612ec481612b07565b929592945050506040919091013590565b5f805f805f805f806080898b031215612eec575f80fd5b88356001600160401b03811115612f01575f80fd5b612f0d8b828c01612cdd565b90995097505060208901356001600160401b03811115612f2b575f80fd5b612f378b828c01612cdd565b90975095505060408901356001600160401b03811115612f55575f80fd5b612f618b828c01612cdd565b90955093505060608901356001600160401b03811115612f7f575f80fd5b612f8b8b828c01612cdd565b999c989b5096995094979396929594505050565b602081525f82518060208401528060208501604085015e5f604082850101526040601f19601f83011684010191505092915050565b5f805f60408486031215612fe6575f80fd5b8335925060208401356001600160401b03811115613002575f80fd5b61300e86828701612cdd565b9497909650939450505050565b634e487b7160e01b5f52603260045260245ffd5b634e487b7160e01b5f52601160045260245ffd5b808201808211156109915761099161302f565b5f600182016130675761306761302f565b5060010190565b634e487b7160e01b5f52600160045260245ffd5b5f60208284031215613092575f80fd5b5051919050565b5f602082840312156130a9575f80fd5b815180151581146109c5575f80fd5b5f826130d257634e487b7160e01b5f52601260045260245ffd5b500490565b818103818111156109915761099161302f565b5f82518060208501845e5f92019182525091905056fedc72ed553f2544c34465af23b847953efeb813428162d767f9ba5f4013be6760360894a13ba1a3210667c828492db98dca3e2076cc3735a920a3ca505d382bbc02dd7bc7dec4dceedda775e58dd541e08a116c6c53815c0bd028192f7b626800a26469706673582212205571cc039e7ccc6c1aa4d5cd15eca00c52dcb54a09336b63667b5653e3e51d0264736f6c634300081a0033","linkReferences":{}},"methodIdentifiers":{"DEFAULT_ADMIN_ROLE()":"a217fddf","UPGRADE_INTERFACE_VERSION()":"ad3cb1cc","WHITELIST_ROLE()":"7a997ab7","acceptGenesisCeremony()":"92a2ebf3","computeAllStake(address,uint256)":"55bdbe4c","computeAllStakeForAcceptingEpoch(address)":"574663a9","currentAcceptingEpochByDomain(address)":"b1de97f7","domainGenesisAccepted(address)":"d1ba90ff","epochDurationByDomain(address)":"3bccf635","getAcceptingEpoch(address)":"22fceb75","getAttesterStake(address,uint256,address)":"24fdfddf","getAttesterStakeForAcceptingEpoch(address,address)":"3debeadc","getCustodianStake(address,uint256,address)":"0ce52af5","getCustodianStakeForAcceptingEpoch(address,address)":"9db92f68","getEpochByL1BlockTime(address)":"d980b40d","getEpochDuration(address)":"5c534359","getNextAcceptingEpochWithException(address)":"771fcfc4","getNextPresentEpochWithException(address)":"57dd6a94","getRegisteredAttesters(address)":"1789aeb4","getRegisteredCustodians(address)":"341d5ef5","getRoleAdmin(bytes32)":"248a9ca3","getStake(address,uint256,address,address)":"93dfb85c","getStakeForAcceptingEpoch(address,address,address)":"a78d1fef","getStakedAttestersForAcceptingEpoch(address)":"4234a479","getUnstake(address,uint256,address,address)":"7d93768b","getUnstakeForAcceptingEpoch(address,address,address)":"34eada3a","grantRole(bytes32,address)":"2f2ff15d","hasRole(bytes32,address)":"91d14854","initialize()":"8129fc1c","initialize(address)":"c4d66de8","proxiableUUID()":"52d1902d","registerDomain(uint256,address[])":"d37304f8","removeAddressFromWhitelist(address)":"286dd3f5","renounceRole(bytes32,address)":"36568abe","revokeRole(bytes32,address)":"d547741f","rewardArray(address[],uint256[],address[])":"4e76a139","rewardFromDomain(address,uint256,address)":"5e00bf46","rollOverEpoch()":"a887b71c","setAcceptingEpoch(address,uint256)":"1dc8b949","slash(address[],address[],uint256[],uint256[])":"a885c975","stake(address,address,uint256)":"bf6eac2f","stakesByDomainEpochCustodian(address,uint256,address)":"86af70d1","stakesByDomainEpochCustodianAttester(address,uint256,address,address)":"0c8f522f","supportsInterface(bytes4)":"01ffc9a7","token()":"fc0c546a","unstake(address,address,uint256)":"60829f8a","unstakesByDomainEpochCustodianAttester(address,uint256,address,address)":"e6e3fb3a","upgradeToAndCall(address,bytes)":"4f1ef286","whitelistAddress(address)":"41566585"},"storageLayout":{"storage":[{"astId":63950,"contract":"src/staking/MovementStaking.sol:MovementStaking","label":"token","offset":0,"slot":"0","type":"t_contract(IERC20)43848"},{"astId":63955,"contract":"src/staking/MovementStaking.sol:MovementStaking","label":"epochDurationByDomain","offset":0,"slot":"1","type":"t_mapping(t_address,t_uint256)"},{"astId":63960,"contract":"src/staking/MovementStaking.sol:MovementStaking","label":"currentAcceptingEpochByDomain","offset":0,"slot":"2","type":"t_mapping(t_address,t_uint256)"},{"astId":63965,"contract":"src/staking/MovementStaking.sol:MovementStaking","label":"registeredAttestersByDomain","offset":0,"slot":"3","type":"t_mapping(t_address,t_struct(AddressSet)51902_storage)"},{"astId":63970,"contract":"src/staking/MovementStaking.sol:MovementStaking","label":"registeredCustodiansByDomain","offset":0,"slot":"4","type":"t_mapping(t_address,t_struct(AddressSet)51902_storage)"},{"astId":63981,"contract":"src/staking/MovementStaking.sol:MovementStaking","label":"stakesByDomainEpochCustodianAttester","offset":0,"slot":"5","type":"t_mapping(t_address,t_mapping(t_uint256,t_mapping(t_address,t_mapping(t_address,t_uint256))))"},{"astId":63992,"contract":"src/staking/MovementStaking.sol:MovementStaking","label":"unstakesByDomainEpochCustodianAttester","offset":0,"slot":"6","type":"t_mapping(t_address,t_mapping(t_uint256,t_mapping(t_address,t_mapping(t_address,t_uint256))))"},{"astId":64001,"contract":"src/staking/MovementStaking.sol:MovementStaking","label":"stakesByDomainEpochCustodian","offset":0,"slot":"7","type":"t_mapping(t_address,t_mapping(t_uint256,t_mapping(t_address,t_uint256)))"},{"astId":64005,"contract":"src/staking/MovementStaking.sol:MovementStaking","label":"domainGenesisAccepted","offset":0,"slot":"8","type":"t_mapping(t_address,t_bool)"},{"astId":45804,"contract":"src/staking/MovementStaking.sol:MovementStaking","label":"_status","offset":0,"slot":"9","type":"t_uint256"}],"types":{"t_address":{"encoding":"inplace","label":"address","numberOfBytes":"20"},"t_array(t_bytes32)dyn_storage":{"encoding":"dynamic_array","label":"bytes32[]","numberOfBytes":"32","base":"t_bytes32"},"t_bool":{"encoding":"inplace","label":"bool","numberOfBytes":"1"},"t_bytes32":{"encoding":"inplace","label":"bytes32","numberOfBytes":"32"},"t_contract(IERC20)43848":{"encoding":"inplace","label":"contract IERC20","numberOfBytes":"20"},"t_mapping(t_address,t_bool)":{"encoding":"mapping","key":"t_address","label":"mapping(address => bool)","numberOfBytes":"32","value":"t_bool"},"t_mapping(t_address,t_mapping(t_address,t_uint256))":{"encoding":"mapping","key":"t_address","label":"mapping(address => mapping(address => uint256))","numberOfBytes":"32","value":"t_mapping(t_address,t_uint256)"},"t_mapping(t_address,t_mapping(t_uint256,t_mapping(t_address,t_mapping(t_address,t_uint256))))":{"encoding":"mapping","key":"t_address","label":"mapping(address => mapping(uint256 => mapping(address => mapping(address => uint256))))","numberOfBytes":"32","value":"t_mapping(t_uint256,t_mapping(t_address,t_mapping(t_address,t_uint256)))"},"t_mapping(t_address,t_mapping(t_uint256,t_mapping(t_address,t_uint256)))":{"encoding":"mapping","key":"t_address","label":"mapping(address => mapping(uint256 => mapping(address => uint256)))","numberOfBytes":"32","value":"t_mapping(t_uint256,t_mapping(t_address,t_uint256))"},"t_mapping(t_address,t_struct(AddressSet)51902_storage)":{"encoding":"mapping","key":"t_address","label":"mapping(address => struct EnumerableSet.AddressSet)","numberOfBytes":"32","value":"t_struct(AddressSet)51902_storage"},"t_mapping(t_address,t_uint256)":{"encoding":"mapping","key":"t_address","label":"mapping(address => uint256)","numberOfBytes":"32","value":"t_uint256"},"t_mapping(t_bytes32,t_uint256)":{"encoding":"mapping","key":"t_bytes32","label":"mapping(bytes32 => uint256)","numberOfBytes":"32","value":"t_uint256"},"t_mapping(t_uint256,t_mapping(t_address,t_mapping(t_address,t_uint256)))":{"encoding":"mapping","key":"t_uint256","label":"mapping(uint256 => mapping(address => mapping(address => uint256)))","numberOfBytes":"32","value":"t_mapping(t_address,t_mapping(t_address,t_uint256))"},"t_mapping(t_uint256,t_mapping(t_address,t_uint256))":{"encoding":"mapping","key":"t_uint256","label":"mapping(uint256 => mapping(address => uint256))","numberOfBytes":"32","value":"t_mapping(t_address,t_uint256)"},"t_struct(AddressSet)51902_storage":{"encoding":"inplace","label":"struct EnumerableSet.AddressSet","numberOfBytes":"64","members":[{"astId":51901,"contract":"src/staking/MovementStaking.sol:MovementStaking","label":"_inner","offset":0,"slot":"0","type":"t_struct(Set)51531_storage"}]},"t_struct(Set)51531_storage":{"encoding":"inplace","label":"struct EnumerableSet.Set","numberOfBytes":"64","members":[{"astId":51526,"contract":"src/staking/MovementStaking.sol:MovementStaking","label":"_values","offset":0,"slot":"0","type":"t_array(t_bytes32)dyn_storage"},{"astId":51530,"contract":"src/staking/MovementStaking.sol:MovementStaking","label":"_positions","offset":0,"slot":"1","type":"t_mapping(t_bytes32,t_uint256)"}]},"t_uint256":{"encoding":"inplace","label":"uint256","numberOfBytes":"32"}}},"id":118}