{"abi":[{"type":"function","name":"COMMITMENT_ADMIN","inputs":[],"outputs":[{"name":"","type":"bytes32","internalType":"bytes32"}],"stateMutability":"view"},{"type":"function","name":"DEFAULT_ADMIN_ROLE","inputs":[],"outputs":[{"name":"","type":"bytes32","internalType":"bytes32"}],"stateMutability":"view"},{"type":"function","name":"TRUSTED_ATTESTER","inputs":[],"outputs":[{"name":"","type":"bytes32","internalType":"bytes32"}],"stateMutability":"view"},{"type":"function","name":"UPGRADE_INTERFACE_VERSION","inputs":[],"outputs":[{"name":"","type":"string","internalType":"string"}],"stateMutability":"view"},{"type":"function","name":"acceptGenesisCeremony","inputs":[],"outputs":[],"stateMutability":"nonpayable"},{"type":"function","name":"attesterRewardPoints","inputs":[{"name":"epoch","type":"uint256","internalType":"uint256"},{"name":"attester","type":"address","internalType":"address"}],"outputs":[{"name":"points","type":"uint256","internalType":"uint256"}],"stateMutability":"view"},{"type":"function","name":"batchGrantCommitmentAdmin","inputs":[{"name":"accounts","type":"address[]","internalType":"address[]"}],"outputs":[],"stateMutability":"nonpayable"},{"type":"function","name":"batchGrantTrustedAttester","inputs":[{"name":"attesters","type":"address[]","internalType":"address[]"}],"outputs":[],"stateMutability":"nonpayable"},{"type":"function","name":"commitmentFirstSeenAt","inputs":[{"name":"superBlockHeight","type":"uint256","internalType":"uint256"},{"name":"commitment","type":"bytes32","internalType":"bytes32"}],"outputs":[{"name":"timestamp","type":"uint256","internalType":"uint256"}],"stateMutability":"view"},{"type":"function","name":"commitmentStake","inputs":[{"name":"superBlockHeight","type":"uint256","internalType":"uint256"},{"name":"commitement","type":"bytes32","internalType":"bytes32"}],"outputs":[{"name":"stake","type":"uint256","internalType":"uint256"}],"stateMutability":"view"},{"type":"function","name":"commitments","inputs":[{"name":"superBlockHeight","type":"uint256","internalType":"uint256"},{"name":"attester","type":"address","internalType":"address"}],"outputs":[{"name":"height","type":"uint256","internalType":"uint256"},{"name":"commitment","type":"bytes32","internalType":"bytes32"},{"name":"blockId","type":"bytes32","internalType":"bytes32"}],"stateMutability":"view"},{"type":"function","name":"createSuperBlockCommitment","inputs":[{"name":"height","type":"uint256","internalType":"uint256"},{"name":"commitment","type":"bytes32","internalType":"bytes32"},{"name":"blockId","type":"bytes32","internalType":"bytes32"}],"outputs":[{"name":"","type":"tuple","internalType":"struct PCPStorage.SuperBlockCommitment","components":[{"name":"height","type":"uint256","internalType":"uint256"},{"name":"commitment","type":"bytes32","internalType":"bytes32"},{"name":"blockId","type":"bytes32","internalType":"bytes32"}]}],"stateMutability":"pure"},{"type":"function","name":"forceLatestCommitment","inputs":[{"name":"superBlockCommitment","type":"tuple","internalType":"struct PCPStorage.SuperBlockCommitment","components":[{"name":"height","type":"uint256","internalType":"uint256"},{"name":"commitment","type":"bytes32","internalType":"bytes32"},{"name":"blockId","type":"bytes32","internalType":"bytes32"}]}],"outputs":[],"stateMutability":"nonpayable"},{"type":"function","name":"getAcceptingEpoch","inputs":[],"outputs":[{"name":"","type":"uint256","internalType":"uint256"}],"stateMutability":"view"},{"type":"function","name":"getAttesterRewardPoints","inputs":[{"name":"epoch","type":"uint256","internalType":"uint256"},{"name":"attester","type":"address","internalType":"address"}],"outputs":[{"name":"","type":"uint256","internalType":"uint256"}],"stateMutability":"view"},{"type":"function","name":"getAttesterStake","inputs":[{"name":"epoch","type":"uint256","internalType":"uint256"},{"name":"attester","type":"address","internalType":"address"}],"outputs":[{"name":"","type":"uint256","internalType":"uint256"}],"stateMutability":"view"},{"type":"function","name":"getAttesterStakeForAcceptingEpoch","inputs":[{"name":"attester","type":"address","internalType":"address"}],"outputs":[{"name":"","type":"uint256","internalType":"uint256"}],"stateMutability":"view"},{"type":"function","name":"getCommitmentByAttester","inputs":[{"name":"height","type":"uint256","internalType":"uint256"},{"name":"attester","type":"address","internalType":"address"}],"outputs":[{"name":"","type":"tuple","internalType":"struct PCPStorage.SuperBlockCommitment","components":[{"name":"height","type":"uint256","internalType":"uint256"},{"name":"commitment","type":"bytes32","internalType":"bytes32"},{"name":"blockId","type":"bytes32","internalType":"bytes32"}]}],"stateMutability":"view"},{"type":"function","name":"getCommitmentFirstSeenAt","inputs":[{"name":"superBlockCommitment","type":"tuple","internalType":"struct PCPStorage.SuperBlockCommitment","components":[{"name":"height","type":"uint256","internalType":"uint256"},{"name":"commitment","type":"bytes32","internalType":"bytes32"},{"name":"blockId","type":"bytes32","internalType":"bytes32"}]}],"outputs":[{"name":"","type":"uint256","internalType":"uint256"}],"stateMutability":"view"},{"type":"function","name":"getCustodianStake","inputs":[{"name":"epoch","type":"uint256","internalType":"uint256"},{"name":"custodian","type":"address","internalType":"address"}],"outputs":[{"name":"","type":"uint256","internalType":"uint256"}],"stateMutability":"view"},{"type":"function","name":"getCustodianStakeForAcceptingEpoch","inputs":[{"name":"custodian","type":"address","internalType":"address"}],"outputs":[{"name":"","type":"uint256","internalType":"uint256"}],"stateMutability":"view"},{"type":"function","name":"getEpochDuration","inputs":[],"outputs":[{"name":"","type":"uint256","internalType":"uint256"}],"stateMutability":"view"},{"type":"function","name":"getEpochStartTime","inputs":[],"outputs":[{"name":"","type":"uint256","internalType":"uint256"}],"stateMutability":"view"},{"type":"function","name":"getLastPostconfirmedSuperBlockHeight","inputs":[],"outputs":[{"name":"","type":"uint256","internalType":"uint256"}],"stateMutability":"view"},{"type":"function","name":"getMaxTolerableSuperBlockHeight","inputs":[],"outputs":[{"name":"","type":"uint256","internalType":"uint256"}],"stateMutability":"view"},{"type":"function","name":"getMinCommitmentAgeForPostconfirmation","inputs":[],"outputs":[{"name":"","type":"uint256","internalType":"uint256"}],"stateMutability":"view"},{"type":"function","name":"getNextAcceptingEpochWithException","inputs":[],"outputs":[{"name":"","type":"uint256","internalType":"uint256"}],"stateMutability":"view"},{"type":"function","name":"getPostconfirmedCommitment","inputs":[{"name":"height","type":"uint256","internalType":"uint256"}],"outputs":[{"name":"","type":"tuple","internalType":"struct PCPStorage.SuperBlockCommitment","components":[{"name":"height","type":"uint256","internalType":"uint256"},{"name":"commitment","type":"bytes32","internalType":"bytes32"},{"name":"blockId","type":"bytes32","internalType":"bytes32"}]}],"stateMutability":"view"},{"type":"function","name":"getPostconfirmer","inputs":[],"outputs":[{"name":"","type":"address","internalType":"address"}],"stateMutability":"view"},{"type":"function","name":"getPostconfirmerDuration","inputs":[],"outputs":[{"name":"","type":"uint256","internalType":"uint256"}],"stateMutability":"view"},{"type":"function","name":"getPostconfirmerPrivilegeDuration","inputs":[],"outputs":[{"name":"","type":"uint256","internalType":"uint256"}],"stateMutability":"view"},{"type":"function","name":"getPostconfirmerRewardPoints","inputs":[{"name":"epoch","type":"uint256","internalType":"uint256"},{"name":"postconfirmer","type":"address","internalType":"address"}],"outputs":[{"name":"","type":"uint256","internalType":"uint256"}],"stateMutability":"view"},{"type":"function","name":"getPostconfirmerStartTime","inputs":[],"outputs":[{"name":"","type":"uint256","internalType":"uint256"}],"stateMutability":"view"},{"type":"function","name":"getPresentEpoch","inputs":[],"outputs":[{"name":"","type":"uint256","internalType":"uint256"}],"stateMutability":"view"},{"type":"function","name":"getRoleAdmin","inputs":[{"name":"role","type":"bytes32","internalType":"bytes32"}],"outputs":[{"name":"","type":"bytes32","internalType":"bytes32"}],"stateMutability":"view"},{"type":"function","name":"getStake","inputs":[{"name":"epoch","type":"uint256","internalType":"uint256"},{"name":"custodian","type":"address","internalType":"address"},{"name":"attester","type":"address","internalType":"address"}],"outputs":[{"name":"","type":"uint256","internalType":"uint256"}],"stateMutability":"view"},{"type":"function","name":"getStakeForAcceptingEpoch","inputs":[{"name":"custodian","type":"address","internalType":"address"},{"name":"attester","type":"address","internalType":"address"}],"outputs":[{"name":"","type":"uint256","internalType":"uint256"}],"stateMutability":"view"},{"type":"function","name":"getStakedAttestersForAcceptingEpoch","inputs":[],"outputs":[{"name":"","type":"address[]","internalType":"address[]"}],"stateMutability":"view"},{"type":"function","name":"getSuperBlockHeightAssignedEpoch","inputs":[{"name":"height","type":"uint256","internalType":"uint256"}],"outputs":[{"name":"","type":"uint256","internalType":"uint256"}],"stateMutability":"view"},{"type":"function","name":"getTotalStake","inputs":[{"name":"epoch","type":"uint256","internalType":"uint256"}],"outputs":[{"name":"","type":"uint256","internalType":"uint256"}],"stateMutability":"view"},{"type":"function","name":"getTotalStakeForAcceptingEpoch","inputs":[],"outputs":[{"name":"","type":"uint256","internalType":"uint256"}],"stateMutability":"view"},{"type":"function","name":"getValidatorCommitmentAtSuperBlockHeight","inputs":[{"name":"height","type":"uint256","internalType":"uint256"},{"name":"attester","type":"address","internalType":"address"}],"outputs":[{"name":"","type":"tuple","internalType":"struct PCPStorage.SuperBlockCommitment","components":[{"name":"height","type":"uint256","internalType":"uint256"},{"name":"commitment","type":"bytes32","internalType":"bytes32"},{"name":"blockId","type":"bytes32","internalType":"bytes32"}]}],"stateMutability":"view"},{"type":"function","name":"grantCommitmentAdmin","inputs":[{"name":"account","type":"address","internalType":"address"}],"outputs":[],"stateMutability":"nonpayable"},{"type":"function","name":"grantRole","inputs":[{"name":"role","type":"bytes32","internalType":"bytes32"},{"name":"account","type":"address","internalType":"address"}],"outputs":[],"stateMutability":"nonpayable"},{"type":"function","name":"grantTrustedAttester","inputs":[{"name":"attester","type":"address","internalType":"address"}],"outputs":[],"stateMutability":"nonpayable"},{"type":"function","name":"hasRole","inputs":[{"name":"role","type":"bytes32","internalType":"bytes32"},{"name":"account","type":"address","internalType":"address"}],"outputs":[{"name":"","type":"bool","internalType":"bool"}],"stateMutability":"view"},{"type":"function","name":"initialize","inputs":[{"name":"_stakingContract","type":"address","internalType":"contract IMovementStaking"},{"name":"_lastPostconfirmedSuperBlockHeight","type":"uint256","internalType":"uint256"},{"name":"_leadingSuperBlockTolerance","type":"uint256","internalType":"uint256"},{"name":"_epochDuration","type":"uint256","internalType":"uint256"},{"name":"_custodians","type":"address[]","internalType":"address[]"},{"name":"_postconfirmerDuration","type":"uint256","internalType":"uint256"},{"name":"_moveTokenAddress","type":"address","internalType":"address"}],"outputs":[],"stateMutability":"nonpayable"},{"type":"function","name":"initialize","inputs":[],"outputs":[],"stateMutability":"nonpayable"},{"type":"function","name":"isCommitted","inputs":[{"name":"height","type":"uint256","internalType":"uint256"}],"outputs":[{"name":"","type":"bool","internalType":"bool"}],"stateMutability":"view"},{"type":"function","name":"isPostconfirmed","inputs":[{"name":"height","type":"uint256","internalType":"uint256"}],"outputs":[{"name":"","type":"bool","internalType":"bool"}],"stateMutability":"view"},{"type":"function","name":"isWithinPostconfirmerPrivilegeDuration","inputs":[{"name":"superBlockCommitment","type":"tuple","internalType":"struct PCPStorage.SuperBlockCommitment","components":[{"name":"height","type":"uint256","internalType":"uint256"},{"name":"commitment","type":"bytes32","internalType":"bytes32"},{"name":"blockId","type":"bytes32","internalType":"bytes32"}]}],"outputs":[{"name":"","type":"bool","internalType":"bool"}],"stateMutability":"view"},{"type":"function","name":"lastPostconfirmedSuperBlockHeight","inputs":[],"outputs":[{"name":"","type":"uint256","internalType":"uint256"}],"stateMutability":"view"},{"type":"function","name":"leadingSuperBlockTolerance","inputs":[],"outputs":[{"name":"","type":"uint256","internalType":"uint256"}],"stateMutability":"view"},{"type":"function","name":"minCommitmentAgeForPostconfirmation","inputs":[],"outputs":[{"name":"","type":"uint256","internalType":"uint256"}],"stateMutability":"view"},{"type":"function","name":"moveTokenAddress","inputs":[],"outputs":[{"name":"","type":"address","internalType":"address"}],"stateMutability":"view"},{"type":"function","name":"openAttestationEnabled","inputs":[],"outputs":[{"name":"","type":"bool","internalType":"bool"}],"stateMutability":"view"},{"type":"function","name":"postconfirmSuperBlocksAndRollover","inputs":[],"outputs":[],"stateMutability":"nonpayable"},{"type":"function","name":"postconfirmedAtL1BlockHeight","inputs":[{"name":"superBlockHeight","type":"uint256","internalType":"uint256"}],"outputs":[{"name":"L1BlockHeight","type":"uint256","internalType":"uint256"}],"stateMutability":"view"},{"type":"function","name":"postconfirmedAtL1BlockHeightByPostconfirmer","inputs":[{"name":"superBlockHeight","type":"uint256","internalType":"uint256"}],"outputs":[{"name":"L1BlockHeight","type":"uint256","internalType":"uint256"}],"stateMutability":"view"},{"type":"function","name":"postconfirmedAtL1BlockTimestamp","inputs":[{"name":"superBlockHeight","type":"uint256","internalType":"uint256"}],"outputs":[{"name":"L1BlockTimestamp","type":"uint256","internalType":"uint256"}],"stateMutability":"view"},{"type":"function","name":"postconfirmedBy","inputs":[{"name":"superBlockHeight","type":"uint256","internalType":"uint256"}],"outputs":[{"name":"attester","type":"address","internalType":"address"}],"stateMutability":"view"},{"type":"function","name":"postconfirmedByPostconfirmer","inputs":[{"name":"superBlockHeight","type":"uint256","internalType":"uint256"}],"outputs":[{"name":"","type":"bool","internalType":"bool"}],"stateMutability":"view"},{"type":"function","name":"postconfirmedSuperBlocks","inputs":[{"name":"superBlockHeight","type":"uint256","internalType":"uint256"}],"outputs":[{"name":"height","type":"uint256","internalType":"uint256"},{"name":"commitment","type":"bytes32","internalType":"bytes32"},{"name":"blockId","type":"bytes32","internalType":"bytes32"}],"stateMutability":"view"},{"type":"function","name":"postconfirmedSuperBlocksVersion","inputs":[],"outputs":[{"name":"","type":"uint256","internalType":"uint256"}],"stateMutability":"view"},{"type":"function","name":"postconfirmerDuration","inputs":[],"outputs":[{"name":"","type":"uint256","internalType":"uint256"}],"stateMutability":"view"},{"type":"function","name":"postconfirmerPrivilegeDuration","inputs":[],"outputs":[{"name":"","type":"uint256","internalType":"uint256"}],"stateMutability":"view"},{"type":"function","name":"postconfirmerRewardPoints","inputs":[{"name":"epoch","type":"uint256","internalType":"uint256"},{"name":"postconfirmer","type":"address","internalType":"address"}],"outputs":[{"name":"points","type":"uint256","internalType":"uint256"}],"stateMutability":"view"},{"type":"function","name":"proxiableUUID","inputs":[],"outputs":[{"name":"","type":"bytes32","internalType":"bytes32"}],"stateMutability":"view"},{"type":"function","name":"renounceRole","inputs":[{"name":"role","type":"bytes32","internalType":"bytes32"},{"name":"callerConfirmation","type":"address","internalType":"address"}],"outputs":[],"stateMutability":"nonpayable"},{"type":"function","name":"revokeRole","inputs":[{"name":"role","type":"bytes32","internalType":"bytes32"},{"name":"account","type":"address","internalType":"address"}],"outputs":[],"stateMutability":"nonpayable"},{"type":"function","name":"rewardPerAttestationPoint","inputs":[],"outputs":[{"name":"","type":"uint256","internalType":"uint256"}],"stateMutability":"view"},{"type":"function","name":"rewardPerPostconfirmationPoint","inputs":[],"outputs":[{"name":"","type":"uint256","internalType":"uint256"}],"stateMutability":"view"},{"type":"function","name":"setAcceptingEpoch","inputs":[{"name":"newEpoch","type":"uint256","internalType":"uint256"}],"outputs":[],"stateMutability":"nonpayable"},{"type":"function","name":"setMinCommitmentAgeForPostconfirmation","inputs":[{"name":"_minCommitmentAgeForPostconfirmation","type":"uint256","internalType":"uint256"}],"outputs":[],"stateMutability":"nonpayable"},{"type":"function","name":"setOpenAttestationEnabled","inputs":[{"name":"enabled","type":"bool","internalType":"bool"}],"outputs":[],"stateMutability":"nonpayable"},{"type":"function","name":"setPostconfirmedCommitmentAtBlockHeight","inputs":[{"name":"superBlockCommitment","type":"tuple","internalType":"struct PCPStorage.SuperBlockCommitment","components":[{"name":"height","type":"uint256","internalType":"uint256"},{"name":"commitment","type":"bytes32","internalType":"bytes32"},{"name":"blockId","type":"bytes32","internalType":"bytes32"}]}],"outputs":[],"stateMutability":"nonpayable"},{"type":"function","name":"setPostconfirmerDuration","inputs":[{"name":"_postconfirmerDuration","type":"uint256","internalType":"uint256"}],"outputs":[],"stateMutability":"nonpayable"},{"type":"function","name":"setPostconfirmerPrivilegeDuration","inputs":[{"name":"_postconfirmerPrivilegeDuration","type":"uint256","internalType":"uint256"}],"outputs":[],"stateMutability":"nonpayable"},{"type":"function","name":"setRewardPerAttestationPoint","inputs":[{"name":"rewardPerPoint","type":"uint256","internalType":"uint256"}],"outputs":[],"stateMutability":"nonpayable"},{"type":"function","name":"setRewardPerPostconfirmationPoint","inputs":[{"name":"rewardPerPoint","type":"uint256","internalType":"uint256"}],"outputs":[],"stateMutability":"nonpayable"},{"type":"function","name":"stakingContract","inputs":[],"outputs":[{"name":"","type":"address","internalType":"contract IMovementStaking"}],"stateMutability":"view"},{"type":"function","name":"submitBatchSuperBlockCommitment","inputs":[{"name":"superBlockCommitments","type":"tuple[]","internalType":"struct PCPStorage.SuperBlockCommitment[]","components":[{"name":"height","type":"uint256","internalType":"uint256"},{"name":"commitment","type":"bytes32","internalType":"bytes32"},{"name":"blockId","type":"bytes32","internalType":"bytes32"}]}],"outputs":[],"stateMutability":"nonpayable"},{"type":"function","name":"submitSuperBlockCommitment","inputs":[{"name":"commitment","type":"tuple","internalType":"struct PCPStorage.SuperBlockCommitment","components":[{"name":"height","type":"uint256","internalType":"uint256"},{"name":"commitment","type":"bytes32","internalType":"bytes32"},{"name":"blockId","type":"bytes32","internalType":"bytes32"}]}],"outputs":[],"stateMutability":"nonpayable"},{"type":"function","name":"superBlockHeightAssignedEpoch","inputs":[{"name":"superBlockHeight","type":"uint256","internalType":"uint256"}],"outputs":[{"name":"epoch","type":"uint256","internalType":"uint256"}],"stateMutability":"view"},{"type":"function","name":"supportsInterface","inputs":[{"name":"interfaceId","type":"bytes4","internalType":"bytes4"}],"outputs":[{"name":"","type":"bool","internalType":"bool"}],"stateMutability":"view"},{"type":"function","name":"upgradeToAndCall","inputs":[{"name":"newImplementation","type":"address","internalType":"address"},{"name":"data","type":"bytes","internalType":"bytes"}],"outputs":[],"stateMutability":"payable"},{"type":"function","name":"versionedPostconfirmedSuperBlocks","inputs":[{"name":"","type":"uint256","internalType":"uint256"},{"name":"superBlockHeight","type":"uint256","internalType":"uint256"}],"outputs":[{"name":"height","type":"uint256","internalType":"uint256"},{"name":"commitment","type":"bytes32","internalType":"bytes32"},{"name":"blockId","type":"bytes32","internalType":"bytes32"}],"stateMutability":"view"},{"type":"event","name":"Initialized","inputs":[{"name":"version","type":"uint64","indexed":false,"internalType":"uint64"}],"anonymous":false},{"type":"event","name":"RoleAdminChanged","inputs":[{"name":"role","type":"bytes32","indexed":true,"internalType":"bytes32"},{"name":"previousAdminRole","type":"bytes32","indexed":true,"internalType":"bytes32"},{"name":"newAdminRole","type":"bytes32","indexed":true,"internalType":"bytes32"}],"anonymous":false},{"type":"event","name":"RoleGranted","inputs":[{"name":"role","type":"bytes32","indexed":true,"internalType":"bytes32"},{"name":"account","type":"address","indexed":true,"internalType":"address"},{"name":"sender","type":"address","indexed":true,"internalType":"address"}],"anonymous":false},{"type":"event","name":"RoleRevoked","inputs":[{"name":"role","type":"bytes32","indexed":true,"internalType":"bytes32"},{"name":"account","type":"address","indexed":true,"internalType":"address"},{"name":"sender","type":"address","indexed":true,"internalType":"address"}],"anonymous":false},{"type":"event","name":"SuperBlockCommitmentSubmitted","inputs":[{"name":"blockHash","type":"bytes32","indexed":true,"internalType":"bytes32"},{"name":"stateCommitment","type":"bytes32","indexed":false,"internalType":"bytes32"},{"name":"attesterStake","type":"uint256","indexed":false,"internalType":"uint256"}],"anonymous":false},{"type":"event","name":"SuperBlockPostconfirmed","inputs":[{"name":"blockHash","type":"bytes32","indexed":true,"internalType":"bytes32"},{"name":"stateCommitment","type":"bytes32","indexed":false,"internalType":"bytes32"},{"name":"height","type":"uint256","indexed":false,"internalType":"uint256"}],"anonymous":false},{"type":"event","name":"Upgraded","inputs":[{"name":"implementation","type":"address","indexed":true,"internalType":"address"}],"anonymous":false},{"type":"error","name":"AccessControlBadConfirmation","inputs":[]},{"type":"error","name":"AccessControlUnauthorizedAccount","inputs":[{"name":"account","type":"address","internalType":"address"},{"name":"neededRole","type":"bytes32","internalType":"bytes32"}]},{"type":"error","name":"AddressEmptyCode","inputs":[{"name":"target","type":"address","internalType":"address"}]},{"type":"error","name":"AttesterAlreadyCommitted","inputs":[]},{"type":"error","name":"ERC1967InvalidImplementation","inputs":[{"name":"implementation","type":"address","internalType":"address"}]},{"type":"error","name":"ERC1967NonPayable","inputs":[]},{"type":"error","name":"FailedCall","inputs":[]},{"type":"error","name":"InvalidInitialization","inputs":[]},{"type":"error","name":"NotInitializing","inputs":[]},{"type":"error","name":"PostconfirmerDurationTooLong","inputs":[]},{"type":"error","name":"PostconfirmerDurationTooLongForEpoch","inputs":[]},{"type":"error","name":"UUPSUnauthorizedCallContext","inputs":[]},{"type":"error","name":"UUPSUnsupportedProxiableUUID","inputs":[{"name":"slot","type":"bytes32","internalType":"bytes32"}]},{"type":"error","name":"UnacceptableSuperBlockCommitment","inputs":[]},{"type":"error","name":"minCommitmentAgeForPostconfirmationTooLong","inputs":[]},{"type":"error","name":"postconfirmerPrivilegeDurationTooLong","inputs":[]}],"bytecode":{"object":"0x60a0604052306080523480156012575f80fd5b50608051613a736100395f395f81816125e10152818161260a015261274b0152613a735ff3fe6080604052600436106104b0575f3560e01c80636c713af81161026d578063bff92c8c1161014a578063e07472ef116100be578063ed8a1d5911610083578063ed8a1d591461102b578063eda67fc41461106c578063ee99205c146110a6578063ef9ae15c146110c4578063f1949add1461092e578063fdafe9ca146110dd575f80fd5b8063e07472ef14610f25578063e4a3fb7414610f5f578063e90d4c0614610f97578063ec18c18614610fdc578063ec23ec2e14610ff1575f80fd5b8063d283392e1161010f578063d283392e14610e52578063d3eef4cc14610e7d578063d440116d14610e92578063d547741f14610eb1578063d783068814610ed0578063da7d28b614610f06575f80fd5b8063bff92c8c14610daa578063c19b406c14610dbf578063cf6772ad14610df5578063d03509ec14610e14578063d2526fef14610e33575f80fd5b806391d14854116101e1578063a217fddf116101a6578063a217fddf14610ce7578063aa0d6fcd14610cfa578063ab208ebd14610d1b578063ad3cb1cc14610d2f578063ba26513e14610d6c578063bb04bd2f14610d8b575f80fd5b806391d1485414610c5657806392a2ebf314610c75578063943b79e214610c89578063949d7c2a14610c9d578063a207fe2f14610cbc575f80fd5b806380e460f01161023257806380e460f014610b905780638129fc1c14610bb057806381df174614610bc457806385e6b8c214610be357806390879f6414610c0e57806391807e4f14610c22575f80fd5b80636c713af814610ad15780636f86529414610ae55780637aa81c2a14610b1b5780637ac561c814610b3a5780637cfd820514610b65575f80fd5b806336568abe1161039b578063556d97c81161030f5780635d3ea8f1116102d45780635d3ea8f114610a145780635db916ab14610a285780635f4d642e14610a485780635f83c7d514610a5c578063622e361614610a715780636978ab1214610a90575f80fd5b8063556d97c81461092e57806355b8119d146109ad57806357342282146109c257806358376877146109e157806359b9959714610a00575f80fd5b806345367f231161036057806345367f2314610895578063491d0467146108b45780634b47d955146108d35780634ceb2e66146108f25780634f1ef2861461090757806352d1902d1461091a575f80fd5b806336568abe146107cf5780633752d675146107ee57806337d7f58f146108025780633ba18005146108165780633d64592714610876575f80fd5b80631241ebe311610432578063248a9ca3116103f7578063248a9ca3146106c357806326624e37146106e25780632bfd11d6146106f65780632f2ff15d146107655780633119edd41461078457806335ea1c63146107a3575f80fd5b80631241ebe31461062757806314e380261461063b5780631db859c71461064f5780631de38fe1146106855780631f83e2a3146106a4575f80fd5b806308c7050f1161047857806308c7050f1461058a5780630cf6b6bd146105ab5780630d39f7f0146105ca5780630e74b609146105e9578063107e21ca14610608575f80fd5b806301ffc9a7146104b4578063026583d7146104e8578063028e490a1461052957806303d3f7fd1461054757806308750a321461055c575b5f80fd5b3480156104bf575f80fd5b506104d36104ce366004613279565b6110f2565b60405190151581526020015b60405180910390f35b3480156104f3575f80fd5b506105076105023660046132a0565b611128565b60408051825181526020808401519082015291810151908201526060016104df565b348015610534575f80fd5b506006545b6040519081526020016104df565b348015610552575f80fd5b5061053960025481565b348015610567575f80fd5b506104d36105763660046132c9565b600c6020525f908152604090205460ff1681565b348015610595575f80fd5b506105a96105a436600461337a565b611161565b005b3480156105b6575f80fd5b506104d36105c536600461337a565b6111ee565b3480156105d5575f80fd5b506105a96105e43660046132c9565b61126d565b3480156105f4575f80fd5b506105a961060336600461337a565b61128a565b348015610613575f80fd5b506105a961062236600461343d565b6112d3565b348015610632575f80fd5b50600454610539565b348015610646575f80fd5b5061053961149e565b34801561065a575f80fd5b506105396106693660046134c1565b601560209081525f928352604080842090915290825290205481565b348015610690575f80fd5b5061053961069f3660046134c1565b6114af565b3480156106af575f80fd5b506105a96106be3660046132c9565b611528565b3480156106ce575f80fd5b506105396106dd3660046132c9565b6115da565b3480156106ed575f80fd5b506105a96115fa565b348015610701575f80fd5b506105076107103660046132c9565b60408051606080820183525f8083526020808401829052928401819052601354815260128352838120948152938252928290208251938401835280548452600181015491840191909152600201549082015290565b348015610770575f80fd5b506105a961077f3660046134c1565b611605565b34801561078f575f80fd5b506105a961079e36600461337a565b611627565b3480156107ae575f80fd5b506107b76116f3565b6040516001600160a01b0390911681526020016104df565b3480156107da575f80fd5b506105a96107e93660046134c1565b6117f2565b3480156107f9575f80fd5b5061053961182a565b34801561080d575f80fd5b50610539611895565b348015610821575f80fd5b5061085b6108303660046134ef565b601260209081525f928352604080842090915290825290208054600182015460029092015490919083565b604080519384526020840192909252908201526060016104df565b348015610881575f80fd5b506105a96108903660046132c9565b6118c5565b3480156108a0575f80fd5b506105396108af3660046132c9565b611979565b3480156108bf575f80fd5b506105396108ce36600461350f565b611a32565b3480156108de575f80fd5b506105a96108ed36600461352a565b611a44565b3480156108fd575f80fd5b5061053960045481565b6105a961091536600461355b565b611ab1565b348015610925575f80fd5b50610539611acc565b348015610939575f80fd5b506105076109483660046134c1565b604080516060810182525f8082526020820181905291810191909152505f9182526008602090815260408084206001600160a01b0393909316845291815291819020815160608101835281548152600182015493810193909352600201549082015290565b3480156109b8575f80fd5b5061053960065481565b3480156109cd575f80fd5b506105a96109dc3660046132c9565b611ae7565b3480156109ec575f80fd5b506001546107b7906001600160a01b031681565b348015610a0b575f80fd5b50600354610539565b348015610a1f575f80fd5b50610539611b04565b348015610a33575f80fd5b506105395f80516020613a1e83398151915281565b348015610a53575f80fd5b50610539611b34565b348015610a67575f80fd5b5061053960165481565b348015610a7c575f80fd5b506105a9610a8b366004613600565b611bcd565b348015610a9b575f80fd5b50610539610aaa3660046134c1565b5f9182526014602090815260408084206001600160a01b0393909316845291905290205490565b348015610adc575f80fd5b50610539611c42565b348015610af0575f80fd5b50610539610aff3660046134c1565b601460209081525f928352604080842090915290825290205481565b348015610b26575f80fd5b50610539610b3536600461369a565b611c72565b348015610b45575f80fd5b50610539610b543660046132c9565b600d6020525f908152604090205481565b348015610b70575f80fd5b50610539610b7f3660046132c9565b600f6020525f908152604090205481565b348015610b9b575f80fd5b506105395f805160206139be83398151915281565b348015610bbb575f80fd5b506105a9611cfb565b348015610bcf575f80fd5b506105a9610bde36600461350f565b611df0565b348015610bee575f80fd5b50610539610bfd3660046132c9565b60076020525f908152604090205481565b348015610c19575f80fd5b50610539611e1e565b348015610c2d575f80fd5b506107b7610c3c3660046132c9565b600b6020525f90815260409020546001600160a01b031681565b348015610c61575f80fd5b506104d3610c703660046134c1565b611ea2565b348015610c80575f80fd5b506105a9611ed8565b348015610c94575f80fd5b50610539611f8d565b348015610ca8575f80fd5b506105a9610cb736600461350f565b611f9e565b348015610cc7575f80fd5b50610539610cd63660046132c9565b600e6020525f908152604090205481565b348015610cf2575f80fd5b506105395f81565b348015610d05575f80fd5b50610d0e611fdb565b6040516104df919061371c565b348015610d26575f80fd5b50600554610539565b348015610d3a575f80fd5b50610d5f604051806040016040528060058152602001640352e302e360dc1b81525081565b6040516104df919061372e565b348015610d77575f80fd5b50610539610d863660046134c1565b612047565b348015610d96575f80fd5b50610539610da5366004613763565b612102565b348015610db5575f80fd5b5061053960055481565b348015610dca575f80fd5b50610539610dd93660046134ef565b600960209081525f928352604080842090915290825290205481565b348015610e00575f80fd5b506105a9610e0f36600461352a565b612115565b348015610e1f575f80fd5b506105a9610e2e3660046132c9565b612162565b348015610e3e575f80fd5b506105a9610e4d36600461378f565b6121db565b348015610e5d575f80fd5b50610539610e6c3660046132c9565b5f9081526007602052604090205490565b348015610e88575f80fd5b5061053960175481565b348015610e9d575f80fd5b50610539610eac36600461350f565b612206565b348015610ebc575f80fd5b506105a9610ecb3660046134c1565b612218565b348015610edb575f80fd5b50610539610eea3660046134ef565b600a60209081525f928352604080842090915290825290205481565b348015610f11575f80fd5b506105a9610f203660046132c9565b612234565b348015610f30575f80fd5b50610539610f3f36600461337a565b80515f908152600a60209081526040808320938201518352929052205490565b348015610f6a575f80fd5b506104d3610f793660046132c9565b5f908152600860209081526040808320338452909152902054151590565b348015610fa2575f80fd5b5061085b610fb13660046134c1565b600860209081525f928352604080842090915290825290208054600182015460029092015490919083565b348015610fe7575f80fd5b5061053960135481565b348015610ffc575f80fd5b506104d361100b3660046132c9565b6013545f9081526012602090815260408083209383529290522054151590565b348015611036575f80fd5b506105396110453660046134c1565b5f9182526015602090815260408084206001600160a01b0393909316845291905290205490565b348015611077575f80fd5b5061085b6110863660046132c9565b60106020525f908152604090208054600182015460029092015490919083565b3480156110b1575f80fd5b505f546107b7906001600160a01b031681565b3480156110cf575f80fd5b506011546104d39060ff1681565b3480156110e8575f80fd5b5061053960035481565b5f6001600160e01b03198216637965db0b60e01b148061112257506301ffc9a760e01b6001600160e01b03198316145b92915050565b60408051606080820183525f808352602080840182905292840152825190810183528581529081018490529081018290525b9392505050565b6111785f805160206139be83398151915233611ea2565b6111e25760405162461bcd60e51b815260206004820152603060248201527f464f5243455f4c41544553545f434f4d4d49544d454e545f49535f434f4d4d4960448201526f544d454e545f41444d494e5f4f4e4c5960801b60648201526084015b60405180910390fd5b6111eb81611627565b50565b80515f908152600a602090815260408083208285015184529091528120545f0361121957505f919050565b4261122360065490565b60055484515f908152600a6020908152604080832082890151845290915290205461124e91906137c2565b61125891906137c2565b101561126557505f919050565b506001919050565b5f805160206139be833981519152611284816122e6565b50601655565b60115460ff16806112ad57506112ad5f80516020613a1e83398151915233611ea2565b6112c95760405162461bcd60e51b81526004016111d9906137d5565b6111eb33826122f0565b5f6112dc612464565b805490915060ff600160401b82041615906001600160401b03165f811580156113025750825b90505f826001600160401b0316600114801561131d5750303b155b90508115801561132b575080155b156113495760405163f92ee8a960e01b815260040160405180910390fd5b845467ffffffffffffffff19166001178555831561137357845460ff60401b1916600160401b1785555b61137b61248c565b5f80546001600160a01b0319166001600160a01b038e1690811790915560028b905560038c9055604051631a6e609f60e31b815263d37304f8906113c5908c908c90600401613817565b5f604051808303815f87803b1580156113dc575f80fd5b505af11580156113ee573d5f803e3d5ffd5b505050506113fb33611f9e565b61140433611df0565b6004879055600180546001600160a01b0319166001600160a01b03881617905561142f600a8a613843565b60055561143d600a8a613843565b60065560016016819055601755831561149057845460ff60401b19168555604051600181527fc7f505b2f371ae2175ee4913f4499e1f2633a7b5936321eed1cdaeb6115181d29060200160405180910390a15b505050505050505050505050565b5f6114aa6108af611c42565b905090565b5f8054604051630ce52af560e01b8152306004820152602481018590526001600160a01b03848116604483015290911690630ce52af590606401602060405180830381865afa158015611504573d5f803e3d5ffd5b505050506040513d601f19601f8201168201806040525081019061115a9190613856565b5f805160206139be83398151915261153f816122e6565b6006545f54604051635c53435960e01b81523060048201526001600160a01b0390911690635c53435990602401602060405180830381865afa158015611587573d5f803e3d5ffd5b505050506040513d601f19601f820116820180604052508101906115ab9190613856565b6115b5919061386d565b82106115d45760405163a7075e5f60e01b815260040160405180910390fd5b50600555565b5f9081525f805160206139fe833981519152602052604090206001015490565b6116033361249e565b565b61160e826115da565b611617816122e6565b61162183836124bc565b50505050565b61163e5f805160206139be83398151915233611ea2565b6116be5760405162461bcd60e51b8152602060048201526044602482018190527f5345545f4c4153545f504f5354434f4e4649524d45445f434f4d4d49544d454e908201527f545f41545f4845494748545f49535f434f4d4d49544d454e545f41444d494e5f6064820152634f4e4c5960e01b608482015260a4016111d9565b6013545f9081526012602090815260408083208451845282529182902083518155908301516001820155910151600290910155565b5f806116fd611b34565b90505f611708611e1e565b5f8054604051634234a47960e01b815230600482015292935090916001600160a01b0390911690634234a479906024015f60405180830381865afa158015611752573d5f803e3d5ffd5b505050506040513d5f823e601f3d908101601f191682016040526117799190810190613880565b905080515f0361178c575f935050505090565b5f815184846040516020016117ab929190918252602082015260400190565b604051602081830303815290604052805190602001205f1c6117cd919061390f565b90508181815181106117e1576117e1613922565b602002602001015194505050505090565b6001600160a01b038116331461181b5760405163334bd91960e11b815260040160405180910390fd5b611825828261255d565b505050565b5f8054604051631dc7f3f160e21b81523060048201526001600160a01b039091169063771fcfc4906024015b602060405180830381865afa158015611871573d5f803e3d5ffd5b505050506040513d601f19601f820116820180604052508101906114aa9190613856565b5f805460405163d980b40d60e01b81523060048201526001600160a01b039091169063d980b40d90602401611856565b5f805160206139be8339815191526118dc816122e6565b5f8054604051635c53435960e01b81523060048201526001600160a01b0390911690635c53435990602401602060405180830381865afa158015611922573d5f803e3d5ffd5b505050506040513d601f19601f820116820180604052508101906119469190613856565b905080611954846002613936565b10611972576040516360bc402f60e01b815260040160405180910390fd5b5050600455565b5f805460405163341d5ef560e01b815230600482015282916001600160a01b03169063341d5ef5906024015f60405180830381865afa1580156119be573d5f803e3d5ffd5b505050506040513d5f823e601f3d908101601f191682016040526119e59190810190613880565b90505f805b8251811015611a2a57611a1685848381518110611a0957611a09613922565b60200260200101516114af565b611a2090836137c2565b91506001016119ea565b509392505050565b5f611122611a3e611c42565b83612047565b611a4e5f33611ea2565b611a6a5760405162461bcd60e51b81526004016111d99061394d565b5f5b8151811015611aad57611aa55f805160206139be833981519152838381518110611a9857611a98613922565b6020026020010151611605565b600101611a6c565b5050565b611ab96125d6565b611ac28261267a565b611aad8282612684565b5f611ad5612740565b505f805160206139de83398151915290565b5f805160206139be833981519152611afe816122e6565b50601755565b5f8054604051635c53435960e01b81523060048201526001600160a01b0390911690635c53435990602401611856565b5f8054604051635c53435960e01b8152306004820152429183916001600160a01b0390911690635c53435990602401602060405180830381865afa158015611b7e573d5f803e3d5ffd5b505050506040513d601f19601f82011682018060405250810190611ba29190613856565b611bac908361390f565b905060045481611bbc919061390f565b611bc6908261386d565b9250505090565b60115460ff1680611bf05750611bf05f80516020613a1e83398151915233611ea2565b611c0c5760405162461bcd60e51b81526004016111d9906137d5565b5f5b8151811015611aad57611c3a33838381518110611c2d57611c2d613922565b60200260200101516122f0565b600101611c0e565b5f80546040516322fceb7560e01b81523060048201526001600160a01b03909116906322fceb7590602401611856565b5f80546040516324f7ee1760e21b8152306004820152602481018690526001600160a01b0385811660448301528481166064830152909116906393dfb85c90608401602060405180830381865afa158015611ccf573d5f803e3d5ffd5b505050506040513d601f19601f82011682018060405250810190611cf39190613856565b949350505050565b5f611d04612464565b805490915060ff600160401b82041615906001600160401b03165f81158015611d2a5750825b90505f826001600160401b03166001148015611d455750303b155b905081158015611d53575080155b15611d715760405163f92ee8a960e01b815260040160405180910390fd5b845467ffffffffffffffff191660011785558315611d9b57845460ff60401b1916600160401b1785555b611da3612789565b8315611de957845460ff60401b19168555604051600181527fc7f505b2f371ae2175ee4913f4499e1f2633a7b5936321eed1cdaeb6115181d29060200160405180910390a15b5050505050565b5f805160206139be833981519152611e07816122e6565b611aad5f80516020613a1e83398151915283611605565b5f8054604051635c53435960e01b815230600482015242916001600160a01b031690635c53435990602401602060405180830381865afa158015611e64573d5f803e3d5ffd5b505050506040513d601f19601f82011682018060405250810190611e889190613856565b611e92908261390f565b611e9c908261386d565b91505090565b5f9182525f805160206139fe833981519152602090815260408084206001600160a01b0393909316845291905290205460ff1690565b611ee25f33611ea2565b611f3c5760405162461bcd60e51b815260206004820152602560248201527f4143434550545f47454e455349535f434552454d4f4e595f49535f41444d494e6044820152645f4f4e4c5960d81b60648201526084016111d9565b5f8054604080516392a2ebf360e01b815290516001600160a01b03909216926392a2ebf39260048084019382900301818387803b158015611f7b575f80fd5b505af1158015611621573d5f803e3d5ffd5b5f6002546003546114aa91906137c2565b611fa85f33611ea2565b611fc45760405162461bcd60e51b81526004016111d99061394d565b6111eb5f805160206139be83398151915282611605565b5f54604051634234a47960e01b81523060048201526060916001600160a01b031690634234a479906024015f60405180830381865afa158015612020573d5f803e3d5ffd5b505050506040513d5f823e601f3d908101601f191682016040526114aa9190810190613880565b5f805460405163341d5ef560e01b815230600482015282916001600160a01b03169063341d5ef5906024015f60405180830381865afa15801561208c573d5f803e3d5ffd5b505050506040513d5f823e601f3d908101601f191682016040526120b39190810190613880565b90505f805b82518110156120f9576120e5868483815181106120d7576120d7613922565b602002602001015187611c72565b6120ef90836137c2565b91506001016120b8565b50949350505050565b5f61115a61210e611c42565b8484611c72565b5f805160206139be83398151915261212c816122e6565b5f5b82518110156118255761215a5f80516020613a1e833981519152848381518110611a9857611a98613922565b60010161212e565b5f805160206139be833981519152612179816122e6565b5f54604051631dc8b94960e01b8152306004820152602481018490526001600160a01b0390911690631dc8b949906044015f604051808303815f87803b1580156121c1575f80fd5b505af11580156121d3573d5f803e3d5ffd5b505050505050565b5f805160206139be8339815191526121f2816122e6565b506011805460ff1916911515919091179055565b5f611122612212611c42565b836114af565b612221826115da565b61222a816122e6565b611621838361255d565b5f805160206139be83398151915261224b816122e6565b6005545f54604051635c53435960e01b81523060048201526001600160a01b0390911690635c53435990602401602060405180830381865afa158015612293573d5f803e3d5ffd5b505050506040513d601f19601f820116820180604052508101906122b79190613856565b6122c1919061386d565b82106122e057604051633c9f1a5360e01b815260040160405180910390fd5b50600655565b6111eb8133612799565b80515f9081526008602090815260408083206001600160a01b03861684529091529020541561233257604051630ae09ad960e41b815260040160405180910390fd5b805160025460035461234491906137c2565b101561236357604051630ae09ad960e41b815260040160405180910390fd5b80515f90815260076020526040812054900361239257612381611895565b81515f908152600760205260409020555b80515f9081526008602090815260408083206001600160a01b038616845282529182902083518082559184015160018201819055928401516002909101556123da91426127d2565b5f6123e483611a32565b82515f9081526009602090815260408083208287015184529091528120805492935083929091906124169084906137c2565b9091555050604080830151602080850151835190815290810184905290917fa8445a6b8a16633ad62fbc0954848ec55c4d5323d90b9745dbda4121ec5ce12b910160405180910390a2505050565b5f807ff0c57e16840df040f15088dc2f81fe391c3923bec73e23a9662efc9c229c6a00611122565b61249461281c565b6111eb5f336124bc565b6124b560035460016124b091906137c2565b612841565b61249e5750565b5f5f805160206139fe8339815191526124d58484611ea2565b612554575f848152602082815260408083206001600160a01b03871684529091529020805460ff1916600117905561250a3390565b6001600160a01b0316836001600160a01b0316857f2f8788117e7eff1d82e926ec794901d17c78024a50270940304540a733656f0d60405160405180910390a46001915050611122565b5f915050611122565b5f5f805160206139fe8339815191526125768484611ea2565b15612554575f848152602082815260408083206001600160a01b0387168085529252808320805460ff1916905551339287917ff6391f5c32d9c69d2a47ea670b442974b53935d1edc7fd64eb21e047a839171b9190a46001915050611122565b306001600160a01b037f000000000000000000000000000000000000000000000000000000000000000016148061265c57507f00000000000000000000000000000000000000000000000000000000000000006001600160a01b03166126505f805160206139de833981519152546001600160a01b031690565b6001600160a01b031614155b156116035760405163703e46dd60e11b815260040160405180910390fd5b5f611aad816122e6565b816001600160a01b03166352d1902d6040518163ffffffff1660e01b8152600401602060405180830381865afa9250505080156126de575060408051601f3d908101601f191682019092526126db91810190613856565b60015b61270657604051634c9c8ce360e01b81526001600160a01b03831660048201526024016111d9565b5f805160206139de833981519152811461273657604051632a87526960e21b8152600481018290526024016111d9565b6118258383612aaa565b306001600160a01b037f000000000000000000000000000000000000000000000000000000000000000016146116035760405163703e46dd60e11b815260040160405180910390fd5b61279161281c565b61160361248c565b6127a38282611ea2565b611aad5760405163e2517d3f60e01b81526001600160a01b0382166004820152602481018390526044016111d9565b5f838152600a60209081526040808320858452909152902054156127f557505050565b805f0361280157505050565b5f928352600a60209081526040808520938552929052912055565b612824612aff565b61160357604051631afcd79f60e31b815260040160405180910390fd5b5f818152600760205260408120546003541561290d575f60078161286660018761386d565b81526020019081526020015f205490508082101561290b575f612887611fdb565b90505f5b81518110156129055760085f8781526020019081526020015f205f8383815181106128b8576128b8613922565b60200260200101516001600160a01b03166001600160a01b031681526020019081526020015f205f01545f146128fd575f868152600760205260409020839055612905565b60010161288b565b50819250505b505b80612916611c42565b101561292957612924612b18565b61290d565b5f600361293583611979565b612940906002613936565b61294a9190613843565b6129559060016137c2565b90505f612960611fdb565b90505f805b8251811015612a6a575f83828151811061298157612981613922565b6020908102919091018101515f8a81526008835260408082206001600160a01b038416835284529081902081516060810183528154808252600183015495820195909552600290910154918101919091529092509089146129e3575050612a62565b80515f908152600960209081526040808320828501518452909152902054868110612a5e5781515f908152600a60209081526040808320828601518452909152902054600554612a3390826137c2565b421015612a435750505050612a6a565b612a4d8333612e58565b5060019a9950505050505050505050565b5050505b600101612965565b5080158015612a865750612a7c611c42565b612a84611895565b115b15612a9f57612a93612b18565b50600195945050505050565b505f95945050505050565b612ab382613100565b6040516001600160a01b038316907fbc7cd75a20ee27fd9adebab32041f755214dbc6bffa90cc0225b39da2e5c2d3b905f90a2805115612af7576118258282613163565b611aad6131d5565b5f612b08612464565b54600160401b900460ff16919050565b5f612b21611c42565b90505f612b2c611fdb565b90505f5b8151811015612e18575f83815260146020526040812083518290859085908110612b5c57612b5c613922565b60200260200101516001600160a01b03166001600160a01b031681526020019081526020015f20541115612cab575f612bad838381518110612ba057612ba0613922565b6020026020010151611a32565b60165460145f8781526020019081526020015f205f868681518110612bd457612bd4613922565b60200260200101516001600160a01b03166001600160a01b031681526020019081526020015f2054612c069190613936565b612c109190613936565b5f5484519192506001600160a01b031690635e00bf4690859085908110612c3957612c39613922565b60209081029190910101516001546040516001600160e01b031960e085901b1681526001600160a01b03928316600482015260248101869052911660448201526064015f604051808303815f87803b158015612c93575f80fd5b505af1158015612ca5573d5f803e3d5ffd5b50505050505b5f83815260156020526040812083518290859085908110612cce57612cce613922565b60200260200101516001600160a01b03166001600160a01b031681526020019081526020015f20541115612e10575f612d12838381518110612ba057612ba0613922565b60175460155f8781526020019081526020015f205f868681518110612d3957612d39613922565b60200260200101516001600160a01b03166001600160a01b031681526020019081526020015f2054612d6b9190613936565b612d759190613936565b5f5484519192506001600160a01b031690635e00bf4690859085908110612d9e57612d9e613922565b60209081029190910101516001546040516001600160e01b031960e085901b1681526001600160a01b03928316600482015260248101869052911660448201526064015f604051808303815f87803b158015612df8575f80fd5b505af1158015612e0a573d5f803e3d5ffd5b50505050505b600101612b30565b505f805460408051632a21edc760e21b815290516001600160a01b039092169263a887b71c9260048084019382900301818387803b1580156121c1575f80fd5b5f612e61611c42565b83515f908152600760205260409020549091508114612e9357604051631f2d18b160e31b815260040160405180910390fd5b8251612ea19060019061386d565b60035414612ec257604051631f2d18b160e31b815260040160405180910390fd5b5f612ecb611fdb565b90505f5b8151811015612f9d57846020015160085f875f015181526020019081526020015f205f848481518110612f0457612f04613922565b60200260200101516001600160a01b03166001600160a01b031681526020019081526020015f206001015403612f955760145f8481526020019081526020015f205f838381518110612f5857612f58613922565b60200260200101516001600160a01b03166001600160a01b031681526020019081526020015f205f815480929190612f8f9061398f565b91905055505b600101612ecf565b50612fa7846111ee565b612fe8575f8281526015602090815260408083206001600160a01b03871684529091528120805460019290612fdd9084906137c2565b909155506130409050565b826001600160a01b0316612ffa6116f3565b6001600160a01b031603613040575f8281526015602090815260408083206001600160a01b0387168452909152812080546001929061303a9084906137c2565b90915550505b6013545f90815260126020908152604080832087518452825280832087518082558884018051600184015589840180516002909401939093556003829055908552600b845282852080546001600160a01b0319166001600160a01b038a1617905588518552600d845282852043905588518552600e84529382902042905551925187518251918252928101929092527fc28fbeddd1d6ba9496d1b91564f9aa2bc4dffed78aae631bbc6ef67296ad3c3c910160405180910390a250505050565b806001600160a01b03163b5f0361313557604051634c9c8ce360e01b81526001600160a01b03821660048201526024016111d9565b5f805160206139de83398151915280546001600160a01b0319166001600160a01b0392909216919091179055565b60605f80846001600160a01b03168460405161317f91906139a7565b5f60405180830381855af49150503d805f81146131b7576040519150601f19603f3d011682016040523d82523d5f602084013e6131bc565b606091505b50915091506131cc8583836131f4565b95945050505050565b34156116035760405163b398979f60e01b815260040160405180910390fd5b6060826132095761320482613250565b61115a565b815115801561322057506001600160a01b0384163b155b1561324957604051639996b31560e01b81526001600160a01b03851660048201526024016111d9565b508061115a565b8051156132605780518082602001fd5b60405163d6bda27560e01b815260040160405180910390fd5b5f60208284031215613289575f80fd5b81356001600160e01b03198116811461115a575f80fd5b5f805f606084860312156132b2575f80fd5b505081359360208301359350604090920135919050565b5f602082840312156132d9575f80fd5b5035919050565b634e487b7160e01b5f52604160045260245ffd5b604051601f8201601f191681016001600160401b038111828210171561331c5761331c6132e0565b604052919050565b5f60608284031215613334575f80fd5b604051606081016001600160401b0381118282101715613356576133566132e0565b60409081528335825260208085013590830152928301359281019290925250919050565b5f6060828403121561338a575f80fd5b61115a8383613324565b6001600160a01b03811681146111eb575f80fd5b5f6001600160401b038211156133c0576133c06132e0565b5060051b60200190565b5f82601f8301126133d9575f80fd5b81356133ec6133e7826133a8565b6132f4565b8082825260208201915060208360051b86010192508583111561340d575f80fd5b602085015b8381101561343357803561342581613394565b835260209283019201613412565b5095945050505050565b5f805f805f805f60e0888a031215613453575f80fd5b873561345e81613394565b965060208801359550604088013594506060880135935060808801356001600160401b0381111561348d575f80fd5b6134998a828b016133ca565b93505060a0880135915060c08801356134b181613394565b8091505092959891949750929550565b5f80604083850312156134d2575f80fd5b8235915060208301356134e481613394565b809150509250929050565b5f8060408385031215613500575f80fd5b50508035926020909101359150565b5f6020828403121561351f575f80fd5b813561115a81613394565b5f6020828403121561353a575f80fd5b81356001600160401b0381111561354f575f80fd5b611cf3848285016133ca565b5f806040838503121561356c575f80fd5b823561357781613394565b915060208301356001600160401b03811115613591575f80fd5b8301601f810185136135a1575f80fd5b80356001600160401b038111156135ba576135ba6132e0565b6135cd601f8201601f19166020016132f4565b8181528660208385010111156135e1575f80fd5b816020840160208301375f602083830101528093505050509250929050565b5f60208284031215613610575f80fd5b81356001600160401b03811115613625575f80fd5b8201601f81018413613635575f80fd5b80356136436133e7826133a8565b80828252602082019150602060608402850101925086831115613664575f80fd5b6020840193505b828410156136905761367d8785613324565b825260208201915060608401935061366b565b9695505050505050565b5f805f606084860312156136ac575f80fd5b8335925060208401356136be81613394565b915060408401356136ce81613394565b809150509250925092565b5f8151808452602084019350602083015f5b828110156137125781516001600160a01b03168652602095860195909101906001016136eb565b5093949350505050565b602081525f61115a60208301846136d9565b602081525f82518060208401528060208501604085015e5f604082850101526040601f19601f83011684010191505092915050565b5f8060408385031215613774575f80fd5b823561377f81613394565b915060208301356134e481613394565b5f6020828403121561379f575f80fd5b8135801515811461115a575f80fd5b634e487b7160e01b5f52601160045260245ffd5b80820180821115611122576111226137ae565b60208082526022908201527f554e415554484f52495a45445f5355504552424c4f434b5f434f4d4d49544d45604082015261139560f21b606082015260800190565b828152604060208201525f611cf360408301846136d9565b634e487b7160e01b5f52601260045260245ffd5b5f826138515761385161382f565b500490565b5f60208284031215613866575f80fd5b5051919050565b81810381811115611122576111226137ae565b5f60208284031215613890575f80fd5b81516001600160401b038111156138a5575f80fd5b8201601f810184136138b5575f80fd5b80516138c36133e7826133a8565b8082825260208201915060208360051b8501019250868311156138e4575f80fd5b6020840193505b828410156136905783516138fe81613394565b8252602093840193909101906138eb565b5f8261391d5761391d61382f565b500690565b634e487b7160e01b5f52603260045260245ffd5b8082028115828204841417611122576111226137ae565b60208082526022908201527f4144445f434f4d4d49544d454e545f41444d494e5f49535f41444d494e5f4f4e6040820152614c5960f01b606082015260800190565b5f600182016139a0576139a06137ae565b5060010190565b5f82518060208501845e5f92019182525091905056fedb2bf73e90d393604e56f0a2a54fed3fbd75332bf39c5ea0704b3b6973a3463c360894a13ba1a3210667c828492db98dca3e2076cc3735a920a3ca505d382bbc02dd7bc7dec4dceedda775e58dd541e08a116c6c53815c0bd028192f7b626800981fe5f60e354ed88ff0544e367c13a4d3342da7c82eb6627f804b747e046e18a26469706673582212205c57ace4d11ef4f14745cfa900bbfba3b877027ff6007e947931e207f05d43d964736f6c634300081a0033","linkReferences":{}},"methodIdentifiers":{"COMMITMENT_ADMIN()":"80e460f0","DEFAULT_ADMIN_ROLE()":"a217fddf","TRUSTED_ATTESTER()":"5db916ab","UPGRADE_INTERFACE_VERSION()":"ad3cb1cc","acceptGenesisCeremony()":"92a2ebf3","attesterRewardPoints(uint256,address)":"6f865294","batchGrantCommitmentAdmin(address[])":"4b47d955","batchGrantTrustedAttester(address[])":"cf6772ad","commitmentFirstSeenAt(uint256,bytes32)":"d7830688","commitmentStake(uint256,bytes32)":"c19b406c","commitments(uint256,address)":"e90d4c06","createSuperBlockCommitment(uint256,bytes32,bytes32)":"026583d7","forceLatestCommitment((uint256,bytes32,bytes32))":"08c7050f","getAcceptingEpoch()":"6c713af8","getAttesterRewardPoints(uint256,address)":"6978ab12","getAttesterStake(uint256,address)":"ba26513e","getAttesterStakeForAcceptingEpoch(address)":"491d0467","getCommitmentByAttester(uint256,address)":"f1949add","getCommitmentFirstSeenAt((uint256,bytes32,bytes32))":"e07472ef","getCustodianStake(uint256,address)":"1de38fe1","getCustodianStakeForAcceptingEpoch(address)":"d440116d","getEpochDuration()":"5d3ea8f1","getEpochStartTime()":"90879f64","getLastPostconfirmedSuperBlockHeight()":"59b99597","getMaxTolerableSuperBlockHeight()":"943b79e2","getMinCommitmentAgeForPostconfirmation()":"ab208ebd","getNextAcceptingEpochWithException()":"3752d675","getPostconfirmedCommitment(uint256)":"2bfd11d6","getPostconfirmer()":"35ea1c63","getPostconfirmerDuration()":"1241ebe3","getPostconfirmerPrivilegeDuration()":"028e490a","getPostconfirmerRewardPoints(uint256,address)":"ed8a1d59","getPostconfirmerStartTime()":"5f4d642e","getPresentEpoch()":"37d7f58f","getRoleAdmin(bytes32)":"248a9ca3","getStake(uint256,address,address)":"7aa81c2a","getStakeForAcceptingEpoch(address,address)":"bb04bd2f","getStakedAttestersForAcceptingEpoch()":"aa0d6fcd","getSuperBlockHeightAssignedEpoch(uint256)":"d283392e","getTotalStake(uint256)":"45367f23","getTotalStakeForAcceptingEpoch()":"14e38026","getValidatorCommitmentAtSuperBlockHeight(uint256,address)":"556d97c8","grantCommitmentAdmin(address)":"949d7c2a","grantRole(bytes32,address)":"2f2ff15d","grantTrustedAttester(address)":"81df1746","hasRole(bytes32,address)":"91d14854","initialize()":"8129fc1c","initialize(address,uint256,uint256,uint256,address[],uint256,address)":"107e21ca","isCommitted(uint256)":"e4a3fb74","isPostconfirmed(uint256)":"ec23ec2e","isWithinPostconfirmerPrivilegeDuration((uint256,bytes32,bytes32))":"0cf6b6bd","lastPostconfirmedSuperBlockHeight()":"fdafe9ca","leadingSuperBlockTolerance()":"03d3f7fd","minCommitmentAgeForPostconfirmation()":"bff92c8c","moveTokenAddress()":"58376877","openAttestationEnabled()":"ef9ae15c","postconfirmSuperBlocksAndRollover()":"26624e37","postconfirmedAtL1BlockHeight(uint256)":"7ac561c8","postconfirmedAtL1BlockHeightByPostconfirmer(uint256)":"7cfd8205","postconfirmedAtL1BlockTimestamp(uint256)":"a207fe2f","postconfirmedBy(uint256)":"91807e4f","postconfirmedByPostconfirmer(uint256)":"08750a32","postconfirmedSuperBlocks(uint256)":"eda67fc4","postconfirmedSuperBlocksVersion()":"ec18c186","postconfirmerDuration()":"4ceb2e66","postconfirmerPrivilegeDuration()":"55b8119d","postconfirmerRewardPoints(uint256,address)":"1db859c7","proxiableUUID()":"52d1902d","renounceRole(bytes32,address)":"36568abe","revokeRole(bytes32,address)":"d547741f","rewardPerAttestationPoint()":"5f83c7d5","rewardPerPostconfirmationPoint()":"d3eef4cc","setAcceptingEpoch(uint256)":"d03509ec","setMinCommitmentAgeForPostconfirmation(uint256)":"1f83e2a3","setOpenAttestationEnabled(bool)":"d2526fef","setPostconfirmedCommitmentAtBlockHeight((uint256,bytes32,bytes32))":"3119edd4","setPostconfirmerDuration(uint256)":"3d645927","setPostconfirmerPrivilegeDuration(uint256)":"da7d28b6","setRewardPerAttestationPoint(uint256)":"0d39f7f0","setRewardPerPostconfirmationPoint(uint256)":"57342282","stakingContract()":"ee99205c","submitBatchSuperBlockCommitment((uint256,bytes32,bytes32)[])":"622e3616","submitSuperBlockCommitment((uint256,bytes32,bytes32))":"0e74b609","superBlockHeightAssignedEpoch(uint256)":"85e6b8c2","supportsInterface(bytes4)":"01ffc9a7","upgradeToAndCall(address,bytes)":"4f1ef286","versionedPostconfirmedSuperBlocks(uint256,uint256)":"3ba18005"},"storageLayout":{"storage":[{"astId":61820,"contract":"src/settlement/PCP.sol:PCP","label":"stakingContract","offset":0,"slot":"0","type":"t_contract(IMovementStaking)64348"},{"astId":61822,"contract":"src/settlement/PCP.sol:PCP","label":"moveTokenAddress","offset":0,"slot":"1","type":"t_address"},{"astId":61824,"contract":"src/settlement/PCP.sol:PCP","label":"leadingSuperBlockTolerance","offset":0,"slot":"2","type":"t_uint256"},{"astId":61826,"contract":"src/settlement/PCP.sol:PCP","label":"lastPostconfirmedSuperBlockHeight","offset":0,"slot":"3","type":"t_uint256"},{"astId":61829,"contract":"src/settlement/PCP.sol:PCP","label":"postconfirmerDuration","offset":0,"slot":"4","type":"t_uint256"},{"astId":61832,"contract":"src/settlement/PCP.sol:PCP","label":"minCommitmentAgeForPostconfirmation","offset":0,"slot":"5","type":"t_uint256"},{"astId":61835,"contract":"src/settlement/PCP.sol:PCP","label":"postconfirmerPrivilegeDuration","offset":0,"slot":"6","type":"t_uint256"},{"astId":61847,"contract":"src/settlement/PCP.sol:PCP","label":"superBlockHeightAssignedEpoch","offset":0,"slot":"7","type":"t_mapping(t_uint256,t_uint256)"},{"astId":61854,"contract":"src/settlement/PCP.sol:PCP","label":"commitments","offset":0,"slot":"8","type":"t_mapping(t_uint256,t_mapping(t_address,t_struct(SuperBlockCommitment)61843_storage))"},{"astId":61860,"contract":"src/settlement/PCP.sol:PCP","label":"commitmentStake","offset":0,"slot":"9","type":"t_mapping(t_uint256,t_mapping(t_bytes32,t_uint256))"},{"astId":61866,"contract":"src/settlement/PCP.sol:PCP","label":"commitmentFirstSeenAt","offset":0,"slot":"10","type":"t_mapping(t_uint256,t_mapping(t_bytes32,t_uint256))"},{"astId":61870,"contract":"src/settlement/PCP.sol:PCP","label":"postconfirmedBy","offset":0,"slot":"11","type":"t_mapping(t_uint256,t_address)"},{"astId":61874,"contract":"src/settlement/PCP.sol:PCP","label":"postconfirmedByPostconfirmer","offset":0,"slot":"12","type":"t_mapping(t_uint256,t_bool)"},{"astId":61878,"contract":"src/settlement/PCP.sol:PCP","label":"postconfirmedAtL1BlockHeight","offset":0,"slot":"13","type":"t_mapping(t_uint256,t_uint256)"},{"astId":61882,"contract":"src/settlement/PCP.sol:PCP","label":"postconfirmedAtL1BlockTimestamp","offset":0,"slot":"14","type":"t_mapping(t_uint256,t_uint256)"},{"astId":61886,"contract":"src/settlement/PCP.sol:PCP","label":"postconfirmedAtL1BlockHeightByPostconfirmer","offset":0,"slot":"15","type":"t_mapping(t_uint256,t_uint256)"},{"astId":61891,"contract":"src/settlement/PCP.sol:PCP","label":"postconfirmedSuperBlocks","offset":0,"slot":"16","type":"t_mapping(t_uint256,t_struct(SuperBlockCommitment)61843_storage)"},{"astId":61893,"contract":"src/settlement/PCP.sol:PCP","label":"openAttestationEnabled","offset":0,"slot":"17","type":"t_bool"},{"astId":61900,"contract":"src/settlement/PCP.sol:PCP","label":"versionedPostconfirmedSuperBlocks","offset":0,"slot":"18","type":"t_mapping(t_uint256,t_mapping(t_uint256,t_struct(SuperBlockCommitment)61843_storage))"},{"astId":61902,"contract":"src/settlement/PCP.sol:PCP","label":"postconfirmedSuperBlocksVersion","offset":0,"slot":"19","type":"t_uint256"},{"astId":61908,"contract":"src/settlement/PCP.sol:PCP","label":"attesterRewardPoints","offset":0,"slot":"20","type":"t_mapping(t_uint256,t_mapping(t_address,t_uint256))"},{"astId":61914,"contract":"src/settlement/PCP.sol:PCP","label":"postconfirmerRewardPoints","offset":0,"slot":"21","type":"t_mapping(t_uint256,t_mapping(t_address,t_uint256))"},{"astId":61916,"contract":"src/settlement/PCP.sol:PCP","label":"rewardPerAttestationPoint","offset":0,"slot":"22","type":"t_uint256"},{"astId":61918,"contract":"src/settlement/PCP.sol:PCP","label":"rewardPerPostconfirmationPoint","offset":0,"slot":"23","type":"t_uint256"},{"astId":61922,"contract":"src/settlement/PCP.sol:PCP","label":"__gap","offset":0,"slot":"24","type":"t_array(t_uint256)45_storage"}],"types":{"t_address":{"encoding":"inplace","label":"address","numberOfBytes":"20"},"t_array(t_uint256)45_storage":{"encoding":"inplace","label":"uint256[45]","numberOfBytes":"1440","base":"t_uint256"},"t_bool":{"encoding":"inplace","label":"bool","numberOfBytes":"1"},"t_bytes32":{"encoding":"inplace","label":"bytes32","numberOfBytes":"32"},"t_contract(IMovementStaking)64348":{"encoding":"inplace","label":"contract IMovementStaking","numberOfBytes":"20"},"t_mapping(t_address,t_struct(SuperBlockCommitment)61843_storage)":{"encoding":"mapping","key":"t_address","label":"mapping(address => struct PCPStorage.SuperBlockCommitment)","numberOfBytes":"32","value":"t_struct(SuperBlockCommitment)61843_storage"},"t_mapping(t_address,t_uint256)":{"encoding":"mapping","key":"t_address","label":"mapping(address => uint256)","numberOfBytes":"32","value":"t_uint256"},"t_mapping(t_bytes32,t_uint256)":{"encoding":"mapping","key":"t_bytes32","label":"mapping(bytes32 => uint256)","numberOfBytes":"32","value":"t_uint256"},"t_mapping(t_uint256,t_address)":{"encoding":"mapping","key":"t_uint256","label":"mapping(uint256 => address)","numberOfBytes":"32","value":"t_address"},"t_mapping(t_uint256,t_bool)":{"encoding":"mapping","key":"t_uint256","label":"mapping(uint256 => bool)","numberOfBytes":"32","value":"t_bool"},"t_mapping(t_uint256,t_mapping(t_address,t_struct(SuperBlockCommitment)61843_storage))":{"encoding":"mapping","key":"t_uint256","label":"mapping(uint256 => mapping(address => struct PCPStorage.SuperBlockCommitment))","numberOfBytes":"32","value":"t_mapping(t_address,t_struct(SuperBlockCommitment)61843_storage)"},"t_mapping(t_uint256,t_mapping(t_address,t_uint256))":{"encoding":"mapping","key":"t_uint256","label":"mapping(uint256 => mapping(address => uint256))","numberOfBytes":"32","value":"t_mapping(t_address,t_uint256)"},"t_mapping(t_uint256,t_mapping(t_bytes32,t_uint256))":{"encoding":"mapping","key":"t_uint256","label":"mapping(uint256 => mapping(bytes32 => uint256))","numberOfBytes":"32","value":"t_mapping(t_bytes32,t_uint256)"},"t_mapping(t_uint256,t_mapping(t_uint256,t_struct(SuperBlockCommitment)61843_storage))":{"encoding":"mapping","key":"t_uint256","label":"mapping(uint256 => mapping(uint256 => struct PCPStorage.SuperBlockCommitment))","numberOfBytes":"32","value":"t_mapping(t_uint256,t_struct(SuperBlockCommitment)61843_storage)"},"t_mapping(t_uint256,t_struct(SuperBlockCommitment)61843_storage)":{"encoding":"mapping","key":"t_uint256","label":"mapping(uint256 => struct PCPStorage.SuperBlockCommitment)","numberOfBytes":"32","value":"t_struct(SuperBlockCommitment)61843_storage"},"t_mapping(t_uint256,t_uint256)":{"encoding":"mapping","key":"t_uint256","label":"mapping(uint256 => uint256)","numberOfBytes":"32","value":"t_uint256"},"t_struct(SuperBlockCommitment)61843_storage":{"encoding":"inplace","label":"struct PCPStorage.SuperBlockCommitment","numberOfBytes":"96","members":[{"astId":61838,"contract":"src/settlement/PCP.sol:PCP","label":"height","offset":0,"slot":"0","type":"t_uint256"},{"astId":61840,"contract":"src/settlement/PCP.sol:PCP","label":"commitment","offset":0,"slot":"1","type":"t_bytes32"},{"astId":61842,"contract":"src/settlement/PCP.sol:PCP","label":"blockId","offset":0,"slot":"2","type":"t_bytes32"}]},"t_uint256":{"encoding":"inplace","label":"uint256","numberOfBytes":"32"}}},"id":114}