{"abi":[{"type":"function","name":"COMMITMENT_ADMIN","inputs":[],"outputs":[{"name":"","type":"bytes32","internalType":"bytes32"}],"stateMutability":"view"},{"type":"function","name":"DEFAULT_ADMIN_ROLE","inputs":[],"outputs":[{"name":"","type":"bytes32","internalType":"bytes32"}],"stateMutability":"view"},{"type":"function","name":"TRUSTED_ATTESTER","inputs":[],"outputs":[{"name":"","type":"bytes32","internalType":"bytes32"}],"stateMutability":"view"},{"type":"function","name":"UPGRADE_INTERFACE_VERSION","inputs":[],"outputs":[{"name":"","type":"string","internalType":"string"}],"stateMutability":"view"},{"type":"function","name":"acceptGenesisCeremony","inputs":[],"outputs":[],"stateMutability":"nonpayable"},{"type":"function","name":"acceptedBlocks","inputs":[{"name":"blockHeight","type":"uint256","internalType":"uint256"}],"outputs":[{"name":"height","type":"uint256","internalType":"uint256"},{"name":"commitment","type":"bytes32","internalType":"bytes32"},{"name":"blockId","type":"bytes32","internalType":"bytes32"}],"stateMutability":"view"},{"type":"function","name":"acceptedBlocksVersion","inputs":[],"outputs":[{"name":"","type":"uint256","internalType":"uint256"}],"stateMutability":"view"},{"type":"function","name":"batchGrantCommitmentAdmin","inputs":[{"name":"accounts","type":"address[]","internalType":"address[]"}],"outputs":[],"stateMutability":"nonpayable"},{"type":"function","name":"batchGrantTrustedAttester","inputs":[{"name":"attesters","type":"address[]","internalType":"address[]"}],"outputs":[],"stateMutability":"nonpayable"},{"type":"function","name":"blockHeightEpochAssignments","inputs":[{"name":"blockHeight","type":"uint256","internalType":"uint256"}],"outputs":[{"name":"epoch","type":"uint256","internalType":"uint256"}],"stateMutability":"view"},{"type":"function","name":"commitmentStakes","inputs":[{"name":"blockHeight","type":"uint256","internalType":"uint256"},{"name":"commitement","type":"bytes32","internalType":"bytes32"}],"outputs":[{"name":"stake","type":"uint256","internalType":"uint256"}],"stateMutability":"view"},{"type":"function","name":"commitments","inputs":[{"name":"blockHeight","type":"uint256","internalType":"uint256"},{"name":"attester","type":"address","internalType":"address"}],"outputs":[{"name":"height","type":"uint256","internalType":"uint256"},{"name":"commitment","type":"bytes32","internalType":"bytes32"},{"name":"blockId","type":"bytes32","internalType":"bytes32"}],"stateMutability":"view"},{"type":"function","name":"computeAllCurrentEpochStake","inputs":[{"name":"attester","type":"address","internalType":"address"}],"outputs":[{"name":"","type":"uint256","internalType":"uint256"}],"stateMutability":"view"},{"type":"function","name":"computeAllStakeAtEpoch","inputs":[{"name":"epoch","type":"uint256","internalType":"uint256"},{"name":"attester","type":"address","internalType":"address"}],"outputs":[{"name":"","type":"uint256","internalType":"uint256"}],"stateMutability":"view"},{"type":"function","name":"computeAllTotalStakeForCurrentEpoch","inputs":[],"outputs":[{"name":"","type":"uint256","internalType":"uint256"}],"stateMutability":"view"},{"type":"function","name":"computeAllTotalStakeForEpoch","inputs":[{"name":"epoch","type":"uint256","internalType":"uint256"}],"outputs":[{"name":"","type":"uint256","internalType":"uint256"}],"stateMutability":"view"},{"type":"function","name":"createBlockCommitment","inputs":[{"name":"height","type":"uint256","internalType":"uint256"},{"name":"commitment","type":"bytes32","internalType":"bytes32"},{"name":"blockId","type":"bytes32","internalType":"bytes32"}],"outputs":[{"name":"","type":"tuple","internalType":"struct MCRStorage.BlockCommitment","components":[{"name":"height","type":"uint256","internalType":"uint256"},{"name":"commitment","type":"bytes32","internalType":"bytes32"},{"name":"blockId","type":"bytes32","internalType":"bytes32"}]}],"stateMutability":"pure"},{"type":"function","name":"forceLatestCommitment","inputs":[{"name":"blockCommitment","type":"tuple","internalType":"struct MCRStorage.BlockCommitment","components":[{"name":"height","type":"uint256","internalType":"uint256"},{"name":"commitment","type":"bytes32","internalType":"bytes32"},{"name":"blockId","type":"bytes32","internalType":"bytes32"}]}],"outputs":[],"stateMutability":"nonpayable"},{"type":"function","name":"getAcceptedCommitmentAtBlockHeight","inputs":[{"name":"height","type":"uint256","internalType":"uint256"}],"outputs":[{"name":"","type":"tuple","internalType":"struct MCRStorage.BlockCommitment","components":[{"name":"height","type":"uint256","internalType":"uint256"},{"name":"commitment","type":"bytes32","internalType":"bytes32"},{"name":"blockId","type":"bytes32","internalType":"bytes32"}]}],"stateMutability":"view"},{"type":"function","name":"getAttesters","inputs":[],"outputs":[{"name":"","type":"address[]","internalType":"address[]"}],"stateMutability":"view"},{"type":"function","name":"getCurrentEpoch","inputs":[],"outputs":[{"name":"","type":"uint256","internalType":"uint256"}],"stateMutability":"view"},{"type":"function","name":"getCurrentEpochStake","inputs":[{"name":"custodian","type":"address","internalType":"address"},{"name":"attester","type":"address","internalType":"address"}],"outputs":[{"name":"","type":"uint256","internalType":"uint256"}],"stateMutability":"view"},{"type":"function","name":"getEpochByBlockTime","inputs":[],"outputs":[{"name":"","type":"uint256","internalType":"uint256"}],"stateMutability":"view"},{"type":"function","name":"getMaxTolerableBlockHeight","inputs":[],"outputs":[{"name":"","type":"uint256","internalType":"uint256"}],"stateMutability":"view"},{"type":"function","name":"getNextEpoch","inputs":[],"outputs":[{"name":"","type":"uint256","internalType":"uint256"}],"stateMutability":"view"},{"type":"function","name":"getRoleAdmin","inputs":[{"name":"role","type":"bytes32","internalType":"bytes32"}],"outputs":[{"name":"","type":"bytes32","internalType":"bytes32"}],"stateMutability":"view"},{"type":"function","name":"getStakeAtEpoch","inputs":[{"name":"epoch","type":"uint256","internalType":"uint256"},{"name":"custodian","type":"address","internalType":"address"},{"name":"attester","type":"address","internalType":"address"}],"outputs":[{"name":"","type":"uint256","internalType":"uint256"}],"stateMutability":"view"},{"type":"function","name":"getTotalStakeForCurrentEpoch","inputs":[{"name":"custodian","type":"address","internalType":"address"}],"outputs":[{"name":"","type":"uint256","internalType":"uint256"}],"stateMutability":"view"},{"type":"function","name":"getTotalStakeForEpoch","inputs":[{"name":"epoch","type":"uint256","internalType":"uint256"},{"name":"custodian","type":"address","internalType":"address"}],"outputs":[{"name":"","type":"uint256","internalType":"uint256"}],"stateMutability":"view"},{"type":"function","name":"getValidatorCommitmentAtBlockHeight","inputs":[{"name":"height","type":"uint256","internalType":"uint256"},{"name":"attester","type":"address","internalType":"address"}],"outputs":[{"name":"","type":"tuple","internalType":"struct MCRStorage.BlockCommitment","components":[{"name":"height","type":"uint256","internalType":"uint256"},{"name":"commitment","type":"bytes32","internalType":"bytes32"},{"name":"blockId","type":"bytes32","internalType":"bytes32"}]}],"stateMutability":"view"},{"type":"function","name":"grantCommitmentAdmin","inputs":[{"name":"account","type":"address","internalType":"address"}],"outputs":[],"stateMutability":"nonpayable"},{"type":"function","name":"grantRole","inputs":[{"name":"role","type":"bytes32","internalType":"bytes32"},{"name":"account","type":"address","internalType":"address"}],"outputs":[],"stateMutability":"nonpayable"},{"type":"function","name":"grantTrustedAttester","inputs":[{"name":"attester","type":"address","internalType":"address"}],"outputs":[],"stateMutability":"nonpayable"},{"type":"function","name":"hasRole","inputs":[{"name":"role","type":"bytes32","internalType":"bytes32"},{"name":"account","type":"address","internalType":"address"}],"outputs":[{"name":"","type":"bool","internalType":"bool"}],"stateMutability":"view"},{"type":"function","name":"initialize","inputs":[],"outputs":[],"stateMutability":"nonpayable"},{"type":"function","name":"initialize","inputs":[{"name":"_stakingContract","type":"address","internalType":"contract IMovementStaking"},{"name":"_lastAcceptedBlockHeight","type":"uint256","internalType":"uint256"},{"name":"_leadingBlockTolerance","type":"uint256","internalType":"uint256"},{"name":"_epochDuration","type":"uint256","internalType":"uint256"},{"name":"_custodians","type":"address[]","internalType":"address[]"}],"outputs":[],"stateMutability":"nonpayable"},{"type":"function","name":"lastAcceptedBlockHeight","inputs":[],"outputs":[{"name":"","type":"uint256","internalType":"uint256"}],"stateMutability":"view"},{"type":"function","name":"leadingBlockTolerance","inputs":[],"outputs":[{"name":"","type":"uint256","internalType":"uint256"}],"stateMutability":"view"},{"type":"function","name":"openAttestationEnabled","inputs":[],"outputs":[{"name":"","type":"bool","internalType":"bool"}],"stateMutability":"view"},{"type":"function","name":"proxiableUUID","inputs":[],"outputs":[{"name":"","type":"bytes32","internalType":"bytes32"}],"stateMutability":"view"},{"type":"function","name":"renounceRole","inputs":[{"name":"role","type":"bytes32","internalType":"bytes32"},{"name":"callerConfirmation","type":"address","internalType":"address"}],"outputs":[],"stateMutability":"nonpayable"},{"type":"function","name":"revokeRole","inputs":[{"name":"role","type":"bytes32","internalType":"bytes32"},{"name":"account","type":"address","internalType":"address"}],"outputs":[],"stateMutability":"nonpayable"},{"type":"function","name":"setAcceptedCommitmentAtBlockHeight","inputs":[{"name":"blockCommitment","type":"tuple","internalType":"struct MCRStorage.BlockCommitment","components":[{"name":"height","type":"uint256","internalType":"uint256"},{"name":"commitment","type":"bytes32","internalType":"bytes32"},{"name":"blockId","type":"bytes32","internalType":"bytes32"}]}],"outputs":[],"stateMutability":"nonpayable"},{"type":"function","name":"setLastAcceptedBlockHeight","inputs":[{"name":"height","type":"uint256","internalType":"uint256"}],"outputs":[],"stateMutability":"nonpayable"},{"type":"function","name":"setOpenAttestationEnabled","inputs":[{"name":"enabled","type":"bool","internalType":"bool"}],"outputs":[],"stateMutability":"nonpayable"},{"type":"function","name":"stakingContract","inputs":[],"outputs":[{"name":"","type":"address","internalType":"contract IMovementStaking"}],"stateMutability":"view"},{"type":"function","name":"submitBatchBlockCommitment","inputs":[{"name":"blockCommitments","type":"tuple[]","internalType":"struct MCRStorage.BlockCommitment[]","components":[{"name":"height","type":"uint256","internalType":"uint256"},{"name":"commitment","type":"bytes32","internalType":"bytes32"},{"name":"blockId","type":"bytes32","internalType":"bytes32"}]}],"outputs":[],"stateMutability":"nonpayable"},{"type":"function","name":"submitBlockCommitment","inputs":[{"name":"blockCommitment","type":"tuple","internalType":"struct MCRStorage.BlockCommitment","components":[{"name":"height","type":"uint256","internalType":"uint256"},{"name":"commitment","type":"bytes32","internalType":"bytes32"},{"name":"blockId","type":"bytes32","internalType":"bytes32"}]}],"outputs":[],"stateMutability":"nonpayable"},{"type":"function","name":"supportsInterface","inputs":[{"name":"interfaceId","type":"bytes4","internalType":"bytes4"}],"outputs":[{"name":"","type":"bool","internalType":"bool"}],"stateMutability":"view"},{"type":"function","name":"upgradeToAndCall","inputs":[{"name":"newImplementation","type":"address","internalType":"address"},{"name":"data","type":"bytes","internalType":"bytes"}],"outputs":[],"stateMutability":"payable"},{"type":"function","name":"versionedAcceptedBlocks","inputs":[{"name":"","type":"uint256","internalType":"uint256"},{"name":"blockHeight","type":"uint256","internalType":"uint256"}],"outputs":[{"name":"height","type":"uint256","internalType":"uint256"},{"name":"commitment","type":"bytes32","internalType":"bytes32"},{"name":"blockId","type":"bytes32","internalType":"bytes32"}],"stateMutability":"view"},{"type":"event","name":"BlockAccepted","inputs":[{"name":"blockHash","type":"bytes32","indexed":true,"internalType":"bytes32"},{"name":"stateCommitment","type":"bytes32","indexed":false,"internalType":"bytes32"},{"name":"height","type":"uint256","indexed":false,"internalType":"uint256"}],"anonymous":false},{"type":"event","name":"BlockCommitmentSubmitted","inputs":[{"name":"blockHash","type":"bytes32","indexed":true,"internalType":"bytes32"},{"name":"stateCommitment","type":"bytes32","indexed":false,"internalType":"bytes32"},{"name":"attesterStake","type":"uint256","indexed":false,"internalType":"uint256"}],"anonymous":false},{"type":"event","name":"Initialized","inputs":[{"name":"version","type":"uint64","indexed":false,"internalType":"uint64"}],"anonymous":false},{"type":"event","name":"RoleAdminChanged","inputs":[{"name":"role","type":"bytes32","indexed":true,"internalType":"bytes32"},{"name":"previousAdminRole","type":"bytes32","indexed":true,"internalType":"bytes32"},{"name":"newAdminRole","type":"bytes32","indexed":true,"internalType":"bytes32"}],"anonymous":false},{"type":"event","name":"RoleGranted","inputs":[{"name":"role","type":"bytes32","indexed":true,"internalType":"bytes32"},{"name":"account","type":"address","indexed":true,"internalType":"address"},{"name":"sender","type":"address","indexed":true,"internalType":"address"}],"anonymous":false},{"type":"event","name":"RoleRevoked","inputs":[{"name":"role","type":"bytes32","indexed":true,"internalType":"bytes32"},{"name":"account","type":"address","indexed":true,"internalType":"address"},{"name":"sender","type":"address","indexed":true,"internalType":"address"}],"anonymous":false},{"type":"event","name":"Upgraded","inputs":[{"name":"implementation","type":"address","indexed":true,"internalType":"address"}],"anonymous":false},{"type":"error","name":"AccessControlBadConfirmation","inputs":[]},{"type":"error","name":"AccessControlUnauthorizedAccount","inputs":[{"name":"account","type":"address","internalType":"address"},{"name":"neededRole","type":"bytes32","internalType":"bytes32"}]},{"type":"error","name":"AddressEmptyCode","inputs":[{"name":"target","type":"address","internalType":"address"}]},{"type":"error","name":"AttesterAlreadyCommitted","inputs":[]},{"type":"error","name":"ERC1967InvalidImplementation","inputs":[{"name":"implementation","type":"address","internalType":"address"}]},{"type":"error","name":"ERC1967NonPayable","inputs":[]},{"type":"error","name":"FailedInnerCall","inputs":[]},{"type":"error","name":"InvalidInitialization","inputs":[]},{"type":"error","name":"NotInitializing","inputs":[]},{"type":"error","name":"UUPSUnauthorizedCallContext","inputs":[]},{"type":"error","name":"UUPSUnsupportedProxiableUUID","inputs":[{"name":"slot","type":"bytes32","internalType":"bytes32"}]},{"type":"error","name":"UnacceptableBlockCommitment","inputs":[]}],"bytecode":{"object":"0x60a0604052306080523480156012575f80fd5b5060805161292f6100395f395f81816119cc015281816119f50152611b38015261292f5ff3fe6080604052600436106102d9575f3560e01c806381df174611610189578063d547741f116100d8578063ee96da0511610092578063efe97d051161006d578063efe97d05146109ee578063f34d002a14610a02578063f89fe60b14610a21578063fc2788ad14610a40575f80fd5b8063ee96da0514610953578063ee99205c1461099f578063ef9ae15c146109d5575f80fd5b8063d547741f14610808578063e1b2b22214610827578063e1ffa44c14610846578063e8124097146108b5578063e90d4c06146108fa578063ee377d901461093f575f80fd5b8063ad3cb1cc11610143578063bc90afbb1161011e578063bc90afbb1461078c578063c6e1b9db146107ab578063cf6772ad146107ca578063d2526fef146107e9575f80fd5b8063ad3cb1cc1461071c578063b274a93514610759578063b97dd9e214610778575f80fd5b806381df17461461067957806391d148541461069857806392a2ebf3146106b7578063949d7c2a146106cb578063a217fddf146106ea578063a3df415f146106fd575f80fd5b80634ed7e4351161024557806360fea5dd116101ff578063747e7295116101da578063747e72951461061c57806374e8e5641461063157806380e460f0146106455780638129fc1c14610665575f80fd5b806360fea5dd146105c95780636542384f146105e85780636b588ac714610607575f80fd5b80634ed7e435146105235780634f1ef2861461054457806352d1902d1461055757806353cd9e3c1461056b5780635a912c831461058a5780635db916ab146105a9575f80fd5b80631faea1ed116102965780631faea1ed1461045d57806320e0e4451461047c578063248a9ca3146104a75780632f2ff15d146104c657806336568abe146104e55780634b47d95514610504575f80fd5b806301ffc9a7146102dd57806308c7050f146103115780630a0b81cc146103325780631c4e4e27146103d15780631cfa2516146104265780631dfcce8c14610449575b5f80fd5b3480156102e8575f80fd5b506102fc6102f736600461219e565b610a76565b60405190151581526020015b60405180910390f35b34801561031c575f80fd5b5061033061032b36600461225f565b610aac565b005b34801561033d575f80fd5b506103af61034c36600461228d565b60408051606080820183525f8083526020808401829052928401819052948552600482528285206001600160a01b039490941685529281529281902081519283018252805483526001810154938301939093526002909201549181019190915290565b6040805182518152602080840151908201529181015190820152606001610308565b3480156103dc575f80fd5b5061040b6103eb3660046122bb565b60066020525f908152604090208054600182015460029092015490919083565b60408051938452602084019290925290820152606001610308565b348015610431575f80fd5b5061043b60015481565b604051908152602001610308565b348015610454575f80fd5b5061043b610bbc565b348015610468575f80fd5b5061043b6104773660046122d2565b610bcd565b348015610487575f80fd5b5061043b6104963660046122bb565b60036020525f908152604090205481565b3480156104b2575f80fd5b5061043b6104c13660046122bb565b610c58565b3480156104d1575f80fd5b506103306104e036600461228d565b610c78565b3480156104f0575f80fd5b506103306104ff36600461228d565b610c9a565b34801561050f575f80fd5b5061033061051e3660046123a6565b610cd2565b34801561052e575f80fd5b50610537610d3f565b6040516103089190612422565b610330610552366004612434565b610dab565b348015610562575f80fd5b5061043b610dc6565b348015610576575f80fd5b5061033061058536600461225f565b610de1565b348015610595575f80fd5b506103306105a43660046122bb565b610e9f565b3480156105b4575f80fd5b5061043b5f805160206128da83398151915281565b3480156105d4575f80fd5b5061043b6105e33660046124d9565b610f2d565b3480156105f3575f80fd5b5061043b6106023660046122bb565b610f3f565b348015610612575f80fd5b5061043b60025481565b348015610627575f80fd5b5061043b60095481565b34801561063c575f80fd5b5061043b610ff8565b348015610650575f80fd5b5061043b5f8051602061287a83398151915281565b348015610670575f80fd5b50610330611009565b348015610684575f80fd5b506103306106933660046124d9565b611113565b3480156106a3575f80fd5b506102fc6106b236600461228d565b611141565b3480156106c2575f80fd5b50610330611177565b3480156106d6575f80fd5b506103306106e53660046124d9565b61122c565b3480156106f5575f80fd5b5061043b5f81565b348015610708575f80fd5b506103306107173660046124f4565b6112ea565b348015610727575f80fd5b5061074c604051806040016040528060058152602001640352e302e360dc1b81525081565b6040516103089190612589565b348015610764575f80fd5b5061043b6107733660046124d9565b611482565b348015610783575f80fd5b5061043b611494565b348015610797575f80fd5b5061043b6107a636600461259b565b6114ff565b3480156107b6575f80fd5b5061043b6107c536600461228d565b611512565b3480156107d5575f80fd5b506103306107e43660046123a6565b61158b565b3480156107f4575f80fd5b506103306108033660046125c7565b6115d8565b348015610813575f80fd5b5061033061082236600461228d565b611603565b348015610832575f80fd5b506103306108413660046125e6565b61161f565b348015610851575f80fd5b506103af6108603660046122bb565b60408051606080820183525f8083526020808401829052928401819052600954815260088352838120948152938252928290208251938401835280548452600181015491840191909152600201549082015290565b3480156108c0575f80fd5b5061040b6108cf366004612680565b600860209081525f928352604080842090915290825290208054600182015460029092015490919083565b348015610905575f80fd5b5061040b61091436600461228d565b600460209081525f928352604080842090915290825290208054600182015460029092015490919083565b34801561094a575f80fd5b5061043b6116c4565b34801561095e575f80fd5b506103af61096d3660046126a0565b60408051606080820183525f808352602080840182905292840152825190810183529485528401929092529082015290565b3480156109aa575f80fd5b505f546109bd906001600160a01b031681565b6040516001600160a01b039091168152602001610308565b3480156109e0575f80fd5b506007546102fc9060ff1681565b3480156109f9575f80fd5b5061043b6116f4565b348015610a0d575f80fd5b5061043b610a1c36600461228d565b611724565b348015610a2c575f80fd5b50610330610a3b36600461225f565b6117df565b348015610a4b575f80fd5b5061043b610a5a366004612680565b600560209081525f928352604080842090915290825290205481565b5f6001600160e01b03198216637965db0b60e01b1480610aa657506301ffc9a760e01b6001600160e01b03198316145b92915050565b610aeb6040518060400160405280602081526020017f666f7263654c6174657374436f6d6d69746d656e742063616c6c65642062793a81525033611858565b610b025f8051602061287a83398151915233611141565b610b6c5760405162461bcd60e51b815260206004820152603060248201527f464f5243455f4c41544553545f434f4d4d49544d454e545f49535f434f4d4d4960448201526f544d454e545f41444d494e5f4f4e4c5960801b60648201526084015b60405180910390fd5b600160095f828254610b7e91906126dd565b90915550506009545f908152600860209081526040808320845184528252918290208351808255918401516001820155919092015160029182015555565b5f610bc8610602611494565b905090565b5f80546040516311b2104b60e31b8152306004820152602481018690526001600160a01b038581166044830152848116606483015290911690638d90825890608401602060405180830381865afa158015610c2a573d5f803e3d5ffd5b505050506040513d601f19601f82011682018060405250810190610c4e91906126f0565b90505b9392505050565b5f9081525f805160206128ba833981519152602052604090206001015490565b610c8182610c58565b610c8a8161189d565b610c9483836118a7565b50505050565b6001600160a01b0381163314610cc35760405163334bd91960e11b815260040160405180910390fd5b610ccd8282611948565b505050565b610cdc5f33611141565b610cf85760405162461bcd60e51b8152600401610b6390612707565b5f5b8151811015610d3b57610d335f8051602061287a833981519152838381518110610d2657610d26612749565b6020026020010151610c78565b600101610cfa565b5050565b5f54604051632924b73b60e01b81523060048201526060916001600160a01b031690632924b73b906024015f60405180830381865afa158015610d84573d5f803e3d5ffd5b505050506040513d5f823e601f3d908101601f19168201604052610bc8919081019061275d565b610db36119c1565b610dbc82611a67565b610d3b8282611a71565b5f610dcf611b2d565b505f8051602061289a83398151915290565b610df85f8051602061287a83398151915233611141565b610e6a5760405162461bcd60e51b815260206004820152603f60248201527f5345545f4c4153545f41434345505445445f434f4d4d49544d454e545f41545f60448201527f4845494748545f49535f434f4d4d49544d454e545f41444d494e5f4f4e4c59006064820152608401610b63565b6009545f9081526008602090815260408083208451845282529182902083518155908301516001820155910151600290910155565b610eb65f8051602061287a83398151915233611141565b610f285760405162461bcd60e51b815260206004820152603760248201527f5345545f4c4153545f41434345505445445f424c4f434b5f4845494748545f4960448201527f535f434f4d4d49544d454e545f41444d494e5f4f4e4c590000000000000000006064820152608401610b63565b600255565b5f610aa6610f39611494565b83611724565b5f8054604051636ae501ef60e11b815230600482015282916001600160a01b03169063d5ca03de906024015f60405180830381865afa158015610f84573d5f803e3d5ffd5b505050506040513d5f823e601f3d908101601f19168201604052610fab919081019061275d565b90505f805b8251811015610ff057610fdc85848381518110610fcf57610fcf612749565b6020026020010151611512565b610fe690836126dd565b9150600101610fb0565b509392505050565b5f600154600254610bc891906126dd565b7ff0c57e16840df040f15088dc2f81fe391c3923bec73e23a9662efc9c229c6a008054600160401b810460ff1615906001600160401b03165f8115801561104d5750825b90505f826001600160401b031660011480156110685750303b155b905081158015611076575080155b156110945760405163f92ee8a960e01b815260040160405180910390fd5b845467ffffffffffffffff1916600117855583156110be57845460ff60401b1916600160401b1785555b6110c6611b76565b831561110c57845460ff60401b19168555604051600181527fc7f505b2f371ae2175ee4913f4499e1f2633a7b5936321eed1cdaeb6115181d29060200160405180910390a15b5050505050565b5f8051602061287a83398151915261112a8161189d565b610d3b5f805160206128da83398151915283610c78565b5f9182525f805160206128ba833981519152602090815260408084206001600160a01b0393909316845291905290205460ff1690565b6111815f33611141565b6111db5760405162461bcd60e51b815260206004820152602560248201527f4143434550545f47454e455349535f434552454d4f4e595f49535f41444d494e6044820152645f4f4e4c5960d81b6064820152608401610b63565b5f8054604080516392a2ebf360e01b815290516001600160a01b03909216926392a2ebf39260048084019382900301818387803b15801561121a575f80fd5b505af1158015610c94573d5f803e3d5ffd5b61126b6040518060400160405280601f81526020017f6772616e74436f6d6d69746d656e7441646d696e2063616c6c65642062793a0081525033611858565b6112755f33611141565b6112915760405162461bcd60e51b8152600401610b6390612707565b6112a85f8051602061287a83398151915282610c78565b6112e76040518060400160405280602081526020017f436f6d6d69746d656e7441646d696e20726f6c65206772616e74656420746f3a81525082611858565b50565b7ff0c57e16840df040f15088dc2f81fe391c3923bec73e23a9662efc9c229c6a008054600160401b810460ff1615906001600160401b03165f8115801561132e5750825b90505f826001600160401b031660011480156113495750303b155b905081158015611357575080155b156113755760405163f92ee8a960e01b815260040160405180910390fd5b845467ffffffffffffffff19166001178555831561139f57845460ff60401b1916600160401b1785555b6113a7611b82565b5f80546001600160a01b0319166001600160a01b038c16908117909155600189905560028a9055604051631a6e609f60e31b815263d37304f8906113f1908a908a906004016127ec565b5f604051808303815f87803b158015611408575f80fd5b505af115801561141a573d5f803e3d5ffd5b505050506114273361122c565b61143033611113565b831561147657845460ff60401b19168555604051600181527fc7f505b2f371ae2175ee4913f4499e1f2633a7b5936321eed1cdaeb6115181d29060200160405180910390a15b50505050505050505050565b5f610aa661148e611494565b83611512565b5f8054604051634d3223a560e01b81523060048201526001600160a01b0390911690634d3223a5906024015b602060405180830381865afa1580156114db573d5f803e3d5ffd5b505050506040513d601f19601f82011682018060405250810190610bc891906126f0565b5f610c5161150b611494565b8484610bcd565b5f8054604051635cdf315560e01b8152306004820152602481018590526001600160a01b03848116604483015290911690635cdf315590606401602060405180830381865afa158015611567573d5f803e3d5ffd5b505050506040513d601f19601f82011682018060405250810190610c5191906126f0565b5f8051602061287a8339815191526115a28161189d565b5f5b8251811015610ccd576115d05f805160206128da833981519152848381518110610d2657610d26612749565b6001016115a4565b5f8051602061287a8339815191526115ef8161189d565b506007805460ff1916911515919091179055565b61160c82610c58565b6116158161189d565b610c948383611948565b60075460ff168061164257506116425f805160206128da83398151915233611141565b61168e5760405162461bcd60e51b815260206004820152601d60248201527f554e415554484f52495a45445f424c4f434b5f434f4d4d49544d454e540000006044820152606401610b63565b5f5b8151811015610d3b576116bc338383815181106116af576116af612749565b6020026020010151611b94565b600101611690565b5f8054604051631868e3ff60e31b81523060048201526001600160a01b039091169063c3471ff8906024016114c0565b5f805460405163010913cb60e71b81523060048201526001600160a01b0390911690638489e580906024016114c0565b5f8054604051636ae501ef60e11b815230600482015282916001600160a01b03169063d5ca03de906024015f60405180830381865afa158015611769573d5f803e3d5ffd5b505050506040513d5f823e601f3d908101601f19168201604052611790919081019061275d565b90505f805b82518110156117d6576117c2868483815181106117b4576117b4612749565b602002602001015187610bcd565b6117cc90836126dd565b9150600101611795565b50949350505050565b60075460ff168061180257506118025f805160206128da83398151915233611141565b61184e5760405162461bcd60e51b815260206004820152601d60248201527f554e415554484f52495a45445f424c4f434b5f434f4d4d49544d454e540000006044820152606401610b63565b6112e73382611b94565b610d3b828260405160240161186e929190612804565b60408051601f198184030181529190526020810180516001600160e01b031663319af33360e01b179052611d14565b6112e78133611d1d565b5f5f805160206128ba8339815191526118c08484611141565b61193f575f848152602082815260408083206001600160a01b03871684529091529020805460ff191660011790556118f53390565b6001600160a01b0316836001600160a01b0316857f2f8788117e7eff1d82e926ec794901d17c78024a50270940304540a733656f0d60405160405180910390a46001915050610aa6565b5f915050610aa6565b5f5f805160206128ba8339815191526119618484611141565b1561193f575f848152602082815260408083206001600160a01b0387168085529252808320805460ff1916905551339287917ff6391f5c32d9c69d2a47ea670b442974b53935d1edc7fd64eb21e047a839171b9190a46001915050610aa6565b306001600160a01b037f0000000000000000000000000000000000000000000000000000000000000000161480611a4757507f00000000000000000000000000000000000000000000000000000000000000006001600160a01b0316611a3b5f8051602061289a833981519152546001600160a01b031690565b6001600160a01b031614155b15611a655760405163703e46dd60e11b815260040160405180910390fd5b565b5f610d3b8161189d565b816001600160a01b03166352d1902d6040518163ffffffff1660e01b8152600401602060405180830381865afa925050508015611acb575060408051601f3d908101601f19168201909252611ac8918101906126f0565b60015b611af357604051634c9c8ce360e01b81526001600160a01b0383166004820152602401610b63565b5f8051602061289a8339815191528114611b2357604051632a87526960e21b815260048101829052602401610b63565b610ccd8383611d56565b306001600160a01b037f00000000000000000000000000000000000000000000000000000000000000001614611a655760405163703e46dd60e11b815260040160405180910390fd5b611b7e611dab565b611a655b611b8a611dab565b6112e75f336118a7565b80515f9081526004602090815260408083206001600160a01b038616845290915290205415611bd657604051630ae09ad960e41b815260040160405180910390fd5b8051600154600254611be891906126dd565b1015611c0757604051630ae09ad960e41b815260040160405180910390fd5b80515f908152600360205260408120549003611c3657611c256116c4565b81515f908152600360205260409020555b80515f9081526004602090815260408083206001600160a01b0386168452825280832084518155918401516001830155830151600290910155611c7883610f2d565b82515f908152600560209081526040808320828701518452909152812080549293508392909190611caa9084906126dd565b9091555050604080830151602080850151835190815290810184905290917f4c9b7866113ce81c9ece48d2a0f4bb9d89d87f997a851cf3c448ee02f54559fd910160405180910390a25b611d0b6002546001611d0691906126dd565b611df4565b611cf457505050565b6112e781611f02565b611d278282611141565b610d3b5760405163e2517d3f60e01b81526001600160a01b038216600482015260248101839052604401610b63565b611d5f82611f22565b6040516001600160a01b038316907fbc7cd75a20ee27fd9adebab32041f755214dbc6bffa90cc0225b39da2e5c2d3b905f90a2805115611da357610ccd8282611f85565b610d3b611ff7565b7ff0c57e16840df040f15088dc2f81fe391c3923bec73e23a9662efc9c229c6a0054600160401b900460ff16611a6557604051631afcd79f60e31b815260040160405180910390fd5b5f818152600360205260408120545b80611e0c611494565b1015611e1f57611e1a612016565b611e03565b5f6003611e2b83610f3f565b611e3690600261282d565b611e409190612844565b90505f611e4b610d3f565b90505f5b8151811015611ef7575f828281518110611e6b57611e6b612749565b6020908102919091018101515f8981526004835260408082206001600160a01b038416835284528082208151606081018352815480825260018301548288019081526002909301548285015284526005865282842091518452945290205490925085811115611eec57611edd82612055565b50600198975050505050505050565b505050600101611e4f565b505f95945050505050565b80516a636f6e736f6c652e6c6f67602083015f808483855afa5050505050565b806001600160a01b03163b5f03611f5757604051634c9c8ce360e01b81526001600160a01b0382166004820152602401610b63565b5f8051602061289a83398151915280546001600160a01b0319166001600160a01b0392909216919091179055565b60605f80846001600160a01b031684604051611fa19190612863565b5f60405180830381855af49150503d805f8114611fd9576040519150601f19603f3d011682016040523d82523d5f602084013e611fde565b606091505b5091509150611fee858383612119565b95945050505050565b3415611a655760405163b398979f60e01b815260040160405180910390fd5b5f805460408051632a21edc760e21b815290516001600160a01b039092169263a887b71c9260048084019382900301818387803b15801561121a575f80fd5b5f61205e611494565b82515f9081526003602052604090205490915081146120905760405163071cab8b60e21b815260040160405180910390fd5b6009545f908152600860209081526040808320855184528252918290208451808255858301516001830181905586850151600293840181905592829055845190815292830152917f5b0d1f14085ff88796df21c2944d34c115838925a7bee30850fcacaaf902a379910160405180910390a28061210b6116c4565b1115610d3b57610d3b612016565b60608261212e5761212982612175565b610c51565b815115801561214557506001600160a01b0384163b155b1561216e57604051639996b31560e01b81526001600160a01b0385166004820152602401610b63565b5080610c51565b8051156121855780518082602001fd5b604051630a12f52160e11b815260040160405180910390fd5b5f602082840312156121ae575f80fd5b81356001600160e01b031981168114610c51575f80fd5b634e487b7160e01b5f52604160045260245ffd5b604051601f8201601f191681016001600160401b0381118282101715612201576122016121c5565b604052919050565b5f60608284031215612219575f80fd5b604051606081016001600160401b038111828210171561223b5761223b6121c5565b60409081528335825260208085013590830152928301359281019290925250919050565b5f6060828403121561226f575f80fd5b610c518383612209565b6001600160a01b03811681146112e7575f80fd5b5f806040838503121561229e575f80fd5b8235915060208301356122b081612279565b809150509250929050565b5f602082840312156122cb575f80fd5b5035919050565b5f805f606084860312156122e4575f80fd5b8335925060208401356122f681612279565b9150604084013561230681612279565b809150509250925092565b5f6001600160401b03821115612329576123296121c5565b5060051b60200190565b5f82601f830112612342575f80fd5b813561235561235082612311565b6121d9565b8082825260208201915060208360051b860101925085831115612376575f80fd5b602085015b8381101561239c57803561238e81612279565b83526020928301920161237b565b5095945050505050565b5f602082840312156123b6575f80fd5b81356001600160401b038111156123cb575f80fd5b6123d784828501612333565b949350505050565b5f8151808452602084019350602083015f5b828110156124185781516001600160a01b03168652602095860195909101906001016123f1565b5093949350505050565b602081525f610c5160208301846123df565b5f8060408385031215612445575f80fd5b823561245081612279565b915060208301356001600160401b0381111561246a575f80fd5b8301601f8101851361247a575f80fd5b80356001600160401b03811115612493576124936121c5565b6124a6601f8201601f19166020016121d9565b8181528660208385010111156124ba575f80fd5b816020840160208301375f602083830101528093505050509250929050565b5f602082840312156124e9575f80fd5b8135610c5181612279565b5f805f805f60a08688031215612508575f80fd5b853561251381612279565b945060208601359350604086013592506060860135915060808601356001600160401b03811115612542575f80fd5b61254e88828901612333565b9150509295509295909350565b5f81518084528060208401602086015e5f602082860101526020601f19601f83011685010191505092915050565b602081525f610c51602083018461255b565b5f80604083850312156125ac575f80fd5b82356125b781612279565b915060208301356122b081612279565b5f602082840312156125d7575f80fd5b81358015158114610c51575f80fd5b5f602082840312156125f6575f80fd5b81356001600160401b0381111561260b575f80fd5b8201601f8101841361261b575f80fd5b803561262961235082612311565b8082825260208201915060206060840285010192508683111561264a575f80fd5b6020840193505b82841015612676576126638785612209565b8252602082019150606084019350612651565b9695505050505050565b5f8060408385031215612691575f80fd5b50508035926020909101359150565b5f805f606084860312156126b2575f80fd5b505081359360208301359350604090920135919050565b634e487b7160e01b5f52601160045260245ffd5b80820180821115610aa657610aa66126c9565b5f60208284031215612700575f80fd5b5051919050565b60208082526022908201527f4144445f434f4d4d49544d454e545f41444d494e5f49535f41444d494e5f4f4e6040820152614c5960f01b606082015260800190565b634e487b7160e01b5f52603260045260245ffd5b5f6020828403121561276d575f80fd5b81516001600160401b03811115612782575f80fd5b8201601f81018413612792575f80fd5b80516127a061235082612311565b8082825260208201915060208360051b8501019250868311156127c1575f80fd5b6020840193505b828410156126765783516127db81612279565b8252602093840193909101906127c8565b828152604060208201525f610c4e60408301846123df565b604081525f612816604083018561255b565b905060018060a01b03831660208301529392505050565b8082028115828204841417610aa657610aa66126c9565b5f8261285e57634e487b7160e01b5f52601260045260245ffd5b500490565b5f82518060208501845e5f92019182525091905056fedb2bf73e90d393604e56f0a2a54fed3fbd75332bf39c5ea0704b3b6973a3463c360894a13ba1a3210667c828492db98dca3e2076cc3735a920a3ca505d382bbc02dd7bc7dec4dceedda775e58dd541e08a116c6c53815c0bd028192f7b626800981fe5f60e354ed88ff0544e367c13a4d3342da7c82eb6627f804b747e046e18a2646970667358221220f7bd4675c906140cf1d4d5a8d5ee54afb9ecd0d0a418a71c12c80642c9707c7164736f6c634300081a0033","linkReferences":{}},"methodIdentifiers":{"COMMITMENT_ADMIN()":"80e460f0","DEFAULT_ADMIN_ROLE()":"a217fddf","TRUSTED_ATTESTER()":"5db916ab","UPGRADE_INTERFACE_VERSION()":"ad3cb1cc","acceptGenesisCeremony()":"92a2ebf3","acceptedBlocks(uint256)":"1c4e4e27","acceptedBlocksVersion()":"747e7295","batchGrantCommitmentAdmin(address[])":"4b47d955","batchGrantTrustedAttester(address[])":"cf6772ad","blockHeightEpochAssignments(uint256)":"20e0e445","commitmentStakes(uint256,bytes32)":"fc2788ad","commitments(uint256,address)":"e90d4c06","computeAllCurrentEpochStake(address)":"60fea5dd","computeAllStakeAtEpoch(uint256,address)":"f34d002a","computeAllTotalStakeForCurrentEpoch()":"1dfcce8c","computeAllTotalStakeForEpoch(uint256)":"6542384f","createBlockCommitment(uint256,bytes32,bytes32)":"ee96da05","forceLatestCommitment((uint256,bytes32,bytes32))":"08c7050f","getAcceptedCommitmentAtBlockHeight(uint256)":"e1ffa44c","getAttesters()":"4ed7e435","getCurrentEpoch()":"b97dd9e2","getCurrentEpochStake(address,address)":"bc90afbb","getEpochByBlockTime()":"ee377d90","getMaxTolerableBlockHeight()":"74e8e564","getNextEpoch()":"efe97d05","getRoleAdmin(bytes32)":"248a9ca3","getStakeAtEpoch(uint256,address,address)":"1faea1ed","getTotalStakeForCurrentEpoch(address)":"b274a935","getTotalStakeForEpoch(uint256,address)":"c6e1b9db","getValidatorCommitmentAtBlockHeight(uint256,address)":"0a0b81cc","grantCommitmentAdmin(address)":"949d7c2a","grantRole(bytes32,address)":"2f2ff15d","grantTrustedAttester(address)":"81df1746","hasRole(bytes32,address)":"91d14854","initialize()":"8129fc1c","initialize(address,uint256,uint256,uint256,address[])":"a3df415f","lastAcceptedBlockHeight()":"6b588ac7","leadingBlockTolerance()":"1cfa2516","openAttestationEnabled()":"ef9ae15c","proxiableUUID()":"52d1902d","renounceRole(bytes32,address)":"36568abe","revokeRole(bytes32,address)":"d547741f","setAcceptedCommitmentAtBlockHeight((uint256,bytes32,bytes32))":"53cd9e3c","setLastAcceptedBlockHeight(uint256)":"5a912c83","setOpenAttestationEnabled(bool)":"d2526fef","stakingContract()":"ee99205c","submitBatchBlockCommitment((uint256,bytes32,bytes32)[])":"e1b2b222","submitBlockCommitment((uint256,bytes32,bytes32))":"f89fe60b","supportsInterface(bytes4)":"01ffc9a7","upgradeToAndCall(address,bytes)":"4f1ef286","versionedAcceptedBlocks(uint256,uint256)":"e8124097"},"storageLayout":{"storage":[{"astId":55129,"contract":"src/settlement/MCR.sol:MCR","label":"stakingContract","offset":0,"slot":"0","type":"t_contract(IMovementStaking)56904"},{"astId":55131,"contract":"src/settlement/MCR.sol:MCR","label":"leadingBlockTolerance","offset":0,"slot":"1","type":"t_uint256"},{"astId":55133,"contract":"src/settlement/MCR.sol:MCR","label":"lastAcceptedBlockHeight","offset":0,"slot":"2","type":"t_uint256"},{"astId":55144,"contract":"src/settlement/MCR.sol:MCR","label":"blockHeightEpochAssignments","offset":0,"slot":"3","type":"t_mapping(t_uint256,t_uint256)"},{"astId":55151,"contract":"src/settlement/MCR.sol:MCR","label":"commitments","offset":0,"slot":"4","type":"t_mapping(t_uint256,t_mapping(t_address,t_struct(BlockCommitment)55140_storage))"},{"astId":55157,"contract":"src/settlement/MCR.sol:MCR","label":"commitmentStakes","offset":0,"slot":"5","type":"t_mapping(t_uint256,t_mapping(t_bytes32,t_uint256))"},{"astId":55162,"contract":"src/settlement/MCR.sol:MCR","label":"acceptedBlocks","offset":0,"slot":"6","type":"t_mapping(t_uint256,t_struct(BlockCommitment)55140_storage)"},{"astId":55164,"contract":"src/settlement/MCR.sol:MCR","label":"openAttestationEnabled","offset":0,"slot":"7","type":"t_bool"},{"astId":55171,"contract":"src/settlement/MCR.sol:MCR","label":"versionedAcceptedBlocks","offset":0,"slot":"8","type":"t_mapping(t_uint256,t_mapping(t_uint256,t_struct(BlockCommitment)55140_storage))"},{"astId":55173,"contract":"src/settlement/MCR.sol:MCR","label":"acceptedBlocksVersion","offset":0,"slot":"9","type":"t_uint256"},{"astId":55177,"contract":"src/settlement/MCR.sol:MCR","label":"__gap","offset":0,"slot":"10","type":"t_array(t_uint256)47_storage"}],"types":{"t_address":{"encoding":"inplace","label":"address","numberOfBytes":"20"},"t_array(t_uint256)47_storage":{"encoding":"inplace","label":"uint256[47]","numberOfBytes":"1504","base":"t_uint256"},"t_bool":{"encoding":"inplace","label":"bool","numberOfBytes":"1"},"t_bytes32":{"encoding":"inplace","label":"bytes32","numberOfBytes":"32"},"t_contract(IMovementStaking)56904":{"encoding":"inplace","label":"contract IMovementStaking","numberOfBytes":"20"},"t_mapping(t_address,t_struct(BlockCommitment)55140_storage)":{"encoding":"mapping","key":"t_address","label":"mapping(address => struct MCRStorage.BlockCommitment)","numberOfBytes":"32","value":"t_struct(BlockCommitment)55140_storage"},"t_mapping(t_bytes32,t_uint256)":{"encoding":"mapping","key":"t_bytes32","label":"mapping(bytes32 => uint256)","numberOfBytes":"32","value":"t_uint256"},"t_mapping(t_uint256,t_mapping(t_address,t_struct(BlockCommitment)55140_storage))":{"encoding":"mapping","key":"t_uint256","label":"mapping(uint256 => mapping(address => struct MCRStorage.BlockCommitment))","numberOfBytes":"32","value":"t_mapping(t_address,t_struct(BlockCommitment)55140_storage)"},"t_mapping(t_uint256,t_mapping(t_bytes32,t_uint256))":{"encoding":"mapping","key":"t_uint256","label":"mapping(uint256 => mapping(bytes32 => uint256))","numberOfBytes":"32","value":"t_mapping(t_bytes32,t_uint256)"},"t_mapping(t_uint256,t_mapping(t_uint256,t_struct(BlockCommitment)55140_storage))":{"encoding":"mapping","key":"t_uint256","label":"mapping(uint256 => mapping(uint256 => struct MCRStorage.BlockCommitment))","numberOfBytes":"32","value":"t_mapping(t_uint256,t_struct(BlockCommitment)55140_storage)"},"t_mapping(t_uint256,t_struct(BlockCommitment)55140_storage)":{"encoding":"mapping","key":"t_uint256","label":"mapping(uint256 => struct MCRStorage.BlockCommitment)","numberOfBytes":"32","value":"t_struct(BlockCommitment)55140_storage"},"t_mapping(t_uint256,t_uint256)":{"encoding":"mapping","key":"t_uint256","label":"mapping(uint256 => uint256)","numberOfBytes":"32","value":"t_uint256"},"t_struct(BlockCommitment)55140_storage":{"encoding":"inplace","label":"struct MCRStorage.BlockCommitment","numberOfBytes":"96","members":[{"astId":55135,"contract":"src/settlement/MCR.sol:MCR","label":"height","offset":0,"slot":"0","type":"t_uint256"},{"astId":55137,"contract":"src/settlement/MCR.sol:MCR","label":"commitment","offset":0,"slot":"1","type":"t_bytes32"},{"astId":55139,"contract":"src/settlement/MCR.sol:MCR","label":"blockId","offset":0,"slot":"2","type":"t_bytes32"}]},"t_uint256":{"encoding":"inplace","label":"uint256","numberOfBytes":"32"}}},"id":105}