{"abi":[{"type":"function","name":"DEFAULT_ADMIN_ROLE","inputs":[],"outputs":[{"name":"","type":"bytes32","internalType":"bytes32"}],"stateMutability":"view"},{"type":"function","name":"UPGRADE_INTERFACE_VERSION","inputs":[],"outputs":[{"name":"","type":"string","internalType":"string"}],"stateMutability":"view"},{"type":"function","name":"WHITELIST_ROLE","inputs":[],"outputs":[{"name":"","type":"bytes32","internalType":"bytes32"}],"stateMutability":"view"},{"type":"function","name":"acceptGenesisCeremony","inputs":[],"outputs":[],"stateMutability":"nonpayable"},{"type":"function","name":"currentEpochByDomain","inputs":[{"name":"domain","type":"address","internalType":"address"}],"outputs":[{"name":"currentEpoch","type":"uint256","internalType":"uint256"}],"stateMutability":"view"},{"type":"function","name":"domainGenesisAccepted","inputs":[{"name":"domain","type":"address","internalType":"address"}],"outputs":[{"name":"","type":"bool","internalType":"bool"}],"stateMutability":"view"},{"type":"function","name":"epochDurationByDomain","inputs":[{"name":"domain","type":"address","internalType":"address"}],"outputs":[{"name":"epochDuration","type":"uint256","internalType":"uint256"}],"stateMutability":"view"},{"type":"function","name":"epochStakesByDomain","inputs":[{"name":"domain","type":"address","internalType":"address"},{"name":"epoch","type":"uint256","internalType":"uint256"},{"name":"custodian","type":"address","internalType":"address"},{"name":"attester","type":"address","internalType":"address"}],"outputs":[{"name":"stake","type":"uint256","internalType":"uint256"}],"stateMutability":"view"},{"type":"function","name":"epochTotalStakeByDomain","inputs":[{"name":"domain","type":"address","internalType":"address"},{"name":"epoch","type":"uint256","internalType":"uint256"},{"name":"attester","type":"address","internalType":"address"}],"outputs":[{"name":"stake","type":"uint256","internalType":"uint256"}],"stateMutability":"view"},{"type":"function","name":"epochUnstakesByDomain","inputs":[{"name":"domain","type":"address","internalType":"address"},{"name":"epoch","type":"uint256","internalType":"uint256"},{"name":"custodian","type":"address","internalType":"address"},{"name":"attester","type":"address","internalType":"address"}],"outputs":[{"name":"stake","type":"uint256","internalType":"uint256"}],"stateMutability":"view"},{"type":"function","name":"getAttestersByDomain","inputs":[{"name":"domain","type":"address","internalType":"address"}],"outputs":[{"name":"","type":"address[]","internalType":"address[]"}],"stateMutability":"view"},{"type":"function","name":"getCurrentEpoch","inputs":[{"name":"domain","type":"address","internalType":"address"}],"outputs":[{"name":"","type":"uint256","internalType":"uint256"}],"stateMutability":"view"},{"type":"function","name":"getCurrentEpochStake","inputs":[{"name":"domain","type":"address","internalType":"address"},{"name":"custodian","type":"address","internalType":"address"},{"name":"attester","type":"address","internalType":"address"}],"outputs":[{"name":"","type":"uint256","internalType":"uint256"}],"stateMutability":"view"},{"type":"function","name":"getCurrentEpochUnstake","inputs":[{"name":"domain","type":"address","internalType":"address"},{"name":"custodian","type":"address","internalType":"address"},{"name":"attester","type":"address","internalType":"address"}],"outputs":[{"name":"","type":"uint256","internalType":"uint256"}],"stateMutability":"view"},{"type":"function","name":"getCustodiansByDomain","inputs":[{"name":"domain","type":"address","internalType":"address"}],"outputs":[{"name":"","type":"address[]","internalType":"address[]"}],"stateMutability":"view"},{"type":"function","name":"getEpochByBlockTime","inputs":[{"name":"domain","type":"address","internalType":"address"}],"outputs":[{"name":"","type":"uint256","internalType":"uint256"}],"stateMutability":"view"},{"type":"function","name":"getNextEpoch","inputs":[{"name":"domain","type":"address","internalType":"address"}],"outputs":[{"name":"","type":"uint256","internalType":"uint256"}],"stateMutability":"view"},{"type":"function","name":"getNextEpochByBlockTime","inputs":[{"name":"domain","type":"address","internalType":"address"}],"outputs":[{"name":"","type":"uint256","internalType":"uint256"}],"stateMutability":"view"},{"type":"function","name":"getRoleAdmin","inputs":[{"name":"role","type":"bytes32","internalType":"bytes32"}],"outputs":[{"name":"","type":"bytes32","internalType":"bytes32"}],"stateMutability":"view"},{"type":"function","name":"getStakeAtEpoch","inputs":[{"name":"domain","type":"address","internalType":"address"},{"name":"epoch","type":"uint256","internalType":"uint256"},{"name":"custodian","type":"address","internalType":"address"},{"name":"attester","type":"address","internalType":"address"}],"outputs":[{"name":"","type":"uint256","internalType":"uint256"}],"stateMutability":"view"},{"type":"function","name":"getTotalStakeForCurrentEpoch","inputs":[{"name":"domain","type":"address","internalType":"address"},{"name":"custodian","type":"address","internalType":"address"}],"outputs":[{"name":"","type":"uint256","internalType":"uint256"}],"stateMutability":"view"},{"type":"function","name":"getTotalStakeForEpoch","inputs":[{"name":"domain","type":"address","internalType":"address"},{"name":"epoch","type":"uint256","internalType":"uint256"},{"name":"custodian","type":"address","internalType":"address"}],"outputs":[{"name":"","type":"uint256","internalType":"uint256"}],"stateMutability":"view"},{"type":"function","name":"getUnstakeAtEpoch","inputs":[{"name":"domain","type":"address","internalType":"address"},{"name":"epoch","type":"uint256","internalType":"uint256"},{"name":"custodian","type":"address","internalType":"address"},{"name":"attester","type":"address","internalType":"address"}],"outputs":[{"name":"","type":"uint256","internalType":"uint256"}],"stateMutability":"view"},{"type":"function","name":"grantRole","inputs":[{"name":"role","type":"bytes32","internalType":"bytes32"},{"name":"account","type":"address","internalType":"address"}],"outputs":[],"stateMutability":"nonpayable"},{"type":"function","name":"hasRole","inputs":[{"name":"role","type":"bytes32","internalType":"bytes32"},{"name":"account","type":"address","internalType":"address"}],"outputs":[{"name":"","type":"bool","internalType":"bool"}],"stateMutability":"view"},{"type":"function","name":"initialize","inputs":[],"outputs":[],"stateMutability":"nonpayable"},{"type":"function","name":"initialize","inputs":[{"name":"_token","type":"address","internalType":"contract IERC20"}],"outputs":[],"stateMutability":"nonpayable"},{"type":"function","name":"proxiableUUID","inputs":[],"outputs":[{"name":"","type":"bytes32","internalType":"bytes32"}],"stateMutability":"view"},{"type":"function","name":"registerDomain","inputs":[{"name":"epochDuration","type":"uint256","internalType":"uint256"},{"name":"custodians","type":"address[]","internalType":"address[]"}],"outputs":[],"stateMutability":"nonpayable"},{"type":"function","name":"removeAddressFromWhitelist","inputs":[{"name":"addr","type":"address","internalType":"address"}],"outputs":[],"stateMutability":"nonpayable"},{"type":"function","name":"renounceRole","inputs":[{"name":"role","type":"bytes32","internalType":"bytes32"},{"name":"callerConfirmation","type":"address","internalType":"address"}],"outputs":[],"stateMutability":"nonpayable"},{"type":"function","name":"revokeRole","inputs":[{"name":"role","type":"bytes32","internalType":"bytes32"},{"name":"account","type":"address","internalType":"address"}],"outputs":[],"stateMutability":"nonpayable"},{"type":"function","name":"reward","inputs":[{"name":"attesters","type":"address[]","internalType":"address[]"},{"name":"amounts","type":"uint256[]","internalType":"uint256[]"},{"name":"custodians","type":"address[]","internalType":"address[]"}],"outputs":[],"stateMutability":"nonpayable"},{"type":"function","name":"rollOverEpoch","inputs":[],"outputs":[],"stateMutability":"nonpayable"},{"type":"function","name":"slash","inputs":[{"name":"custodians","type":"address[]","internalType":"address[]"},{"name":"attesters","type":"address[]","internalType":"address[]"},{"name":"amounts","type":"uint256[]","internalType":"uint256[]"},{"name":"refundAmounts","type":"uint256[]","internalType":"uint256[]"}],"outputs":[],"stateMutability":"nonpayable"},{"type":"function","name":"stake","inputs":[{"name":"domain","type":"address","internalType":"address"},{"name":"custodian","type":"address","internalType":"contract IERC20"},{"name":"amount","type":"uint256","internalType":"uint256"}],"outputs":[],"stateMutability":"nonpayable"},{"type":"function","name":"supportsInterface","inputs":[{"name":"interfaceId","type":"bytes4","internalType":"bytes4"}],"outputs":[{"name":"","type":"bool","internalType":"bool"}],"stateMutability":"view"},{"type":"function","name":"token","inputs":[],"outputs":[{"name":"","type":"address","internalType":"contract IERC20"}],"stateMutability":"view"},{"type":"function","name":"unstake","inputs":[{"name":"domain","type":"address","internalType":"address"},{"name":"custodian","type":"address","internalType":"address"},{"name":"amount","type":"uint256","internalType":"uint256"}],"outputs":[],"stateMutability":"nonpayable"},{"type":"function","name":"upgradeToAndCall","inputs":[{"name":"newImplementation","type":"address","internalType":"address"},{"name":"data","type":"bytes","internalType":"bytes"}],"outputs":[],"stateMutability":"payable"},{"type":"function","name":"whitelistAddress","inputs":[{"name":"addr","type":"address","internalType":"address"}],"outputs":[],"stateMutability":"nonpayable"},{"type":"event","name":"AttesterEpochRolledOver","inputs":[{"name":"attester","type":"address","indexed":true,"internalType":"address"},{"name":"epoch","type":"uint256","indexed":true,"internalType":"uint256"},{"name":"custodian","type":"address","indexed":true,"internalType":"address"},{"name":"stake","type":"uint256","indexed":false,"internalType":"uint256"},{"name":"unstake","type":"uint256","indexed":false,"internalType":"uint256"}],"anonymous":false},{"type":"event","name":"AttesterStaked","inputs":[{"name":"domain","type":"address","indexed":true,"internalType":"address"},{"name":"epoch","type":"uint256","indexed":true,"internalType":"uint256"},{"name":"custodian","type":"address","indexed":true,"internalType":"address"},{"name":"attester","type":"address","indexed":false,"internalType":"address"},{"name":"stake","type":"uint256","indexed":false,"internalType":"uint256"}],"anonymous":false},{"type":"event","name":"AttesterUnstaked","inputs":[{"name":"domain","type":"address","indexed":true,"internalType":"address"},{"name":"epoch","type":"uint256","indexed":true,"internalType":"uint256"},{"name":"custodian","type":"address","indexed":true,"internalType":"address"},{"name":"attester","type":"address","indexed":false,"internalType":"address"},{"name":"stake","type":"uint256","indexed":false,"internalType":"uint256"}],"anonymous":false},{"type":"event","name":"EpochRolledOver","inputs":[{"name":"domain","type":"address","indexed":true,"internalType":"address"},{"name":"epoch","type":"uint256","indexed":false,"internalType":"uint256"}],"anonymous":false},{"type":"event","name":"Initialized","inputs":[{"name":"version","type":"uint64","indexed":false,"internalType":"uint64"}],"anonymous":false},{"type":"event","name":"RoleAdminChanged","inputs":[{"name":"role","type":"bytes32","indexed":true,"internalType":"bytes32"},{"name":"previousAdminRole","type":"bytes32","indexed":true,"internalType":"bytes32"},{"name":"newAdminRole","type":"bytes32","indexed":true,"internalType":"bytes32"}],"anonymous":false},{"type":"event","name":"RoleGranted","inputs":[{"name":"role","type":"bytes32","indexed":true,"internalType":"bytes32"},{"name":"account","type":"address","indexed":true,"internalType":"address"},{"name":"sender","type":"address","indexed":true,"internalType":"address"}],"anonymous":false},{"type":"event","name":"RoleRevoked","inputs":[{"name":"role","type":"bytes32","indexed":true,"internalType":"bytes32"},{"name":"account","type":"address","indexed":true,"internalType":"address"},{"name":"sender","type":"address","indexed":true,"internalType":"address"}],"anonymous":false},{"type":"event","name":"Upgraded","inputs":[{"name":"implementation","type":"address","indexed":true,"internalType":"address"}],"anonymous":false},{"type":"error","name":"AccessControlBadConfirmation","inputs":[]},{"type":"error","name":"AccessControlUnauthorizedAccount","inputs":[{"name":"account","type":"address","internalType":"address"},{"name":"neededRole","type":"bytes32","internalType":"bytes32"}]},{"type":"error","name":"AddressEmptyCode","inputs":[{"name":"target","type":"address","internalType":"address"}]},{"type":"error","name":"CustodianTransferAmountMismatch","inputs":[]},{"type":"error","name":"ERC1967InvalidImplementation","inputs":[{"name":"implementation","type":"address","internalType":"address"}]},{"type":"error","name":"ERC1967NonPayable","inputs":[]},{"type":"error","name":"FailedInnerCall","inputs":[]},{"type":"error","name":"GenesisAlreadyAccepted","inputs":[]},{"type":"error","name":"InvalidInitialization","inputs":[]},{"type":"error","name":"NotInitializing","inputs":[]},{"type":"error","name":"ReentrancyGuardReentrantCall","inputs":[]},{"type":"error","name":"StakeExceedsGenesisStake","inputs":[]},{"type":"error","name":"UUPSUnauthorizedCallContext","inputs":[]},{"type":"error","name":"UUPSUnsupportedProxiableUUID","inputs":[{"name":"slot","type":"bytes32","internalType":"bytes32"}]}],"bytecode":{"object":"0x60a0604052306080523480156012575f80fd5b50600160095560805161292661003e5f395f81816117b2015281816117db015261192101526129265ff3fe60806040526004361061023e575f3560e01c80637a997ab711610134578063ad3cb1cc116100b3578063d1ba90ff11610078578063d1ba90ff1461073a578063d37304f814610768578063d547741f14610787578063d5ca03de146107a6578063da33ee7f146107c5578063fc0c546a146107e4575f80fd5b8063ad3cb1cc1461065b578063bf6eac2f14610698578063c0b95ab8146106b7578063c3471ff8146106fc578063c4d66de81461071b575f80fd5b806391d14854116100f957806391d14854146105e257806392a2ebf314610601578063a217fddf14610615578063a885c97514610628578063a887b71c14610647575f80fd5b80637a997ab7146105515780638129fc1c146105715780638489e58014610585578063879b938b146105a45780638d908258146105c3575f80fd5b806344198e4d116101c05780635cdf3155116101855780635cdf31551461046357806360829f8a146104af57806365f1ea20146104ce57806370224360146105135780637667b76d14610532575f80fd5b806344198e4d146103c25780634d3223a5146103e15780634f1ef2861461040057806352d1902d1461041357806354300d7a14610427575f80fd5b80632c7785a8116102065780632c7785a81461031b5780632f2ff15d1461033a57806336568abe146103595780633bccf6351461037857806341566585146103a3575f80fd5b806301ffc9a7146102425780630a0b1b6414610276578063248a9ca3146102af578063286dd3f5146102ce5780632924b73b146102ef575b5f80fd5b34801561024d575f80fd5b5061026161025c3660046122bb565b61081a565b60405190151581526020015b60405180910390f35b348015610281575f80fd5b506102a16102903660046122f6565b60026020525f908152604090205481565b60405190815260200161026d565b3480156102ba575f80fd5b506102a16102c9366004612311565b610850565b3480156102d9575f80fd5b506102ed6102e83660046122f6565b610870565b005b3480156102fa575f80fd5b5061030e6103093660046122f6565b610895565b60405161026d9190612328565b348015610326575f80fd5b506102a16103353660046122f6565b61097f565b348015610345575f80fd5b506102ed610354366004612373565b6109ae565b348015610364575f80fd5b506102ed610373366004612373565b6109d0565b348015610383575f80fd5b506102a16103923660046122f6565b60016020525f908152604090205481565b3480156103ae575f80fd5b506102ed6103bd3660046122f6565b610a08565b3480156103cd575f80fd5b506102a16103dc3660046123a1565b610a29565b3480156103ec575f80fd5b506102a16103fb3660046122f6565b610a71565b6102ed61040e3660046123e1565b610a8b565b34801561041e575f80fd5b506102a1610aa6565b348015610432575f80fd5b506102a16104413660046124a4565b600760209081525f938452604080852082529284528284209052825290205481565b34801561046e575f80fd5b506102a161047d3660046124a4565b6001600160a01b039283165f908152600760209081526040808320948352938152838220929094168152925290205490565b3480156104ba575f80fd5b506102ed6104c93660046124e3565b610ac1565b3480156104d9575f80fd5b506102a16104e8366004612521565b600660209081525f948552604080862082529385528385208152918452828420909152825290205481565b34801561051e575f80fd5b506102a161052d366004612571565b610b56565b34801561053d575f80fd5b506102a161054c366004612571565b610b73565b34801561055c575f80fd5b506102a15f8051602061289183398151915281565b34801561057c575f80fd5b506102ed610b88565b348015610590575f80fd5b506102a161059f3660046122f6565b610c92565b3480156105af575f80fd5b506102a16105be366004612521565b610caa565b3480156105ce575f80fd5b506102a16105dd366004612521565b610ce7565b3480156105ed575f80fd5b506102616105fc366004612373565b610d24565b34801561060c575f80fd5b506102ed610d5a565b348015610620575f80fd5b506102a15f81565b348015610633575f80fd5b506102ed6106423660046125f5565b610eb4565b348015610652575f80fd5b506102ed6110d6565b348015610666575f80fd5b5061068b604051806040016040528060058152602001640352e302e360dc1b81525081565b60405161026d91906126bf565b3480156106a3575f80fd5b506102ed6106b23660046124e3565b6110e8565b3480156106c2575f80fd5b506102a16106d1366004612521565b600560209081525f948552604080862082529385528385208152918452828420909152825290205481565b348015610707575f80fd5b506102a16107163660046122f6565b611313565b348015610726575f80fd5b506102ed6107353660046122f6565b611335565b348015610745575f80fd5b506102616107543660046122f6565b60086020525f908152604090205460ff1681565b348015610773575f80fd5b506102ed6107823660046126f4565b61145a565b348015610792575f80fd5b506102ed6107a1366004612373565b6114d8565b3480156107b1575f80fd5b5061030e6107c03660046122f6565b6114f4565b3480156107d0575f80fd5b506102ed6107df36600461273b565b6115d7565b3480156107ef575f80fd5b505f54610802906001600160a01b031681565b6040516001600160a01b03909116815260200161026d565b5f6001600160e01b03198216637965db0b60e01b148061084a57506301ffc9a760e01b6001600160e01b03198316145b92915050565b5f9081525f805160206128d1833981519152602052604090206001015490565b5f61087a8161166c565b6108915f80516020612891833981519152836114d8565b5050565b6001600160a01b0381165f908152600360205260408120606091906108b990611679565b6001600160401b038111156108d0576108d06123cd565b6040519080825280602002602001820160405280156108f9578160200160208202803683370190505b5090505f5b6001600160a01b0384165f90815260036020526040902061091e90611679565b811015610978576001600160a01b0384165f9081526003602052604090206109469082611682565b828281518110610958576109586127d7565b6001600160a01b03909216602092830291909101909101526001016108fe565b5092915050565b5f61098982610a71565b156109a75761099782611313565b6109a29060016127ff565b61084a565b5f92915050565b6109b782610850565b6109c08161166c565b6109ca838361168d565b50505050565b6001600160a01b03811633146109f95760405163334bd91960e11b815260040160405180910390fd5b610a03828261172e565b505050565b5f610a128161166c565b6108915f80516020612891833981519152836109ae565b5f610a6a83610a3785610a71565b846001600160a01b039283165f908152600760209081526040808320948352938152838220929094168152925290205490565b9392505050565b6001600160a01b03165f9081526002602052604090205490565b610a936117a7565b610a9c8261184b565b6108918282611855565b5f610aaf611916565b505f805160206128b183398151915290565b5f80516020612891833981519152610ad88161166c565b610ae061195f565b610af584610aed8661097f565b853386611989565b826001600160a01b0316610b0885610c92565b60408051338152602081018690526001600160a01b038816917fd41c64546a5c34c283150998874c7ee0412c8954f57aef484c681f6e137827df910160405180910390a46109ca6001600955565b5f610b6b84610b6486610a71565b8585610ce7565b949350505050565b5f610b6b84610b8186610a71565b8585610caa565b7ff0c57e16840df040f15088dc2f81fe391c3923bec73e23a9662efc9c229c6a008054600160401b810460ff1615906001600160401b03165f81158015610bcc5750825b90505f826001600160401b03166001148015610be75750303b155b905081158015610bf5575080155b15610c135760405163f92ee8a960e01b815260040160405180910390fd5b845467ffffffffffffffff191660011785558315610c3d57845460ff60401b1916600160401b1785555b610c456119dd565b8315610c8b57845460ff60401b19168555604051600181527fc7f505b2f371ae2175ee4913f4499e1f2633a7b5936321eed1cdaeb6115181d29060200160405180910390a15b5050505050565b5f610c9c82610a71565b156109a75761099782610a71565b6001600160a01b039384165f9081526006602090815260408083209583529481528482209386168252928352838120919094168452905290205490565b6001600160a01b039384165f9081526005602090815260408083209583529481528482209386168252928352838120919094168452905290205490565b5f9182525f805160206128d1833981519152602090815260408084206001600160a01b0393909316845291905290205460ff1690565b610d6261195f565b335f8181526008602052604090205460ff1615610d915760405162fe178760e01b815260040160405180910390fd5b6001600160a01b0381165f908152600860205260409020805460ff19166001179055610dbc81611313565b6001600160a01b0382165f908152600260205260408120919091555b6001600160a01b0382165f908152600360205260409020610df890611679565b811015610ea6576001600160a01b0382165f908152600360205260408120610e209083611682565b90505f5b6001600160a01b0384165f908152600460205260409020610e4490611679565b811015610e9c576001600160a01b0384165f908152600460205260408120610e6c9083611682565b90505f610e7b865f8487610ce7565b9050610e9286610e8a88610a71565b8487856119ed565b5050600101610e24565b5050600101610dd8565b5050610eb26001600955565b565b610ebc61195f565b5f5b858110156110c1575f610f85610f4633610ef88b8b87818110610ee357610ee36127d7565b90506020020160208101906103fb91906122f6565b8d8d87818110610f0a57610f0a6127d7565b9050602002016020810190610f1f91906122f6565b8c8c88818110610f3157610f316127d7565b90506020020160208101906105dd91906122f6565b610f80888886818110610f5b57610f5b6127d7565b90506020020135878787818110610f7457610f746127d7565b90506020020135611a78565b611a78565b9050610fdf30898985818110610f9d57610f9d6127d7565b9050602002016020810190610fb291906122f6565b8c8c86818110610fc457610fc46127d7565b9050602002016020810190610fd991906122f6565b84611a8d565b61105833610fec33610a71565b8c8c86818110610ffe57610ffe6127d7565b905060200201602081019061101391906122f6565b8b8b87818110611025576110256127d7565b905060200201602081019061103a91906122f6565b8a8a8881811061104c5761104c6127d7565b90506020020135611cb6565b6110b83361106533610a71565b8c8c86818110611077576110776127d7565b905060200201602081019061108c91906122f6565b8b8b8781811061109e5761109e6127d7565b90506020020160208101906110b391906122f6565b611cf6565b50600101610ebe565b506110cc6001600955565b5050505050505050565b610eb2336110e333610a71565b611d68565b5f805160206128918339815191526110ff8161166c565b61110761195f565b6001600160a01b0384165f9081526003602052604090206111289033611e85565b505f80546040516370a0823160e01b81523060048201526001600160a01b03909116906370a0823190602401602060405180830381865afa15801561116f573d5f803e3d5ffd5b505050506040513d601f19601f820116820180604052508101906111939190612812565b6040516323b872dd60e01b8152336004820152306024820152604481018590529091506001600160a01b038516906323b872dd906064016020604051808303815f875af11580156111e6573d5f803e3d5ffd5b505050506040513d601f19601f8201168201806040525081019061120a9190612829565b5061121583826127ff565b5f546040516370a0823160e01b81523060048201526001600160a01b03909116906370a0823190602401602060405180830381865afa15801561125a573d5f803e3d5ffd5b505050506040513d601f19601f8201168201806040525081019061127e9190612812565b1461129c57604051631910d68360e21b815260040160405180910390fd5b6112b1856112a98761097f565b8633876119ed565b836001600160a01b03166112c486610c92565b60408051338152602081018790526001600160a01b038916917f7be65c2ae4d3c544de23b1db5bea4d541c02b93a5f4302852f4dc9880e0cb554910160405180910390a4506109ca6001600955565b6001600160a01b0381165f9081526001602052604081205461084a9042612848565b7ff0c57e16840df040f15088dc2f81fe391c3923bec73e23a9662efc9c229c6a008054600160401b810460ff1615906001600160401b03165f811580156113795750825b90505f826001600160401b031660011480156113945750303b155b9050811580156113a2575080155b156113c05760405163f92ee8a960e01b815260040160405180910390fd5b845467ffffffffffffffff1916600117855583156113ea57845460ff60401b1916600160401b1785555b6113f2611e99565b5f80546001600160a01b0319166001600160a01b038816179055831561145257845460ff60401b19168555604051600181527fc7f505b2f371ae2175ee4913f4499e1f2633a7b5936321eed1cdaeb6115181d29060200160405180910390a15b505050505050565b61146261195f565b335f8181526001602052604081208590555b828110156114cc576114c3848483818110611491576114916127d7565b90506020020160208101906114a691906122f6565b6001600160a01b0384165f90815260046020526040902090611e85565b50600101611474565b5050610a036001600955565b6114e182610850565b6114ea8161166c565b6109ca838361172e565b6001600160a01b0381165f9081526004602052604081206060919061151890611679565b6001600160401b0381111561152f5761152f6123cd565b604051908082528060200260200182016040528015611558578160200160208202803683370190505b5090505f5b6001600160a01b0384165f90815260046020526040902061157d90611679565b811015610978576001600160a01b0384165f9081526004602052604090206115a59082611682565b8282815181106115b7576115b76127d7565b6001600160a01b039092166020928302919091019091015260010161155d565b6115df61195f565b5f5b8581101561166157611659338888848181106115ff576115ff6127d7565b905060200201602081019061161491906122f6565b858585818110611626576116266127d7565b905060200201602081019061163b91906122f6565b88888681811061164d5761164d6127d7565b90506020020135611a8d565b6001016115e1565b506114526001600955565b6116768133611eab565b50565b5f61084a825490565b5f610a6a8383611ee4565b5f5f805160206128d18339815191526116a68484610d24565b611725575f848152602082815260408083206001600160a01b03871684529091529020805460ff191660011790556116db3390565b6001600160a01b0316836001600160a01b0316857f2f8788117e7eff1d82e926ec794901d17c78024a50270940304540a733656f0d60405160405180910390a4600191505061084a565b5f91505061084a565b5f5f805160206128d18339815191526117478484610d24565b15611725575f848152602082815260408083206001600160a01b0387168085529252808320805460ff1916905551339287917ff6391f5c32d9c69d2a47ea670b442974b53935d1edc7fd64eb21e047a839171b9190a4600191505061084a565b306001600160a01b037f000000000000000000000000000000000000000000000000000000000000000016148061182d57507f00000000000000000000000000000000000000000000000000000000000000006001600160a01b03166118215f805160206128b1833981519152546001600160a01b031690565b6001600160a01b031614155b15610eb25760405163703e46dd60e11b815260040160405180910390fd5b5f6108918161166c565b816001600160a01b03166352d1902d6040518163ffffffff1660e01b8152600401602060405180830381865afa9250505080156118af575060408051601f3d908101601f191682019092526118ac91810190612812565b60015b6118dc57604051634c9c8ce360e01b81526001600160a01b03831660048201526024015b60405180910390fd5b5f805160206128b1833981519152811461190c57604051632a87526960e21b8152600481018290526024016118d3565b610a038383611f0a565b306001600160a01b037f00000000000000000000000000000000000000000000000000000000000000001614610eb25760405163703e46dd60e11b815260040160405180910390fd5b60026009540361198257604051633ee5aeb560e01b815260040160405180910390fd5b6002600955565b6001600160a01b038086165f908152600660209081526040808320888452825280832087851684528252808320938616835292905290812080548392906119d19084906127ff565b90915550505050505050565b6119e5611f5f565b610eb2611e99565b6001600160a01b038086165f90815260056020908152604080832088845282528083208785168452825280832093861683529290529081208054839290611a359084906127ff565b90915550506001600160a01b038086165f9081526007602090815260408083208884528252808320938716835292905290812080548392906119d19084906127ff565b5f818310611a865781610a6a565b5090919050565b306001600160a01b03851603611c01575f546001600160a01b03808416911603611b2b575f5460405163a9059cbb60e01b81526001600160a01b038581166004830152602482018490529091169063a9059cbb906044015b6020604051808303815f875af1158015611b01573d5f803e3d5ffd5b505050506040513d601f19601f82011682018060405250810190611b259190612829565b506109ca565b5f5460405163095ea7b360e01b81526001600160a01b038481166004830152602482018490529091169063095ea7b3906044016020604051808303815f875af1158015611b7a573d5f803e3d5ffd5b505050506040513d601f19601f82011682018060405250810190611b9e9190612829565b506040516318950c7160e01b81526001600160a01b038481166004830152602482018390528316906318950c71906044015f604051808303815f87803b158015611be6575f80fd5b505af1158015611bf8573d5f803e3d5ffd5b505050506109ca565b5f546001600160a01b03808416911603611c55575f546040516323b872dd60e01b81526001600160a01b038681166004830152858116602483015260448201849052909116906323b872dd90606401611ae5565b60405163c4652d8360e01b81526001600160a01b03858116600483015284811660248301526044820183905283169063c4652d83906064015f604051808303815f87803b158015611ca4575f80fd5b505af11580156110cc573d5f803e3d5ffd5b835f611cc487838787610ce7565b905082811015611ce057611cdb8783878785611fa8565b611ced565b611ced8783878787611fa8565b50505050505050565b5f611d0385858585610ce7565b90505f611d118560016127ff565b90505f611d2087838787610caa565b905082811115611ced576001600160a01b038088165f9081526006602090815260408083208684528252808320848a1684528252808320938816835292905220839055611ced565b5f5b6001600160a01b0383165f908152600360205260409020611d8a90611679565b811015611e1f576001600160a01b0383165f908152600360205260408120611db29083611682565b90505f5b6001600160a01b0385165f908152600460205260409020611dd690611679565b811015611e15576001600160a01b0385165f908152600460205260408120611dfe9083611682565b9050611e0c86868386612033565b50600101611db6565b5050600101611d6a565b50611e2b8160016127ff565b6001600160a01b0383165f81815260026020526040908190209290925590517fb693195b5ff3e376f8b562486abc516e10fe2467b75f0e4165e79cf4ab70dc4190611e799084815260200190565b60405180910390a25050565b5f610a6a836001600160a01b0384166120f6565b611ea1611f5f565b6116765f3361168d565b611eb58282610d24565b6108915760405163e2517d3f60e01b81526001600160a01b0382166004820152602481018390526044016118d3565b5f825f018281548110611ef957611ef96127d7565b905f5260205f200154905092915050565b611f1382612142565b6040516001600160a01b038316907fbc7cd75a20ee27fd9adebab32041f755214dbc6bffa90cc0225b39da2e5c2d3b905f90a2805115611f5757610a0382826121a5565b610891612217565b7ff0c57e16840df040f15088dc2f81fe391c3923bec73e23a9662efc9c229c6a0054600160401b900460ff16610eb257604051631afcd79f60e31b815260040160405180910390fd5b6001600160a01b038086165f90815260056020908152604080832088845282528083208785168452825280832093861683529290529081208054839290611ff0908490612867565b90915550506001600160a01b038086165f9081526007602090815260408083208884528252808320938716835292905290812080548392906119d1908490612867565b5f61204085858585610ce7565b90505f612059866120528760016127ff565b8686610caa565b9050818111156120665750805b5f6120718284612867565b905061208a876120828860016127ff565b8787856119ed565b61209630858785611a8d565b846001600160a01b031686856001600160a01b03167f3ddb7f725ac69363a1df8296c965af4d268f31b082480dcd8419d284fb7fd34286866040516120e5929190918252602082015260400190565b60405180910390a450505050505050565b5f81815260018301602052604081205461213b57508154600181810184555f84815260208082209093018490558454848252828601909352604090209190915561084a565b505f61084a565b806001600160a01b03163b5f0361217757604051634c9c8ce360e01b81526001600160a01b03821660048201526024016118d3565b5f805160206128b183398151915280546001600160a01b0319166001600160a01b0392909216919091179055565b60605f80846001600160a01b0316846040516121c1919061287a565b5f60405180830381855af49150503d805f81146121f9576040519150601f19603f3d011682016040523d82523d5f602084013e6121fe565b606091505b509150915061220e858383612236565b95945050505050565b3415610eb25760405163b398979f60e01b815260040160405180910390fd5b60608261224b5761224682612292565b610a6a565b815115801561226257506001600160a01b0384163b155b1561228b57604051639996b31560e01b81526001600160a01b03851660048201526024016118d3565b5080610a6a565b8051156122a25780518082602001fd5b604051630a12f52160e11b815260040160405180910390fd5b5f602082840312156122cb575f80fd5b81356001600160e01b031981168114610a6a575f80fd5b6001600160a01b0381168114611676575f80fd5b5f60208284031215612306575f80fd5b8135610a6a816122e2565b5f60208284031215612321575f80fd5b5035919050565b602080825282518282018190525f918401906040840190835b818110156123685783516001600160a01b0316835260209384019390920191600101612341565b509095945050505050565b5f8060408385031215612384575f80fd5b823591506020830135612396816122e2565b809150509250929050565b5f80604083850312156123b2575f80fd5b82356123bd816122e2565b91506020830135612396816122e2565b634e487b7160e01b5f52604160045260245ffd5b5f80604083850312156123f2575f80fd5b82356123fd816122e2565b915060208301356001600160401b03811115612417575f80fd5b8301601f81018513612427575f80fd5b80356001600160401b03811115612440576124406123cd565b604051601f8201601f19908116603f011681016001600160401b038111828210171561246e5761246e6123cd565b604052818152828201602001871015612485575f80fd5b816020840160208301375f602083830101528093505050509250929050565b5f805f606084860312156124b6575f80fd5b83356124c1816122e2565b92506020840135915060408401356124d8816122e2565b809150509250925092565b5f805f606084860312156124f5575f80fd5b8335612500816122e2565b92506020840135612510816122e2565b929592945050506040919091013590565b5f805f8060808587031215612534575f80fd5b843561253f816122e2565b9350602085013592506040850135612556816122e2565b91506060850135612566816122e2565b939692955090935050565b5f805f60608486031215612583575f80fd5b833561258e816122e2565b9250602084013561259e816122e2565b915060408401356124d8816122e2565b5f8083601f8401126125be575f80fd5b5081356001600160401b038111156125d4575f80fd5b6020830191508360208260051b85010111156125ee575f80fd5b9250929050565b5f805f805f805f806080898b03121561260c575f80fd5b88356001600160401b03811115612621575f80fd5b61262d8b828c016125ae565b90995097505060208901356001600160401b0381111561264b575f80fd5b6126578b828c016125ae565b90975095505060408901356001600160401b03811115612675575f80fd5b6126818b828c016125ae565b90955093505060608901356001600160401b0381111561269f575f80fd5b6126ab8b828c016125ae565b999c989b5096995094979396929594505050565b602081525f82518060208401528060208501604085015e5f604082850101526040601f19601f83011684010191505092915050565b5f805f60408486031215612706575f80fd5b8335925060208401356001600160401b03811115612722575f80fd5b61272e868287016125ae565b9497909650939450505050565b5f805f805f8060608789031215612750575f80fd5b86356001600160401b03811115612765575f80fd5b61277189828a016125ae565b90975095505060208701356001600160401b0381111561278f575f80fd5b61279b89828a016125ae565b90955093505060408701356001600160401b038111156127b9575f80fd5b6127c589828a016125ae565b979a9699509497509295939492505050565b634e487b7160e01b5f52603260045260245ffd5b634e487b7160e01b5f52601160045260245ffd5b8082018082111561084a5761084a6127eb565b5f60208284031215612822575f80fd5b5051919050565b5f60208284031215612839575f80fd5b81518015158114610a6a575f80fd5b5f8261286257634e487b7160e01b5f52601260045260245ffd5b500490565b8181038181111561084a5761084a6127eb565b5f82518060208501845e5f92019182525091905056fedc72ed553f2544c34465af23b847953efeb813428162d767f9ba5f4013be6760360894a13ba1a3210667c828492db98dca3e2076cc3735a920a3ca505d382bbc02dd7bc7dec4dceedda775e58dd541e08a116c6c53815c0bd028192f7b626800a2646970667358221220f89cd60db1a241d5973d2920b5637bf68cceb132f2c25bc4d7a85f8d1390562e64736f6c634300081a0033","linkReferences":{}},"methodIdentifiers":{"DEFAULT_ADMIN_ROLE()":"a217fddf","UPGRADE_INTERFACE_VERSION()":"ad3cb1cc","WHITELIST_ROLE()":"7a997ab7","acceptGenesisCeremony()":"92a2ebf3","currentEpochByDomain(address)":"0a0b1b64","domainGenesisAccepted(address)":"d1ba90ff","epochDurationByDomain(address)":"3bccf635","epochStakesByDomain(address,uint256,address,address)":"c0b95ab8","epochTotalStakeByDomain(address,uint256,address)":"54300d7a","epochUnstakesByDomain(address,uint256,address,address)":"65f1ea20","getAttestersByDomain(address)":"2924b73b","getCurrentEpoch(address)":"4d3223a5","getCurrentEpochStake(address,address,address)":"70224360","getCurrentEpochUnstake(address,address,address)":"7667b76d","getCustodiansByDomain(address)":"d5ca03de","getEpochByBlockTime(address)":"c3471ff8","getNextEpoch(address)":"8489e580","getNextEpochByBlockTime(address)":"2c7785a8","getRoleAdmin(bytes32)":"248a9ca3","getStakeAtEpoch(address,uint256,address,address)":"8d908258","getTotalStakeForCurrentEpoch(address,address)":"44198e4d","getTotalStakeForEpoch(address,uint256,address)":"5cdf3155","getUnstakeAtEpoch(address,uint256,address,address)":"879b938b","grantRole(bytes32,address)":"2f2ff15d","hasRole(bytes32,address)":"91d14854","initialize()":"8129fc1c","initialize(address)":"c4d66de8","proxiableUUID()":"52d1902d","registerDomain(uint256,address[])":"d37304f8","removeAddressFromWhitelist(address)":"286dd3f5","renounceRole(bytes32,address)":"36568abe","revokeRole(bytes32,address)":"d547741f","reward(address[],uint256[],address[])":"da33ee7f","rollOverEpoch()":"a887b71c","slash(address[],address[],uint256[],uint256[])":"a885c975","stake(address,address,uint256)":"bf6eac2f","supportsInterface(bytes4)":"01ffc9a7","token()":"fc0c546a","unstake(address,address,uint256)":"60829f8a","upgradeToAndCall(address,bytes)":"4f1ef286","whitelistAddress(address)":"41566585"},"storageLayout":{"storage":[{"astId":56570,"contract":"src/staking/MovementStaking.sol:MovementStaking","label":"token","offset":0,"slot":"0","type":"t_contract(IERC20)43663"},{"astId":56574,"contract":"src/staking/MovementStaking.sol:MovementStaking","label":"epochDurationByDomain","offset":0,"slot":"1","type":"t_mapping(t_address,t_uint256)"},{"astId":56578,"contract":"src/staking/MovementStaking.sol:MovementStaking","label":"currentEpochByDomain","offset":0,"slot":"2","type":"t_mapping(t_address,t_uint256)"},{"astId":56583,"contract":"src/staking/MovementStaking.sol:MovementStaking","label":"attestersByDomain","offset":0,"slot":"3","type":"t_mapping(t_address,t_struct(AddressSet)46720_storage)"},{"astId":56588,"contract":"src/staking/MovementStaking.sol:MovementStaking","label":"custodiansByDomain","offset":0,"slot":"4","type":"t_mapping(t_address,t_struct(AddressSet)46720_storage)"},{"astId":56598,"contract":"src/staking/MovementStaking.sol:MovementStaking","label":"epochStakesByDomain","offset":0,"slot":"5","type":"t_mapping(t_address,t_mapping(t_uint256,t_mapping(t_address,t_mapping(t_address,t_uint256))))"},{"astId":56608,"contract":"src/staking/MovementStaking.sol:MovementStaking","label":"epochUnstakesByDomain","offset":0,"slot":"6","type":"t_mapping(t_address,t_mapping(t_uint256,t_mapping(t_address,t_mapping(t_address,t_uint256))))"},{"astId":56616,"contract":"src/staking/MovementStaking.sol:MovementStaking","label":"epochTotalStakeByDomain","offset":0,"slot":"7","type":"t_mapping(t_address,t_mapping(t_uint256,t_mapping(t_address,t_uint256)))"},{"astId":56620,"contract":"src/staking/MovementStaking.sol:MovementStaking","label":"domainGenesisAccepted","offset":0,"slot":"8","type":"t_mapping(t_address,t_bool)"},{"astId":44354,"contract":"src/staking/MovementStaking.sol:MovementStaking","label":"_status","offset":0,"slot":"9","type":"t_uint256"}],"types":{"t_address":{"encoding":"inplace","label":"address","numberOfBytes":"20"},"t_array(t_bytes32)dyn_storage":{"encoding":"dynamic_array","label":"bytes32[]","numberOfBytes":"32","base":"t_bytes32"},"t_bool":{"encoding":"inplace","label":"bool","numberOfBytes":"1"},"t_bytes32":{"encoding":"inplace","label":"bytes32","numberOfBytes":"32"},"t_contract(IERC20)43663":{"encoding":"inplace","label":"contract IERC20","numberOfBytes":"20"},"t_mapping(t_address,t_bool)":{"encoding":"mapping","key":"t_address","label":"mapping(address => bool)","numberOfBytes":"32","value":"t_bool"},"t_mapping(t_address,t_mapping(t_address,t_uint256))":{"encoding":"mapping","key":"t_address","label":"mapping(address => mapping(address => uint256))","numberOfBytes":"32","value":"t_mapping(t_address,t_uint256)"},"t_mapping(t_address,t_mapping(t_uint256,t_mapping(t_address,t_mapping(t_address,t_uint256))))":{"encoding":"mapping","key":"t_address","label":"mapping(address => mapping(uint256 => mapping(address => mapping(address => uint256))))","numberOfBytes":"32","value":"t_mapping(t_uint256,t_mapping(t_address,t_mapping(t_address,t_uint256)))"},"t_mapping(t_address,t_mapping(t_uint256,t_mapping(t_address,t_uint256)))":{"encoding":"mapping","key":"t_address","label":"mapping(address => mapping(uint256 => mapping(address => uint256)))","numberOfBytes":"32","value":"t_mapping(t_uint256,t_mapping(t_address,t_uint256))"},"t_mapping(t_address,t_struct(AddressSet)46720_storage)":{"encoding":"mapping","key":"t_address","label":"mapping(address => struct EnumerableSet.AddressSet)","numberOfBytes":"32","value":"t_struct(AddressSet)46720_storage"},"t_mapping(t_address,t_uint256)":{"encoding":"mapping","key":"t_address","label":"mapping(address => uint256)","numberOfBytes":"32","value":"t_uint256"},"t_mapping(t_bytes32,t_uint256)":{"encoding":"mapping","key":"t_bytes32","label":"mapping(bytes32 => uint256)","numberOfBytes":"32","value":"t_uint256"},"t_mapping(t_uint256,t_mapping(t_address,t_mapping(t_address,t_uint256)))":{"encoding":"mapping","key":"t_uint256","label":"mapping(uint256 => mapping(address => mapping(address => uint256)))","numberOfBytes":"32","value":"t_mapping(t_address,t_mapping(t_address,t_uint256))"},"t_mapping(t_uint256,t_mapping(t_address,t_uint256))":{"encoding":"mapping","key":"t_uint256","label":"mapping(uint256 => mapping(address => uint256))","numberOfBytes":"32","value":"t_mapping(t_address,t_uint256)"},"t_struct(AddressSet)46720_storage":{"encoding":"inplace","label":"struct EnumerableSet.AddressSet","numberOfBytes":"64","members":[{"astId":46719,"contract":"src/staking/MovementStaking.sol:MovementStaking","label":"_inner","offset":0,"slot":"0","type":"t_struct(Set)46405_storage"}]},"t_struct(Set)46405_storage":{"encoding":"inplace","label":"struct EnumerableSet.Set","numberOfBytes":"64","members":[{"astId":46400,"contract":"src/staking/MovementStaking.sol:MovementStaking","label":"_values","offset":0,"slot":"0","type":"t_array(t_bytes32)dyn_storage"},{"astId":46404,"contract":"src/staking/MovementStaking.sol:MovementStaking","label":"_positions","offset":0,"slot":"1","type":"t_mapping(t_bytes32,t_uint256)"}]},"t_uint256":{"encoding":"inplace","label":"uint256","numberOfBytes":"32"}}},"id":109}