{"abi":[{"type":"function","name":"COMMITMENT_ADMIN","inputs":[],"outputs":[{"name":"","type":"bytes32","internalType":"bytes32"}],"stateMutability":"view"},{"type":"function","name":"DEFAULT_ADMIN_ROLE","inputs":[],"outputs":[{"name":"","type":"bytes32","internalType":"bytes32"}],"stateMutability":"view"},{"type":"function","name":"TRUSTED_ATTESTER","inputs":[],"outputs":[{"name":"","type":"bytes32","internalType":"bytes32"}],"stateMutability":"view"},{"type":"function","name":"UPGRADE_INTERFACE_VERSION","inputs":[],"outputs":[{"name":"","type":"string","internalType":"string"}],"stateMutability":"view"},{"type":"function","name":"acceptGenesisCeremony","inputs":[],"outputs":[],"stateMutability":"nonpayable"},{"type":"function","name":"acceptedBlocks","inputs":[{"name":"blockHeight","type":"uint256","internalType":"uint256"}],"outputs":[{"name":"height","type":"uint256","internalType":"uint256"},{"name":"commitment","type":"bytes32","internalType":"bytes32"},{"name":"blockId","type":"bytes32","internalType":"bytes32"}],"stateMutability":"view"},{"type":"function","name":"acceptedBlocksVersion","inputs":[],"outputs":[{"name":"","type":"uint256","internalType":"uint256"}],"stateMutability":"view"},{"type":"function","name":"batchGrantCommitmentAdmin","inputs":[{"name":"accounts","type":"address[]","internalType":"address[]"}],"outputs":[],"stateMutability":"nonpayable"},{"type":"function","name":"batchGrantTrustedAttester","inputs":[{"name":"attesters","type":"address[]","internalType":"address[]"}],"outputs":[],"stateMutability":"nonpayable"},{"type":"function","name":"blockHeightEpochAssignments","inputs":[{"name":"blockHeight","type":"uint256","internalType":"uint256"}],"outputs":[{"name":"epoch","type":"uint256","internalType":"uint256"}],"stateMutability":"view"},{"type":"function","name":"commitmentStakes","inputs":[{"name":"blockHeight","type":"uint256","internalType":"uint256"},{"name":"commitement","type":"bytes32","internalType":"bytes32"}],"outputs":[{"name":"stake","type":"uint256","internalType":"uint256"}],"stateMutability":"view"},{"type":"function","name":"commitments","inputs":[{"name":"blockHeight","type":"uint256","internalType":"uint256"},{"name":"attester","type":"address","internalType":"address"}],"outputs":[{"name":"height","type":"uint256","internalType":"uint256"},{"name":"commitment","type":"bytes32","internalType":"bytes32"},{"name":"blockId","type":"bytes32","internalType":"bytes32"}],"stateMutability":"view"},{"type":"function","name":"computeAllCurrentEpochStake","inputs":[{"name":"attester","type":"address","internalType":"address"}],"outputs":[{"name":"","type":"uint256","internalType":"uint256"}],"stateMutability":"view"},{"type":"function","name":"computeAllStakeAtEpoch","inputs":[{"name":"epoch","type":"uint256","internalType":"uint256"},{"name":"attester","type":"address","internalType":"address"}],"outputs":[{"name":"","type":"uint256","internalType":"uint256"}],"stateMutability":"view"},{"type":"function","name":"computeAllTotalStakeForCurrentEpoch","inputs":[],"outputs":[{"name":"","type":"uint256","internalType":"uint256"}],"stateMutability":"view"},{"type":"function","name":"computeAllTotalStakeForEpoch","inputs":[{"name":"epoch","type":"uint256","internalType":"uint256"}],"outputs":[{"name":"","type":"uint256","internalType":"uint256"}],"stateMutability":"view"},{"type":"function","name":"createBlockCommitment","inputs":[{"name":"height","type":"uint256","internalType":"uint256"},{"name":"commitment","type":"bytes32","internalType":"bytes32"},{"name":"blockId","type":"bytes32","internalType":"bytes32"}],"outputs":[{"name":"","type":"tuple","internalType":"struct MCRStorage.BlockCommitment","components":[{"name":"height","type":"uint256","internalType":"uint256"},{"name":"commitment","type":"bytes32","internalType":"bytes32"},{"name":"blockId","type":"bytes32","internalType":"bytes32"}]}],"stateMutability":"pure"},{"type":"function","name":"forceLatestCommitment","inputs":[{"name":"blockCommitment","type":"tuple","internalType":"struct MCRStorage.BlockCommitment","components":[{"name":"height","type":"uint256","internalType":"uint256"},{"name":"commitment","type":"bytes32","internalType":"bytes32"},{"name":"blockId","type":"bytes32","internalType":"bytes32"}]}],"outputs":[],"stateMutability":"nonpayable"},{"type":"function","name":"getAcceptedCommitmentAtBlockHeight","inputs":[{"name":"height","type":"uint256","internalType":"uint256"}],"outputs":[{"name":"","type":"tuple","internalType":"struct MCRStorage.BlockCommitment","components":[{"name":"height","type":"uint256","internalType":"uint256"},{"name":"commitment","type":"bytes32","internalType":"bytes32"},{"name":"blockId","type":"bytes32","internalType":"bytes32"}]}],"stateMutability":"view"},{"type":"function","name":"getAttesters","inputs":[],"outputs":[{"name":"","type":"address[]","internalType":"address[]"}],"stateMutability":"view"},{"type":"function","name":"getCurrentEpoch","inputs":[],"outputs":[{"name":"","type":"uint256","internalType":"uint256"}],"stateMutability":"view"},{"type":"function","name":"getCurrentEpochStake","inputs":[{"name":"custodian","type":"address","internalType":"address"},{"name":"attester","type":"address","internalType":"address"}],"outputs":[{"name":"","type":"uint256","internalType":"uint256"}],"stateMutability":"view"},{"type":"function","name":"getEpochByBlockTime","inputs":[],"outputs":[{"name":"","type":"uint256","internalType":"uint256"}],"stateMutability":"view"},{"type":"function","name":"getMaxTolerableBlockHeight","inputs":[],"outputs":[{"name":"","type":"uint256","internalType":"uint256"}],"stateMutability":"view"},{"type":"function","name":"getNextEpoch","inputs":[],"outputs":[{"name":"","type":"uint256","internalType":"uint256"}],"stateMutability":"view"},{"type":"function","name":"getRoleAdmin","inputs":[{"name":"role","type":"bytes32","internalType":"bytes32"}],"outputs":[{"name":"","type":"bytes32","internalType":"bytes32"}],"stateMutability":"view"},{"type":"function","name":"getStakeAtEpoch","inputs":[{"name":"epoch","type":"uint256","internalType":"uint256"},{"name":"custodian","type":"address","internalType":"address"},{"name":"attester","type":"address","internalType":"address"}],"outputs":[{"name":"","type":"uint256","internalType":"uint256"}],"stateMutability":"view"},{"type":"function","name":"getTotalStakeForCurrentEpoch","inputs":[{"name":"custodian","type":"address","internalType":"address"}],"outputs":[{"name":"","type":"uint256","internalType":"uint256"}],"stateMutability":"view"},{"type":"function","name":"getTotalStakeForEpoch","inputs":[{"name":"epoch","type":"uint256","internalType":"uint256"},{"name":"custodian","type":"address","internalType":"address"}],"outputs":[{"name":"","type":"uint256","internalType":"uint256"}],"stateMutability":"view"},{"type":"function","name":"getValidatorCommitmentAtBlockHeight","inputs":[{"name":"height","type":"uint256","internalType":"uint256"},{"name":"attester","type":"address","internalType":"address"}],"outputs":[{"name":"","type":"tuple","internalType":"struct MCRStorage.BlockCommitment","components":[{"name":"height","type":"uint256","internalType":"uint256"},{"name":"commitment","type":"bytes32","internalType":"bytes32"},{"name":"blockId","type":"bytes32","internalType":"bytes32"}]}],"stateMutability":"view"},{"type":"function","name":"grantCommitmentAdmin","inputs":[{"name":"account","type":"address","internalType":"address"}],"outputs":[],"stateMutability":"nonpayable"},{"type":"function","name":"grantRole","inputs":[{"name":"role","type":"bytes32","internalType":"bytes32"},{"name":"account","type":"address","internalType":"address"}],"outputs":[],"stateMutability":"nonpayable"},{"type":"function","name":"grantTrustedAttester","inputs":[{"name":"attester","type":"address","internalType":"address"}],"outputs":[],"stateMutability":"nonpayable"},{"type":"function","name":"hasRole","inputs":[{"name":"role","type":"bytes32","internalType":"bytes32"},{"name":"account","type":"address","internalType":"address"}],"outputs":[{"name":"","type":"bool","internalType":"bool"}],"stateMutability":"view"},{"type":"function","name":"initialize","inputs":[],"outputs":[],"stateMutability":"nonpayable"},{"type":"function","name":"initialize","inputs":[{"name":"_stakingContract","type":"address","internalType":"contract IMovementStaking"},{"name":"_lastAcceptedBlockHeight","type":"uint256","internalType":"uint256"},{"name":"_leadingBlockTolerance","type":"uint256","internalType":"uint256"},{"name":"_epochDuration","type":"uint256","internalType":"uint256"},{"name":"_custodians","type":"address[]","internalType":"address[]"}],"outputs":[],"stateMutability":"nonpayable"},{"type":"function","name":"lastAcceptedBlockHeight","inputs":[],"outputs":[{"name":"","type":"uint256","internalType":"uint256"}],"stateMutability":"view"},{"type":"function","name":"leadingBlockTolerance","inputs":[],"outputs":[{"name":"","type":"uint256","internalType":"uint256"}],"stateMutability":"view"},{"type":"function","name":"openAttestationEnabled","inputs":[],"outputs":[{"name":"","type":"bool","internalType":"bool"}],"stateMutability":"view"},{"type":"function","name":"proxiableUUID","inputs":[],"outputs":[{"name":"","type":"bytes32","internalType":"bytes32"}],"stateMutability":"view"},{"type":"function","name":"renounceRole","inputs":[{"name":"role","type":"bytes32","internalType":"bytes32"},{"name":"callerConfirmation","type":"address","internalType":"address"}],"outputs":[],"stateMutability":"nonpayable"},{"type":"function","name":"revokeRole","inputs":[{"name":"role","type":"bytes32","internalType":"bytes32"},{"name":"account","type":"address","internalType":"address"}],"outputs":[],"stateMutability":"nonpayable"},{"type":"function","name":"rewardContract","inputs":[],"outputs":[{"name":"","type":"address","internalType":"contract IMcrReward"}],"stateMutability":"view"},{"type":"function","name":"setAcceptedCommitmentAtBlockHeight","inputs":[{"name":"blockCommitment","type":"tuple","internalType":"struct MCRStorage.BlockCommitment","components":[{"name":"height","type":"uint256","internalType":"uint256"},{"name":"commitment","type":"bytes32","internalType":"bytes32"},{"name":"blockId","type":"bytes32","internalType":"bytes32"}]}],"outputs":[],"stateMutability":"nonpayable"},{"type":"function","name":"setLastAcceptedBlockHeight","inputs":[{"name":"height","type":"uint256","internalType":"uint256"}],"outputs":[],"stateMutability":"nonpayable"},{"type":"function","name":"setOpenAttestationEnabled","inputs":[{"name":"enabled","type":"bool","internalType":"bool"}],"outputs":[],"stateMutability":"nonpayable"},{"type":"function","name":"setRewardContract","inputs":[{"name":"_rewardContract","type":"address","internalType":"contract IMcrReward"}],"outputs":[],"stateMutability":"nonpayable"},{"type":"function","name":"stake","inputs":[{"name":"amount","type":"uint256","internalType":"uint256"}],"outputs":[],"stateMutability":"nonpayable"},{"type":"function","name":"stakingContract","inputs":[],"outputs":[{"name":"","type":"address","internalType":"contract IMovementStaking"}],"stateMutability":"view"},{"type":"function","name":"submitBatchBlockCommitment","inputs":[{"name":"blockCommitments","type":"tuple[]","internalType":"struct MCRStorage.BlockCommitment[]","components":[{"name":"height","type":"uint256","internalType":"uint256"},{"name":"commitment","type":"bytes32","internalType":"bytes32"},{"name":"blockId","type":"bytes32","internalType":"bytes32"}]}],"outputs":[],"stateMutability":"nonpayable"},{"type":"function","name":"submitBlockCommitment","inputs":[{"name":"blockCommitment","type":"tuple","internalType":"struct MCRStorage.BlockCommitment","components":[{"name":"height","type":"uint256","internalType":"uint256"},{"name":"commitment","type":"bytes32","internalType":"bytes32"},{"name":"blockId","type":"bytes32","internalType":"bytes32"}]}],"outputs":[],"stateMutability":"nonpayable"},{"type":"function","name":"supportsInterface","inputs":[{"name":"interfaceId","type":"bytes4","internalType":"bytes4"}],"outputs":[{"name":"","type":"bool","internalType":"bool"}],"stateMutability":"view"},{"type":"function","name":"unstake","inputs":[{"name":"amount","type":"uint256","internalType":"uint256"}],"outputs":[],"stateMutability":"nonpayable"},{"type":"function","name":"upgradeToAndCall","inputs":[{"name":"newImplementation","type":"address","internalType":"address"},{"name":"data","type":"bytes","internalType":"bytes"}],"outputs":[],"stateMutability":"payable"},{"type":"function","name":"versionedAcceptedBlocks","inputs":[{"name":"","type":"uint256","internalType":"uint256"},{"name":"blockHeight","type":"uint256","internalType":"uint256"}],"outputs":[{"name":"height","type":"uint256","internalType":"uint256"},{"name":"commitment","type":"bytes32","internalType":"bytes32"},{"name":"blockId","type":"bytes32","internalType":"bytes32"}],"stateMutability":"view"},{"type":"event","name":"BlockAccepted","inputs":[{"name":"blockHash","type":"bytes32","indexed":true,"internalType":"bytes32"},{"name":"stateCommitment","type":"bytes32","indexed":false,"internalType":"bytes32"},{"name":"height","type":"uint256","indexed":false,"internalType":"uint256"}],"anonymous":false},{"type":"event","name":"BlockCommitmentSubmitted","inputs":[{"name":"blockHash","type":"bytes32","indexed":true,"internalType":"bytes32"},{"name":"stateCommitment","type":"bytes32","indexed":false,"internalType":"bytes32"},{"name":"attesterStake","type":"uint256","indexed":false,"internalType":"uint256"}],"anonymous":false},{"type":"event","name":"Initialized","inputs":[{"name":"version","type":"uint64","indexed":false,"internalType":"uint64"}],"anonymous":false},{"type":"event","name":"RoleAdminChanged","inputs":[{"name":"role","type":"bytes32","indexed":true,"internalType":"bytes32"},{"name":"previousAdminRole","type":"bytes32","indexed":true,"internalType":"bytes32"},{"name":"newAdminRole","type":"bytes32","indexed":true,"internalType":"bytes32"}],"anonymous":false},{"type":"event","name":"RoleGranted","inputs":[{"name":"role","type":"bytes32","indexed":true,"internalType":"bytes32"},{"name":"account","type":"address","indexed":true,"internalType":"address"},{"name":"sender","type":"address","indexed":true,"internalType":"address"}],"anonymous":false},{"type":"event","name":"RoleRevoked","inputs":[{"name":"role","type":"bytes32","indexed":true,"internalType":"bytes32"},{"name":"account","type":"address","indexed":true,"internalType":"address"},{"name":"sender","type":"address","indexed":true,"internalType":"address"}],"anonymous":false},{"type":"event","name":"Upgraded","inputs":[{"name":"implementation","type":"address","indexed":true,"internalType":"address"}],"anonymous":false},{"type":"error","name":"AccessControlBadConfirmation","inputs":[]},{"type":"error","name":"AccessControlUnauthorizedAccount","inputs":[{"name":"account","type":"address","internalType":"address"},{"name":"neededRole","type":"bytes32","internalType":"bytes32"}]},{"type":"error","name":"AddressEmptyCode","inputs":[{"name":"target","type":"address","internalType":"address"}]},{"type":"error","name":"AttesterAlreadyCommitted","inputs":[]},{"type":"error","name":"ERC1967InvalidImplementation","inputs":[{"name":"implementation","type":"address","internalType":"address"}]},{"type":"error","name":"ERC1967NonPayable","inputs":[]},{"type":"error","name":"FailedInnerCall","inputs":[]},{"type":"error","name":"InvalidInitialization","inputs":[]},{"type":"error","name":"NotInitializing","inputs":[]},{"type":"error","name":"UUPSUnauthorizedCallContext","inputs":[]},{"type":"error","name":"UUPSUnsupportedProxiableUUID","inputs":[{"name":"slot","type":"bytes32","internalType":"bytes32"}]},{"type":"error","name":"UnacceptableBlockCommitment","inputs":[]}],"bytecode":{"object":"0x60a0806040523460295730608052612c64908161002e82396080518181816111fd01526113170152f35b5f80fdfe6080806040526004361015610012575f80fd5b5f905f3560e01c90816301ffc9a7146119af5750806308c7050f146118655780630a0b81cc146118115780631c4e4e27146117c65780631cfa2516146117a95780631dfcce8c146117875780631faea1ed1461174b57806320e0e44514611721578063248a9ca3146116ea5780632e17de78146116235780632f2ff15d146115d857806336568abe146115935780634b47d955146114ee5780634ed7e435146114be5780634f1ef2861461129b57806351508f0a1461125157806352d1902d146111ea57806353cd9e3c146110f75780635a912c83146110375780635db916ab1461100f57806360fea5dd14610fe35780636542384f14610fc45780636b588ac714610fa65780636ea69d6214610f7d578063747e729514610f5f57806374e8e56414610f3d57806380e460f014610f155780638129fc1c14610e2d57806381df174614610dfd57806391d1485414610da757806392a2ebf314610cda578063949d7c2a14610cb8578063a217fddf14610c9c578063a3df415f14610a7a578063a694fc3a1461091d578063ad3cb1cc146108d4578063b274a935146108a8578063b97dd9e21461088d578063bc90afbb14610858578063c6e1b9db14610831578063cf6772ad146107ba578063d2526fef1461077e578063d547741f1461072e578063e1b2b222146105fe578063e1ffa44c1461057c578063e812409714610525578063e90d4c06146104bf578063ee377d90146104a4578063ee96da051461043a578063ee99205c14610413578063ef9ae15c146103f0578063efe97d0514610358578063f34d002a14610329578063f89fe60b146102b15763fc2788ad1461027b575f80fd5b346102ae5760403660031901126102ae576040602091600435815260058352818120602435825283522054604051908152f35b80fd5b50346102ae5760603660031901126102ae576102eb6102cf36611a54565b60ff6007541680156102ee575b6102e59061205b565b336125e4565b80f35b505f516020612bef5f395f51905f5283525f516020612bcf5f395f51905f5260209081526040808520335f908152925290205460ff166102dc565b50346102ae5760403660031901126102ae576020610350610348611a84565b6004356120e3565b604051908152f35b50346102ae57806003193601126102ae57805460405163010913cb60e71b81523060048201529190602090839060249082906001600160a01b03165afa9081156103e457906103ad575b602090604051908152f35b506020813d6020116103dc575b816103c760209383611a32565b810103126103d857602090516103a2565b5f80fd5b3d91506103ba565b604051903d90823e3d90fd5b50346102ae57806003193601126102ae57602060ff600754166040519015158152f35b50346102ae57806003193601126102ae57546040516001600160a01b039091168152602090f35b50346102ae5760603660031901126102ae57610454611bbf565b506104a060405161046481611a02565b60043581526024356020820152604435604082015260405191829182919091604080606083019480518452602081015160208501520151910152565b0390f35b50346102ae57806003193601126102ae5760206103506120a7565b50346102ae5760403660031901126102ae5760406104db611a84565b9160043581526004602052209060018060a01b03165f5260205260405f2080546104a060026001840154930154604051938493846040919493926060820195825260208201520152565b50346102ae5760403660031901126102ae576040906004358152600860205281812060243582526020522080546104a060026001840154930154604051938493846040919493926060820195825260208201520152565b50346102ae5760203660031901126102ae5760406104a09161059c611bbf565b50600954815260086020528181206004358252602052206002604051916105c283611a02565b80548352600181015460208401520154604082015260405191829182919091604080606083019480518452602081015160208501520151910152565b50346102ae5760203660031901126102ae576004359067ffffffffffffffff82116102ae57366023830112156102ae57816004013561063c81611ab0565b9261064a6040519485611a32565b818452602460606020860193028201019036821161072a57602401915b8183106106ee5750505060ff6007541680156106b3575b6106879061205b565b805b82518110156106af57806106a96106a260019386611d62565b51336125e4565b01610689565b5080f35b505f516020612bef5f395f51905f5281525f516020612bcf5f395f51905f5260209081526040808320335f908152925290205460ff1661067e565b60608336031261072a57602060609160405161070981611a02565b85358152828601358382015260408601356040820152815201920191610667565b8380fd5b50346102ae5760403660031901126102ae576106af60043561074e611a84565b90610779610774825f525f516020612bcf5f395f51905f52602052600160405f20015490565b612289565b612548565b50346102ae5760203660031901126102ae576004358015158091036107b6576107a561222d565b60ff80196007541691161760075580f35b5080fd5b50346102ae5760203660031901126102ae5760043567ffffffffffffffff81116107b6576107ec903690600401611ac8565b906107f561222d565b805b82518110156106af5760019061082a6001600160a01b036108188387611d62565b5116610825610774611ca6565b612411565b50016107f7565b50346102ae5760403660031901126102ae576020610350610850611a84565b60043561200e565b50346102ae5760403660031901126102ae576020610350610877611a9a565b61087f611a84565b90610888611fd2565b611bdd565b50346102ae57806003193601126102ae576020610350611fd2565b50346102ae5760203660031901126102ae5760206103506108c7611a9a565b6108cf611fd2565b61200e565b50346102ae57806003193601126102ae57506104a06040516108f7604082611a32565b60058152640352e302e360dc1b6020820152604051918291602083526020830190611b8e565b50346102ae5760203660031901126102ae578060043560018060a01b038254166040516321df0da760e01b8152602081600481855afa908115610a40578491610a4b575b5060405163095ea7b360e01b81526004810192909252602482018390526001600160a01b03169060208160448187865af18015610a4057610a08575b5082546001600160a01b031691823b15610a0357606484928360405195869485936316eaab3d60e11b8552336004860152602485015260448401525af180156109f8576109e75750f35b816109f191611a32565b6102ae5780f35b6040513d84823e3d90fd5b505050fd5b6020813d602011610a38575b81610a2160209383611a32565b81010312610a035751801515811461099d57505050fd5b3d9150610a14565b6040513d86823e3d90fd5b610a6d915060203d602011610a73575b610a658183611a32565b810190611cec565b5f610961565b503d610a5b565b50346102ae5760a03660031901126102ae576004356001600160a01b038116908190036107b65760843567ffffffffffffffff8111610c4257610ac1903690600401611ac8565b5f516020612c0f5f395f51905f52549160ff8360401c16159267ffffffffffffffff811680159081610c94575b6001149081610c8a575b159081610c81575b50610c725767ffffffffffffffff1981166001175f516020612c0f5f395f51905f52558492919084610c46575b50610b36612712565b610b3f3361237a565b5082546001600160a01b03191681178355604435600155602435600255803b15610c4257610b978392918392604051948580948193631a6e609f60e31b83526064356004840152604060248401526044830190611b36565b03925af180156109f857610c2d575b5050610bb133611f0b565b610bb961222d565b610bc4610774611ca6565b610bcd33612411565b50610bd55780f35b68ff0000000000000000195f516020612c0f5f395f51905f5254165f516020612c0f5f395f51905f52557fc7f505b2f371ae2175ee4913f4499e1f2633a7b5936321eed1cdaeb6115181d2602060405160018152a180f35b81610c3791611a32565b6107b657815f610ba6565b8280fd5b68ffffffffffffffffff191668010000000000000001175f516020612c0f5f395f51905f52555f610b2d565b63f92ee8a960e01b8552600485fd5b9050155f610b00565b303b159150610af8565b859150610aee565b50346102ae57806003193601126102ae57602090604051908152f35b50346102ae5760203660031901126102ae576102eb610cd5611a9a565b611f0b565b50346102ae57806003193601126102ae578080525f516020612bcf5f395f51905f5260209081526040808320335f908152925290205460ff1615610d5457805481906001600160a01b0316803b15610d51578180916004604051809481936392a2ebf360e01b83525af180156109f8576109e75750f35b50fd5b60405162461bcd60e51b815260206004820152602560248201527f4143434550545f47454e455349535f434552454d4f4e595f49535f41444d494e6044820152645f4f4e4c5960d81b6064820152608490fd5b50346102ae5760403660031901126102ae576040610dc3611a84565b9160043581525f516020612bcf5f395f51905f52602052209060018060a01b03165f52602052602060ff60405f2054166040519015158152f35b50346102ae5760203660031901126102ae576106af610e1a611a9a565b610e2261222d565b610825610774611ca6565b50346102ae57806003193601126102ae575f516020612c0f5f395f51905f525460ff8160401c16159067ffffffffffffffff811680159081610f0d575b6001149081610f03575b159081610efa575b50610eeb5767ffffffffffffffff1981166001175f516020612c0f5f395f51905f525581610ebf575b50610eae612712565b610eb6612712565b610bcd3361237a565b68ffffffffffffffffff191668010000000000000001175f516020612c0f5f395f51905f52555f610ea5565b63f92ee8a960e01b8352600483fd5b9050155f610e7c565b303b159150610e74565b839150610e6a565b50346102ae57806003193601126102ae5760206040515f516020612b8f5f395f51905f528152f35b50346102ae57806003193601126102ae57602061035060025460015490611bb2565b50346102ae57806003193601126102ae576020600954604051908152f35b50346102ae57806003193601126102ae576039546040516001600160a01b039091168152602090f35b50346102ae57806003193601126102ae576020600254604051908152f35b50346102ae5760203660031901126102ae576020610350600435611e6f565b50346102ae5760203660031901126102ae576020610350611002611a9a565b61100a611fd2565b6120e3565b50346102ae57806003193601126102ae5760206040515f516020612bef5f395f51905f528152f35b50346102ae5760203660031901126102ae575f516020612b8f5f395f51905f5281525f516020612bcf5f395f51905f5260209081526040808320335f908152925290205460ff161561108c5760043560025580f35b60405162461bcd60e51b815260206004820152603760248201527f5345545f4c4153545f41434345505445445f424c4f434b5f4845494748545f4960448201527f535f434f4d4d49544d454e545f41444d494e5f4f4e4c590000000000000000006064820152608490fd5b50346102ae5760603660031901126102ae5761111236611a54565b5f516020612b8f5f395f51905f5282525f516020612bcf5f395f51905f5260209081526040808420335f908152925290205460ff161561117f5760095482526008602052604082208151835260205260026040808420928051845560208101516001850155015191015580f35b60405162461bcd60e51b815260206004820152603f60248201527f5345545f4c4153545f41434345505445445f434f4d4d49544d454e545f41545f60448201527f4845494748545f49535f434f4d4d49544d454e545f41444d494e5f4f4e4c59006064820152608490fd5b50346102ae57806003193601126102ae577f00000000000000000000000000000000000000000000000000000000000000006001600160a01b031630036112425760206040515f516020612baf5f395f51905f528152f35b63703e46dd60e11b8152600490fd5b50346102ae5760203660031901126102ae576004356001600160a01b038116908190036107b6576112806121de565b6bffffffffffffffffffffffff60a01b603954161760395580f35b5060403660031901126102ae576112b0611a9a565b6024359067ffffffffffffffff8211610c425736602383011215610c4257816004013590836112de83611b72565b936112ec6040519586611a32565b83855260208501933660248284010111610c4257806024602093018637850101526001600160a01b037f00000000000000000000000000000000000000000000000000000000000000001630811490811561149c575b5061148d5761134f6121de565b6040516352d1902d60e01b81526001600160a01b0382169390602081600481885afa869181611455575b5061139257634c9c8ce360e01b86526004859052602486fd5b93845f516020612baf5f395f51905f528796036114435750823b15611431575f516020612baf5f395f51905f5280546001600160a01b031916821790558491907fbc7cd75a20ee27fd9adebab32041f755214dbc6bffa90cc0225b39da2e5c2d3b8380a2805115611416576106af9382915190845af4611410612a14565b91612b10565b50505050346114225780f35b63b398979f60e01b8152600490fd5b634c9c8ce360e01b8552600452602484fd5b632a87526960e21b8652600452602485fd5b9091506020813d602011611485575b8161147160209383611a32565b810103126114815751905f611379565b8680fd5b3d9150611464565b63703e46dd60e11b8452600484fd5b5f516020612baf5f395f51905f52546001600160a01b0316141590505f611342565b50346102ae57806003193601126102ae576104a06114da611e15565b604051918291602083526020830190611b36565b50346102ae5760203660031901126102ae5760043567ffffffffffffffff81116107b657611520903690600401611ac8565b908080525f516020612bcf5f395f51905f526020526040812060018060a01b0333165f5260205261155760ff60405f205416611d0b565b805b82518110156106af5760019061158c6001600160a01b0361157a8387611d62565b5116611587610774611c60565b6122cf565b5001611559565b50346102ae5760403660031901126102ae576115ad611a84565b336001600160a01b038216036115c9576106af90600435612548565b63334bd91960e11b8252600482fd5b50346102ae5760403660031901126102ae576106af6004356115f8611a84565b9061161e610774825f525f516020612bcf5f395f51905f52602052600160405f20015490565b6124b7565b50346103d85760203660031901126103d8575f546040516321df0da760e01b81526001600160a01b0390911690602081600481855afa9081156116c0575f916116cb575b50813b156103d8575f91606483926040519485938492634974c67960e01b845233600485015260018060a01b0316602484015260043560448401525af180156116c0576116b2575080f35b6116be91505f90611a32565b005b6040513d5f823e3d90fd5b6116e4915060203d602011610a7357610a658183611a32565b5f611667565b346103d85760203660031901126103d85760206103506004355f525f516020612bcf5f395f51905f52602052600160405f20015490565b346103d85760203660031901126103d8576004355f526003602052602060405f2054604051908152f35b346103d85760603660031901126103d857611764611a84565b604435906001600160a01b03821682036103d85760209161035091600435611bdd565b346103d8575f3660031901126103d85760206103506117a4611fd2565b611e6f565b346103d8575f3660031901126103d8576020600154604051908152f35b346103d85760203660031901126103d8576004355f52600660205260405f2080546104a060026001840154930154604051938493846040919493926060820195825260208201520152565b346103d85760403660031901126103d85761182a611a84565b611832611bbf565b506004355f52600460205260405f209060018060a01b03165f526020526104a060405f206002604051916105c283611a02565b346103d85760603660031901126103d85761187f36611a54565b60406118c181516118908382611a32565b602081527f666f7263654c6174657374436f6d6d69746d656e742063616c6c65642062793a6020820152339061217c565b5f516020612b8f5f395f51905f525f9081525f516020612bcf5f395f51905f52602090815282822033835290528190205460ff1615611953576009546001810180911161193f57806009555f526008602052805f2082515f526020526002815f20918351938484556020810151600185015501519101556002555f80f35b634e487b7160e01b5f52601160045260245ffd5b5162461bcd60e51b815260206004820152603060248201527f464f5243455f4c41544553545f434f4d4d49544d454e545f49535f434f4d4d4960448201526f544d454e545f41444d494e5f4f4e4c5960801b6064820152608490fd5b346103d85760203660031901126103d8576004359063ffffffff60e01b82168092036103d857602091637965db0b60e01b81149081156119f1575b5015158152f35b6301ffc9a760e01b149050836119ea565b6060810190811067ffffffffffffffff821117611a1e57604052565b634e487b7160e01b5f52604160045260245ffd5b90601f8019910116810190811067ffffffffffffffff821117611a1e57604052565b60609060031901126103d85760405190611a6d82611a02565b600435825260243560208301526044356040830152565b602435906001600160a01b03821682036103d857565b600435906001600160a01b03821682036103d857565b67ffffffffffffffff8111611a1e5760051b60200190565b9080601f830112156103d857813590611ae082611ab0565b92611aee6040519485611a32565b82845260208085019360051b8201019182116103d857602001915b818310611b165750505090565b82356001600160a01b03811681036103d857815260209283019201611b09565b90602080835192838152019201905f5b818110611b535750505090565b82516001600160a01b0316845260209384019390920191600101611b46565b67ffffffffffffffff8111611a1e57601f01601f191660200190565b805180835260209291819084018484015e5f828201840152601f01601f1916010190565b9190820180921161193f57565b60405190611bcc82611a02565b5f6040838281528260208201520152565b5f546040516311b2104b60e31b815230600482015260248101929092526001600160a01b03928316604483015292821660648201529160209183916084918391165afa9081156116c0575f91611c31575090565b90506020813d602011611c58575b81611c4c60209383611a32565b810103126103d8575190565b3d9150611c3f565b5f516020612b8f5f395f51905f525f525f516020612bcf5f395f51905f526020527fc0b8663a995ad32ccf81c6369bcca5ff92004c48ed45f14e9c13067079d62c4d5490565b5f516020612bef5f395f51905f525f525f516020612bcf5f395f51905f526020527f84e2664aed99279e0ebbfecf0aa40c11258c0b979003aeac4259a67b9634e80e5490565b908160209103126103d857516001600160a01b03811681036103d85790565b15611d1257565b60405162461bcd60e51b815260206004820152602260248201527f4144445f434f4d4d49544d454e545f41444d494e5f49535f41444d494e5f4f4e6044820152614c5960f01b6064820152608490fd5b8051821015611d765760209160051b010190565b634e487b7160e01b5f52603260045260245ffd5b6020818303126103d85780519067ffffffffffffffff82116103d857019080601f830112156103d857815190611dbf82611ab0565b92611dcd6040519485611a32565b82845260208085019360051b8201019182116103d857602001915b818310611df55750505090565b82516001600160a01b03811681036103d857815260209283019201611de8565b5f8054604051632924b73b60e01b81523060048201529190829060249082906001600160a01b03165afa9081156116c0575f91611e50575090565b611e6c91503d805f833e611e648183611a32565b810190611d8a565b90565b5f8054604051636ae501ef60e11b8152306004820152929190839060249082906001600160a01b03165afa9182156116c0575f92611eef575b505f91825b8151841015611ee857600190611ee090611eda6001600160a01b03611ed28887611d62565b51168661200e565b90611bb2565b930192611ead565b9250505090565b611f049192503d805f833e611e648183611a32565b905f611ea8565b611fd0906040611f518151611f208382611a32565b601f81527f6772616e74436f6d6d69746d656e7441646d696e2063616c6c65642062793a006020820152339061217c565b5f8080525f516020612bcf5f395f51905f526020908152828220338352905281902054611f809060ff16611d0b565b611f8b610774611c60565b611f94826122cf565b50611fa181519182611a32565b602081527f436f6d6d69746d656e7441646d696e20726f6c65206772616e74656420746f3a602082015261217c565b565b5f54604051634d3223a560e01b815230600482015290602090829060249082906001600160a01b03165afa9081156116c0575f91611c31575090565b5f54604051635cdf315560e01b815230600482015260248101929092526001600160a01b039283166044830152909160209183916064918391165afa9081156116c0575f91611c31575090565b1561206257565b60405162461bcd60e51b815260206004820152601d60248201527f554e415554484f52495a45445f424c4f434b5f434f4d4d49544d454e540000006044820152606490fd5b5f54604051631868e3ff60e31b815230600482015290602090829060249082906001600160a01b03165afa9081156116c0575f91611c31575090565b5f8054604051636ae501ef60e11b815230600482015293929190849060249082906001600160a01b03165afa9283156116c0575f93612160575b505f92835b81518510156121585760019061215090611eda866001600160a01b036121488a88611d62565b511687611bdd565b940193612122565b935050505090565b6121759193503d805f833e611e648183611a32565b915f61211d565b5f919082916121cb60405180926121ac602083019563319af33360e01b8752604060248501526064840190611b8e565b6001600160a01b0391909116604483015203601f198101835282611a32565b51906a636f6e736f6c652e6c6f675afa50565b335f9081527fb7db2dd08fcb62d0c9e08c51941cae53c267786a0b75803fb7960902fc8ef97d602052604090205460ff161561221657565b63e2517d3f60e01b5f52336004525f60245260445ffd5b335f9081527fc0b8663a995ad32ccf81c6369bcca5ff92004c48ed45f14e9c13067079d62c4c602052604090205460ff161561226557565b63e2517d3f60e01b5f52336004525f516020612b8f5f395f51905f5260245260445ffd5b5f8181525f516020612bcf5f395f51905f526020908152604080832033845290915290205460ff16156122b95750565b63e2517d3f60e01b5f523360045260245260445ffd5b6001600160a01b0381165f9081527fc0b8663a995ad32ccf81c6369bcca5ff92004c48ed45f14e9c13067079d62c4c602052604090205460ff16612375576001600160a01b03165f8181527fc0b8663a995ad32ccf81c6369bcca5ff92004c48ed45f14e9c13067079d62c4c60205260408120805460ff191660011790553391905f516020612b8f5f395f51905f52905f516020612b6f5f395f51905f529080a4600190565b505f90565b6001600160a01b0381165f9081527fb7db2dd08fcb62d0c9e08c51941cae53c267786a0b75803fb7960902fc8ef97d602052604090205460ff16612375576001600160a01b03165f8181527fb7db2dd08fcb62d0c9e08c51941cae53c267786a0b75803fb7960902fc8ef97d60205260408120805460ff191660011790553391905f516020612b6f5f395f51905f528180a4600190565b6001600160a01b0381165f9081527f84e2664aed99279e0ebbfecf0aa40c11258c0b979003aeac4259a67b9634e80d602052604090205460ff16612375576001600160a01b03165f8181527f84e2664aed99279e0ebbfecf0aa40c11258c0b979003aeac4259a67b9634e80d60205260408120805460ff191660011790553391905f516020612bef5f395f51905f52905f516020612b6f5f395f51905f529080a4600190565b5f8181525f516020612bcf5f395f51905f52602090815260408083206001600160a01b038616845290915290205460ff16612542575f8181525f516020612bcf5f395f51905f52602090815260408083206001600160a01b0395909516808452949091528120805460ff19166001179055339291905f516020612b6f5f395f51905f529080a4600190565b50505f90565b5f8181525f516020612bcf5f395f51905f52602090815260408083206001600160a01b038616845290915290205460ff1615612542575f8181525f516020612bcf5f395f51905f52602090815260408083206001600160a01b0395909516808452949091528120805460ff19169055339291907ff6391f5c32d9c69d2a47ea670b442974b53935d1edc7fd64eb21e047a839171b9080a4600190565b9080515f52600460205260405f2060018060a01b0383165f5260205260405f20546127035761261860025460015490611bb2565b815111612703576040817f4c9b7866113ce81c9ece48d2a0f4bb9d89d87f997a851cf3c448ee02f54559fd92515f526003602052815f2054156126e9575b80515f526004602052815f2060018060a01b0385165f52602052815f2081518155612699602083019586516001840155848401926002845191015561100a611fd2565b91515f526005602052825f2085515f52602052825f206126ba838254611bb2565b90555193519082519182526020820152a25b6002546001810180911161193f576126e39061273d565b6126cc57565b6126f16120a7565b81515f526003602052825f2055612656565b630ae09ad960e41b5f5260045ffd5b60ff5f516020612c0f5f395f51905f525460401c161561272e57565b631afcd79f60e31b5f5260045ffd5b805f52600360205260405f20545b80612754611fd2565b101561276757612762612a43565b61274b565b61277090611e6f565b6001600160ff1b038116810361193f5760039060011b0461278f611e15565b915f5b8351811015612a0c576001600160a01b036127ad8286611d62565b5116825f52600460205260405f209060018060a01b03165f5260205260405f20604051906127da82611a02565b805491828152600260018301549260208301938452015492604082019384525f52600560205260405f2082515f526020528560405f20541161282157505050600101612792565b93509350935050612830611fd2565b9281515f5260036020528360405f2054036129fd576009545f52600860205260405f2082515f5260205260027f5b0d1f14085ff88796df21c2944d34c115838925a7bee30850fcacaaf902a3796040805f208551808255875191826001820155865195869101558060025582519182526020820152a26039546001600160a01b03166128d9575b5050506128c26120a7565b116128cc57600190565b6128d4612a43565b600190565b5f8054604051632924b73b60e01b81523060048201529496949593929190869060249082906001600160a01b03165afa9485156116c0575f956129e1575b505f5b85518110156129d5576001600160a01b036129358288611d62565b511683515f52600460205260405f2060018060a01b0382165f52602052600160405f20015490885180921461296e57505060010161291a565b9091505f9597508594965060018060a01b03603954169351925160405192602084019463ea45baab60e01b86526024850152604484015260648301526084820152608481526129be60a482611a32565b51915af4506129cb612a14565b505b5f80806128b7565b505050915091506129cd565b6129f69195503d805f833e611e648183611a32565b935f612917565b63071cab8b60e21b5f5260045ffd5b505050505f90565b3d15612a3e573d90612a2582611b72565b91612a336040519384611a32565b82523d5f602084013e565b606090565b612a4b611fd2565b5f80549091906001600160a01b0316803b156103d8575f8091600460405180948193632a21edc760e21b83525af180156116c057612afb575b506039546001600160a01b03169081612a9c57505050565b60018101808211612ae75790839291604051906020820192630e8013b760e31b84526024830152604482015260448152612ad7606482611a32565b51915af450612ae4612a14565b50565b634e487b7160e01b84526011600452602484fd5b612b089192505f90611a32565b5f905f612a84565b90612b345750805115612b2557805190602001fd5b630a12f52160e11b5f5260045ffd5b81511580612b65575b612b45575090565b639996b31560e01b5f9081526001600160a01b0391909116600452602490fd5b50803b15612b3d56fe2f8788117e7eff1d82e926ec794901d17c78024a50270940304540a733656f0ddb2bf73e90d393604e56f0a2a54fed3fbd75332bf39c5ea0704b3b6973a3463c360894a13ba1a3210667c828492db98dca3e2076cc3735a920a3ca505d382bbc02dd7bc7dec4dceedda775e58dd541e08a116c6c53815c0bd028192f7b626800981fe5f60e354ed88ff0544e367c13a4d3342da7c82eb6627f804b747e046e18f0c57e16840df040f15088dc2f81fe391c3923bec73e23a9662efc9c229c6a00a2646970667358221220e5dc37585bb6882d75880eb08e06b74754b932aa81dd178de84a62eb8f3ca6e564736f6c634300081c0033","linkReferences":{}},"methodIdentifiers":{"COMMITMENT_ADMIN()":"80e460f0","DEFAULT_ADMIN_ROLE()":"a217fddf","TRUSTED_ATTESTER()":"5db916ab","UPGRADE_INTERFACE_VERSION()":"ad3cb1cc","acceptGenesisCeremony()":"92a2ebf3","acceptedBlocks(uint256)":"1c4e4e27","acceptedBlocksVersion()":"747e7295","batchGrantCommitmentAdmin(address[])":"4b47d955","batchGrantTrustedAttester(address[])":"cf6772ad","blockHeightEpochAssignments(uint256)":"20e0e445","commitmentStakes(uint256,bytes32)":"fc2788ad","commitments(uint256,address)":"e90d4c06","computeAllCurrentEpochStake(address)":"60fea5dd","computeAllStakeAtEpoch(uint256,address)":"f34d002a","computeAllTotalStakeForCurrentEpoch()":"1dfcce8c","computeAllTotalStakeForEpoch(uint256)":"6542384f","createBlockCommitment(uint256,bytes32,bytes32)":"ee96da05","forceLatestCommitment((uint256,bytes32,bytes32))":"08c7050f","getAcceptedCommitmentAtBlockHeight(uint256)":"e1ffa44c","getAttesters()":"4ed7e435","getCurrentEpoch()":"b97dd9e2","getCurrentEpochStake(address,address)":"bc90afbb","getEpochByBlockTime()":"ee377d90","getMaxTolerableBlockHeight()":"74e8e564","getNextEpoch()":"efe97d05","getRoleAdmin(bytes32)":"248a9ca3","getStakeAtEpoch(uint256,address,address)":"1faea1ed","getTotalStakeForCurrentEpoch(address)":"b274a935","getTotalStakeForEpoch(uint256,address)":"c6e1b9db","getValidatorCommitmentAtBlockHeight(uint256,address)":"0a0b81cc","grantCommitmentAdmin(address)":"949d7c2a","grantRole(bytes32,address)":"2f2ff15d","grantTrustedAttester(address)":"81df1746","hasRole(bytes32,address)":"91d14854","initialize()":"8129fc1c","initialize(address,uint256,uint256,uint256,address[])":"a3df415f","lastAcceptedBlockHeight()":"6b588ac7","leadingBlockTolerance()":"1cfa2516","openAttestationEnabled()":"ef9ae15c","proxiableUUID()":"52d1902d","renounceRole(bytes32,address)":"36568abe","revokeRole(bytes32,address)":"d547741f","rewardContract()":"6ea69d62","setAcceptedCommitmentAtBlockHeight((uint256,bytes32,bytes32))":"53cd9e3c","setLastAcceptedBlockHeight(uint256)":"5a912c83","setOpenAttestationEnabled(bool)":"d2526fef","setRewardContract(address)":"51508f0a","stake(uint256)":"a694fc3a","stakingContract()":"ee99205c","submitBatchBlockCommitment((uint256,bytes32,bytes32)[])":"e1b2b222","submitBlockCommitment((uint256,bytes32,bytes32))":"f89fe60b","supportsInterface(bytes4)":"01ffc9a7","unstake(uint256)":"2e17de78","upgradeToAndCall(address,bytes)":"4f1ef286","versionedAcceptedBlocks(uint256,uint256)":"e8124097"},"storageLayout":{"storage":[{"astId":47978,"contract":"src/settlement/MCR.sol:MCR","label":"stakingContract","offset":0,"slot":"0","type":"t_contract(IMovementStaking)50944"},{"astId":47981,"contract":"src/settlement/MCR.sol:MCR","label":"leadingBlockTolerance","offset":0,"slot":"1","type":"t_uint256"},{"astId":47984,"contract":"src/settlement/MCR.sol:MCR","label":"lastAcceptedBlockHeight","offset":0,"slot":"2","type":"t_uint256"},{"astId":47997,"contract":"src/settlement/MCR.sol:MCR","label":"blockHeightEpochAssignments","offset":0,"slot":"3","type":"t_mapping(t_uint256,t_uint256)"},{"astId":48005,"contract":"src/settlement/MCR.sol:MCR","label":"commitments","offset":0,"slot":"4","type":"t_mapping(t_uint256,t_mapping(t_address,t_struct(BlockCommitment)47992_storage))"},{"astId":48012,"contract":"src/settlement/MCR.sol:MCR","label":"commitmentStakes","offset":0,"slot":"5","type":"t_mapping(t_uint256,t_mapping(t_bytes32,t_uint256))"},{"astId":48018,"contract":"src/settlement/MCR.sol:MCR","label":"acceptedBlocks","offset":0,"slot":"6","type":"t_mapping(t_uint256,t_struct(BlockCommitment)47992_storage)"},{"astId":48021,"contract":"src/settlement/MCR.sol:MCR","label":"openAttestationEnabled","offset":0,"slot":"7","type":"t_bool"},{"astId":48029,"contract":"src/settlement/MCR.sol:MCR","label":"versionedAcceptedBlocks","offset":0,"slot":"8","type":"t_mapping(t_uint256,t_mapping(t_uint256,t_struct(BlockCommitment)47992_storage))"},{"astId":48032,"contract":"src/settlement/MCR.sol:MCR","label":"acceptedBlocksVersion","offset":0,"slot":"9","type":"t_uint256"},{"astId":48037,"contract":"src/settlement/MCR.sol:MCR","label":"__gap","offset":0,"slot":"10","type":"t_array(t_uint256)47_storage"},{"astId":46825,"contract":"src/settlement/MCR.sol:MCR","label":"rewardContract","offset":0,"slot":"57","type":"t_contract(IMcrReward)49030"}],"types":{"t_address":{"encoding":"inplace","label":"address","numberOfBytes":"20"},"t_array(t_uint256)47_storage":{"encoding":"inplace","label":"uint256[47]","numberOfBytes":"1504","base":"t_uint256"},"t_bool":{"encoding":"inplace","label":"bool","numberOfBytes":"1"},"t_bytes32":{"encoding":"inplace","label":"bytes32","numberOfBytes":"32"},"t_contract(IMcrReward)49030":{"encoding":"inplace","label":"contract IMcrReward","numberOfBytes":"20"},"t_contract(IMovementStaking)50944":{"encoding":"inplace","label":"contract IMovementStaking","numberOfBytes":"20"},"t_mapping(t_address,t_struct(BlockCommitment)47992_storage)":{"encoding":"mapping","key":"t_address","label":"mapping(address => struct MCRStorage.BlockCommitment)","numberOfBytes":"32","value":"t_struct(BlockCommitment)47992_storage"},"t_mapping(t_bytes32,t_uint256)":{"encoding":"mapping","key":"t_bytes32","label":"mapping(bytes32 => uint256)","numberOfBytes":"32","value":"t_uint256"},"t_mapping(t_uint256,t_mapping(t_address,t_struct(BlockCommitment)47992_storage))":{"encoding":"mapping","key":"t_uint256","label":"mapping(uint256 => mapping(address => struct MCRStorage.BlockCommitment))","numberOfBytes":"32","value":"t_mapping(t_address,t_struct(BlockCommitment)47992_storage)"},"t_mapping(t_uint256,t_mapping(t_bytes32,t_uint256))":{"encoding":"mapping","key":"t_uint256","label":"mapping(uint256 => mapping(bytes32 => uint256))","numberOfBytes":"32","value":"t_mapping(t_bytes32,t_uint256)"},"t_mapping(t_uint256,t_mapping(t_uint256,t_struct(BlockCommitment)47992_storage))":{"encoding":"mapping","key":"t_uint256","label":"mapping(uint256 => mapping(uint256 => struct MCRStorage.BlockCommitment))","numberOfBytes":"32","value":"t_mapping(t_uint256,t_struct(BlockCommitment)47992_storage)"},"t_mapping(t_uint256,t_struct(BlockCommitment)47992_storage)":{"encoding":"mapping","key":"t_uint256","label":"mapping(uint256 => struct MCRStorage.BlockCommitment)","numberOfBytes":"32","value":"t_struct(BlockCommitment)47992_storage"},"t_mapping(t_uint256,t_uint256)":{"encoding":"mapping","key":"t_uint256","label":"mapping(uint256 => uint256)","numberOfBytes":"32","value":"t_uint256"},"t_struct(BlockCommitment)47992_storage":{"encoding":"inplace","label":"struct MCRStorage.BlockCommitment","numberOfBytes":"96","members":[{"astId":47987,"contract":"src/settlement/MCR.sol:MCR","label":"height","offset":0,"slot":"0","type":"t_uint256"},{"astId":47989,"contract":"src/settlement/MCR.sol:MCR","label":"commitment","offset":0,"slot":"1","type":"t_bytes32"},{"astId":47991,"contract":"src/settlement/MCR.sol:MCR","label":"blockId","offset":0,"slot":"2","type":"t_bytes32"}]},"t_uint256":{"encoding":"inplace","label":"uint256","numberOfBytes":"32"}}},"id":62}