{"abi":[{"type":"function","name":"COMMITMENT_ADMIN","inputs":[],"outputs":[{"name":"","type":"bytes32","internalType":"bytes32"}],"stateMutability":"view"},{"type":"function","name":"DEFAULT_ADMIN_ROLE","inputs":[],"outputs":[{"name":"","type":"bytes32","internalType":"bytes32"}],"stateMutability":"view"},{"type":"function","name":"TRUSTED_ATTESTER","inputs":[],"outputs":[{"name":"","type":"bytes32","internalType":"bytes32"}],"stateMutability":"view"},{"type":"function","name":"UPGRADE_INTERFACE_VERSION","inputs":[],"outputs":[{"name":"","type":"string","internalType":"string"}],"stateMutability":"view"},{"type":"function","name":"acceptGenesisCeremony","inputs":[],"outputs":[],"stateMutability":"nonpayable"},{"type":"function","name":"acceptedCommitments","inputs":[{"name":"commitmentHeight","type":"uint256","internalType":"uint256"}],"outputs":[{"name":"height","type":"uint256","internalType":"uint256"},{"name":"commitmentValue","type":"bytes32","internalType":"bytes32"},{"name":"blockId","type":"bytes32","internalType":"bytes32"}],"stateMutability":"view"},{"type":"function","name":"acceptedCommitmentsVersion","inputs":[],"outputs":[{"name":"","type":"uint256","internalType":"uint256"}],"stateMutability":"view"},{"type":"function","name":"batchGrantCommitmentAdmin","inputs":[{"name":"accounts","type":"address[]","internalType":"address[]"}],"outputs":[],"stateMutability":"nonpayable"},{"type":"function","name":"batchGrantTrustedAttester","inputs":[{"name":"attesters","type":"address[]","internalType":"address[]"}],"outputs":[],"stateMutability":"nonpayable"},{"type":"function","name":"commitmentHeightEpochAssignments","inputs":[{"name":"commitmentHeight","type":"uint256","internalType":"uint256"}],"outputs":[{"name":"epoch","type":"uint256","internalType":"uint256"}],"stateMutability":"view"},{"type":"function","name":"commitmentStakes","inputs":[{"name":"commitmentHeight","type":"uint256","internalType":"uint256"},{"name":"commitement","type":"bytes32","internalType":"bytes32"}],"outputs":[{"name":"stake","type":"uint256","internalType":"uint256"}],"stateMutability":"view"},{"type":"function","name":"commitments","inputs":[{"name":"commitmentHeight","type":"uint256","internalType":"uint256"},{"name":"attester","type":"address","internalType":"address"}],"outputs":[{"name":"height","type":"uint256","internalType":"uint256"},{"name":"commitmentValue","type":"bytes32","internalType":"bytes32"},{"name":"blockId","type":"bytes32","internalType":"bytes32"}],"stateMutability":"view"},{"type":"function","name":"computeAllCurrentEpochStake","inputs":[{"name":"attester","type":"address","internalType":"address"}],"outputs":[{"name":"","type":"uint256","internalType":"uint256"}],"stateMutability":"view"},{"type":"function","name":"computeAllStakeAtEpoch","inputs":[{"name":"epoch","type":"uint256","internalType":"uint256"},{"name":"attester","type":"address","internalType":"address"}],"outputs":[{"name":"","type":"uint256","internalType":"uint256"}],"stateMutability":"view"},{"type":"function","name":"computeAllTotalStakeForCurrentEpoch","inputs":[],"outputs":[{"name":"","type":"uint256","internalType":"uint256"}],"stateMutability":"view"},{"type":"function","name":"computeAllTotalStakeForEpoch","inputs":[{"name":"epoch","type":"uint256","internalType":"uint256"}],"outputs":[{"name":"","type":"uint256","internalType":"uint256"}],"stateMutability":"view"},{"type":"function","name":"createCommitment","inputs":[{"name":"height","type":"uint256","internalType":"uint256"},{"name":"commitment","type":"bytes32","internalType":"bytes32"},{"name":"blockId","type":"bytes32","internalType":"bytes32"}],"outputs":[{"name":"","type":"tuple","internalType":"struct MCRStorage.Commitment","components":[{"name":"height","type":"uint256","internalType":"uint256"},{"name":"commitmentValue","type":"bytes32","internalType":"bytes32"},{"name":"blockId","type":"bytes32","internalType":"bytes32"}]}],"stateMutability":"pure"},{"type":"function","name":"forceLatestCommitment","inputs":[{"name":"commitment","type":"tuple","internalType":"struct MCRStorage.Commitment","components":[{"name":"height","type":"uint256","internalType":"uint256"},{"name":"commitmentValue","type":"bytes32","internalType":"bytes32"},{"name":"blockId","type":"bytes32","internalType":"bytes32"}]}],"outputs":[],"stateMutability":"nonpayable"},{"type":"function","name":"getAcceptedCommitmentAtBlockHeight","inputs":[{"name":"height","type":"uint256","internalType":"uint256"}],"outputs":[{"name":"","type":"tuple","internalType":"struct MCRStorage.Commitment","components":[{"name":"height","type":"uint256","internalType":"uint256"},{"name":"commitmentValue","type":"bytes32","internalType":"bytes32"},{"name":"blockId","type":"bytes32","internalType":"bytes32"}]}],"stateMutability":"view"},{"type":"function","name":"getAttesters","inputs":[],"outputs":[{"name":"","type":"address[]","internalType":"address[]"}],"stateMutability":"view"},{"type":"function","name":"getCurrentEpoch","inputs":[],"outputs":[{"name":"","type":"uint256","internalType":"uint256"}],"stateMutability":"view"},{"type":"function","name":"getCurrentEpochStake","inputs":[{"name":"custodian","type":"address","internalType":"address"},{"name":"attester","type":"address","internalType":"address"}],"outputs":[{"name":"","type":"uint256","internalType":"uint256"}],"stateMutability":"view"},{"type":"function","name":"getEpochByBlockTime","inputs":[],"outputs":[{"name":"","type":"uint256","internalType":"uint256"}],"stateMutability":"view"},{"type":"function","name":"getMaxTolerableBlockHeight","inputs":[],"outputs":[{"name":"","type":"uint256","internalType":"uint256"}],"stateMutability":"view"},{"type":"function","name":"getNextEpoch","inputs":[],"outputs":[{"name":"","type":"uint256","internalType":"uint256"}],"stateMutability":"view"},{"type":"function","name":"getRoleAdmin","inputs":[{"name":"role","type":"bytes32","internalType":"bytes32"}],"outputs":[{"name":"","type":"bytes32","internalType":"bytes32"}],"stateMutability":"view"},{"type":"function","name":"getStakeAtEpoch","inputs":[{"name":"epoch","type":"uint256","internalType":"uint256"},{"name":"custodian","type":"address","internalType":"address"},{"name":"attester","type":"address","internalType":"address"}],"outputs":[{"name":"","type":"uint256","internalType":"uint256"}],"stateMutability":"view"},{"type":"function","name":"getTotalStakeForCurrentEpoch","inputs":[{"name":"custodian","type":"address","internalType":"address"}],"outputs":[{"name":"","type":"uint256","internalType":"uint256"}],"stateMutability":"view"},{"type":"function","name":"getTotalStakeForEpoch","inputs":[{"name":"epoch","type":"uint256","internalType":"uint256"},{"name":"custodian","type":"address","internalType":"address"}],"outputs":[{"name":"","type":"uint256","internalType":"uint256"}],"stateMutability":"view"},{"type":"function","name":"getValidatorCommitmentAtBlockHeight","inputs":[{"name":"height","type":"uint256","internalType":"uint256"},{"name":"attester","type":"address","internalType":"address"}],"outputs":[{"name":"","type":"tuple","internalType":"struct MCRStorage.Commitment","components":[{"name":"height","type":"uint256","internalType":"uint256"},{"name":"commitmentValue","type":"bytes32","internalType":"bytes32"},{"name":"blockId","type":"bytes32","internalType":"bytes32"}]}],"stateMutability":"view"},{"type":"function","name":"grantCommitmentAdmin","inputs":[{"name":"account","type":"address","internalType":"address"}],"outputs":[],"stateMutability":"nonpayable"},{"type":"function","name":"grantRole","inputs":[{"name":"role","type":"bytes32","internalType":"bytes32"},{"name":"account","type":"address","internalType":"address"}],"outputs":[],"stateMutability":"nonpayable"},{"type":"function","name":"grantTrustedAttester","inputs":[{"name":"attester","type":"address","internalType":"address"}],"outputs":[],"stateMutability":"nonpayable"},{"type":"function","name":"hasRole","inputs":[{"name":"role","type":"bytes32","internalType":"bytes32"},{"name":"account","type":"address","internalType":"address"}],"outputs":[{"name":"","type":"bool","internalType":"bool"}],"stateMutability":"view"},{"type":"function","name":"initialize","inputs":[],"outputs":[],"stateMutability":"nonpayable"},{"type":"function","name":"initialize","inputs":[{"name":"_stakingContract","type":"address","internalType":"contract IMovementStaking"},{"name":"_lastAcceptedCommitmentHeight","type":"uint256","internalType":"uint256"},{"name":"_leadingCommitmentTolerance","type":"uint256","internalType":"uint256"},{"name":"_epochDuration","type":"uint256","internalType":"uint256"},{"name":"_custodians","type":"address[]","internalType":"address[]"}],"outputs":[],"stateMutability":"nonpayable"},{"type":"function","name":"lastAcceptedCommitmentHeight","inputs":[],"outputs":[{"name":"","type":"uint256","internalType":"uint256"}],"stateMutability":"view"},{"type":"function","name":"leadingCommitmentTolerance","inputs":[],"outputs":[{"name":"","type":"uint256","internalType":"uint256"}],"stateMutability":"view"},{"type":"function","name":"openAttestationEnabled","inputs":[],"outputs":[{"name":"","type":"bool","internalType":"bool"}],"stateMutability":"view"},{"type":"function","name":"proxiableUUID","inputs":[],"outputs":[{"name":"","type":"bytes32","internalType":"bytes32"}],"stateMutability":"view"},{"type":"function","name":"renounceRole","inputs":[{"name":"role","type":"bytes32","internalType":"bytes32"},{"name":"callerConfirmation","type":"address","internalType":"address"}],"outputs":[],"stateMutability":"nonpayable"},{"type":"function","name":"revokeRole","inputs":[{"name":"role","type":"bytes32","internalType":"bytes32"},{"name":"account","type":"address","internalType":"address"}],"outputs":[],"stateMutability":"nonpayable"},{"type":"function","name":"rewardContract","inputs":[],"outputs":[{"name":"","type":"address","internalType":"contract IMcrReward"}],"stateMutability":"view"},{"type":"function","name":"setAcceptedCommitmentAtBlockHeight","inputs":[{"name":"commitment","type":"tuple","internalType":"struct MCRStorage.Commitment","components":[{"name":"height","type":"uint256","internalType":"uint256"},{"name":"commitmentValue","type":"bytes32","internalType":"bytes32"},{"name":"blockId","type":"bytes32","internalType":"bytes32"}]}],"outputs":[],"stateMutability":"nonpayable"},{"type":"function","name":"setLastAcceptedBlockHeight","inputs":[{"name":"height","type":"uint256","internalType":"uint256"}],"outputs":[],"stateMutability":"nonpayable"},{"type":"function","name":"setOpenAttestationEnabled","inputs":[{"name":"enabled","type":"bool","internalType":"bool"}],"outputs":[],"stateMutability":"nonpayable"},{"type":"function","name":"setRewardContract","inputs":[{"name":"_rewardContract","type":"address","internalType":"contract IMcrReward"}],"outputs":[],"stateMutability":"nonpayable"},{"type":"function","name":"stake","inputs":[{"name":"amount","type":"uint256","internalType":"uint256"}],"outputs":[],"stateMutability":"nonpayable"},{"type":"function","name":"stakingContract","inputs":[],"outputs":[{"name":"","type":"address","internalType":"contract IMovementStaking"}],"stateMutability":"view"},{"type":"function","name":"submitBatchCommitment","inputs":[{"name":"commitments","type":"tuple[]","internalType":"struct MCRStorage.Commitment[]","components":[{"name":"height","type":"uint256","internalType":"uint256"},{"name":"commitmentValue","type":"bytes32","internalType":"bytes32"},{"name":"blockId","type":"bytes32","internalType":"bytes32"}]}],"outputs":[],"stateMutability":"nonpayable"},{"type":"function","name":"submitCommitment","inputs":[{"name":"commitment","type":"tuple","internalType":"struct MCRStorage.Commitment","components":[{"name":"height","type":"uint256","internalType":"uint256"},{"name":"commitmentValue","type":"bytes32","internalType":"bytes32"},{"name":"blockId","type":"bytes32","internalType":"bytes32"}]}],"outputs":[],"stateMutability":"nonpayable"},{"type":"function","name":"supportsInterface","inputs":[{"name":"interfaceId","type":"bytes4","internalType":"bytes4"}],"outputs":[{"name":"","type":"bool","internalType":"bool"}],"stateMutability":"view"},{"type":"function","name":"unstake","inputs":[{"name":"amount","type":"uint256","internalType":"uint256"}],"outputs":[],"stateMutability":"nonpayable"},{"type":"function","name":"upgradeToAndCall","inputs":[{"name":"newImplementation","type":"address","internalType":"address"},{"name":"data","type":"bytes","internalType":"bytes"}],"outputs":[],"stateMutability":"payable"},{"type":"function","name":"versionedAcceptedCommitments","inputs":[{"name":"","type":"uint256","internalType":"uint256"},{"name":"commitmentHeight","type":"uint256","internalType":"uint256"}],"outputs":[{"name":"height","type":"uint256","internalType":"uint256"},{"name":"commitmentValue","type":"bytes32","internalType":"bytes32"},{"name":"blockId","type":"bytes32","internalType":"bytes32"}],"stateMutability":"view"},{"type":"event","name":"BlockAccepted","inputs":[{"name":"blockHash","type":"bytes32","indexed":true,"internalType":"bytes32"},{"name":"stateCommitment","type":"bytes32","indexed":false,"internalType":"bytes32"},{"name":"height","type":"uint256","indexed":false,"internalType":"uint256"}],"anonymous":false},{"type":"event","name":"CommitmentSubmitted","inputs":[{"name":"blockHash","type":"bytes32","indexed":true,"internalType":"bytes32"},{"name":"stateCommitment","type":"bytes32","indexed":false,"internalType":"bytes32"},{"name":"attesterStake","type":"uint256","indexed":false,"internalType":"uint256"}],"anonymous":false},{"type":"event","name":"DebugCheckpoint","inputs":[{"name":"message","type":"string","indexed":false,"internalType":"string"}],"anonymous":false},{"type":"event","name":"DebugSubmitCommitment","inputs":[{"name":"caller","type":"address","indexed":false,"internalType":"address"},{"name":"hasTrustedAttesterRole","type":"bool","indexed":false,"internalType":"bool"},{"name":"openAttestationEnabled","type":"bool","indexed":false,"internalType":"bool"}],"anonymous":false},{"type":"event","name":"DebugSubmitCommitmentForAttester","inputs":[{"name":"caller","type":"address","indexed":false,"internalType":"address"},{"name":"attester","type":"address","indexed":false,"internalType":"address"},{"name":"height","type":"uint256","indexed":false,"internalType":"uint256"},{"name":"existingHeight","type":"uint256","indexed":false,"internalType":"uint256"}],"anonymous":false},{"type":"event","name":"DebugUint","inputs":[{"name":"message","type":"string","indexed":false,"internalType":"string"},{"name":"value","type":"uint256","indexed":false,"internalType":"uint256"}],"anonymous":false},{"type":"event","name":"DebugValues","inputs":[{"name":"message","type":"string","indexed":false,"internalType":"string"},{"name":"attester","type":"address","indexed":false,"internalType":"address"},{"name":"height","type":"uint256","indexed":false,"internalType":"uint256"},{"name":"lastAccepted","type":"uint256","indexed":false,"internalType":"uint256"},{"name":"tolerance","type":"uint256","indexed":false,"internalType":"uint256"}],"anonymous":false},{"type":"event","name":"Initialized","inputs":[{"name":"version","type":"uint64","indexed":false,"internalType":"uint64"}],"anonymous":false},{"type":"event","name":"RoleAdminChanged","inputs":[{"name":"role","type":"bytes32","indexed":true,"internalType":"bytes32"},{"name":"previousAdminRole","type":"bytes32","indexed":true,"internalType":"bytes32"},{"name":"newAdminRole","type":"bytes32","indexed":true,"internalType":"bytes32"}],"anonymous":false},{"type":"event","name":"RoleGranted","inputs":[{"name":"role","type":"bytes32","indexed":true,"internalType":"bytes32"},{"name":"account","type":"address","indexed":true,"internalType":"address"},{"name":"sender","type":"address","indexed":true,"internalType":"address"}],"anonymous":false},{"type":"event","name":"RoleRevoked","inputs":[{"name":"role","type":"bytes32","indexed":true,"internalType":"bytes32"},{"name":"account","type":"address","indexed":true,"internalType":"address"},{"name":"sender","type":"address","indexed":true,"internalType":"address"}],"anonymous":false},{"type":"event","name":"Upgraded","inputs":[{"name":"implementation","type":"address","indexed":true,"internalType":"address"}],"anonymous":false},{"type":"error","name":"AccessControlBadConfirmation","inputs":[]},{"type":"error","name":"AccessControlUnauthorizedAccount","inputs":[{"name":"account","type":"address","internalType":"address"},{"name":"neededRole","type":"bytes32","internalType":"bytes32"}]},{"type":"error","name":"AddressEmptyCode","inputs":[{"name":"target","type":"address","internalType":"address"}]},{"type":"error","name":"AttesterAlreadyCommitted","inputs":[]},{"type":"error","name":"ERC1967InvalidImplementation","inputs":[{"name":"implementation","type":"address","internalType":"address"}]},{"type":"error","name":"ERC1967NonPayable","inputs":[]},{"type":"error","name":"FailedInnerCall","inputs":[]},{"type":"error","name":"InvalidInitialization","inputs":[]},{"type":"error","name":"NotInitializing","inputs":[]},{"type":"error","name":"UUPSUnauthorizedCallContext","inputs":[]},{"type":"error","name":"UUPSUnsupportedProxiableUUID","inputs":[{"name":"slot","type":"bytes32","internalType":"bytes32"}]},{"type":"error","name":"UnacceptableCommitment","inputs":[]}],"bytecode":{"object":"0x60a0806040523460295730608052613136908161002e823960805181818161134901526114630152f35b5f80fdfe6080806040526004361015610012575f80fd5b5f905f3560e01c90816301ffc9a714611ab05750806308c7050f146119665780630a0b81cc146119125780631dfcce8c146118f05780631faea1ed146118b4578063232177ac14611897578063248a9ca3146118605780632e17de78146117995780632f2ff15d1461174e57806336568abe146117095780633962f0ef146116df5780634b47d9551461163a5780634ed7e4351461160a5780634f1ef286146113e757806351508f0a1461139d57806352d1902d1461133657806353cd9e3c146112435780635a912c83146111835780635db916ab1461115b57806360fea5dd1461112f5780636542384f146111105780636ea69d62146110e757806374e8e564146110c55780637a9b78651461105f57806380e460f0146110375780638129fc1c14610f4f57806381df174614610f1f57806391d1485414610ec957806392a2ebf314610dfc578063949d7c2a14610dda578063a217fddf14610dbe578063a3df415f14610b9c578063a694fc3a14610a3f578063ad3cb1cc146109f6578063b274a935146109ca578063b97dd9e2146109af578063bc90afbb1461097a578063c6e1b9db14610953578063cf6772ad146108dc578063d2526fef146108a0578063d452857714610882578063d547741f14610832578063da63d35514610702578063e1ffa44c14610680578063e90d4c061461061a578063ee377d90146105ff578063ee99205c146105d8578063ef9ae15c146105b5578063efe97d051461051d578063f1f36595146103a5578063f34d002a14610376578063f53175761461032a578063fabbd8ce146102cf578063fc2788ad1461029b5763fc589b451461027b575f80fd5b346102985780600319360112610298576020600254604051908152f35b80fd5b5034610298576040366003190112610298576040602091600435815260058352818120602435825283522054604051908152f35b50346102985760403660031901126102985760409060043581526008602052818120602435825260205220805461032660026001840154930154604051938493846040919493926060820195825260208201520152565b0390f35b5034610298576020366003190112610298576040906004358152600660205220805461032660026001840154930154604051938493846040919493926060820195825260208201520152565b503461029857604036600319011261029857602061039d610395611b85565b6004356121e4565b604051908152f35b5034610298576060366003190112610298576104df6103c336611b55565b5f5160206130c15f395f51905f5283525f5160206130a15f395f51905f526020526040832060018060a01b0333165f5260205260ff60405f20541660ff6007541660405191338352151560208301527f36e3dca9f2c9c88d42f1870f922f4de1256c1627f454d2fdf86572de2c0cdab9606082159384156040820152a15f5160206130615f395f51905f52606060405160208152601a60208201527f4265666f726520617574686f72697a6174696f6e20636865636b0000000000006040820152a1906104e2575b6104949061215c565b5f5160206130615f395f51905f52606060405160208152601960208201527f416674657220617574686f72697a6174696f6e20636865636b000000000000006040820152a1336126e5565b80f35b505f5160206130c15f395f51905f5283525f5160206130a15f395f51905f5260209081526040808520335f908152925290205460ff1661048b565b5034610298578060031936011261029857805460405163010913cb60e71b81523060048201529190602090839060249082906001600160a01b03165afa9081156105a95790610572575b602090604051908152f35b506020813d6020116105a1575b8161058c60209383611b33565b8101031261059d5760209051610567565b5f80fd5b3d915061057f565b604051903d90823e3d90fd5b5034610298578060031936011261029857602060ff600754166040519015158152f35b5034610298578060031936011261029857546040516001600160a01b039091168152602090f35b5034610298578060031936011261029857602061039d6121a8565b5034610298576040366003190112610298576040610636611b85565b9160043581526004602052209060018060a01b03165f5260205260405f20805461032660026001840154930154604051938493846040919493926060820195825260208201520152565b5034610298576020366003190112610298576040610326916106a0611cc0565b50600954815260086020528181206004358252602052206002604051916106c683611b03565b80548352600181015460208401520154604082015260405191829182919091604080606083019480518452602081015160208501520151910152565b5034610298576020366003190112610298576004359067ffffffffffffffff8211610298573660238301121561029857816004013561074081611bb1565b9261074e6040519485611b33565b818452602460606020860193028201019036821161082e57602401915b8183106107f25750505060ff6007541680156107b7575b61078b9061215c565b805b82518110156107b357806107ad6107a660019386611e63565b51336126e5565b0161078d565b5080f35b505f5160206130c15f395f51905f5281525f5160206130a15f395f51905f5260209081526040808320335f908152925290205460ff16610782565b60608336031261082e57602060609160405161080d81611b03565b8535815282860135838201526040860135604082015281520192019161076b565b8380fd5b5034610298576040366003190112610298576107b3600435610852611b85565b9061087d610878825f525f5160206130a15f395f51905f52602052600160405f20015490565b61238a565b612649565b50346102985780600319360112610298576020600154604051908152f35b5034610298576020366003190112610298576004358015158091036108d8576108c761232e565b60ff80196007541691161760075580f35b5080fd5b50346102985760203660031901126102985760043567ffffffffffffffff81116108d85761090e903690600401611bc9565b9061091761232e565b805b82518110156107b35760019061094c6001600160a01b0361093a8387611e63565b5116610947610878611da7565b612512565b5001610919565b503461029857604036600319011261029857602061039d610972611b85565b60043561210f565b503461029857604036600319011261029857602061039d610999611b9b565b6109a1611b85565b906109aa6120d3565b611cde565b5034610298578060031936011261029857602061039d6120d3565b503461029857602036600319011261029857602061039d6109e9611b9b565b6109f16120d3565b61210f565b503461029857806003193601126102985750610326604051610a19604082611b33565b60058152640352e302e360dc1b6020820152604051918291602083526020830190611c8f565b5034610298576020366003190112610298578060043560018060a01b038254166040516321df0da760e01b8152602081600481855afa908115610b62578491610b6d575b5060405163095ea7b360e01b81526004810192909252602482018390526001600160a01b03169060208160448187865af18015610b6257610b2a575b5082546001600160a01b031691823b15610b2557606484928360405195869485936316eaab3d60e11b8552336004860152602485015260448401525af18015610b1a57610b095750f35b81610b1391611b33565b6102985780f35b6040513d84823e3d90fd5b505050fd5b6020813d602011610b5a575b81610b4360209383611b33565b81010312610b2557518015158114610abf57505050fd5b3d9150610b36565b6040513d86823e3d90fd5b610b8f915060203d602011610b95575b610b878183611b33565b810190611ded565b5f610a83565b503d610b7d565b50346102985760a0366003190112610298576004356001600160a01b038116908190036108d85760843567ffffffffffffffff8111610d6457610be3903690600401611bc9565b5f5160206130e15f395f51905f52549160ff8360401c16159267ffffffffffffffff811680159081610db6575b6001149081610dac575b159081610da3575b50610d945767ffffffffffffffff1981166001175f5160206130e15f395f51905f52558492919084610d68575b50610c58612bc4565b610c613361247b565b5082546001600160a01b03191681178355604435600155602435600255803b15610d6457610cb98392918392604051948580948193631a6e609f60e31b83526064356004840152604060248401526044830190611c37565b03925af18015610b1a57610d4f575b5050610cd33361200c565b610cdb61232e565b610ce6610878611da7565b610cef33612512565b50610cf75780f35b68ff0000000000000000195f5160206130e15f395f51905f5254165f5160206130e15f395f51905f52557fc7f505b2f371ae2175ee4913f4499e1f2633a7b5936321eed1cdaeb6115181d2602060405160018152a180f35b81610d5991611b33565b6108d857815f610cc8565b8280fd5b68ffffffffffffffffff191668010000000000000001175f5160206130e15f395f51905f52555f610c4f565b63f92ee8a960e01b8552600485fd5b9050155f610c22565b303b159150610c1a565b859150610c10565b5034610298578060031936011261029857602090604051908152f35b5034610298576020366003190112610298576104df610df7611b9b565b61200c565b50346102985780600319360112610298578080525f5160206130a15f395f51905f5260209081526040808320335f908152925290205460ff1615610e7657805481906001600160a01b0316803b15610e73578180916004604051809481936392a2ebf360e01b83525af18015610b1a57610b095750f35b50fd5b60405162461bcd60e51b815260206004820152602560248201527f4143434550545f47454e455349535f434552454d4f4e595f49535f41444d494e6044820152645f4f4e4c5960d81b6064820152608490fd5b5034610298576040366003190112610298576040610ee5611b85565b9160043581525f5160206130a15f395f51905f52602052209060018060a01b03165f52602052602060ff60405f2054166040519015158152f35b5034610298576020366003190112610298576107b3610f3c611b9b565b610f4461232e565b610947610878611da7565b50346102985780600319360112610298575f5160206130e15f395f51905f525460ff8160401c16159067ffffffffffffffff81168015908161102f575b6001149081611025575b15908161101c575b5061100d5767ffffffffffffffff1981166001175f5160206130e15f395f51905f525581610fe1575b50610fd0612bc4565b610fd8612bc4565b610cef3361247b565b68ffffffffffffffffff191668010000000000000001175f5160206130e15f395f51905f52555f610fc7565b63f92ee8a960e01b8352600483fd5b9050155f610f9e565b303b159150610f96565b839150610f8c565b503461029857806003193601126102985760206040515f5160206130415f395f51905f528152f35b503461029857606036600319011261029857611079611cc0565b5061032660405161108981611b03565b60043581526024356020820152604435604082015260405191829182919091604080606083019480518452602081015160208501520151910152565b5034610298578060031936011261029857602061039d60025460015490611cb3565b50346102985780600319360112610298576039546040516001600160a01b039091168152602090f35b503461029857602036600319011261029857602061039d600435611f70565b503461029857602036600319011261029857602061039d61114e611b9b565b6111566120d3565b6121e4565b503461029857806003193601126102985760206040515f5160206130c15f395f51905f528152f35b5034610298576020366003190112610298575f5160206130415f395f51905f5281525f5160206130a15f395f51905f5260209081526040808320335f908152925290205460ff16156111d85760043560025580f35b60405162461bcd60e51b815260206004820152603760248201527f5345545f4c4153545f41434345505445445f424c4f434b5f4845494748545f4960448201527f535f434f4d4d49544d454e545f41444d494e5f4f4e4c590000000000000000006064820152608490fd5b50346102985760603660031901126102985761125e36611b55565b5f5160206130415f395f51905f5282525f5160206130a15f395f51905f5260209081526040808420335f908152925290205460ff16156112cb5760095482526008602052604082208151835260205260026040808420928051845560208101516001850155015191015580f35b60405162461bcd60e51b815260206004820152603f60248201527f5345545f4c4153545f41434345505445445f434f4d4d49544d454e545f41545f60448201527f4845494748545f49535f434f4d4d49544d454e545f41444d494e5f4f4e4c59006064820152608490fd5b50346102985780600319360112610298577f00000000000000000000000000000000000000000000000000000000000000006001600160a01b0316300361138e5760206040515f5160206130815f395f51905f528152f35b63703e46dd60e11b8152600490fd5b5034610298576020366003190112610298576004356001600160a01b038116908190036108d8576113cc6122df565b6bffffffffffffffffffffffff60a01b603954161760395580f35b506040366003190112610298576113fc611b9b565b6024359067ffffffffffffffff8211610d645736602383011215610d64578160040135908361142a83611c73565b936114386040519586611b33565b83855260208501933660248284010111610d6457806024602093018637850101526001600160a01b037f0000000000000000000000000000000000000000000000000000000000000000163081149081156115e8575b506115d95761149b6122df565b6040516352d1902d60e01b81526001600160a01b0382169390602081600481885afa8691816115a1575b506114de57634c9c8ce360e01b86526004859052602486fd5b93845f5160206130815f395f51905f5287960361158f5750823b1561157d575f5160206130815f395f51905f5280546001600160a01b031916821790558491907fbc7cd75a20ee27fd9adebab32041f755214dbc6bffa90cc0225b39da2e5c2d3b8380a2805115611562576107b39382915190845af461155c612ec6565b91612fc2565b505050503461156e5780f35b63b398979f60e01b8152600490fd5b634c9c8ce360e01b8552600452602484fd5b632a87526960e21b8652600452602485fd5b9091506020813d6020116115d1575b816115bd60209383611b33565b810103126115cd5751905f6114c5565b8680fd5b3d91506115b0565b63703e46dd60e11b8452600484fd5b5f5160206130815f395f51905f52546001600160a01b0316141590505f61148e565b5034610298578060031936011261029857610326611626611f16565b604051918291602083526020830190611c37565b50346102985760203660031901126102985760043567ffffffffffffffff81116108d85761166c903690600401611bc9565b908080525f5160206130a15f395f51905f526020526040812060018060a01b0333165f526020526116a360ff60405f205416611e0c565b805b82518110156107b3576001906116d86001600160a01b036116c68387611e63565b51166116d3610878611d61565b6123d0565b50016116a5565b50346102985760203660031901126102985760406020916004358152600383522054604051908152f35b503461029857604036600319011261029857611723611b85565b336001600160a01b0382160361173f576107b390600435612649565b63334bd91960e11b8252600482fd5b5034610298576040366003190112610298576107b360043561176e611b85565b90611794610878825f525f5160206130a15f395f51905f52602052600160405f20015490565b6125b8565b503461059d57602036600319011261059d575f546040516321df0da760e01b81526001600160a01b0390911690602081600481855afa908115611836575f91611841575b50813b1561059d575f91606483926040519485938492634974c67960e01b845233600485015260018060a01b0316602484015260043560448401525af1801561183657611828575080f35b61183491505f90611b33565b005b6040513d5f823e3d90fd5b61185a915060203d602011610b9557610b878183611b33565b5f6117dd565b3461059d57602036600319011261059d57602061039d6004355f525f5160206130a15f395f51905f52602052600160405f20015490565b3461059d575f36600319011261059d576020600954604051908152f35b3461059d57606036600319011261059d576118cd611b85565b604435906001600160a01b038216820361059d5760209161039d91600435611cde565b3461059d575f36600319011261059d57602061039d61190d6120d3565b611f70565b3461059d57604036600319011261059d5761192b611b85565b611933611cc0565b506004355f52600460205260405f209060018060a01b03165f5260205261032660405f206002604051916106c683611b03565b3461059d57606036600319011261059d5761198036611b55565b60406119c281516119918382611b33565b602081527f666f7263654c6174657374436f6d6d69746d656e742063616c6c65642062793a6020820152339061227d565b5f5160206130415f395f51905f525f9081525f5160206130a15f395f51905f52602090815282822033835290528190205460ff1615611a545760095460018101809111611a4057806009555f526008602052805f2082515f526020526002815f20918351938484556020810151600185015501519101556002555f80f35b634e487b7160e01b5f52601160045260245ffd5b5162461bcd60e51b815260206004820152603060248201527f464f5243455f4c41544553545f434f4d4d49544d454e545f49535f434f4d4d4960448201526f544d454e545f41444d494e5f4f4e4c5960801b6064820152608490fd5b3461059d57602036600319011261059d576004359063ffffffff60e01b821680920361059d57602091637965db0b60e01b8114908115611af2575b5015158152f35b6301ffc9a760e01b14905083611aeb565b6060810190811067ffffffffffffffff821117611b1f57604052565b634e487b7160e01b5f52604160045260245ffd5b90601f8019910116810190811067ffffffffffffffff821117611b1f57604052565b606090600319011261059d5760405190611b6e82611b03565b600435825260243560208301526044356040830152565b602435906001600160a01b038216820361059d57565b600435906001600160a01b038216820361059d57565b67ffffffffffffffff8111611b1f5760051b60200190565b9080601f8301121561059d57813590611be182611bb1565b92611bef6040519485611b33565b82845260208085019360051b82010191821161059d57602001915b818310611c175750505090565b82356001600160a01b038116810361059d57815260209283019201611c0a565b90602080835192838152019201905f5b818110611c545750505090565b82516001600160a01b0316845260209384019390920191600101611c47565b67ffffffffffffffff8111611b1f57601f01601f191660200190565b805180835260209291819084018484015e5f828201840152601f01601f1916010190565b91908201809211611a4057565b60405190611ccd82611b03565b5f6040838281528260208201520152565b5f546040516311b2104b60e31b815230600482015260248101929092526001600160a01b03928316604483015292821660648201529160209183916084918391165afa908115611836575f91611d32575090565b90506020813d602011611d59575b81611d4d60209383611b33565b8101031261059d575190565b3d9150611d40565b5f5160206130415f395f51905f525f525f5160206130a15f395f51905f526020527fc0b8663a995ad32ccf81c6369bcca5ff92004c48ed45f14e9c13067079d62c4d5490565b5f5160206130c15f395f51905f525f525f5160206130a15f395f51905f526020527f84e2664aed99279e0ebbfecf0aa40c11258c0b979003aeac4259a67b9634e80e5490565b9081602091031261059d57516001600160a01b038116810361059d5790565b15611e1357565b60405162461bcd60e51b815260206004820152602260248201527f4144445f434f4d4d49544d454e545f41444d494e5f49535f41444d494e5f4f4e6044820152614c5960f01b6064820152608490fd5b8051821015611e775760209160051b010190565b634e487b7160e01b5f52603260045260245ffd5b60208183031261059d5780519067ffffffffffffffff821161059d57019080601f8301121561059d57815190611ec082611bb1565b92611ece6040519485611b33565b82845260208085019360051b82010191821161059d57602001915b818310611ef65750505090565b82516001600160a01b038116810361059d57815260209283019201611ee9565b5f8054604051632924b73b60e01b81523060048201529190829060249082906001600160a01b03165afa908115611836575f91611f51575090565b611f6d91503d805f833e611f658183611b33565b810190611e8b565b90565b5f8054604051636ae501ef60e11b8152306004820152929190839060249082906001600160a01b03165afa918215611836575f92611ff0575b505f91825b8151841015611fe957600190611fe190611fdb6001600160a01b03611fd38887611e63565b51168661210f565b90611cb3565b930192611fae565b9250505090565b6120059192503d805f833e611f658183611b33565b905f611fa9565b6120d190604061205281516120218382611b33565b601f81527f6772616e74436f6d6d69746d656e7441646d696e2063616c6c65642062793a006020820152339061227d565b5f8080525f5160206130a15f395f51905f5260209081528282203383529052819020546120819060ff16611e0c565b61208c610878611d61565b612095826123d0565b506120a281519182611b33565b602081527f436f6d6d69746d656e7441646d696e20726f6c65206772616e74656420746f3a602082015261227d565b565b5f54604051634d3223a560e01b815230600482015290602090829060249082906001600160a01b03165afa908115611836575f91611d32575090565b5f54604051635cdf315560e01b815230600482015260248101929092526001600160a01b039283166044830152909160209183916064918391165afa908115611836575f91611d32575090565b1561216357565b60405162461bcd60e51b815260206004820152601d60248201527f554e415554484f52495a45445f424c4f434b5f434f4d4d49544d454e540000006044820152606490fd5b5f54604051631868e3ff60e31b815230600482015290602090829060249082906001600160a01b03165afa908115611836575f91611d32575090565b5f8054604051636ae501ef60e11b815230600482015293929190849060249082906001600160a01b03165afa928315611836575f93612261575b505f92835b81518510156122595760019061225190611fdb866001600160a01b036122498a88611e63565b511687611cde565b940193612223565b935050505090565b6122769193503d805f833e611f658183611b33565b915f61221e565b5f919082916122cc60405180926122ad602083019563319af33360e01b8752604060248501526064840190611c8f565b6001600160a01b0391909116604483015203601f198101835282611b33565b51906a636f6e736f6c652e6c6f675afa50565b335f9081527fb7db2dd08fcb62d0c9e08c51941cae53c267786a0b75803fb7960902fc8ef97d602052604090205460ff161561231757565b63e2517d3f60e01b5f52336004525f60245260445ffd5b335f9081527fc0b8663a995ad32ccf81c6369bcca5ff92004c48ed45f14e9c13067079d62c4c602052604090205460ff161561236657565b63e2517d3f60e01b5f52336004525f5160206130415f395f51905f5260245260445ffd5b5f8181525f5160206130a15f395f51905f526020908152604080832033845290915290205460ff16156123ba5750565b63e2517d3f60e01b5f523360045260245260445ffd5b6001600160a01b0381165f9081527fc0b8663a995ad32ccf81c6369bcca5ff92004c48ed45f14e9c13067079d62c4c602052604090205460ff16612476576001600160a01b03165f8181527fc0b8663a995ad32ccf81c6369bcca5ff92004c48ed45f14e9c13067079d62c4c60205260408120805460ff191660011790553391905f5160206130415f395f51905f52905f5160206130215f395f51905f529080a4600190565b505f90565b6001600160a01b0381165f9081527fb7db2dd08fcb62d0c9e08c51941cae53c267786a0b75803fb7960902fc8ef97d602052604090205460ff16612476576001600160a01b03165f8181527fb7db2dd08fcb62d0c9e08c51941cae53c267786a0b75803fb7960902fc8ef97d60205260408120805460ff191660011790553391905f5160206130215f395f51905f528180a4600190565b6001600160a01b0381165f9081527f84e2664aed99279e0ebbfecf0aa40c11258c0b979003aeac4259a67b9634e80d602052604090205460ff16612476576001600160a01b03165f8181527f84e2664aed99279e0ebbfecf0aa40c11258c0b979003aeac4259a67b9634e80d60205260408120805460ff191660011790553391905f5160206130c15f395f51905f52905f5160206130215f395f51905f529080a4600190565b5f8181525f5160206130a15f395f51905f52602090815260408083206001600160a01b038616845290915290205460ff16612643575f8181525f5160206130a15f395f51905f52602090815260408083206001600160a01b0395909516808452949091528120805460ff19166001179055339291905f5160206130215f395f51905f529080a4600190565b50505f90565b5f8181525f5160206130a15f395f51905f52602090815260408083206001600160a01b038616845290915290205460ff1615612643575f8181525f5160206130a15f395f51905f52602090815260408083206001600160a01b0395909516808452949091528120805460ff19169055339291907ff6391f5c32d9c69d2a47ea670b442974b53935d1edc7fd64eb21e047a839171b9080a4600190565b905f5160206130615f395f51905f52608060405160208152602160208201527f5374617274207375626d6974436f6d6d69746d656e74466f72417474657374656040820152603960f91b6060820152a18051600254907fa3a85c11b29f85b7f0762307ba3e14c778fe3890e50a89c535ec22c6d3c2b29e60e0600154926040519060a08252600660a08301526556616c75657360d01b60c083015260018060a01b03881660208301526040820152846060820152836080820152a182515f52600460205260405f2060018060a01b0385165f5260205260405f2054612bb5575f5160206130615f395f51905f526060604051602081526020808201527f4265666f7265206578697374696e6720636f6d6d69746d656e7420636865636b6040820152a182515f52600460205260405f2060018060a01b0385165f526020527f2c78221d853bf45521bf53ad2802eb4470185a3cad34373f42e4639a8fdeb197608060405f20546040519060408252601a60408301527f4578697374696e6720636f6d6d69746d656e742068656967687400000000000060608301526020820152a182515f52600460205260405f2060018060a01b0385165f5260205260405f2054612b3b57612936915f5160206130615f395f51905f52606060405160208152601f60208201527f4166746572206578697374696e6720636f6d6d69746d656e7420636865636b006040820152a15f5160206130615f395f51905f5260606040516020815260166020820152754265666f726520746f6c6572616e636520636865636b60501b6040820152a1611cb3565b815111612adb5760407fb55857cc8fd641eda5651957fe84b285cee3bdf246c783bf24c0426d040eea01915f5160206130615f395f51905f5260608351602081526015602082015274416674657220746f6c6572616e636520636865636b60581b85820152a15f5160206130615f395f51905f526060835160208152601760208201527f4265666f72652065706f63682061737369676e6d656e7400000000000000000085820152a180515f526003602052815f205415612ac1575b5f5160206130615f395f51905f526060835160208152601660208201527510599d195c88195c1bd8da08185cdcda59db9b595b9d60521b85820152a180515f526004602052815f2060018060a01b0385165f52602052815f2081518155612a7160208301958651600184015584840192600284519101556111566120d3565b91515f526005602052825f2085515f52602052825f20612a92838254611cb3565b90555193519082519182526020820152a25b60025460018101809111611a4057612abb90612bef565b612aa457565b612ac96121a8565b81515f526003602052825f20556129f2565b5f5160206130615f395f51905f52608060405160208152602360208201527f526576657274696e673a20486569676874206578636565647320746f6c6572616040820152626e636560e81b6060820152a1630ae09ad960e41b5f5260045ffd5b5f5160206130615f395f51905f52608060405160208152603760208201527f526576657274696e673a204174746573746572416c7265616479436f6d6d697460408201527f746564202d20636f6d6d69746d656e74206578697374730000000000000000006060820152a1630ae09ad960e41b5f5260045ffd5b630ae09ad960e41b5f5260045ffd5b60ff5f5160206130e15f395f51905f525460401c1615612be057565b631afcd79f60e31b5f5260045ffd5b805f52600360205260405f20545b80612c066120d3565b1015612c1957612c14612ef5565b612bfd565b612c2290611f70565b6001600160ff1b0381168103611a405760039060011b04612c41611f16565b915f5b8351811015612ebe576001600160a01b03612c5f8286611e63565b5116825f52600460205260405f209060018060a01b03165f5260205260405f2060405190612c8c82611b03565b805491828152600260018301549260208301938452015492604082019384525f52600560205260405f2082515f526020528560405f205411612cd357505050600101612c44565b93509350935050612ce26120d3565b9281515f5260036020528360405f205403612eaf576009545f52600860205260405f2082515f5260205260027f5b0d1f14085ff88796df21c2944d34c115838925a7bee30850fcacaaf902a3796040805f208551808255875191826001820155865195869101558060025582519182526020820152a26039546001600160a01b0316612d8b575b505050612d746121a8565b11612d7e57600190565b612d86612ef5565b600190565b5f8054604051632924b73b60e01b81523060048201529496949593929190869060249082906001600160a01b03165afa948515611836575f95612e93575b505f5b8551811015612e87576001600160a01b03612de78288611e63565b511683515f52600460205260405f2060018060a01b0382165f52602052600160405f200154908851809214612e20575050600101612dcc565b9091505f9597508594965060018060a01b036039541693519251604051926020840194639ed8dc0d60e01b8652602485015260448401526064830152608482015260848152612e7060a482611b33565b51915af450612e7d612ec6565b505b5f8080612d69565b50505091509150612e7f565b612ea89195503d805f833e611f658183611b33565b935f612dc9565b6337592db360e01b5f5260045ffd5b505050505f90565b3d15612ef0573d90612ed782611c73565b91612ee56040519384611b33565b82523d5f602084013e565b606090565b612efd6120d3565b5f80549091906001600160a01b0316803b1561059d575f8091600460405180948193632a21edc760e21b83525af1801561183657612fad575b506039546001600160a01b03169081612f4e57505050565b60018101808211612f995790839291604051906020820192630e8013b760e31b84526024830152604482015260448152612f89606482611b33565b51915af450612f96612ec6565b50565b634e487b7160e01b84526011600452602484fd5b612fba9192505f90611b33565b5f905f612f36565b90612fe65750805115612fd757805190602001fd5b630a12f52160e11b5f5260045ffd5b81511580613017575b612ff7575090565b639996b31560e01b5f9081526001600160a01b0391909116600452602490fd5b50803b15612fef56fe2f8788117e7eff1d82e926ec794901d17c78024a50270940304540a733656f0ddb2bf73e90d393604e56f0a2a54fed3fbd75332bf39c5ea0704b3b6973a3463c263fc754e823359f62ae5d0645f1c62818680f1f3ab746ae4aebc5230bf59325360894a13ba1a3210667c828492db98dca3e2076cc3735a920a3ca505d382bbc02dd7bc7dec4dceedda775e58dd541e08a116c6c53815c0bd028192f7b626800981fe5f60e354ed88ff0544e367c13a4d3342da7c82eb6627f804b747e046e18f0c57e16840df040f15088dc2f81fe391c3923bec73e23a9662efc9c229c6a00a2646970667358221220a97d657fc04f3e4bebf8bf599ea266cd4bf4e43d5435ac96d19493fa7ec2275364736f6c634300081c0033","linkReferences":{}},"methodIdentifiers":{"COMMITMENT_ADMIN()":"80e460f0","DEFAULT_ADMIN_ROLE()":"a217fddf","TRUSTED_ATTESTER()":"5db916ab","UPGRADE_INTERFACE_VERSION()":"ad3cb1cc","acceptGenesisCeremony()":"92a2ebf3","acceptedCommitments(uint256)":"f5317576","acceptedCommitmentsVersion()":"232177ac","batchGrantCommitmentAdmin(address[])":"4b47d955","batchGrantTrustedAttester(address[])":"cf6772ad","commitmentHeightEpochAssignments(uint256)":"3962f0ef","commitmentStakes(uint256,bytes32)":"fc2788ad","commitments(uint256,address)":"e90d4c06","computeAllCurrentEpochStake(address)":"60fea5dd","computeAllStakeAtEpoch(uint256,address)":"f34d002a","computeAllTotalStakeForCurrentEpoch()":"1dfcce8c","computeAllTotalStakeForEpoch(uint256)":"6542384f","createCommitment(uint256,bytes32,bytes32)":"7a9b7865","forceLatestCommitment((uint256,bytes32,bytes32))":"08c7050f","getAcceptedCommitmentAtBlockHeight(uint256)":"e1ffa44c","getAttesters()":"4ed7e435","getCurrentEpoch()":"b97dd9e2","getCurrentEpochStake(address,address)":"bc90afbb","getEpochByBlockTime()":"ee377d90","getMaxTolerableBlockHeight()":"74e8e564","getNextEpoch()":"efe97d05","getRoleAdmin(bytes32)":"248a9ca3","getStakeAtEpoch(uint256,address,address)":"1faea1ed","getTotalStakeForCurrentEpoch(address)":"b274a935","getTotalStakeForEpoch(uint256,address)":"c6e1b9db","getValidatorCommitmentAtBlockHeight(uint256,address)":"0a0b81cc","grantCommitmentAdmin(address)":"949d7c2a","grantRole(bytes32,address)":"2f2ff15d","grantTrustedAttester(address)":"81df1746","hasRole(bytes32,address)":"91d14854","initialize()":"8129fc1c","initialize(address,uint256,uint256,uint256,address[])":"a3df415f","lastAcceptedCommitmentHeight()":"fc589b45","leadingCommitmentTolerance()":"d4528577","openAttestationEnabled()":"ef9ae15c","proxiableUUID()":"52d1902d","renounceRole(bytes32,address)":"36568abe","revokeRole(bytes32,address)":"d547741f","rewardContract()":"6ea69d62","setAcceptedCommitmentAtBlockHeight((uint256,bytes32,bytes32))":"53cd9e3c","setLastAcceptedBlockHeight(uint256)":"5a912c83","setOpenAttestationEnabled(bool)":"d2526fef","setRewardContract(address)":"51508f0a","stake(uint256)":"a694fc3a","stakingContract()":"ee99205c","submitBatchCommitment((uint256,bytes32,bytes32)[])":"da63d355","submitCommitment((uint256,bytes32,bytes32))":"f1f36595","supportsInterface(bytes4)":"01ffc9a7","unstake(uint256)":"2e17de78","upgradeToAndCall(address,bytes)":"4f1ef286","versionedAcceptedCommitments(uint256,uint256)":"fabbd8ce"},"storageLayout":{"storage":[{"astId":45442,"contract":"src/settlement/MCR.sol:MCR","label":"stakingContract","offset":0,"slot":"0","type":"t_contract(IMovementStaking)48409"},{"astId":45445,"contract":"src/settlement/MCR.sol:MCR","label":"leadingCommitmentTolerance","offset":0,"slot":"1","type":"t_uint256"},{"astId":45448,"contract":"src/settlement/MCR.sol:MCR","label":"lastAcceptedCommitmentHeight","offset":0,"slot":"2","type":"t_uint256"},{"astId":45461,"contract":"src/settlement/MCR.sol:MCR","label":"commitmentHeightEpochAssignments","offset":0,"slot":"3","type":"t_mapping(t_uint256,t_uint256)"},{"astId":45469,"contract":"src/settlement/MCR.sol:MCR","label":"commitments","offset":0,"slot":"4","type":"t_mapping(t_uint256,t_mapping(t_address,t_struct(Commitment)45456_storage))"},{"astId":45476,"contract":"src/settlement/MCR.sol:MCR","label":"commitmentStakes","offset":0,"slot":"5","type":"t_mapping(t_uint256,t_mapping(t_bytes32,t_uint256))"},{"astId":45482,"contract":"src/settlement/MCR.sol:MCR","label":"acceptedCommitments","offset":0,"slot":"6","type":"t_mapping(t_uint256,t_struct(Commitment)45456_storage)"},{"astId":45485,"contract":"src/settlement/MCR.sol:MCR","label":"openAttestationEnabled","offset":0,"slot":"7","type":"t_bool"},{"astId":45493,"contract":"src/settlement/MCR.sol:MCR","label":"versionedAcceptedCommitments","offset":0,"slot":"8","type":"t_mapping(t_uint256,t_mapping(t_uint256,t_struct(Commitment)45456_storage))"},{"astId":45496,"contract":"src/settlement/MCR.sol:MCR","label":"acceptedCommitmentsVersion","offset":0,"slot":"9","type":"t_uint256"},{"astId":45501,"contract":"src/settlement/MCR.sol:MCR","label":"__gap","offset":0,"slot":"10","type":"t_array(t_uint256)47_storage"},{"astId":44074,"contract":"src/settlement/MCR.sol:MCR","label":"rewardContract","offset":0,"slot":"57","type":"t_contract(IMcrReward)46495"}],"types":{"t_address":{"encoding":"inplace","label":"address","numberOfBytes":"20"},"t_array(t_uint256)47_storage":{"encoding":"inplace","label":"uint256[47]","numberOfBytes":"1504","base":"t_uint256"},"t_bool":{"encoding":"inplace","label":"bool","numberOfBytes":"1"},"t_bytes32":{"encoding":"inplace","label":"bytes32","numberOfBytes":"32"},"t_contract(IMcrReward)46495":{"encoding":"inplace","label":"contract IMcrReward","numberOfBytes":"20"},"t_contract(IMovementStaking)48409":{"encoding":"inplace","label":"contract IMovementStaking","numberOfBytes":"20"},"t_mapping(t_address,t_struct(Commitment)45456_storage)":{"encoding":"mapping","key":"t_address","label":"mapping(address => struct MCRStorage.Commitment)","numberOfBytes":"32","value":"t_struct(Commitment)45456_storage"},"t_mapping(t_bytes32,t_uint256)":{"encoding":"mapping","key":"t_bytes32","label":"mapping(bytes32 => uint256)","numberOfBytes":"32","value":"t_uint256"},"t_mapping(t_uint256,t_mapping(t_address,t_struct(Commitment)45456_storage))":{"encoding":"mapping","key":"t_uint256","label":"mapping(uint256 => mapping(address => struct MCRStorage.Commitment))","numberOfBytes":"32","value":"t_mapping(t_address,t_struct(Commitment)45456_storage)"},"t_mapping(t_uint256,t_mapping(t_bytes32,t_uint256))":{"encoding":"mapping","key":"t_uint256","label":"mapping(uint256 => mapping(bytes32 => uint256))","numberOfBytes":"32","value":"t_mapping(t_bytes32,t_uint256)"},"t_mapping(t_uint256,t_mapping(t_uint256,t_struct(Commitment)45456_storage))":{"encoding":"mapping","key":"t_uint256","label":"mapping(uint256 => mapping(uint256 => struct MCRStorage.Commitment))","numberOfBytes":"32","value":"t_mapping(t_uint256,t_struct(Commitment)45456_storage)"},"t_mapping(t_uint256,t_struct(Commitment)45456_storage)":{"encoding":"mapping","key":"t_uint256","label":"mapping(uint256 => struct MCRStorage.Commitment)","numberOfBytes":"32","value":"t_struct(Commitment)45456_storage"},"t_mapping(t_uint256,t_uint256)":{"encoding":"mapping","key":"t_uint256","label":"mapping(uint256 => uint256)","numberOfBytes":"32","value":"t_uint256"},"t_struct(Commitment)45456_storage":{"encoding":"inplace","label":"struct MCRStorage.Commitment","numberOfBytes":"96","members":[{"astId":45451,"contract":"src/settlement/MCR.sol:MCR","label":"height","offset":0,"slot":"0","type":"t_uint256"},{"astId":45453,"contract":"src/settlement/MCR.sol:MCR","label":"commitmentValue","offset":0,"slot":"1","type":"t_bytes32"},{"astId":45455,"contract":"src/settlement/MCR.sol:MCR","label":"blockId","offset":0,"slot":"2","type":"t_bytes32"}]},"t_uint256":{"encoding":"inplace","label":"uint256","numberOfBytes":"32"}}},"id":52}