{"abi":[{"type":"function","name":"COMMITMENT_ADMIN","inputs":[],"outputs":[{"name":"","type":"bytes32","internalType":"bytes32"}],"stateMutability":"view"},{"type":"function","name":"DEFAULT_ADMIN_ROLE","inputs":[],"outputs":[{"name":"","type":"bytes32","internalType":"bytes32"}],"stateMutability":"view"},{"type":"function","name":"TRUSTED_ATTESTER","inputs":[],"outputs":[{"name":"","type":"bytes32","internalType":"bytes32"}],"stateMutability":"view"},{"type":"function","name":"UPGRADE_INTERFACE_VERSION","inputs":[],"outputs":[{"name":"","type":"string","internalType":"string"}],"stateMutability":"view"},{"type":"function","name":"acceptGenesisCeremony","inputs":[],"outputs":[],"stateMutability":"nonpayable"},{"type":"function","name":"acceptedCommitments","inputs":[{"name":"commitmentHeight","type":"uint256","internalType":"uint256"}],"outputs":[{"name":"height","type":"uint256","internalType":"uint256"},{"name":"commitmentValue","type":"bytes32","internalType":"bytes32"},{"name":"commitmentId","type":"bytes32","internalType":"bytes32"}],"stateMutability":"view"},{"type":"function","name":"acceptedCommitmentsVersion","inputs":[],"outputs":[{"name":"","type":"uint256","internalType":"uint256"}],"stateMutability":"view"},{"type":"function","name":"batchGrantCommitmentAdmin","inputs":[{"name":"accounts","type":"address[]","internalType":"address[]"}],"outputs":[],"stateMutability":"nonpayable"},{"type":"function","name":"batchGrantTrustedAttester","inputs":[{"name":"attesters","type":"address[]","internalType":"address[]"}],"outputs":[],"stateMutability":"nonpayable"},{"type":"function","name":"commitmentHeightEpochAssignments","inputs":[{"name":"commitmentHeight","type":"uint256","internalType":"uint256"}],"outputs":[{"name":"epoch","type":"uint256","internalType":"uint256"}],"stateMutability":"view"},{"type":"function","name":"commitmentStakes","inputs":[{"name":"commitmentHeight","type":"uint256","internalType":"uint256"},{"name":"commitement","type":"bytes32","internalType":"bytes32"}],"outputs":[{"name":"stake","type":"uint256","internalType":"uint256"}],"stateMutability":"view"},{"type":"function","name":"commitments","inputs":[{"name":"commitmentHeight","type":"uint256","internalType":"uint256"},{"name":"attester","type":"address","internalType":"address"}],"outputs":[{"name":"height","type":"uint256","internalType":"uint256"},{"name":"commitmentValue","type":"bytes32","internalType":"bytes32"},{"name":"commitmentId","type":"bytes32","internalType":"bytes32"}],"stateMutability":"view"},{"type":"function","name":"computeAllCurrentEpochStake","inputs":[{"name":"attester","type":"address","internalType":"address"}],"outputs":[{"name":"","type":"uint256","internalType":"uint256"}],"stateMutability":"view"},{"type":"function","name":"computeAllStakeAtEpoch","inputs":[{"name":"epoch","type":"uint256","internalType":"uint256"},{"name":"attester","type":"address","internalType":"address"}],"outputs":[{"name":"","type":"uint256","internalType":"uint256"}],"stateMutability":"view"},{"type":"function","name":"computeAllTotalStakeForCurrentEpoch","inputs":[],"outputs":[{"name":"","type":"uint256","internalType":"uint256"}],"stateMutability":"view"},{"type":"function","name":"computeAllTotalStakeForEpoch","inputs":[{"name":"epoch","type":"uint256","internalType":"uint256"}],"outputs":[{"name":"","type":"uint256","internalType":"uint256"}],"stateMutability":"view"},{"type":"function","name":"createCommitment","inputs":[{"name":"height","type":"uint256","internalType":"uint256"},{"name":"commitmentValue","type":"bytes32","internalType":"bytes32"},{"name":"commitmentId","type":"bytes32","internalType":"bytes32"}],"outputs":[{"name":"","type":"tuple","internalType":"struct MCRStorage.Commitment","components":[{"name":"height","type":"uint256","internalType":"uint256"},{"name":"commitmentValue","type":"bytes32","internalType":"bytes32"},{"name":"commitmentId","type":"bytes32","internalType":"bytes32"}]}],"stateMutability":"pure"},{"type":"function","name":"forceLatestCommitment","inputs":[{"name":"commitment","type":"tuple","internalType":"struct MCRStorage.Commitment","components":[{"name":"height","type":"uint256","internalType":"uint256"},{"name":"commitmentValue","type":"bytes32","internalType":"bytes32"},{"name":"commitmentId","type":"bytes32","internalType":"bytes32"}]}],"outputs":[],"stateMutability":"nonpayable"},{"type":"function","name":"getAcceptedCommitmentAtCommitmentHeight","inputs":[{"name":"height","type":"uint256","internalType":"uint256"}],"outputs":[{"name":"","type":"tuple","internalType":"struct MCRStorage.Commitment","components":[{"name":"height","type":"uint256","internalType":"uint256"},{"name":"commitmentValue","type":"bytes32","internalType":"bytes32"},{"name":"commitmentId","type":"bytes32","internalType":"bytes32"}]}],"stateMutability":"view"},{"type":"function","name":"getAttesters","inputs":[],"outputs":[{"name":"","type":"address[]","internalType":"address[]"}],"stateMutability":"view"},{"type":"function","name":"getCurrentEpoch","inputs":[],"outputs":[{"name":"","type":"uint256","internalType":"uint256"}],"stateMutability":"view"},{"type":"function","name":"getCurrentEpochStake","inputs":[{"name":"custodian","type":"address","internalType":"address"},{"name":"attester","type":"address","internalType":"address"}],"outputs":[{"name":"","type":"uint256","internalType":"uint256"}],"stateMutability":"view"},{"type":"function","name":"getEpochByBlockTime","inputs":[],"outputs":[{"name":"","type":"uint256","internalType":"uint256"}],"stateMutability":"view"},{"type":"function","name":"getMaxTolerableCommitmentHeight","inputs":[],"outputs":[{"name":"","type":"uint256","internalType":"uint256"}],"stateMutability":"view"},{"type":"function","name":"getNextEpoch","inputs":[],"outputs":[{"name":"","type":"uint256","internalType":"uint256"}],"stateMutability":"view"},{"type":"function","name":"getRoleAdmin","inputs":[{"name":"role","type":"bytes32","internalType":"bytes32"}],"outputs":[{"name":"","type":"bytes32","internalType":"bytes32"}],"stateMutability":"view"},{"type":"function","name":"getStakeAtEpoch","inputs":[{"name":"epoch","type":"uint256","internalType":"uint256"},{"name":"custodian","type":"address","internalType":"address"},{"name":"attester","type":"address","internalType":"address"}],"outputs":[{"name":"","type":"uint256","internalType":"uint256"}],"stateMutability":"view"},{"type":"function","name":"getTotalStakeForCurrentEpoch","inputs":[{"name":"custodian","type":"address","internalType":"address"}],"outputs":[{"name":"","type":"uint256","internalType":"uint256"}],"stateMutability":"view"},{"type":"function","name":"getTotalStakeForEpoch","inputs":[{"name":"epoch","type":"uint256","internalType":"uint256"},{"name":"custodian","type":"address","internalType":"address"}],"outputs":[{"name":"","type":"uint256","internalType":"uint256"}],"stateMutability":"view"},{"type":"function","name":"getValidatorCommitmentAtHeight","inputs":[{"name":"height","type":"uint256","internalType":"uint256"},{"name":"attester","type":"address","internalType":"address"}],"outputs":[{"name":"","type":"tuple","internalType":"struct MCRStorage.Commitment","components":[{"name":"height","type":"uint256","internalType":"uint256"},{"name":"commitmentValue","type":"bytes32","internalType":"bytes32"},{"name":"commitmentId","type":"bytes32","internalType":"bytes32"}]}],"stateMutability":"view"},{"type":"function","name":"grantCommitmentAdmin","inputs":[{"name":"account","type":"address","internalType":"address"}],"outputs":[],"stateMutability":"nonpayable"},{"type":"function","name":"grantRole","inputs":[{"name":"role","type":"bytes32","internalType":"bytes32"},{"name":"account","type":"address","internalType":"address"}],"outputs":[],"stateMutability":"nonpayable"},{"type":"function","name":"grantTrustedAttester","inputs":[{"name":"attester","type":"address","internalType":"address"}],"outputs":[],"stateMutability":"nonpayable"},{"type":"function","name":"hasRole","inputs":[{"name":"role","type":"bytes32","internalType":"bytes32"},{"name":"account","type":"address","internalType":"address"}],"outputs":[{"name":"","type":"bool","internalType":"bool"}],"stateMutability":"view"},{"type":"function","name":"initialize","inputs":[],"outputs":[],"stateMutability":"nonpayable"},{"type":"function","name":"initialize","inputs":[{"name":"_stakingContract","type":"address","internalType":"contract IMovementStaking"},{"name":"_lastAcceptedCommitmentHeight","type":"uint256","internalType":"uint256"},{"name":"_leadingCommitmentTolerance","type":"uint256","internalType":"uint256"},{"name":"_epochDuration","type":"uint256","internalType":"uint256"},{"name":"_custodians","type":"address[]","internalType":"address[]"}],"outputs":[],"stateMutability":"nonpayable"},{"type":"function","name":"lastAcceptedCommitmentHeight","inputs":[],"outputs":[{"name":"","type":"uint256","internalType":"uint256"}],"stateMutability":"view"},{"type":"function","name":"leadingCommitmentTolerance","inputs":[],"outputs":[{"name":"","type":"uint256","internalType":"uint256"}],"stateMutability":"view"},{"type":"function","name":"openAttestationEnabled","inputs":[],"outputs":[{"name":"","type":"bool","internalType":"bool"}],"stateMutability":"view"},{"type":"function","name":"proxiableUUID","inputs":[],"outputs":[{"name":"","type":"bytes32","internalType":"bytes32"}],"stateMutability":"view"},{"type":"function","name":"renounceRole","inputs":[{"name":"role","type":"bytes32","internalType":"bytes32"},{"name":"callerConfirmation","type":"address","internalType":"address"}],"outputs":[],"stateMutability":"nonpayable"},{"type":"function","name":"revokeRole","inputs":[{"name":"role","type":"bytes32","internalType":"bytes32"},{"name":"account","type":"address","internalType":"address"}],"outputs":[],"stateMutability":"nonpayable"},{"type":"function","name":"rewardContract","inputs":[],"outputs":[{"name":"","type":"address","internalType":"contract IMcrReward"}],"stateMutability":"view"},{"type":"function","name":"setAcceptedCommitmentAtHeight","inputs":[{"name":"commitment","type":"tuple","internalType":"struct MCRStorage.Commitment","components":[{"name":"height","type":"uint256","internalType":"uint256"},{"name":"commitmentValue","type":"bytes32","internalType":"bytes32"},{"name":"commitmentId","type":"bytes32","internalType":"bytes32"}]}],"outputs":[],"stateMutability":"nonpayable"},{"type":"function","name":"setLastAcceptedCommitmentHeight","inputs":[{"name":"height","type":"uint256","internalType":"uint256"}],"outputs":[],"stateMutability":"nonpayable"},{"type":"function","name":"setOpenAttestationEnabled","inputs":[{"name":"enabled","type":"bool","internalType":"bool"}],"outputs":[],"stateMutability":"nonpayable"},{"type":"function","name":"setRewardContract","inputs":[{"name":"_rewardContract","type":"address","internalType":"contract IMcrReward"}],"outputs":[],"stateMutability":"nonpayable"},{"type":"function","name":"stake","inputs":[{"name":"amount","type":"uint256","internalType":"uint256"}],"outputs":[],"stateMutability":"nonpayable"},{"type":"function","name":"stakingContract","inputs":[],"outputs":[{"name":"","type":"address","internalType":"contract IMovementStaking"}],"stateMutability":"view"},{"type":"function","name":"submitBatchCommitment","inputs":[{"name":"commitments","type":"tuple[]","internalType":"struct MCRStorage.Commitment[]","components":[{"name":"height","type":"uint256","internalType":"uint256"},{"name":"commitmentValue","type":"bytes32","internalType":"bytes32"},{"name":"commitmentId","type":"bytes32","internalType":"bytes32"}]}],"outputs":[],"stateMutability":"nonpayable"},{"type":"function","name":"submitCommitment","inputs":[{"name":"commitment","type":"tuple","internalType":"struct MCRStorage.Commitment","components":[{"name":"height","type":"uint256","internalType":"uint256"},{"name":"commitmentValue","type":"bytes32","internalType":"bytes32"},{"name":"commitmentId","type":"bytes32","internalType":"bytes32"}]}],"outputs":[],"stateMutability":"nonpayable"},{"type":"function","name":"supportsInterface","inputs":[{"name":"interfaceId","type":"bytes4","internalType":"bytes4"}],"outputs":[{"name":"","type":"bool","internalType":"bool"}],"stateMutability":"view"},{"type":"function","name":"unstake","inputs":[{"name":"amount","type":"uint256","internalType":"uint256"}],"outputs":[],"stateMutability":"nonpayable"},{"type":"function","name":"upgradeToAndCall","inputs":[{"name":"newImplementation","type":"address","internalType":"address"},{"name":"data","type":"bytes","internalType":"bytes"}],"outputs":[],"stateMutability":"payable"},{"type":"function","name":"versionedAcceptedCommitments","inputs":[{"name":"","type":"uint256","internalType":"uint256"},{"name":"commitmentHeight","type":"uint256","internalType":"uint256"}],"outputs":[{"name":"height","type":"uint256","internalType":"uint256"},{"name":"commitmentValue","type":"bytes32","internalType":"bytes32"},{"name":"commitmentId","type":"bytes32","internalType":"bytes32"}],"stateMutability":"view"},{"type":"event","name":"CommitmentAccepted","inputs":[{"name":"blockHash","type":"bytes32","indexed":true,"internalType":"bytes32"},{"name":"stateCommitment","type":"bytes32","indexed":false,"internalType":"bytes32"},{"name":"height","type":"uint256","indexed":false,"internalType":"uint256"}],"anonymous":false},{"type":"event","name":"CommitmentSubmitted","inputs":[{"name":"blockHash","type":"bytes32","indexed":true,"internalType":"bytes32"},{"name":"stateCommitment","type":"bytes32","indexed":false,"internalType":"bytes32"},{"name":"attesterStake","type":"uint256","indexed":false,"internalType":"uint256"}],"anonymous":false},{"type":"event","name":"DebugCheckpoint","inputs":[{"name":"message","type":"string","indexed":false,"internalType":"string"}],"anonymous":false},{"type":"event","name":"DebugSubmitCommitment","inputs":[{"name":"caller","type":"address","indexed":false,"internalType":"address"},{"name":"hasTrustedAttesterRole","type":"bool","indexed":false,"internalType":"bool"},{"name":"openAttestationEnabled","type":"bool","indexed":false,"internalType":"bool"}],"anonymous":false},{"type":"event","name":"DebugSubmitCommitmentForAttester","inputs":[{"name":"caller","type":"address","indexed":false,"internalType":"address"},{"name":"attester","type":"address","indexed":false,"internalType":"address"},{"name":"height","type":"uint256","indexed":false,"internalType":"uint256"},{"name":"existingHeight","type":"uint256","indexed":false,"internalType":"uint256"}],"anonymous":false},{"type":"event","name":"DebugUint","inputs":[{"name":"message","type":"string","indexed":false,"internalType":"string"},{"name":"value","type":"uint256","indexed":false,"internalType":"uint256"}],"anonymous":false},{"type":"event","name":"DebugValues","inputs":[{"name":"message","type":"string","indexed":false,"internalType":"string"},{"name":"attester","type":"address","indexed":false,"internalType":"address"},{"name":"height","type":"uint256","indexed":false,"internalType":"uint256"},{"name":"lastAccepted","type":"uint256","indexed":false,"internalType":"uint256"},{"name":"tolerance","type":"uint256","indexed":false,"internalType":"uint256"}],"anonymous":false},{"type":"event","name":"Initialized","inputs":[{"name":"version","type":"uint64","indexed":false,"internalType":"uint64"}],"anonymous":false},{"type":"event","name":"RoleAdminChanged","inputs":[{"name":"role","type":"bytes32","indexed":true,"internalType":"bytes32"},{"name":"previousAdminRole","type":"bytes32","indexed":true,"internalType":"bytes32"},{"name":"newAdminRole","type":"bytes32","indexed":true,"internalType":"bytes32"}],"anonymous":false},{"type":"event","name":"RoleGranted","inputs":[{"name":"role","type":"bytes32","indexed":true,"internalType":"bytes32"},{"name":"account","type":"address","indexed":true,"internalType":"address"},{"name":"sender","type":"address","indexed":true,"internalType":"address"}],"anonymous":false},{"type":"event","name":"RoleRevoked","inputs":[{"name":"role","type":"bytes32","indexed":true,"internalType":"bytes32"},{"name":"account","type":"address","indexed":true,"internalType":"address"},{"name":"sender","type":"address","indexed":true,"internalType":"address"}],"anonymous":false},{"type":"event","name":"Upgraded","inputs":[{"name":"implementation","type":"address","indexed":true,"internalType":"address"}],"anonymous":false},{"type":"error","name":"AccessControlBadConfirmation","inputs":[]},{"type":"error","name":"AccessControlUnauthorizedAccount","inputs":[{"name":"account","type":"address","internalType":"address"},{"name":"neededRole","type":"bytes32","internalType":"bytes32"}]},{"type":"error","name":"AddressEmptyCode","inputs":[{"name":"target","type":"address","internalType":"address"}]},{"type":"error","name":"AttesterAlreadyCommitted","inputs":[]},{"type":"error","name":"ERC1967InvalidImplementation","inputs":[{"name":"implementation","type":"address","internalType":"address"}]},{"type":"error","name":"ERC1967NonPayable","inputs":[]},{"type":"error","name":"FailedInnerCall","inputs":[]},{"type":"error","name":"InvalidInitialization","inputs":[]},{"type":"error","name":"NotInitializing","inputs":[]},{"type":"error","name":"UUPSUnauthorizedCallContext","inputs":[]},{"type":"error","name":"UUPSUnsupportedProxiableUUID","inputs":[{"name":"slot","type":"bytes32","internalType":"bytes32"}]},{"type":"error","name":"UnacceptableCommitment","inputs":[]}],"bytecode":{"object":"0x60a0806040523460295730608052613137908161002e823960805181818161134901526114630152f35b5f80fdfe6080806040526004361015610012575f80fd5b5f905f3560e01c90816301ffc9a714611ab15750806308c7050f146119675780631dfcce8c146119455780631faea1ed14611909578063232177ac146118ec578063248a9ca3146118b55780632e17de78146117ee5780632f2ff15d146117a357806336568abe1461175e5780633962f0ef146117345780633c496bdf146116df5780634b47d9551461163a5780634ed7e4351461160a5780634f1ef286146113e757806351508f0a1461139d57806352d1902d146113365780635db916ab1461130e57806360fea5dd146112e25780636542384f146112c35780636ea69d621461129a5780637a9b78651461123457806380e460f01461120c5780638129fc1c1461112457806381df1746146110f457806391d148541461109e57806392a2ebf314610fd1578063949d7c2a14610faf5780639cf932d714610ebc578063a217fddf14610ea0578063a3df415f14610c7e578063a5b3286e14610c5c578063a694fc3a14610aff578063ab4253e214610a7d578063ad3cb1cc14610a34578063b274a93514610a08578063b97dd9e2146109ed578063bc90afbb146109b8578063c6e1b9db14610991578063cf6772ad1461091a578063d2526fef146108de578063d4528577146108c0578063d547741f14610870578063da63d35514610740578063e90d4c06146106da578063ee377d90146106bf578063ee99205c14610698578063ef9ae15c14610675578063efe97d05146105dd578063f1f3659514610465578063f220e519146103a5578063f34d002a14610376578063f53175761461032a578063fabbd8ce146102cf578063fc2788ad1461029b5763fc589b451461027b575f80fd5b346102985780600319360112610298576020600254604051908152f35b80fd5b5034610298576040366003190112610298576040602091600435815260058352818120602435825283522054604051908152f35b50346102985760403660031901126102985760409060043581526008602052818120602435825260205220805461032660026001840154930154604051938493846040919493926060820195825260208201520152565b0390f35b5034610298576020366003190112610298576040906004358152600660205220805461032660026001840154930154604051938493846040919493926060820195825260208201520152565b503461029857604036600319011261029857602061039d610395611b86565b6004356121e5565b604051908152f35b5034610298576020366003190112610298575f5160206130425f395f51905f5281525f5160206130a25f395f51905f5260209081526040808320335f908152925290205460ff16156103fa5760043560025580f35b60405162461bcd60e51b815260206004820152603c60248201527f5345545f4c4153545f41434345505445445f434f4d4d49544d454e545f48454960448201527f4748545f49535f434f4d4d49544d454e545f41444d494e5f4f4e4c59000000006064820152608490fd5b50346102985760603660031901126102985761059f61048336611b56565b5f5160206130c25f395f51905f5283525f5160206130a25f395f51905f526020526040832060018060a01b0333165f5260205260ff60405f20541660ff6007541660405191338352151560208301527f36e3dca9f2c9c88d42f1870f922f4de1256c1627f454d2fdf86572de2c0cdab9606082159384156040820152a15f5160206130625f395f51905f52606060405160208152601a60208201527f4265666f726520617574686f72697a6174696f6e20636865636b0000000000006040820152a1906105a2575b6105549061215d565b5f5160206130625f395f51905f52606060405160208152601960208201527f416674657220617574686f72697a6174696f6e20636865636b000000000000006040820152a1336126e6565b80f35b505f5160206130c25f395f51905f5283525f5160206130a25f395f51905f5260209081526040808520335f908152925290205460ff1661054b565b5034610298578060031936011261029857805460405163010913cb60e71b81523060048201529190602090839060249082906001600160a01b03165afa9081156106695790610632575b602090604051908152f35b506020813d602011610661575b8161064c60209383611b34565b8101031261065d5760209051610627565b5f80fd5b3d915061063f565b604051903d90823e3d90fd5b5034610298578060031936011261029857602060ff600754166040519015158152f35b5034610298578060031936011261029857546040516001600160a01b039091168152602090f35b5034610298578060031936011261029857602061039d6121a9565b50346102985760403660031901126102985760406106f6611b86565b9160043581526004602052209060018060a01b03165f5260205260405f20805461032660026001840154930154604051938493846040919493926060820195825260208201520152565b5034610298576020366003190112610298576004359067ffffffffffffffff8211610298573660238301121561029857816004013561077e81611bb2565b9261078c6040519485611b34565b818452602460606020860193028201019036821161086c57602401915b8183106108305750505060ff6007541680156107f5575b6107c99061215d565b805b82518110156107f157806107eb6107e460019386611e64565b51336126e6565b016107cb565b5080f35b505f5160206130c25f395f51905f5281525f5160206130a25f395f51905f5260209081526040808320335f908152925290205460ff166107c0565b60608336031261086c57602060609160405161084b81611b04565b853581528286013583820152604086013560408201528152019201916107a9565b8380fd5b5034610298576040366003190112610298576107f1600435610890611b86565b906108bb6108b6825f525f5160206130a25f395f51905f52602052600160405f20015490565b61238b565b61264a565b50346102985780600319360112610298576020600154604051908152f35b5034610298576020366003190112610298576004358015158091036109165761090561232f565b60ff80196007541691161760075580f35b5080fd5b50346102985760203660031901126102985760043567ffffffffffffffff81116109165761094c903690600401611bca565b9061095561232f565b805b82518110156107f15760019061098a6001600160a01b036109788387611e64565b51166109856108b6611d8a565b612513565b5001610957565b503461029857604036600319011261029857602061039d6109b0611b86565b600435612110565b503461029857604036600319011261029857602061039d6109d7611b9c565b6109df611b86565b906109e86120d4565b611cc1565b5034610298578060031936011261029857602061039d6120d4565b503461029857602036600319011261029857602061039d610a27611b9c565b610a2f6120d4565b612110565b503461029857806003193601126102985750610326604051610a57604082611b34565b60058152640352e302e360dc1b6020820152604051918291602083526020830190611c90565b503461029857602036600319011261029857604061032691610a9d611def565b5060095481526008602052818120600435825260205220600260405191610ac383611b04565b80548352600181015460208401520154604082015260405191829182919091604080606083019480518452602081015160208501520151910152565b5034610298576020366003190112610298578060043560018060a01b038254166040516321df0da760e01b8152602081600481855afa908115610c22578491610c2d575b5060405163095ea7b360e01b81526004810192909252602482018390526001600160a01b03169060208160448187865af18015610c2257610bea575b5082546001600160a01b031691823b15610be557606484928360405195869485936316eaab3d60e11b8552336004860152602485015260448401525af18015610bda57610bc95750f35b81610bd391611b34565b6102985780f35b6040513d84823e3d90fd5b505050fd5b6020813d602011610c1a575b81610c0360209383611b34565b81010312610be557518015158114610b7f57505050fd5b3d9150610bf6565b6040513d86823e3d90fd5b610c4f915060203d602011610c55575b610c478183611b34565b810190611dd0565b5f610b43565b503d610c3d565b5034610298578060031936011261029857602061039d60025460015490611cb4565b50346102985760a0366003190112610298576004356001600160a01b038116908190036109165760843567ffffffffffffffff8111610e4657610cc5903690600401611bca565b5f5160206130e25f395f51905f52549160ff8360401c16159267ffffffffffffffff811680159081610e98575b6001149081610e8e575b159081610e85575b50610e765767ffffffffffffffff1981166001175f5160206130e25f395f51905f52558492919084610e4a575b50610d3a612bc5565b610d433361247c565b5082546001600160a01b03191681178355604435600155602435600255803b15610e4657610d9b8392918392604051948580948193631a6e609f60e31b83526064356004840152604060248401526044830190611c38565b03925af18015610bda57610e31575b5050610db53361200d565b610dbd61232f565b610dc86108b6611d8a565b610dd133612513565b50610dd95780f35b68ff0000000000000000195f5160206130e25f395f51905f5254165f5160206130e25f395f51905f52557fc7f505b2f371ae2175ee4913f4499e1f2633a7b5936321eed1cdaeb6115181d2602060405160018152a180f35b81610e3b91611b34565b61091657815f610daa565b8280fd5b68ffffffffffffffffff191668010000000000000001175f5160206130e25f395f51905f52555f610d31565b63f92ee8a960e01b8552600485fd5b9050155f610d04565b303b159150610cfc565b859150610cf2565b5034610298578060031936011261029857602090604051908152f35b503461029857606036600319011261029857610ed736611b56565b5f5160206130425f395f51905f5282525f5160206130a25f395f51905f5260209081526040808420335f908152925290205460ff1615610f445760095482526008602052604082208151835260205260026040808420928051845560208101516001850155015191015580f35b60405162461bcd60e51b815260206004820152603f60248201527f5345545f4c4153545f41434345505445445f434f4d4d49544d454e545f41545f60448201527f4845494748545f49535f434f4d4d49544d454e545f41444d494e5f4f4e4c59006064820152608490fd5b50346102985760203660031901126102985761059f610fcc611b9c565b61200d565b50346102985780600319360112610298578080525f5160206130a25f395f51905f5260209081526040808320335f908152925290205460ff161561104b57805481906001600160a01b0316803b15611048578180916004604051809481936392a2ebf360e01b83525af18015610bda57610bc95750f35b50fd5b60405162461bcd60e51b815260206004820152602560248201527f4143434550545f47454e455349535f434552454d4f4e595f49535f41444d494e6044820152645f4f4e4c5960d81b6064820152608490fd5b50346102985760403660031901126102985760406110ba611b86565b9160043581525f5160206130a25f395f51905f52602052209060018060a01b03165f52602052602060ff60405f2054166040519015158152f35b5034610298576020366003190112610298576107f1611111611b9c565b61111961232f565b6109856108b6611d8a565b50346102985780600319360112610298575f5160206130e25f395f51905f525460ff8160401c16159067ffffffffffffffff811680159081611204575b60011490816111fa575b1590816111f1575b506111e25767ffffffffffffffff1981166001175f5160206130e25f395f51905f5255816111b6575b506111a5612bc5565b6111ad612bc5565b610dd13361247c565b68ffffffffffffffffff191668010000000000000001175f5160206130e25f395f51905f52555f61119c565b63f92ee8a960e01b8352600483fd5b9050155f611173565b303b15915061116b565b839150611161565b503461029857806003193601126102985760206040515f5160206130425f395f51905f528152f35b50346102985760603660031901126102985761124e611def565b5061032660405161125e81611b04565b60043581526024356020820152604435604082015260405191829182919091604080606083019480518452602081015160208501520151910152565b50346102985780600319360112610298576039546040516001600160a01b039091168152602090f35b503461029857602036600319011261029857602061039d600435611f71565b503461029857602036600319011261029857602061039d611301611b9c565b6113096120d4565b6121e5565b503461029857806003193601126102985760206040515f5160206130c25f395f51905f528152f35b50346102985780600319360112610298577f00000000000000000000000000000000000000000000000000000000000000006001600160a01b0316300361138e5760206040515f5160206130825f395f51905f528152f35b63703e46dd60e11b8152600490fd5b5034610298576020366003190112610298576004356001600160a01b03811690819003610916576113cc6122e0565b6bffffffffffffffffffffffff60a01b603954161760395580f35b506040366003190112610298576113fc611b9c565b6024359067ffffffffffffffff8211610e465736602383011215610e46578160040135908361142a83611c74565b936114386040519586611b34565b83855260208501933660248284010111610e4657806024602093018637850101526001600160a01b037f0000000000000000000000000000000000000000000000000000000000000000163081149081156115e8575b506115d95761149b6122e0565b6040516352d1902d60e01b81526001600160a01b0382169390602081600481885afa8691816115a1575b506114de57634c9c8ce360e01b86526004859052602486fd5b93845f5160206130825f395f51905f5287960361158f5750823b1561157d575f5160206130825f395f51905f5280546001600160a01b031916821790558491907fbc7cd75a20ee27fd9adebab32041f755214dbc6bffa90cc0225b39da2e5c2d3b8380a2805115611562576107f19382915190845af461155c612ec7565b91612fc3565b505050503461156e5780f35b63b398979f60e01b8152600490fd5b634c9c8ce360e01b8552600452602484fd5b632a87526960e21b8652600452602485fd5b9091506020813d6020116115d1575b816115bd60209383611b34565b810103126115cd5751905f6114c5565b8680fd5b3d91506115b0565b63703e46dd60e11b8452600484fd5b5f5160206130825f395f51905f52546001600160a01b0316141590505f61148e565b5034610298578060031936011261029857610326611626611f17565b604051918291602083526020830190611c38565b50346102985760203660031901126102985760043567ffffffffffffffff81116109165761166c903690600401611bca565b908080525f5160206130a25f395f51905f526020526040812060018060a01b0333165f526020526116a360ff60405f205416611e0d565b805b82518110156107f1576001906116d86001600160a01b036116c68387611e64565b51166116d36108b6611d44565b6123d1565b50016116a5565b50346102985760403660031901126102985760406116fb611b86565b91611704611def565b5060043581526004602052209060018060a01b03165f5260205261032660405f20600260405191610ac383611b04565b50346102985760203660031901126102985760406020916004358152600383522054604051908152f35b503461029857604036600319011261029857611778611b86565b336001600160a01b03821603611794576107f19060043561264a565b63334bd91960e11b8252600482fd5b5034610298576040366003190112610298576107f16004356117c3611b86565b906117e96108b6825f525f5160206130a25f395f51905f52602052600160405f20015490565b6125b9565b503461065d57602036600319011261065d575f546040516321df0da760e01b81526001600160a01b0390911690602081600481855afa90811561188b575f91611896575b50813b1561065d575f91606483926040519485938492634974c67960e01b845233600485015260018060a01b0316602484015260043560448401525af1801561188b5761187d575080f35b61188991505f90611b34565b005b6040513d5f823e3d90fd5b6118af915060203d602011610c5557610c478183611b34565b5f611832565b3461065d57602036600319011261065d57602061039d6004355f525f5160206130a25f395f51905f52602052600160405f20015490565b3461065d575f36600319011261065d576020600954604051908152f35b3461065d57606036600319011261065d57611922611b86565b604435906001600160a01b038216820361065d5760209161039d91600435611cc1565b3461065d575f36600319011261065d57602061039d6119626120d4565b611f71565b3461065d57606036600319011261065d5761198136611b56565b60406119c381516119928382611b34565b602081527f666f7263654c6174657374436f6d6d69746d656e742063616c6c65642062793a6020820152339061227e565b5f5160206130425f395f51905f525f9081525f5160206130a25f395f51905f52602090815282822033835290528190205460ff1615611a555760095460018101809111611a4157806009555f526008602052805f2082515f526020526002815f20918351938484556020810151600185015501519101556002555f80f35b634e487b7160e01b5f52601160045260245ffd5b5162461bcd60e51b815260206004820152603060248201527f464f5243455f4c41544553545f434f4d4d49544d454e545f49535f434f4d4d4960448201526f544d454e545f41444d494e5f4f4e4c5960801b6064820152608490fd5b3461065d57602036600319011261065d576004359063ffffffff60e01b821680920361065d57602091637965db0b60e01b8114908115611af3575b5015158152f35b6301ffc9a760e01b14905083611aec565b6060810190811067ffffffffffffffff821117611b2057604052565b634e487b7160e01b5f52604160045260245ffd5b90601f8019910116810190811067ffffffffffffffff821117611b2057604052565b606090600319011261065d5760405190611b6f82611b04565b600435825260243560208301526044356040830152565b602435906001600160a01b038216820361065d57565b600435906001600160a01b038216820361065d57565b67ffffffffffffffff8111611b205760051b60200190565b9080601f8301121561065d57813590611be282611bb2565b92611bf06040519485611b34565b82845260208085019360051b82010191821161065d57602001915b818310611c185750505090565b82356001600160a01b038116810361065d57815260209283019201611c0b565b90602080835192838152019201905f5b818110611c555750505090565b82516001600160a01b0316845260209384019390920191600101611c48565b67ffffffffffffffff8111611b2057601f01601f191660200190565b805180835260209291819084018484015e5f828201840152601f01601f1916010190565b91908201809211611a4157565b5f546040516311b2104b60e31b815230600482015260248101929092526001600160a01b03928316604483015292821660648201529160209183916084918391165afa90811561188b575f91611d15575090565b90506020813d602011611d3c575b81611d3060209383611b34565b8101031261065d575190565b3d9150611d23565b5f5160206130425f395f51905f525f525f5160206130a25f395f51905f526020527fc0b8663a995ad32ccf81c6369bcca5ff92004c48ed45f14e9c13067079d62c4d5490565b5f5160206130c25f395f51905f525f525f5160206130a25f395f51905f526020527f84e2664aed99279e0ebbfecf0aa40c11258c0b979003aeac4259a67b9634e80e5490565b9081602091031261065d57516001600160a01b038116810361065d5790565b60405190611dfc82611b04565b5f6040838281528260208201520152565b15611e1457565b60405162461bcd60e51b815260206004820152602260248201527f4144445f434f4d4d49544d454e545f41444d494e5f49535f41444d494e5f4f4e6044820152614c5960f01b6064820152608490fd5b8051821015611e785760209160051b010190565b634e487b7160e01b5f52603260045260245ffd5b60208183031261065d5780519067ffffffffffffffff821161065d57019080601f8301121561065d57815190611ec182611bb2565b92611ecf6040519485611b34565b82845260208085019360051b82010191821161065d57602001915b818310611ef75750505090565b82516001600160a01b038116810361065d57815260209283019201611eea565b5f8054604051632924b73b60e01b81523060048201529190829060249082906001600160a01b03165afa90811561188b575f91611f52575090565b611f6e91503d805f833e611f668183611b34565b810190611e8c565b90565b5f8054604051636ae501ef60e11b8152306004820152929190839060249082906001600160a01b03165afa91821561188b575f92611ff1575b505f91825b8151841015611fea57600190611fe290611fdc6001600160a01b03611fd48887611e64565b511686612110565b90611cb4565b930192611faf565b9250505090565b6120069192503d805f833e611f668183611b34565b905f611faa565b6120d290604061205381516120228382611b34565b601f81527f6772616e74436f6d6d69746d656e7441646d696e2063616c6c65642062793a006020820152339061227e565b5f8080525f5160206130a25f395f51905f5260209081528282203383529052819020546120829060ff16611e0d565b61208d6108b6611d44565b612096826123d1565b506120a381519182611b34565b602081527f436f6d6d69746d656e7441646d696e20726f6c65206772616e74656420746f3a602082015261227e565b565b5f54604051634d3223a560e01b815230600482015290602090829060249082906001600160a01b03165afa90811561188b575f91611d15575090565b5f54604051635cdf315560e01b815230600482015260248101929092526001600160a01b039283166044830152909160209183916064918391165afa90811561188b575f91611d15575090565b1561216457565b60405162461bcd60e51b815260206004820152601760248201527f554e415554484f52495a45445f434f4d4d49544d454e540000000000000000006044820152606490fd5b5f54604051631868e3ff60e31b815230600482015290602090829060249082906001600160a01b03165afa90811561188b575f91611d15575090565b5f8054604051636ae501ef60e11b815230600482015293929190849060249082906001600160a01b03165afa92831561188b575f93612262575b505f92835b815185101561225a5760019061225290611fdc866001600160a01b0361224a8a88611e64565b511687611cc1565b940193612224565b935050505090565b6122779193503d805f833e611f668183611b34565b915f61221f565b5f919082916122cd60405180926122ae602083019563319af33360e01b8752604060248501526064840190611c90565b6001600160a01b0391909116604483015203601f198101835282611b34565b51906a636f6e736f6c652e6c6f675afa50565b335f9081527fb7db2dd08fcb62d0c9e08c51941cae53c267786a0b75803fb7960902fc8ef97d602052604090205460ff161561231857565b63e2517d3f60e01b5f52336004525f60245260445ffd5b335f9081527fc0b8663a995ad32ccf81c6369bcca5ff92004c48ed45f14e9c13067079d62c4c602052604090205460ff161561236757565b63e2517d3f60e01b5f52336004525f5160206130425f395f51905f5260245260445ffd5b5f8181525f5160206130a25f395f51905f526020908152604080832033845290915290205460ff16156123bb5750565b63e2517d3f60e01b5f523360045260245260445ffd5b6001600160a01b0381165f9081527fc0b8663a995ad32ccf81c6369bcca5ff92004c48ed45f14e9c13067079d62c4c602052604090205460ff16612477576001600160a01b03165f8181527fc0b8663a995ad32ccf81c6369bcca5ff92004c48ed45f14e9c13067079d62c4c60205260408120805460ff191660011790553391905f5160206130425f395f51905f52905f5160206130225f395f51905f529080a4600190565b505f90565b6001600160a01b0381165f9081527fb7db2dd08fcb62d0c9e08c51941cae53c267786a0b75803fb7960902fc8ef97d602052604090205460ff16612477576001600160a01b03165f8181527fb7db2dd08fcb62d0c9e08c51941cae53c267786a0b75803fb7960902fc8ef97d60205260408120805460ff191660011790553391905f5160206130225f395f51905f528180a4600190565b6001600160a01b0381165f9081527f84e2664aed99279e0ebbfecf0aa40c11258c0b979003aeac4259a67b9634e80d602052604090205460ff16612477576001600160a01b03165f8181527f84e2664aed99279e0ebbfecf0aa40c11258c0b979003aeac4259a67b9634e80d60205260408120805460ff191660011790553391905f5160206130c25f395f51905f52905f5160206130225f395f51905f529080a4600190565b5f8181525f5160206130a25f395f51905f52602090815260408083206001600160a01b038616845290915290205460ff16612644575f8181525f5160206130a25f395f51905f52602090815260408083206001600160a01b0395909516808452949091528120805460ff19166001179055339291905f5160206130225f395f51905f529080a4600190565b50505f90565b5f8181525f5160206130a25f395f51905f52602090815260408083206001600160a01b038616845290915290205460ff1615612644575f8181525f5160206130a25f395f51905f52602090815260408083206001600160a01b0395909516808452949091528120805460ff19169055339291907ff6391f5c32d9c69d2a47ea670b442974b53935d1edc7fd64eb21e047a839171b9080a4600190565b905f5160206130625f395f51905f52608060405160208152602160208201527f5374617274207375626d6974436f6d6d69746d656e74466f72417474657374656040820152603960f91b6060820152a18051600254907fa3a85c11b29f85b7f0762307ba3e14c778fe3890e50a89c535ec22c6d3c2b29e60e0600154926040519060a08252600660a08301526556616c75657360d01b60c083015260018060a01b03881660208301526040820152846060820152836080820152a182515f52600460205260405f2060018060a01b0385165f5260205260405f2054612bb6575f5160206130625f395f51905f526060604051602081526020808201527f4265666f7265206578697374696e6720636f6d6d69746d656e7420636865636b6040820152a182515f52600460205260405f2060018060a01b0385165f526020527f2c78221d853bf45521bf53ad2802eb4470185a3cad34373f42e4639a8fdeb197608060405f20546040519060408252601a60408301527f4578697374696e6720636f6d6d69746d656e742068656967687400000000000060608301526020820152a182515f52600460205260405f2060018060a01b0385165f5260205260405f2054612b3c57612937915f5160206130625f395f51905f52606060405160208152601f60208201527f4166746572206578697374696e6720636f6d6d69746d656e7420636865636b006040820152a15f5160206130625f395f51905f5260606040516020815260166020820152754265666f726520746f6c6572616e636520636865636b60501b6040820152a1611cb4565b815111612adc5760407fb55857cc8fd641eda5651957fe84b285cee3bdf246c783bf24c0426d040eea01915f5160206130625f395f51905f5260608351602081526015602082015274416674657220746f6c6572616e636520636865636b60581b85820152a15f5160206130625f395f51905f526060835160208152601760208201527f4265666f72652065706f63682061737369676e6d656e7400000000000000000085820152a180515f526003602052815f205415612ac2575b5f5160206130625f395f51905f526060835160208152601660208201527510599d195c88195c1bd8da08185cdcda59db9b595b9d60521b85820152a180515f526004602052815f2060018060a01b0385165f52602052815f2081518155612a7260208301958651600184015584840192600284519101556113096120d4565b91515f526005602052825f2085515f52602052825f20612a93838254611cb4565b90555193519082519182526020820152a25b60025460018101809111611a4157612abc90612bf0565b612aa557565b612aca6121a9565b81515f526003602052825f20556129f3565b5f5160206130625f395f51905f52608060405160208152602360208201527f526576657274696e673a20486569676874206578636565647320746f6c6572616040820152626e636560e81b6060820152a1630ae09ad960e41b5f5260045ffd5b5f5160206130625f395f51905f52608060405160208152603760208201527f526576657274696e673a204174746573746572416c7265616479436f6d6d697460408201527f746564202d20636f6d6d69746d656e74206578697374730000000000000000006060820152a1630ae09ad960e41b5f5260045ffd5b630ae09ad960e41b5f5260045ffd5b60ff5f5160206130e25f395f51905f525460401c1615612be157565b631afcd79f60e31b5f5260045ffd5b805f52600360205260405f20545b80612c076120d4565b1015612c1a57612c15612ef6565b612bfe565b612c2390611f71565b6001600160ff1b0381168103611a415760039060011b04612c42611f17565b915f5b8351811015612ebf576001600160a01b03612c608286611e64565b5116825f52600460205260405f209060018060a01b03165f5260205260405f2060405190612c8d82611b04565b805491828152600260018301549260208301938452015492604082019384525f52600560205260405f2082515f526020528560405f205411612cd457505050600101612c45565b93509350935050612ce36120d4565b9281515f5260036020528360405f205403612eb0576009545f52600860205260405f2082515f5260205260027f4592fb069b36e21bd060b797d2d4641c2e13839b1881c1182f4a4fd071deb4eb6040805f208551808255875191826001820155865195869101558060025582519182526020820152a26039546001600160a01b0316612d8c575b505050612d756121a9565b11612d7f57600190565b612d87612ef6565b600190565b5f8054604051632924b73b60e01b81523060048201529496949593929190869060249082906001600160a01b03165afa94851561188b575f95612e94575b505f5b8551811015612e88576001600160a01b03612de88288611e64565b511683515f52600460205260405f2060018060a01b0382165f52602052600160405f200154908851809214612e21575050600101612dcd565b9091505f9597508594965060018060a01b036039541693519251604051926020840194639ed8dc0d60e01b8652602485015260448401526064830152608482015260848152612e7160a482611b34565b51915af450612e7e612ec7565b505b5f8080612d6a565b50505091509150612e80565b612ea99195503d805f833e611f668183611b34565b935f612dca565b6337592db360e01b5f5260045ffd5b505050505f90565b3d15612ef1573d90612ed882611c74565b91612ee66040519384611b34565b82523d5f602084013e565b606090565b612efe6120d4565b5f80549091906001600160a01b0316803b1561065d575f8091600460405180948193632a21edc760e21b83525af1801561188b57612fae575b506039546001600160a01b03169081612f4f57505050565b60018101808211612f9a5790839291604051906020820192630e8013b760e31b84526024830152604482015260448152612f8a606482611b34565b51915af450612f97612ec7565b50565b634e487b7160e01b84526011600452602484fd5b612fbb9192505f90611b34565b5f905f612f37565b90612fe75750805115612fd857805190602001fd5b630a12f52160e11b5f5260045ffd5b81511580613018575b612ff8575090565b639996b31560e01b5f9081526001600160a01b0391909116600452602490fd5b50803b15612ff056fe2f8788117e7eff1d82e926ec794901d17c78024a50270940304540a733656f0ddb2bf73e90d393604e56f0a2a54fed3fbd75332bf39c5ea0704b3b6973a3463c263fc754e823359f62ae5d0645f1c62818680f1f3ab746ae4aebc5230bf59325360894a13ba1a3210667c828492db98dca3e2076cc3735a920a3ca505d382bbc02dd7bc7dec4dceedda775e58dd541e08a116c6c53815c0bd028192f7b626800981fe5f60e354ed88ff0544e367c13a4d3342da7c82eb6627f804b747e046e18f0c57e16840df040f15088dc2f81fe391c3923bec73e23a9662efc9c229c6a00a2646970667358221220559a736daa132996c65d4406b2ba9a27bb7e745c6b48672c4779197a189543de64736f6c634300081c0033","linkReferences":{}},"methodIdentifiers":{"COMMITMENT_ADMIN()":"80e460f0","DEFAULT_ADMIN_ROLE()":"a217fddf","TRUSTED_ATTESTER()":"5db916ab","UPGRADE_INTERFACE_VERSION()":"ad3cb1cc","acceptGenesisCeremony()":"92a2ebf3","acceptedCommitments(uint256)":"f5317576","acceptedCommitmentsVersion()":"232177ac","batchGrantCommitmentAdmin(address[])":"4b47d955","batchGrantTrustedAttester(address[])":"cf6772ad","commitmentHeightEpochAssignments(uint256)":"3962f0ef","commitmentStakes(uint256,bytes32)":"fc2788ad","commitments(uint256,address)":"e90d4c06","computeAllCurrentEpochStake(address)":"60fea5dd","computeAllStakeAtEpoch(uint256,address)":"f34d002a","computeAllTotalStakeForCurrentEpoch()":"1dfcce8c","computeAllTotalStakeForEpoch(uint256)":"6542384f","createCommitment(uint256,bytes32,bytes32)":"7a9b7865","forceLatestCommitment((uint256,bytes32,bytes32))":"08c7050f","getAcceptedCommitmentAtCommitmentHeight(uint256)":"ab4253e2","getAttesters()":"4ed7e435","getCurrentEpoch()":"b97dd9e2","getCurrentEpochStake(address,address)":"bc90afbb","getEpochByBlockTime()":"ee377d90","getMaxTolerableCommitmentHeight()":"a5b3286e","getNextEpoch()":"efe97d05","getRoleAdmin(bytes32)":"248a9ca3","getStakeAtEpoch(uint256,address,address)":"1faea1ed","getTotalStakeForCurrentEpoch(address)":"b274a935","getTotalStakeForEpoch(uint256,address)":"c6e1b9db","getValidatorCommitmentAtHeight(uint256,address)":"3c496bdf","grantCommitmentAdmin(address)":"949d7c2a","grantRole(bytes32,address)":"2f2ff15d","grantTrustedAttester(address)":"81df1746","hasRole(bytes32,address)":"91d14854","initialize()":"8129fc1c","initialize(address,uint256,uint256,uint256,address[])":"a3df415f","lastAcceptedCommitmentHeight()":"fc589b45","leadingCommitmentTolerance()":"d4528577","openAttestationEnabled()":"ef9ae15c","proxiableUUID()":"52d1902d","renounceRole(bytes32,address)":"36568abe","revokeRole(bytes32,address)":"d547741f","rewardContract()":"6ea69d62","setAcceptedCommitmentAtHeight((uint256,bytes32,bytes32))":"9cf932d7","setLastAcceptedCommitmentHeight(uint256)":"f220e519","setOpenAttestationEnabled(bool)":"d2526fef","setRewardContract(address)":"51508f0a","stake(uint256)":"a694fc3a","stakingContract()":"ee99205c","submitBatchCommitment((uint256,bytes32,bytes32)[])":"da63d355","submitCommitment((uint256,bytes32,bytes32))":"f1f36595","supportsInterface(bytes4)":"01ffc9a7","unstake(uint256)":"2e17de78","upgradeToAndCall(address,bytes)":"4f1ef286","versionedAcceptedCommitments(uint256,uint256)":"fabbd8ce"},"storageLayout":{"storage":[{"astId":45442,"contract":"src/settlement/MCR.sol:MCR","label":"stakingContract","offset":0,"slot":"0","type":"t_contract(IMovementStaking)48409"},{"astId":45445,"contract":"src/settlement/MCR.sol:MCR","label":"leadingCommitmentTolerance","offset":0,"slot":"1","type":"t_uint256"},{"astId":45448,"contract":"src/settlement/MCR.sol:MCR","label":"lastAcceptedCommitmentHeight","offset":0,"slot":"2","type":"t_uint256"},{"astId":45461,"contract":"src/settlement/MCR.sol:MCR","label":"commitmentHeightEpochAssignments","offset":0,"slot":"3","type":"t_mapping(t_uint256,t_uint256)"},{"astId":45469,"contract":"src/settlement/MCR.sol:MCR","label":"commitments","offset":0,"slot":"4","type":"t_mapping(t_uint256,t_mapping(t_address,t_struct(Commitment)45456_storage))"},{"astId":45476,"contract":"src/settlement/MCR.sol:MCR","label":"commitmentStakes","offset":0,"slot":"5","type":"t_mapping(t_uint256,t_mapping(t_bytes32,t_uint256))"},{"astId":45482,"contract":"src/settlement/MCR.sol:MCR","label":"acceptedCommitments","offset":0,"slot":"6","type":"t_mapping(t_uint256,t_struct(Commitment)45456_storage)"},{"astId":45485,"contract":"src/settlement/MCR.sol:MCR","label":"openAttestationEnabled","offset":0,"slot":"7","type":"t_bool"},{"astId":45493,"contract":"src/settlement/MCR.sol:MCR","label":"versionedAcceptedCommitments","offset":0,"slot":"8","type":"t_mapping(t_uint256,t_mapping(t_uint256,t_struct(Commitment)45456_storage))"},{"astId":45496,"contract":"src/settlement/MCR.sol:MCR","label":"acceptedCommitmentsVersion","offset":0,"slot":"9","type":"t_uint256"},{"astId":45501,"contract":"src/settlement/MCR.sol:MCR","label":"__gap","offset":0,"slot":"10","type":"t_array(t_uint256)47_storage"},{"astId":44074,"contract":"src/settlement/MCR.sol:MCR","label":"rewardContract","offset":0,"slot":"57","type":"t_contract(IMcrReward)46495"}],"types":{"t_address":{"encoding":"inplace","label":"address","numberOfBytes":"20"},"t_array(t_uint256)47_storage":{"encoding":"inplace","label":"uint256[47]","numberOfBytes":"1504","base":"t_uint256"},"t_bool":{"encoding":"inplace","label":"bool","numberOfBytes":"1"},"t_bytes32":{"encoding":"inplace","label":"bytes32","numberOfBytes":"32"},"t_contract(IMcrReward)46495":{"encoding":"inplace","label":"contract IMcrReward","numberOfBytes":"20"},"t_contract(IMovementStaking)48409":{"encoding":"inplace","label":"contract IMovementStaking","numberOfBytes":"20"},"t_mapping(t_address,t_struct(Commitment)45456_storage)":{"encoding":"mapping","key":"t_address","label":"mapping(address => struct MCRStorage.Commitment)","numberOfBytes":"32","value":"t_struct(Commitment)45456_storage"},"t_mapping(t_bytes32,t_uint256)":{"encoding":"mapping","key":"t_bytes32","label":"mapping(bytes32 => uint256)","numberOfBytes":"32","value":"t_uint256"},"t_mapping(t_uint256,t_mapping(t_address,t_struct(Commitment)45456_storage))":{"encoding":"mapping","key":"t_uint256","label":"mapping(uint256 => mapping(address => struct MCRStorage.Commitment))","numberOfBytes":"32","value":"t_mapping(t_address,t_struct(Commitment)45456_storage)"},"t_mapping(t_uint256,t_mapping(t_bytes32,t_uint256))":{"encoding":"mapping","key":"t_uint256","label":"mapping(uint256 => mapping(bytes32 => uint256))","numberOfBytes":"32","value":"t_mapping(t_bytes32,t_uint256)"},"t_mapping(t_uint256,t_mapping(t_uint256,t_struct(Commitment)45456_storage))":{"encoding":"mapping","key":"t_uint256","label":"mapping(uint256 => mapping(uint256 => struct MCRStorage.Commitment))","numberOfBytes":"32","value":"t_mapping(t_uint256,t_struct(Commitment)45456_storage)"},"t_mapping(t_uint256,t_struct(Commitment)45456_storage)":{"encoding":"mapping","key":"t_uint256","label":"mapping(uint256 => struct MCRStorage.Commitment)","numberOfBytes":"32","value":"t_struct(Commitment)45456_storage"},"t_mapping(t_uint256,t_uint256)":{"encoding":"mapping","key":"t_uint256","label":"mapping(uint256 => uint256)","numberOfBytes":"32","value":"t_uint256"},"t_struct(Commitment)45456_storage":{"encoding":"inplace","label":"struct MCRStorage.Commitment","numberOfBytes":"96","members":[{"astId":45451,"contract":"src/settlement/MCR.sol:MCR","label":"height","offset":0,"slot":"0","type":"t_uint256"},{"astId":45453,"contract":"src/settlement/MCR.sol:MCR","label":"commitmentValue","offset":0,"slot":"1","type":"t_bytes32"},{"astId":45455,"contract":"src/settlement/MCR.sol:MCR","label":"commitmentId","offset":0,"slot":"2","type":"t_bytes32"}]},"t_uint256":{"encoding":"inplace","label":"uint256","numberOfBytes":"32"}}},"id":52}