{"abi":[{"type":"function","name":"DEFAULT_ADMIN_ROLE","inputs":[],"outputs":[{"name":"","type":"bytes32","internalType":"bytes32"}],"stateMutability":"view"},{"type":"function","name":"UPGRADE_INTERFACE_VERSION","inputs":[],"outputs":[{"name":"","type":"string","internalType":"string"}],"stateMutability":"view"},{"type":"function","name":"WHITELIST_ROLE","inputs":[],"outputs":[{"name":"","type":"bytes32","internalType":"bytes32"}],"stateMutability":"view"},{"type":"function","name":"acceptGenesisCeremony","inputs":[],"outputs":[],"stateMutability":"nonpayable"},{"type":"function","name":"currentEpochByDomain","inputs":[{"name":"domain","type":"address","internalType":"address"}],"outputs":[{"name":"currentEpoch","type":"uint256","internalType":"uint256"}],"stateMutability":"view"},{"type":"function","name":"domainGenesisAccepted","inputs":[{"name":"domain","type":"address","internalType":"address"}],"outputs":[{"name":"","type":"bool","internalType":"bool"}],"stateMutability":"view"},{"type":"function","name":"epochDurationByDomain","inputs":[{"name":"domain","type":"address","internalType":"address"}],"outputs":[{"name":"epochDuration","type":"uint256","internalType":"uint256"}],"stateMutability":"view"},{"type":"function","name":"epochStakesByDomain","inputs":[{"name":"domain","type":"address","internalType":"address"},{"name":"epoch","type":"uint256","internalType":"uint256"},{"name":"custodian","type":"address","internalType":"address"},{"name":"attester","type":"address","internalType":"address"}],"outputs":[{"name":"stake","type":"uint256","internalType":"uint256"}],"stateMutability":"view"},{"type":"function","name":"epochTotalStakeByDomain","inputs":[{"name":"domain","type":"address","internalType":"address"},{"name":"epoch","type":"uint256","internalType":"uint256"},{"name":"attester","type":"address","internalType":"address"}],"outputs":[{"name":"stake","type":"uint256","internalType":"uint256"}],"stateMutability":"view"},{"type":"function","name":"epochUnstakesByDomain","inputs":[{"name":"domain","type":"address","internalType":"address"},{"name":"epoch","type":"uint256","internalType":"uint256"},{"name":"custodian","type":"address","internalType":"address"},{"name":"attester","type":"address","internalType":"address"}],"outputs":[{"name":"stake","type":"uint256","internalType":"uint256"}],"stateMutability":"view"},{"type":"function","name":"getAttestersByDomain","inputs":[{"name":"domain","type":"address","internalType":"address"}],"outputs":[{"name":"","type":"address[]","internalType":"address[]"}],"stateMutability":"view"},{"type":"function","name":"getCurrentEpoch","inputs":[{"name":"domain","type":"address","internalType":"address"}],"outputs":[{"name":"","type":"uint256","internalType":"uint256"}],"stateMutability":"view"},{"type":"function","name":"getCurrentEpochStake","inputs":[{"name":"domain","type":"address","internalType":"address"},{"name":"custodian","type":"address","internalType":"address"},{"name":"attester","type":"address","internalType":"address"}],"outputs":[{"name":"","type":"uint256","internalType":"uint256"}],"stateMutability":"view"},{"type":"function","name":"getCurrentEpochUnstake","inputs":[{"name":"domain","type":"address","internalType":"address"},{"name":"custodian","type":"address","internalType":"address"},{"name":"attester","type":"address","internalType":"address"}],"outputs":[{"name":"","type":"uint256","internalType":"uint256"}],"stateMutability":"view"},{"type":"function","name":"getCustodiansByDomain","inputs":[{"name":"domain","type":"address","internalType":"address"}],"outputs":[{"name":"","type":"address[]","internalType":"address[]"}],"stateMutability":"view"},{"type":"function","name":"getEpochByBlockTime","inputs":[{"name":"domain","type":"address","internalType":"address"}],"outputs":[{"name":"","type":"uint256","internalType":"uint256"}],"stateMutability":"view"},{"type":"function","name":"getNextEpoch","inputs":[{"name":"domain","type":"address","internalType":"address"}],"outputs":[{"name":"","type":"uint256","internalType":"uint256"}],"stateMutability":"view"},{"type":"function","name":"getNextEpochByBlockTime","inputs":[{"name":"domain","type":"address","internalType":"address"}],"outputs":[{"name":"","type":"uint256","internalType":"uint256"}],"stateMutability":"view"},{"type":"function","name":"getRoleAdmin","inputs":[{"name":"role","type":"bytes32","internalType":"bytes32"}],"outputs":[{"name":"","type":"bytes32","internalType":"bytes32"}],"stateMutability":"view"},{"type":"function","name":"getStakeAtEpoch","inputs":[{"name":"domain","type":"address","internalType":"address"},{"name":"epoch","type":"uint256","internalType":"uint256"},{"name":"custodian","type":"address","internalType":"address"},{"name":"attester","type":"address","internalType":"address"}],"outputs":[{"name":"","type":"uint256","internalType":"uint256"}],"stateMutability":"view"},{"type":"function","name":"getToken","inputs":[],"outputs":[{"name":"","type":"address","internalType":"contract IERC20"}],"stateMutability":"view"},{"type":"function","name":"getTotalStakeForCurrentEpoch","inputs":[{"name":"domain","type":"address","internalType":"address"},{"name":"custodian","type":"address","internalType":"address"}],"outputs":[{"name":"","type":"uint256","internalType":"uint256"}],"stateMutability":"view"},{"type":"function","name":"getTotalStakeForEpoch","inputs":[{"name":"domain","type":"address","internalType":"address"},{"name":"epoch","type":"uint256","internalType":"uint256"},{"name":"custodian","type":"address","internalType":"address"}],"outputs":[{"name":"","type":"uint256","internalType":"uint256"}],"stateMutability":"view"},{"type":"function","name":"getUnstakeAtEpoch","inputs":[{"name":"domain","type":"address","internalType":"address"},{"name":"epoch","type":"uint256","internalType":"uint256"},{"name":"custodian","type":"address","internalType":"address"},{"name":"attester","type":"address","internalType":"address"}],"outputs":[{"name":"","type":"uint256","internalType":"uint256"}],"stateMutability":"view"},{"type":"function","name":"grantRole","inputs":[{"name":"role","type":"bytes32","internalType":"bytes32"},{"name":"account","type":"address","internalType":"address"}],"outputs":[],"stateMutability":"nonpayable"},{"type":"function","name":"hasRole","inputs":[{"name":"role","type":"bytes32","internalType":"bytes32"},{"name":"account","type":"address","internalType":"address"}],"outputs":[{"name":"","type":"bool","internalType":"bool"}],"stateMutability":"view"},{"type":"function","name":"initialize","inputs":[],"outputs":[],"stateMutability":"nonpayable"},{"type":"function","name":"initialize","inputs":[{"name":"_token","type":"address","internalType":"contract IERC20"}],"outputs":[],"stateMutability":"nonpayable"},{"type":"function","name":"proxiableUUID","inputs":[],"outputs":[{"name":"","type":"bytes32","internalType":"bytes32"}],"stateMutability":"view"},{"type":"function","name":"registerDomain","inputs":[{"name":"epochDuration","type":"uint256","internalType":"uint256"},{"name":"custodians","type":"address[]","internalType":"address[]"}],"outputs":[],"stateMutability":"nonpayable"},{"type":"function","name":"removeAddressFromWhitelist","inputs":[{"name":"addr","type":"address","internalType":"address"}],"outputs":[],"stateMutability":"nonpayable"},{"type":"function","name":"renounceRole","inputs":[{"name":"role","type":"bytes32","internalType":"bytes32"},{"name":"callerConfirmation","type":"address","internalType":"address"}],"outputs":[],"stateMutability":"nonpayable"},{"type":"function","name":"revokeRole","inputs":[{"name":"role","type":"bytes32","internalType":"bytes32"},{"name":"account","type":"address","internalType":"address"}],"outputs":[],"stateMutability":"nonpayable"},{"type":"function","name":"reward","inputs":[{"name":"attesters","type":"address[]","internalType":"address[]"},{"name":"amounts","type":"uint256[]","internalType":"uint256[]"},{"name":"custodians","type":"address[]","internalType":"address[]"}],"outputs":[],"stateMutability":"nonpayable"},{"type":"function","name":"rollOverEpoch","inputs":[],"outputs":[],"stateMutability":"nonpayable"},{"type":"function","name":"slash","inputs":[{"name":"custodians","type":"address[]","internalType":"address[]"},{"name":"attesters","type":"address[]","internalType":"address[]"},{"name":"amounts","type":"uint256[]","internalType":"uint256[]"},{"name":"refundAmounts","type":"uint256[]","internalType":"uint256[]"}],"outputs":[],"stateMutability":"nonpayable"},{"type":"function","name":"stake","inputs":[{"name":"domain","type":"address","internalType":"address"},{"name":"custodian","type":"address","internalType":"contract IERC20"},{"name":"amount","type":"uint256","internalType":"uint256"}],"outputs":[],"stateMutability":"nonpayable"},{"type":"function","name":"stakeFor","inputs":[{"name":"user","type":"address","internalType":"address"},{"name":"custodian","type":"address","internalType":"contract IERC20"},{"name":"amount","type":"uint256","internalType":"uint256"}],"outputs":[],"stateMutability":"nonpayable"},{"type":"function","name":"supportsInterface","inputs":[{"name":"interfaceId","type":"bytes4","internalType":"bytes4"}],"outputs":[{"name":"","type":"bool","internalType":"bool"}],"stateMutability":"view"},{"type":"function","name":"token","inputs":[],"outputs":[{"name":"","type":"address","internalType":"contract IERC20"}],"stateMutability":"view"},{"type":"function","name":"unstake","inputs":[{"name":"domain","type":"address","internalType":"address"},{"name":"custodian","type":"address","internalType":"address"},{"name":"amount","type":"uint256","internalType":"uint256"}],"outputs":[],"stateMutability":"nonpayable"},{"type":"function","name":"unstakeFor","inputs":[{"name":"user","type":"address","internalType":"address"},{"name":"custodian","type":"address","internalType":"address"},{"name":"amount","type":"uint256","internalType":"uint256"}],"outputs":[],"stateMutability":"nonpayable"},{"type":"function","name":"upgradeToAndCall","inputs":[{"name":"newImplementation","type":"address","internalType":"address"},{"name":"data","type":"bytes","internalType":"bytes"}],"outputs":[],"stateMutability":"payable"},{"type":"function","name":"whitelistAddress","inputs":[{"name":"addr","type":"address","internalType":"address"}],"outputs":[],"stateMutability":"nonpayable"},{"type":"event","name":"AttesterEpochRolledOver","inputs":[{"name":"attester","type":"address","indexed":true,"internalType":"address"},{"name":"epoch","type":"uint256","indexed":true,"internalType":"uint256"},{"name":"custodian","type":"address","indexed":true,"internalType":"address"},{"name":"stake","type":"uint256","indexed":false,"internalType":"uint256"},{"name":"unstake","type":"uint256","indexed":false,"internalType":"uint256"}],"anonymous":false},{"type":"event","name":"AttesterStaked","inputs":[{"name":"domain","type":"address","indexed":true,"internalType":"address"},{"name":"epoch","type":"uint256","indexed":true,"internalType":"uint256"},{"name":"custodian","type":"address","indexed":true,"internalType":"address"},{"name":"attester","type":"address","indexed":false,"internalType":"address"},{"name":"stake","type":"uint256","indexed":false,"internalType":"uint256"}],"anonymous":false},{"type":"event","name":"AttesterUnstaked","inputs":[{"name":"domain","type":"address","indexed":true,"internalType":"address"},{"name":"epoch","type":"uint256","indexed":true,"internalType":"uint256"},{"name":"custodian","type":"address","indexed":true,"internalType":"address"},{"name":"attester","type":"address","indexed":false,"internalType":"address"},{"name":"stake","type":"uint256","indexed":false,"internalType":"uint256"}],"anonymous":false},{"type":"event","name":"EpochRolledOver","inputs":[{"name":"domain","type":"address","indexed":true,"internalType":"address"},{"name":"epoch","type":"uint256","indexed":false,"internalType":"uint256"}],"anonymous":false},{"type":"event","name":"Initialized","inputs":[{"name":"version","type":"uint64","indexed":false,"internalType":"uint64"}],"anonymous":false},{"type":"event","name":"RoleAdminChanged","inputs":[{"name":"role","type":"bytes32","indexed":true,"internalType":"bytes32"},{"name":"previousAdminRole","type":"bytes32","indexed":true,"internalType":"bytes32"},{"name":"newAdminRole","type":"bytes32","indexed":true,"internalType":"bytes32"}],"anonymous":false},{"type":"event","name":"RoleGranted","inputs":[{"name":"role","type":"bytes32","indexed":true,"internalType":"bytes32"},{"name":"account","type":"address","indexed":true,"internalType":"address"},{"name":"sender","type":"address","indexed":true,"internalType":"address"}],"anonymous":false},{"type":"event","name":"RoleRevoked","inputs":[{"name":"role","type":"bytes32","indexed":true,"internalType":"bytes32"},{"name":"account","type":"address","indexed":true,"internalType":"address"},{"name":"sender","type":"address","indexed":true,"internalType":"address"}],"anonymous":false},{"type":"event","name":"Upgraded","inputs":[{"name":"implementation","type":"address","indexed":true,"internalType":"address"}],"anonymous":false},{"type":"error","name":"AccessControlBadConfirmation","inputs":[]},{"type":"error","name":"AccessControlUnauthorizedAccount","inputs":[{"name":"account","type":"address","internalType":"address"},{"name":"neededRole","type":"bytes32","internalType":"bytes32"}]},{"type":"error","name":"AddressEmptyCode","inputs":[{"name":"target","type":"address","internalType":"address"}]},{"type":"error","name":"CustodianTransferAmountMismatch","inputs":[]},{"type":"error","name":"ERC1967InvalidImplementation","inputs":[{"name":"implementation","type":"address","internalType":"address"}]},{"type":"error","name":"ERC1967NonPayable","inputs":[]},{"type":"error","name":"FailedInnerCall","inputs":[]},{"type":"error","name":"GenesisAlreadyAccepted","inputs":[]},{"type":"error","name":"InvalidInitialization","inputs":[]},{"type":"error","name":"NotInitializing","inputs":[]},{"type":"error","name":"ReentrancyGuardReentrantCall","inputs":[]},{"type":"error","name":"StakeExceedsGenesisStake","inputs":[]},{"type":"error","name":"UUPSUnauthorizedCallContext","inputs":[]},{"type":"error","name":"UUPSUnsupportedProxiableUUID","inputs":[{"name":"slot","type":"bytes32","internalType":"bytes32"}]}],"bytecode":{"object":"0x60a08060405234602e573060805260016009556126539081610033823960805181818161109401526111630152f35b5f80fdfe6080806040526004361015610012575f80fd5b5f3560e01c90816301ffc9a714611645575080630a0b1b641461160d57806321df0da714610200578063248a9ca3146115d6578063286dd3f5146115a25780632924b73b146115145780632c7785a8146114f15780632dd5567a146114c05780632f2ff15d1461147657806336568abe146114325780633bccf635146113fa57806341566585146113c657806344198e4d146113655780634974c679146113365780634d3223a5146113185780634f1ef286146110e857806352d1902d1461108257806354300d7a146110395780635cdf31551461103957806360829f8a1461101057806365f1ea2014610dfd5780637022436014610fc35780637667b76d14610f765780637a997ab714610f4f5780638129fc1c14610e715780638489e58014610e4e578063879b938b14610dfd5780638d9082581461063f57806391d1485414610da857806392a2ebf314610c6c578063a217fddf14610c52578063a885c9751461095a578063a887b71c14610796578063ad3cb1cc14610738578063bf6eac2f14610690578063c0b95ab81461063f578063c3471ff814610614578063c4d66de8146104b0578063d1ba90ff14610473578063d37304f8146103e6578063d547741f14610395578063d5ca03de146102f5578063da33ee7f1461022b5763fc0c546a14610200575f80fd5b34610227575f366003190112610227575f546040516001600160a01b039091168152602090f35b5f80fd5b34610227576060366003190112610227576004356001600160401b0381116102275761025b90369060040161182e565b6024356001600160401b0381116102275761027a90369060040161182e565b926044356001600160401b0381116102275761029a90369060040161182e565b9290916102a5612157565b5f5b8581106102b5576001600955005b806102ef6102ce6102c96001948a87611a56565b611a66565b6102dc6102c9848a8a611a56565b6102e7848c89611a56565b3591336121f9565b016102a7565b34610227576020366003190112610227576001600160a01b03610316611698565b16805f52600460205261032c60405f20546118bb565b905f5b815f52600460205260405f205481101561038357600190825f52600460205261035b8160405f206123ed565b838060a01b0391549060031b1c1661037382866118ed565b90838060a01b031690520161032f565b6040518061039185826116da565b0390f35b34610227576040366003190112610227576103e46004356103b46116ae565b906103df6103da825f525f5160206125de5f395f51905f52602052600160405f20015490565b611b60565b612013565b005b34610227576040366003190112610227576024356001600160401b0381116102275761041690369060040161182e565b9061041f612157565b335f52600160205260043560405f20555f5b82811061043f576001600955005b600190335f52600460205261046c60405f20838060a01b036104656102c9858989611a56565b16906124b8565b5001610431565b34610227576020366003190112610227576001600160a01b03610494611698565b165f526008602052602060ff60405f2054166040519015158152f35b34610227576020366003190112610227576104c9611698565b5f5160206125fe5f395f51905f52549060ff8260401c1615916001600160401b0381168015908161060c575b6001149081610602575b1590816105f9575b506105ea5767ffffffffffffffff1981166001175f5160206125fe5f395f51905f5255826105be575b50610539612402565b61054233611e34565b5060018060a01b03166bffffffffffffffffffffffff60a01b5f5416175f5561056757005b68ff0000000000000000195f5160206125fe5f395f51905f5254165f5160206125fe5f395f51905f52557fc7f505b2f371ae2175ee4913f4499e1f2633a7b5936321eed1cdaeb6115181d2602060405160018152a1005b68ffffffffffffffffff191668010000000000000001175f5160206125fe5f395f51905f525582610530565b63f92ee8a960e01b5f5260045ffd5b90501584610507565b303b1591506104ff565b8491506104f5565b34610227576020366003190112610227576020610637610632611698565b611a92565b604051908152f35b346102275761064d366117e0565b6001600160a01b039384165f9081526005602090815260408083209583529481528482209386168252928352838120919094168452815291819020549051908152f35b346102275761069e3661171c565b6106a9929192611b17565b6106b1612157565b60405163095ea7b360e01b815230600482015260248101829052926020846044815f6001600160a01b0386165af193841561072d576106f994610700575b5033923390611ba6565b6001600955005b6107219060203d602011610726575b6107198183611756565b810190611a7a565b6106ef565b503d61070f565b6040513d5f823e3d90fd5b34610227575f3660031901126102275760408051906107578183611756565b600582526020820191640352e302e360dc1b83528151928391602083525180918160208501528484015e5f828201840152601f01601f19168101030190f35b34610227575f36600319011261022757335f52600260205260405f20545f6001820191828111905b335f52600360205260405f205483101561091957335f5260036020526107e78360405f206123ed565b905460039190911b1c6001600160a01b03169384905f5b335f52600460205260405f205481101561090a57335f5260046020526108278160405f206123ed565b9054335f908152600560209081526040808320898452825280832060039590951b9390931c6001600160a01b03168083529381528282208783529052205490956108f657610877888785336119d8565b958187116108ec575b84869161088d898561242d565b5f999061089d908d848a33612177565b6108a981838e306121f9565b6040519485526020850152600160a01b60019003169260407f3ddb7f725ac69363a1df8296c965af4d268f31b082480dcd8419d284fb7fd34291a46001016107fe565b9095508590610880565b634e487b7160e01b5f52601160045260245ffd5b509450506001909201916107be565b83826108f657335f52600260205260405f20556040519081527fb693195b5ff3e376f8b562486abc516e10fe2467b75f0e4165e79cf4ab70dc4160203392a2005b34610227576080366003190112610227576004356001600160401b0381116102275761098a90369060040161182e565b6024356001600160401b038111610227576109a990369060040161182e565b916044356001600160401b038111610227576109c990369060040161182e565b9190936064356001600160401b038111610227576109eb90369060040161182e565b9190936109f6612157565b5f5b828110610a06576001600955005b610ab1878a610aaa6102c9858a610a768f838f6102c9928f918f928f610a9091610a898f8f93610a838a95838f6102c9898e610a766102c983610a7c96610a70610a566102c9849f888691611a56565b6001600160a01b03165f9081526002602052604090205490565b99611a56565b94611a56565b9133611a17565b97611a56565b3593611a56565b3580821015610c4b57505b80821015610c43575099611a56565b90306121f9565b335f52600260205260405f2054610acc6102c983888d611a56565b610ada6102c984878c611a56565b610ae584868d611a56565b335f90815260056020908152604080832087845282528083206001600160a01b038088168552908352818420908616845290915290205492903580841015610c325750610b32933361243a565b335f52600260205260405f205490610b4e6102c982888d611a56565b610b5c6102c983878c611a56565b335f52600560205260405f20845f5260205260405f2060018060a01b0383165f5260205260405f2060018060a01b0382165f5260205260405f205491600185018095116108f657600194335f52600660205260405f20815f5260205260405f20868060a01b0383165f5260205260405f20868060a01b0384165f526020528360405f205411610bf0575b50505050016109f8565b335f52600660205260405f20905f5260205260405f2090858060a01b03165f5260205260405f2090848060a01b03165f5260205260405f20558a808080610be6565b9250610c3e933361243a565b610b32565b905099611a56565b9050610a9b565b34610227575f3660031901126102275760206040515f8152f35b34610227575f36600319011261022757610c84612157565b335f52600860205260ff60405f205416610d9a57335f52600860205260405f20600160ff19825416179055610cb833611a92565b335f52600260205260405f20555f5b335f52600360205260405f20548110156106f957600190335f526003602052610cf38160405f206123ed565b905460039190911b1c60a083901b83900316805f5b335f52600460205260405f2054811015610d91578490335f526004602052610d8b610d368260405f206123ed565b848060a01b0391549060031b1c16335f52600560205260405f205f805260205260405f20848060a01b0382165f5260205260405f20855f526020528560405f205491335f52600260205260405f205433612177565b01610d08565b50505001610cc7565b62fe178760e01b5f5260045ffd5b3461022757604036600319011261022757610dc16116ae565b6004355f525f5160206125de5f395f51905f5260205260405f209060018060a01b03165f52602052602060ff60405f2054166040519015158152f35b3461022757610e0b366117e0565b6001600160a01b039384165f9081526006602090815260408083209583529481528482209386168252928352838120919094168452815291819020549051908152f35b34610227576020366003190112610227576020610637610e6c611698565b61199e565b34610227575f366003190112610227575f5160206125fe5f395f51905f525460ff8160401c1615906001600160401b03811680159081610f47575b6001149081610f3d575b159081610f34575b506105ea5767ffffffffffffffff1981166001175f5160206125fe5f395f51905f525581610f08575b50610ef0612402565b610ef8612402565b610f0133611e34565b5061056757005b68ffffffffffffffffff191668010000000000000001175f5160206125fe5f395f51905f525581610ee7565b90501583610ebe565b303b159150610eb6565b839150610eac565b34610227575f3660031901126102275760206040515f51602061259e5f395f51905f528152f35b34610227576060366003190112610227576020610637610f94611698565b610f9c6116ae565b610fa46116c4565b6001600160a01b0383165f9081526002602052604090205490926119d8565b34610227576060366003190112610227576020610637610fe1611698565b610fe96116ae565b610ff16116c4565b6001600160a01b0383165f908152600260205260409020549092611a17565b34610227576106f96110213661171c565b9161102a611b17565b611032612157565b33906120af565b3461022757611047366117a6565b9160018060a01b03165f52600760205260405f20905f5260205260405f209060018060a01b03165f52602052602060405f2054604051908152f35b34610227575f366003190112610227577f00000000000000000000000000000000000000000000000000000000000000006001600160a01b031630036110d95760206040515f5160206125be5f395f51905f528152f35b63703e46dd60e11b5f5260045ffd5b6040366003190112610227576110fc611698565b602435906001600160401b0382116102275736602383011215610227578160040135906111288261178b565b916111366040519384611756565b8083526020830193366024838301011161022757815f926024602093018737840101526001600160a01b037f0000000000000000000000000000000000000000000000000000000000000000163081149081156112f6575b506110d95761119b611ac8565b6040516352d1902d60e01b81526001600160a01b0382169390602081600481885afa5f91816112c2575b506111dd5784634c9c8ce360e01b5f5260045260245ffd5b805f5160206125be5f395f51905f528692036112b05750823b1561129e575f5160206125be5f395f51905f5280546001600160a01b031916821790557fbc7cd75a20ee27fd9adebab32041f755214dbc6bffa90cc0225b39da2e5c2d3b5f80a2825115611285575f80916103e4945190845af43d1561127d573d916112618361178b565b9261126f6040519485611756565b83523d5f602085013e61251f565b60609161251f565b5050503461128f57005b63b398979f60e01b5f5260045ffd5b634c9c8ce360e01b5f5260045260245ffd5b632a87526960e21b5f5260045260245ffd5b9091506020813d6020116112ee575b816112de60209383611756565b81010312610227575190866111c5565b3d91506112d1565b5f5160206125be5f395f51905f52546001600160a01b0316141590508461118e565b34610227576020366003190112610227576020610637610a56611698565b34610227576103e46113473661171c565b91335f52600160205261135f60405f2054151561195a565b336120af565b346102275760403660031901126102275761137e611698565b6113866116ae565b6001600160a01b039182165f9081526002602090815260408083205460078352818420908452825280832093909416825291825282902054915191825290f35b34610227576020366003190112610227576103e46113e2611698565b6113ea611ac8565b6113f56103da61185e565b611d9c565b34610227576020366003190112610227576001600160a01b0361141b611698565b165f526001602052602060405f2054604051908152f35b346102275760403660031901126102275761144b6116ae565b336001600160a01b03821603611467576103e490600435612013565b63334bd91960e11b5f5260045ffd5b34610227576040366003190112610227576103e46004356114956116ae565b906114bb6103da825f525f5160206125de5f395f51905f52602052600160405f20015490565b611ede565b34610227576103e46114d13661171c565b90335f5260016020526114e960405f2054151561195a565b339233611ba6565b3461022757602036600319011261022757602061063761150f611698565b611922565b34610227576020366003190112610227576001600160a01b03611535611698565b16805f52600360205261154b60405f20546118bb565b905f5b815f52600360205260405f205481101561038357600190825f52600360205261157a8160405f206123ed565b838060a01b0391549060031b1c1661159282866118ed565b90838060a01b031690520161154e565b34610227576020366003190112610227576103e46115be611698565b6115c6611ac8565b6115d16103da61185e565b611f82565b346102275760203660031901126102275760206106376004355f525f5160206125de5f395f51905f52602052600160405f20015490565b34610227576020366003190112610227576001600160a01b0361162e611698565b165f526002602052602060405f2054604051908152f35b34610227576020366003190112610227576004359063ffffffff60e01b821680920361022757602091637965db0b60e01b8114908115611687575b5015158152f35b6301ffc9a760e01b14905083611680565b600435906001600160a01b038216820361022757565b602435906001600160a01b038216820361022757565b604435906001600160a01b038216820361022757565b60206040818301928281528451809452019201905f5b8181106116fd5750505090565b82516001600160a01b03168452602093840193909201916001016116f0565b6060906003190112610227576004356001600160a01b038116810361022757906024356001600160a01b0381168103610227579060443590565b90601f801991011681019081106001600160401b0382111761177757604052565b634e487b7160e01b5f52604160045260245ffd5b6001600160401b03811161177757601f01601f191660200190565b6060906003190112610227576004356001600160a01b03811681036102275790602435906044356001600160a01b03811681036102275790565b6080906003190112610227576004356001600160a01b03811681036102275790602435906044356001600160a01b038116810361022757906064356001600160a01b03811681036102275790565b9181601f84011215610227578235916001600160401b038311610227576020808501948460051b01011161022757565b5f51602061259e5f395f51905f525f525f5160206125de5f395f51905f526020527f2f961eb00241c428f50a9c37035dfe6656e40dc55dac2f7f89bd01613bd9964c5490565b6001600160401b0381116117775760051b60200190565b906118c5826118a4565b6118d26040519182611756565b82815280926118e3601f19916118a4565b0190602036910137565b80518210156119015760209160051b010190565b634e487b7160e01b5f52603260045260245ffd5b919082018092116108f657565b6001600160a01b0381165f9081526002602052604090205461194357505f90565b61194c90611a92565b600181018091116108f65790565b1561196157565b60405162461bcd60e51b81526020600482015260156024820152741113d350525397d393d517d49151d254d511549151605a1b6044820152606490fd5b6001600160a01b03165f818152600260205260409020546119be57505f90565b5f52600260205260405f2054600181018091116108f65790565b6001600160a01b039081165f90815260066020908152604080832094835293815283822094831682529384528281209490911681529290915290205490565b6001600160a01b039081165f90815260056020908152604080832094835293815283822094831682529384528281209490911681529290915290205490565b91908110156119015760051b0190565b356001600160a01b03811681036102275790565b90816020910312610227575180151581036102275790565b6001600160a01b03165f908152600160205260409020548015611ab457420490565b634e487b7160e01b5f52601260045260245ffd5b335f9081527fb7db2dd08fcb62d0c9e08c51941cae53c267786a0b75803fb7960902fc8ef97d602052604090205460ff1615611b0057565b63e2517d3f60e01b5f52336004525f60245260445ffd5b335f9081525f51602061257e5f395f51905f52602052604090205460ff1615611b3c57565b63e2517d3f60e01b5f52336004525f51602061259e5f395f51905f5260245260445ffd5b5f8181525f5160206125de5f395f51905f526020908152604080832033845290915290205460ff1615611b905750565b63e2517d3f60e01b5f523360045260245260445ffd5b909260018060a01b03821692835f526003602052611bd060405f2060018060a01b038716906124b8565b505f546040516370a0823160e01b815230600482015290602090829060249082906001600160a01b03165afa91821561072d5783915f93611d63575b506040516323b872dd60e01b81526001600160a01b03988916600482015230602482015260448101929092529096169560208180606481015b03815f8b5af1801561072d57611d46575b505f546040516370a0823160e01b815230600482015290602090829060249082906001600160a01b03165afa90811561072d5783905f92611d10575b50611c9d9192611915565b03611d0157611cdc82610e6c838789611cd67f7be65c2ae4d3c544de23b1db5bea4d541c02b93a5f4302852f4dc9880e0cb55498611922565b85612177565b604080516001600160a01b03909616865260208601929092529390819081015b0390a4565b631910d68360e21b5f5260045ffd5b9150506020813d602011611d3e575b81611d2c60209383611756565b81010312610227575182611c9d611c92565b3d9150611d1f565b611d5e9060203d602011610726576107198183611756565b611c56565b915091506020813d602011611d94575b81611d8060209383611756565b810103126102275751908290611c45611c0c565b3d9150611d73565b6001600160a01b0381165f9081525f51602061257e5f395f51905f52602052604090205460ff16611e2f576001600160a01b03165f8181525f51602061257e5f395f51905f5260205260408120805460ff191660011790553391905f51602061259e5f395f51905f52907f2f8788117e7eff1d82e926ec794901d17c78024a50270940304540a733656f0d9080a4600190565b505f90565b6001600160a01b0381165f9081527fb7db2dd08fcb62d0c9e08c51941cae53c267786a0b75803fb7960902fc8ef97d602052604090205460ff16611e2f576001600160a01b03165f8181527fb7db2dd08fcb62d0c9e08c51941cae53c267786a0b75803fb7960902fc8ef97d60205260408120805460ff191660011790553391907f2f8788117e7eff1d82e926ec794901d17c78024a50270940304540a733656f0d8180a4600190565b5f8181525f5160206125de5f395f51905f52602090815260408083206001600160a01b038616845290915290205460ff16611f7c575f8181525f5160206125de5f395f51905f52602090815260408083206001600160a01b0395909516808452949091528120805460ff19166001179055339291907f2f8788117e7eff1d82e926ec794901d17c78024a50270940304540a733656f0d9080a4600190565b50505f90565b6001600160a01b0381165f9081525f51602061257e5f395f51905f52602052604090205460ff1615611e2f576001600160a01b03165f8181525f51602061257e5f395f51905f5260205260408120805460ff191690553391905f51602061259e5f395f51905f52907ff6391f5c32d9c69d2a47ea670b442974b53935d1edc7fd64eb21e047a839171b9080a4600190565b5f8181525f5160206125de5f395f51905f52602090815260408083206001600160a01b038616845290915290205460ff1615611f7c575f8181525f5160206125de5f395f51905f52602090815260408083206001600160a01b0395909516808452949091528120805460ff19169055339291907ff6391f5c32d9c69d2a47ea670b442974b53935d1edc7fd64eb21e047a839171b9080a4600190565b90927fd41c64546a5c34c283150998874c7ee0412c8954f57aef484c681f6e137827df906121306120df84611922565b6001600160a01b038086165f8181526006602090815260408083209583529481528482208a851683528152848220938b168252929092529190208054919591612129908590611915565b905561199e565b604080516001600160a01b0397881681526020810193909352959094169481908101611cfc565b600260095414612168576002600955565b633ee5aeb560e01b5f5260045ffd5b6001600160a01b039081165f8181526005602090815260408083208684528252808320878616845282528083209790941682529590955293208054929391926121c1908690611915565b90555f52600760205260405f20905f5260205260405f209060018060a01b03165f526020526121f560405f20918254611915565b9055565b9092906001600160a01b038116300361234e57505f805490926001600160a01b0380821692169082820361229b575050825460405163a9059cbb60e01b81526001600160a01b0395861660048201526024810193909352919360209285925016818481604481015b03925af190811561228f57506122745750565b61228c9060203d602011610726576107198183611756565b50565b604051903d90823e3d90fd5b60405163095ea7b360e01b81526001600160a01b039190911660048201526024810184905291949350602090829060449082905f905af1801561072d57612331575b50823b15610227576040516318950c7160e01b81526001600160a01b0390921660048301526024820152905f908290818381604481015b03925af1801561072d576123255750565b5f61232f91611756565b565b6123499060203d602011610726576107198183611756565b6122dd565b5f805490936001600160a01b03908116911681036123a8575082546040516323b872dd60e01b81526001600160a01b0392831660048201529482166024860152604485019290925260209184911681848160648101612261565b809193503b156102275760405163c4652d8360e01b81526001600160a01b03938416600482015293909216602484015260448301525f90829081838160648101612314565b8054821015611901575f5260205f2001905f90565b60ff5f5160206125fe5f395f51905f525460401c161561241e57565b631afcd79f60e31b5f5260045ffd5b919082039182116108f657565b6001600160a01b039081165f81815260056020908152604080832086845282528083208786168452825280832097909416825295909552932080549293919261248490869061242d565b90555f52600760205260405f20905f5260205260405f209060018060a01b03165f526020526121f560405f2091825461242d565b6001810190825f528160205260405f2054155f1461251857805468010000000000000000811015611777578060016124f392018355826123ed565b81549060031b9085821b915f19901b191617905554915f5260205260405f2055600190565b5050505f90565b90612543575080511561253457805190602001fd5b630a12f52160e11b5f5260045ffd5b81511580612574575b612554575090565b639996b31560e01b5f9081526001600160a01b0391909116600452602490fd5b50803b1561254c56fe2f961eb00241c428f50a9c37035dfe6656e40dc55dac2f7f89bd01613bd9964bdc72ed553f2544c34465af23b847953efeb813428162d767f9ba5f4013be6760360894a13ba1a3210667c828492db98dca3e2076cc3735a920a3ca505d382bbc02dd7bc7dec4dceedda775e58dd541e08a116c6c53815c0bd028192f7b626800f0c57e16840df040f15088dc2f81fe391c3923bec73e23a9662efc9c229c6a00a264697066735822122048630b4718765599d2e0c7e1a5f43b65db6b177210bbe6fa3fbab696479b06f564736f6c634300081c0033","linkReferences":{}},"methodIdentifiers":{"DEFAULT_ADMIN_ROLE()":"a217fddf","UPGRADE_INTERFACE_VERSION()":"ad3cb1cc","WHITELIST_ROLE()":"7a997ab7","acceptGenesisCeremony()":"92a2ebf3","currentEpochByDomain(address)":"0a0b1b64","domainGenesisAccepted(address)":"d1ba90ff","epochDurationByDomain(address)":"3bccf635","epochStakesByDomain(address,uint256,address,address)":"c0b95ab8","epochTotalStakeByDomain(address,uint256,address)":"54300d7a","epochUnstakesByDomain(address,uint256,address,address)":"65f1ea20","getAttestersByDomain(address)":"2924b73b","getCurrentEpoch(address)":"4d3223a5","getCurrentEpochStake(address,address,address)":"70224360","getCurrentEpochUnstake(address,address,address)":"7667b76d","getCustodiansByDomain(address)":"d5ca03de","getEpochByBlockTime(address)":"c3471ff8","getNextEpoch(address)":"8489e580","getNextEpochByBlockTime(address)":"2c7785a8","getRoleAdmin(bytes32)":"248a9ca3","getStakeAtEpoch(address,uint256,address,address)":"8d908258","getToken()":"21df0da7","getTotalStakeForCurrentEpoch(address,address)":"44198e4d","getTotalStakeForEpoch(address,uint256,address)":"5cdf3155","getUnstakeAtEpoch(address,uint256,address,address)":"879b938b","grantRole(bytes32,address)":"2f2ff15d","hasRole(bytes32,address)":"91d14854","initialize()":"8129fc1c","initialize(address)":"c4d66de8","proxiableUUID()":"52d1902d","registerDomain(uint256,address[])":"d37304f8","removeAddressFromWhitelist(address)":"286dd3f5","renounceRole(bytes32,address)":"36568abe","revokeRole(bytes32,address)":"d547741f","reward(address[],uint256[],address[])":"da33ee7f","rollOverEpoch()":"a887b71c","slash(address[],address[],uint256[],uint256[])":"a885c975","stake(address,address,uint256)":"bf6eac2f","stakeFor(address,address,uint256)":"2dd5567a","supportsInterface(bytes4)":"01ffc9a7","token()":"fc0c546a","unstake(address,address,uint256)":"60829f8a","unstakeFor(address,address,uint256)":"4974c679","upgradeToAndCall(address,bytes)":"4f1ef286","whitelistAddress(address)":"41566585"},"storageLayout":{"storage":[{"astId":49460,"contract":"src/staking/MovementStaking.sol:MovementStaking","label":"token","offset":0,"slot":"0","type":"t_contract(IERC20)42185"},{"astId":49465,"contract":"src/staking/MovementStaking.sol:MovementStaking","label":"epochDurationByDomain","offset":0,"slot":"1","type":"t_mapping(t_address,t_uint256)"},{"astId":49470,"contract":"src/staking/MovementStaking.sol:MovementStaking","label":"currentEpochByDomain","offset":0,"slot":"2","type":"t_mapping(t_address,t_uint256)"},{"astId":49476,"contract":"src/staking/MovementStaking.sol:MovementStaking","label":"attestersByDomain","offset":0,"slot":"3","type":"t_mapping(t_address,t_struct(AddressSet)45173_storage)"},{"astId":49482,"contract":"src/staking/MovementStaking.sol:MovementStaking","label":"custodiansByDomain","offset":0,"slot":"4","type":"t_mapping(t_address,t_struct(AddressSet)45173_storage)"},{"astId":49493,"contract":"src/staking/MovementStaking.sol:MovementStaking","label":"epochStakesByDomain","offset":0,"slot":"5","type":"t_mapping(t_address,t_mapping(t_uint256,t_mapping(t_address,t_mapping(t_address,t_uint256))))"},{"astId":49504,"contract":"src/staking/MovementStaking.sol:MovementStaking","label":"epochUnstakesByDomain","offset":0,"slot":"6","type":"t_mapping(t_address,t_mapping(t_uint256,t_mapping(t_address,t_mapping(t_address,t_uint256))))"},{"astId":49513,"contract":"src/staking/MovementStaking.sol:MovementStaking","label":"epochTotalStakeByDomain","offset":0,"slot":"7","type":"t_mapping(t_address,t_mapping(t_uint256,t_mapping(t_address,t_uint256)))"},{"astId":49518,"contract":"src/staking/MovementStaking.sol:MovementStaking","label":"domainGenesisAccepted","offset":0,"slot":"8","type":"t_mapping(t_address,t_bool)"},{"astId":42831,"contract":"src/staking/MovementStaking.sol:MovementStaking","label":"_status","offset":0,"slot":"9","type":"t_uint256"},{"astId":48018,"contract":"src/staking/MovementStaking.sol:MovementStaking","label":"epochDurations","offset":0,"slot":"10","type":"t_mapping(t_address,t_uint256)"}],"types":{"t_address":{"encoding":"inplace","label":"address","numberOfBytes":"20"},"t_array(t_bytes32)dyn_storage":{"encoding":"dynamic_array","label":"bytes32[]","numberOfBytes":"32","base":"t_bytes32"},"t_bool":{"encoding":"inplace","label":"bool","numberOfBytes":"1"},"t_bytes32":{"encoding":"inplace","label":"bytes32","numberOfBytes":"32"},"t_contract(IERC20)42185":{"encoding":"inplace","label":"contract IERC20","numberOfBytes":"20"},"t_mapping(t_address,t_bool)":{"encoding":"mapping","key":"t_address","label":"mapping(address => bool)","numberOfBytes":"32","value":"t_bool"},"t_mapping(t_address,t_mapping(t_address,t_uint256))":{"encoding":"mapping","key":"t_address","label":"mapping(address => mapping(address => uint256))","numberOfBytes":"32","value":"t_mapping(t_address,t_uint256)"},"t_mapping(t_address,t_mapping(t_uint256,t_mapping(t_address,t_mapping(t_address,t_uint256))))":{"encoding":"mapping","key":"t_address","label":"mapping(address => mapping(uint256 => mapping(address => mapping(address => uint256))))","numberOfBytes":"32","value":"t_mapping(t_uint256,t_mapping(t_address,t_mapping(t_address,t_uint256)))"},"t_mapping(t_address,t_mapping(t_uint256,t_mapping(t_address,t_uint256)))":{"encoding":"mapping","key":"t_address","label":"mapping(address => mapping(uint256 => mapping(address => uint256)))","numberOfBytes":"32","value":"t_mapping(t_uint256,t_mapping(t_address,t_uint256))"},"t_mapping(t_address,t_struct(AddressSet)45173_storage)":{"encoding":"mapping","key":"t_address","label":"mapping(address => struct EnumerableSet.AddressSet)","numberOfBytes":"32","value":"t_struct(AddressSet)45173_storage"},"t_mapping(t_address,t_uint256)":{"encoding":"mapping","key":"t_address","label":"mapping(address => uint256)","numberOfBytes":"32","value":"t_uint256"},"t_mapping(t_bytes32,t_uint256)":{"encoding":"mapping","key":"t_bytes32","label":"mapping(bytes32 => uint256)","numberOfBytes":"32","value":"t_uint256"},"t_mapping(t_uint256,t_mapping(t_address,t_mapping(t_address,t_uint256)))":{"encoding":"mapping","key":"t_uint256","label":"mapping(uint256 => mapping(address => mapping(address => uint256)))","numberOfBytes":"32","value":"t_mapping(t_address,t_mapping(t_address,t_uint256))"},"t_mapping(t_uint256,t_mapping(t_address,t_uint256))":{"encoding":"mapping","key":"t_uint256","label":"mapping(uint256 => mapping(address => uint256))","numberOfBytes":"32","value":"t_mapping(t_address,t_uint256)"},"t_struct(AddressSet)45173_storage":{"encoding":"inplace","label":"struct EnumerableSet.AddressSet","numberOfBytes":"64","members":[{"astId":45172,"contract":"src/staking/MovementStaking.sol:MovementStaking","label":"_inner","offset":0,"slot":"0","type":"t_struct(Set)44858_storage"}]},"t_struct(Set)44858_storage":{"encoding":"inplace","label":"struct EnumerableSet.Set","numberOfBytes":"64","members":[{"astId":44853,"contract":"src/staking/MovementStaking.sol:MovementStaking","label":"_values","offset":0,"slot":"0","type":"t_array(t_bytes32)dyn_storage"},{"astId":44857,"contract":"src/staking/MovementStaking.sol:MovementStaking","label":"_positions","offset":0,"slot":"1","type":"t_mapping(t_bytes32,t_uint256)"}]},"t_uint256":{"encoding":"inplace","label":"uint256","numberOfBytes":"32"}}},"id":66}