{"abi":[{"type":"constructor","inputs":[],"stateMutability":"nonpayable"},{"type":"function","name":"DEFAULT_ADMIN_ROLE","inputs":[],"outputs":[{"name":"","type":"bytes32","internalType":"bytes32"}],"stateMutability":"view"},{"type":"function","name":"DOMAIN_SEPARATOR","inputs":[],"outputs":[{"name":"","type":"bytes32","internalType":"bytes32"}],"stateMutability":"view"},{"type":"function","name":"allowance","inputs":[{"name":"owner","type":"address","internalType":"address"},{"name":"spender","type":"address","internalType":"address"}],"outputs":[{"name":"","type":"uint256","internalType":"uint256"}],"stateMutability":"view"},{"type":"function","name":"approve","inputs":[{"name":"spender","type":"address","internalType":"address"},{"name":"value","type":"uint256","internalType":"uint256"}],"outputs":[{"name":"","type":"bool","internalType":"bool"}],"stateMutability":"nonpayable"},{"type":"function","name":"balanceOf","inputs":[{"name":"account","type":"address","internalType":"address"}],"outputs":[{"name":"","type":"uint256","internalType":"uint256"}],"stateMutability":"view"},{"type":"function","name":"decimals","inputs":[],"outputs":[{"name":"","type":"uint8","internalType":"uint8"}],"stateMutability":"pure"},{"type":"function","name":"eip712Domain","inputs":[],"outputs":[{"name":"fields","type":"bytes1","internalType":"bytes1"},{"name":"name","type":"string","internalType":"string"},{"name":"version","type":"string","internalType":"string"},{"name":"chainId","type":"uint256","internalType":"uint256"},{"name":"verifyingContract","type":"address","internalType":"address"},{"name":"salt","type":"bytes32","internalType":"bytes32"},{"name":"extensions","type":"uint256[]","internalType":"uint256[]"}],"stateMutability":"view"},{"type":"function","name":"getRoleAdmin","inputs":[{"name":"role","type":"bytes32","internalType":"bytes32"}],"outputs":[{"name":"","type":"bytes32","internalType":"bytes32"}],"stateMutability":"view"},{"type":"function","name":"grantRole","inputs":[{"name":"role","type":"bytes32","internalType":"bytes32"},{"name":"account","type":"address","internalType":"address"}],"outputs":[],"stateMutability":"nonpayable"},{"type":"function","name":"hasRole","inputs":[{"name":"role","type":"bytes32","internalType":"bytes32"},{"name":"account","type":"address","internalType":"address"}],"outputs":[{"name":"","type":"bool","internalType":"bool"}],"stateMutability":"view"},{"type":"function","name":"initialize","inputs":[{"name":"_owner","type":"address","internalType":"address"},{"name":"_custody","type":"address","internalType":"address"}],"outputs":[],"stateMutability":"nonpayable"},{"type":"function","name":"name","inputs":[],"outputs":[{"name":"","type":"string","internalType":"string"}],"stateMutability":"view"},{"type":"function","name":"nonces","inputs":[{"name":"owner","type":"address","internalType":"address"}],"outputs":[{"name":"","type":"uint256","internalType":"uint256"}],"stateMutability":"view"},{"type":"function","name":"permit","inputs":[{"name":"owner","type":"address","internalType":"address"},{"name":"spender","type":"address","internalType":"address"},{"name":"value","type":"uint256","internalType":"uint256"},{"name":"deadline","type":"uint256","internalType":"uint256"},{"name":"v","type":"uint8","internalType":"uint8"},{"name":"r","type":"bytes32","internalType":"bytes32"},{"name":"s","type":"bytes32","internalType":"bytes32"}],"outputs":[],"stateMutability":"nonpayable"},{"type":"function","name":"renounceRole","inputs":[{"name":"role","type":"bytes32","internalType":"bytes32"},{"name":"callerConfirmation","type":"address","internalType":"address"}],"outputs":[],"stateMutability":"nonpayable"},{"type":"function","name":"revokeRole","inputs":[{"name":"role","type":"bytes32","internalType":"bytes32"},{"name":"account","type":"address","internalType":"address"}],"outputs":[],"stateMutability":"nonpayable"},{"type":"function","name":"supportsInterface","inputs":[{"name":"interfaceId","type":"bytes4","internalType":"bytes4"}],"outputs":[{"name":"","type":"bool","internalType":"bool"}],"stateMutability":"view"},{"type":"function","name":"symbol","inputs":[],"outputs":[{"name":"","type":"string","internalType":"string"}],"stateMutability":"view"},{"type":"function","name":"totalSupply","inputs":[],"outputs":[{"name":"","type":"uint256","internalType":"uint256"}],"stateMutability":"view"},{"type":"function","name":"transfer","inputs":[{"name":"to","type":"address","internalType":"address"},{"name":"value","type":"uint256","internalType":"uint256"}],"outputs":[{"name":"","type":"bool","internalType":"bool"}],"stateMutability":"nonpayable"},{"type":"function","name":"transferFrom","inputs":[{"name":"from","type":"address","internalType":"address"},{"name":"to","type":"address","internalType":"address"},{"name":"value","type":"uint256","internalType":"uint256"}],"outputs":[{"name":"","type":"bool","internalType":"bool"}],"stateMutability":"nonpayable"},{"type":"event","name":"Approval","inputs":[{"name":"owner","type":"address","indexed":true,"internalType":"address"},{"name":"spender","type":"address","indexed":true,"internalType":"address"},{"name":"value","type":"uint256","indexed":false,"internalType":"uint256"}],"anonymous":false},{"type":"event","name":"EIP712DomainChanged","inputs":[],"anonymous":false},{"type":"event","name":"Initialized","inputs":[{"name":"version","type":"uint64","indexed":false,"internalType":"uint64"}],"anonymous":false},{"type":"event","name":"RoleAdminChanged","inputs":[{"name":"role","type":"bytes32","indexed":true,"internalType":"bytes32"},{"name":"previousAdminRole","type":"bytes32","indexed":true,"internalType":"bytes32"},{"name":"newAdminRole","type":"bytes32","indexed":true,"internalType":"bytes32"}],"anonymous":false},{"type":"event","name":"RoleGranted","inputs":[{"name":"role","type":"bytes32","indexed":true,"internalType":"bytes32"},{"name":"account","type":"address","indexed":true,"internalType":"address"},{"name":"sender","type":"address","indexed":true,"internalType":"address"}],"anonymous":false},{"type":"event","name":"RoleRevoked","inputs":[{"name":"role","type":"bytes32","indexed":true,"internalType":"bytes32"},{"name":"account","type":"address","indexed":true,"internalType":"address"},{"name":"sender","type":"address","indexed":true,"internalType":"address"}],"anonymous":false},{"type":"event","name":"Transfer","inputs":[{"name":"from","type":"address","indexed":true,"internalType":"address"},{"name":"to","type":"address","indexed":true,"internalType":"address"},{"name":"value","type":"uint256","indexed":false,"internalType":"uint256"}],"anonymous":false},{"type":"error","name":"AccessControlBadConfirmation","inputs":[]},{"type":"error","name":"AccessControlUnauthorizedAccount","inputs":[{"name":"account","type":"address","internalType":"address"},{"name":"neededRole","type":"bytes32","internalType":"bytes32"}]},{"type":"error","name":"ECDSAInvalidSignature","inputs":[]},{"type":"error","name":"ECDSAInvalidSignatureLength","inputs":[{"name":"length","type":"uint256","internalType":"uint256"}]},{"type":"error","name":"ECDSAInvalidSignatureS","inputs":[{"name":"s","type":"bytes32","internalType":"bytes32"}]},{"type":"error","name":"ERC20InsufficientAllowance","inputs":[{"name":"spender","type":"address","internalType":"address"},{"name":"allowance","type":"uint256","internalType":"uint256"},{"name":"needed","type":"uint256","internalType":"uint256"}]},{"type":"error","name":"ERC20InsufficientBalance","inputs":[{"name":"sender","type":"address","internalType":"address"},{"name":"balance","type":"uint256","internalType":"uint256"},{"name":"needed","type":"uint256","internalType":"uint256"}]},{"type":"error","name":"ERC20InvalidApprover","inputs":[{"name":"approver","type":"address","internalType":"address"}]},{"type":"error","name":"ERC20InvalidReceiver","inputs":[{"name":"receiver","type":"address","internalType":"address"}]},{"type":"error","name":"ERC20InvalidSender","inputs":[{"name":"sender","type":"address","internalType":"address"}]},{"type":"error","name":"ERC20InvalidSpender","inputs":[{"name":"spender","type":"address","internalType":"address"}]},{"type":"error","name":"ERC2612ExpiredSignature","inputs":[{"name":"deadline","type":"uint256","internalType":"uint256"}]},{"type":"error","name":"ERC2612InvalidSigner","inputs":[{"name":"signer","type":"address","internalType":"address"},{"name":"owner","type":"address","internalType":"address"}]},{"type":"error","name":"InvalidAccountNonce","inputs":[{"name":"account","type":"address","internalType":"address"},{"name":"currentNonce","type":"uint256","internalType":"uint256"}]},{"type":"error","name":"InvalidInitialization","inputs":[]},{"type":"error","name":"NotInitializing","inputs":[]}],"bytecode":{"object":"0x6080604052348015600f57600080fd5b506016601a565b60ca565b7ff0c57e16840df040f15088dc2f81fe391c3923bec73e23a9662efc9c229c6a00805468010000000000000000900460ff161560695760405163f92ee8a960e01b815260040160405180910390fd5b80546001600160401b039081161460c75780546001600160401b0319166001600160401b0390811782556040519081527fc7f505b2f371ae2175ee4913f4499e1f2633a7b5936321eed1cdaeb6115181d29060200160405180910390a15b50565b6118b5806100d96000396000f3fe608060405234801561001057600080fd5b50600436106101375760003560e01c8063485cc955116100b857806395d89b411161007c57806395d89b4114610289578063a217fddf14610291578063a9059cbb14610299578063d505accf146102ac578063d547741f146102bf578063dd62ed3e146102d257600080fd5b8063485cc9551461022257806370a08231146102355780637ecebe001461024857806384b0196e1461025b57806391d148541461027657600080fd5b8063248a9ca3116100ff578063248a9ca3146101d05780632f2ff15d146101e3578063313ce567146101f85780633644e5151461020757806336568abe1461020f57600080fd5b806301ffc9a71461013c57806306fdde0314610164578063095ea7b31461017957806318160ddd1461018c57806323b872dd146101bd575b600080fd5b61014f61014a3660046112db565b6102e5565b60405190151581526020015b60405180910390f35b61016c61031c565b60405161015b9190611352565b61014f610187366004611381565b6103c5565b7f52c63247e1f47db19d5ce0460030c497f067ca4cebf71ba98eeadabe20bace02545b60405190815260200161015b565b61014f6101cb3660046113ab565b6103dd565b6101af6101de3660046113e8565b610401565b6101f66101f1366004611401565b610423565b005b6040516008815260200161015b565b6101af610445565b6101f661021d366004611401565b610454565b6101f661023036600461142d565b61048c565b6101af610243366004611457565b610676565b6101af610256366004611457565b6106a9565b6102636106b4565b60405161015b9796959493929190611472565b61014f610284366004611401565b610765565b61016c61079d565b6101af600081565b61014f6102a7366004611381565b6107dc565b6101f66102ba36600461150a565b6107ea565b6101f66102cd366004611401565b610943565b6101af6102e036600461142d565b61095f565b60006001600160e01b03198216637965db0b60e01b148061031657506301ffc9a760e01b6001600160e01b03198316145b92915050565b606060006000805160206118208339815191525b90508060030180546103419061157d565b80601f016020809104026020016040519081016040528092919081815260200182805461036d9061157d565b80156103ba5780601f1061038f576101008083540402835291602001916103ba565b820191906000526020600020905b81548152906001019060200180831161039d57829003601f168201915b505050505091505090565b6000336103d38185856109a9565b5060019392505050565b6000336103eb8582856109b6565b6103f6858585610a17565b506001949350505050565b6000908152600080516020611860833981519152602052604090206001015490565b61042c82610401565b61043581610a76565b61043f8383610a83565b50505050565b600061044f610b28565b905090565b6001600160a01b038116331461047d5760405163334bd91960e11b815260040160405180910390fd5b6104878282610b32565b505050565b7ff0c57e16840df040f15088dc2f81fe391c3923bec73e23a9662efc9c229c6a008054600160401b810460ff16159067ffffffffffffffff166000811580156104d25750825b905060008267ffffffffffffffff1660011480156104ef5750303b155b9050811580156104fd575080155b1561051b5760405163f92ee8a960e01b815260040160405180910390fd5b845467ffffffffffffffff19166001178555831561054557845460ff60401b1916600160401b1785555b6001600160a01b0387161580159061056557506001600160a01b03861615155b61056e57600080fd5b6105b460405180604001604052806008815260200167135bdd995b595b9d60c21b815250604051806040016040528060048152602001634d4f564560e01b815250610bae565b6105f760405180604001604052806008815260200167135bdd995b595b9d60c21b815250604051806040016040528060018152602001603160f81b815250610bc4565b610602600088610a83565b50610627866106136008600a6116b4565b610622906402540be4006116c3565b610c25565b831561066d57845460ff60401b19168555604051600181527fc7f505b2f371ae2175ee4913f4499e1f2633a7b5936321eed1cdaeb6115181d29060200160405180910390a15b50505050505050565b6000806000805160206118208339815191525b6001600160a01b0390931660009081526020939093525050604090205490565b600061031682610c5b565b6000606080828080838160008051602061184083398151915280549091501580156106e157506001810154155b61072a5760405162461bcd60e51b81526020600482015260156024820152741152540dcc4c8e88155b9a5b9a5d1a585b1a5e9959605a1b60448201526064015b60405180910390fd5b610732610c84565b61073a610cc3565b60408051600080825260208201909252600f60f81b9c939b5091995046985030975095509350915050565b6000918252600080516020611860833981519152602090815260408084206001600160a01b0393909316845291905290205460ff1690565b7f52c63247e1f47db19d5ce0460030c497f067ca4cebf71ba98eeadabe20bace048054606091600080516020611820833981519152916103419061157d565b6000336103d3818585610a17565b8342111561080e5760405163313c898160e11b815260048101859052602401610721565b60007f6e71edae12b1b97f4d1f60370fef10105fa2faae0126114a169c64845d6126c988888861087a8c6001600160a01b031660009081527f5ab42ced628888259c08ac98db1eb0cf702fc1501344311d8b100cd1bfe4bb006020526040902080546001810190915590565b6040805160208101969096526001600160a01b0394851690860152929091166060840152608083015260a082015260c0810186905260e00160405160208183030381529060405280519060200120905060006108d582610cdb565b905060006108e582878787610d08565b9050896001600160a01b0316816001600160a01b03161461092c576040516325c0072360e11b81526001600160a01b0380831660048301528b166024820152604401610721565b6109378a8a8a6109a9565b50505050505050505050565b61094c82610401565b61095581610a76565b61043f8383610b32565b6001600160a01b0391821660009081527f52c63247e1f47db19d5ce0460030c497f067ca4cebf71ba98eeadabe20bace016020908152604080832093909416825291909152205490565b6104878383836001610d36565b60006109c2848461095f565b905060001981101561043f5781811015610a0857604051637dc7a0d960e11b81526001600160a01b03841660048201526024810182905260448101839052606401610721565b61043f84848484036000610d36565b6001600160a01b038316610a4157604051634b637e8f60e11b815260006004820152602401610721565b6001600160a01b038216610a6b5760405163ec442f0560e01b815260006004820152602401610721565b610487838383610e1e565b610a808133610f5c565b50565b6000600080516020611860833981519152610a9e8484610765565b610b1e576000848152602082815260408083206001600160a01b03871684529091529020805460ff19166001179055610ad43390565b6001600160a01b0316836001600160a01b0316857f2f8788117e7eff1d82e926ec794901d17c78024a50270940304540a733656f0d60405160405180910390a46001915050610316565b6000915050610316565b600061044f610f95565b6000600080516020611860833981519152610b4d8484610765565b15610b1e576000848152602082815260408083206001600160a01b0387168085529252808320805460ff1916905551339287917ff6391f5c32d9c69d2a47ea670b442974b53935d1edc7fd64eb21e047a839171b9190a46001915050610316565b610bb6611009565b610bc08282611054565b5050565b610bcc611009565b6000805160206118408339815191527fa16a46d94261c7517cc8ff89f61c0ce93598e3c849801011dee649a6a557d102610c068482611737565b5060038101610c158382611737565b5060008082556001909101555050565b6001600160a01b038216610c4f5760405163ec442f0560e01b815260006004820152602401610721565b610bc060008383610e1e565b6000807f5ab42ced628888259c08ac98db1eb0cf702fc1501344311d8b100cd1bfe4bb00610689565b7fa16a46d94261c7517cc8ff89f61c0ce93598e3c849801011dee649a6a557d1028054606091600080516020611840833981519152916103419061157d565b60606000600080516020611840833981519152610330565b6000610316610ce8610b28565b8360405161190160f01b8152600281019290925260228201526042902090565b600080600080610d1a888888886110a5565b925092509250610d2a8282611174565b50909695505050505050565b6000805160206118208339815191526001600160a01b038516610d6f5760405163e602df0560e01b815260006004820152602401610721565b6001600160a01b038416610d9957604051634a1406b160e11b815260006004820152602401610721565b6001600160a01b03808616600090815260018301602090815260408083209388168352929052208390558115610e1757836001600160a01b0316856001600160a01b03167f8c5be1e5ebec7d5bd14f71427d1e84f3dd0314c0f7b2291e5b200ac8c7c3b92585604051610e0e91815260200190565b60405180910390a35b5050505050565b6000805160206118208339815191526001600160a01b038416610e5a5781816002016000828254610e4f91906117f6565b90915550610ecc9050565b6001600160a01b03841660009081526020829052604090205482811015610ead5760405163391434e360e21b81526001600160a01b03861660048201526024810182905260448101849052606401610721565b6001600160a01b03851660009081526020839052604090209083900390555b6001600160a01b038316610eea576002810180548390039055610f09565b6001600160a01b03831660009081526020829052604090208054830190555b826001600160a01b0316846001600160a01b03167fddf252ad1be2c89b69c2b068fc378daa952ba7f163c4a11628f55a4df523b3ef84604051610f4e91815260200190565b60405180910390a350505050565b610f668282610765565b610bc05760405163e2517d3f60e01b81526001600160a01b038216600482015260248101839052604401610721565b60007f8b73c3c69bb8fe3d512ecc4cf759cc79239f7b179b0ffacaa9a75d522b39400f610fc061122d565b610fc8611297565b60408051602081019490945283019190915260608201524660808201523060a082015260c00160405160208183030381529060405280519060200120905090565b7ff0c57e16840df040f15088dc2f81fe391c3923bec73e23a9662efc9c229c6a0054600160401b900460ff1661105257604051631afcd79f60e31b815260040160405180910390fd5b565b61105c611009565b6000805160206118208339815191527f52c63247e1f47db19d5ce0460030c497f067ca4cebf71ba98eeadabe20bace036110968482611737565b506004810161043f8382611737565b600080807f7fffffffffffffffffffffffffffffff5d576e7357a4501ddfe92f46681b20a08411156110e0575060009150600390508261116a565b604080516000808252602082018084528a905260ff891692820192909252606081018790526080810186905260019060a0016020604051602081039080840390855afa158015611134573d6000803e3d6000fd5b5050604051601f1901519150506001600160a01b0381166111605750600092506001915082905061116a565b9250600091508190505b9450945094915050565b600082600381111561118857611188611809565b03611191575050565b60018260038111156111a5576111a5611809565b036111c35760405163f645eedf60e01b815260040160405180910390fd5b60028260038111156111d7576111d7611809565b036111f85760405163fce698f760e01b815260048101829052602401610721565b600382600381111561120c5761120c611809565b03610bc0576040516335e2f38360e21b815260048101829052602401610721565b600060008051602061184083398151915281611247610c84565b80519091501561125f57805160209091012092915050565b8154801561126e579392505050565b7fc5d2460186f7233c927e7db2dcc703c0e500b653ca82273b7bfad8045d85a470935050505090565b6000600080516020611840833981519152816112b1610cc3565b8051909150156112c957805160209091012092915050565b6001820154801561126e579392505050565b6000602082840312156112ed57600080fd5b81356001600160e01b03198116811461130557600080fd5b9392505050565b6000815180845260005b8181101561133257602081850181015186830182015201611316565b506000602082860101526020601f19601f83011685010191505092915050565b602081526000611305602083018461130c565b80356001600160a01b038116811461137c57600080fd5b919050565b6000806040838503121561139457600080fd5b61139d83611365565b946020939093013593505050565b6000806000606084860312156113c057600080fd5b6113c984611365565b92506113d760208501611365565b929592945050506040919091013590565b6000602082840312156113fa57600080fd5b5035919050565b6000806040838503121561141457600080fd5b8235915061142460208401611365565b90509250929050565b6000806040838503121561144057600080fd5b61144983611365565b915061142460208401611365565b60006020828403121561146957600080fd5b61130582611365565b60ff60f81b8816815260e06020820152600061149160e083018961130c565b82810360408401526114a3818961130c565b606084018890526001600160a01b038716608085015260a0840186905283810360c08501528451808252602080870193509091019060005b818110156114f95783518352602093840193909201916001016114db565b50909b9a5050505050505050505050565b600080600080600080600060e0888a03121561152557600080fd5b61152e88611365565b965061153c60208901611365565b95506040880135945060608801359350608088013560ff8116811461156057600080fd5b9699959850939692959460a0840135945060c09093013592915050565b600181811c9082168061159157607f821691505b6020821081036115b157634e487b7160e01b600052602260045260246000fd5b50919050565b634e487b7160e01b600052601160045260246000fd5b6001815b6001841115611608578085048111156115ec576115ec6115b7565b60018416156115fa57908102905b60019390931c9280026115d1565b935093915050565b60008261161f57506001610316565b8161162c57506000610316565b8160018114611642576002811461164c57611668565b6001915050610316565b60ff84111561165d5761165d6115b7565b50506001821b610316565b5060208310610133831016604e8410600b841016171561168b575081810a610316565b61169860001984846115cd565b80600019048211156116ac576116ac6115b7565b029392505050565b600061130560ff841683611610565b8082028115828204841417610316576103166115b7565b634e487b7160e01b600052604160045260246000fd5b601f82111561048757806000526020600020601f840160051c810160208510156117175750805b601f840160051c820191505b81811015610e175760008155600101611723565b815167ffffffffffffffff811115611751576117516116da565b6117658161175f845461157d565b846116f0565b6020601f82116001811461179957600083156117815750848201515b600019600385901b1c1916600184901b178455610e17565b600084815260208120601f198516915b828110156117c957878501518255602094850194600190920191016117a9565b50848210156117e75786840151600019600387901b60f8161c191681555b50505050600190811b01905550565b80820180821115610316576103166115b7565b634e487b7160e01b600052602160045260246000fdfe52c63247e1f47db19d5ce0460030c497f067ca4cebf71ba98eeadabe20bace00a16a46d94261c7517cc8ff89f61c0ce93598e3c849801011dee649a6a557d10002dd7bc7dec4dceedda775e58dd541e08a116c6c53815c0bd028192f7b626800a2646970667358221220822098eb798f70ac2f6fae171eff621feb95512c5191ff1d1bbbc580d438357264736f6c634300081a0033","linkReferences":{}},"methodIdentifiers":{"DEFAULT_ADMIN_ROLE()":"a217fddf","DOMAIN_SEPARATOR()":"3644e515","allowance(address,address)":"dd62ed3e","approve(address,uint256)":"095ea7b3","balanceOf(address)":"70a08231","decimals()":"313ce567","eip712Domain()":"84b0196e","getRoleAdmin(bytes32)":"248a9ca3","grantRole(bytes32,address)":"2f2ff15d","hasRole(bytes32,address)":"91d14854","initialize(address,address)":"485cc955","name()":"06fdde03","nonces(address)":"7ecebe00","permit(address,address,uint256,uint256,uint8,bytes32,bytes32)":"d505accf","renounceRole(bytes32,address)":"36568abe","revokeRole(bytes32,address)":"d547741f","supportsInterface(bytes4)":"01ffc9a7","symbol()":"95d89b41","totalSupply()":"18160ddd","transfer(address,uint256)":"a9059cbb","transferFrom(address,address,uint256)":"23b872dd"},"id":115}