{"abi":[{"type":"function","name":"DEFAULT_ADMIN_ROLE","inputs":[],"outputs":[{"name":"","type":"bytes32","internalType":"bytes32"}],"stateMutability":"view"},{"type":"function","name":"UPGRADE_INTERFACE_VERSION","inputs":[],"outputs":[{"name":"","type":"string","internalType":"string"}],"stateMutability":"view"},{"type":"function","name":"WHITELIST_ROLE","inputs":[],"outputs":[{"name":"","type":"bytes32","internalType":"bytes32"}],"stateMutability":"view"},{"type":"function","name":"acceptGenesisCeremony","inputs":[],"outputs":[],"stateMutability":"nonpayable"},{"type":"function","name":"computeAllStake","inputs":[{"name":"domain","type":"address","internalType":"address"},{"name":"epoch","type":"uint256","internalType":"uint256"}],"outputs":[{"name":"","type":"uint256","internalType":"uint256"}],"stateMutability":"view"},{"type":"function","name":"computeAllStakeForAcceptingEpoch","inputs":[{"name":"domain","type":"address","internalType":"address"}],"outputs":[{"name":"","type":"uint256","internalType":"uint256"}],"stateMutability":"view"},{"type":"function","name":"currentAcceptingEpochByDomain","inputs":[{"name":"domain","type":"address","internalType":"address"}],"outputs":[{"name":"currentAcceptingEpoch","type":"uint256","internalType":"uint256"}],"stateMutability":"view"},{"type":"function","name":"domainGenesisAccepted","inputs":[{"name":"domain","type":"address","internalType":"address"}],"outputs":[{"name":"","type":"bool","internalType":"bool"}],"stateMutability":"view"},{"type":"function","name":"epochDurationByDomain","inputs":[{"name":"domain","type":"address","internalType":"address"}],"outputs":[{"name":"epochDuration","type":"uint256","internalType":"uint256"}],"stateMutability":"view"},{"type":"function","name":"getAcceptingEpoch","inputs":[{"name":"domain","type":"address","internalType":"address"}],"outputs":[{"name":"","type":"uint256","internalType":"uint256"}],"stateMutability":"view"},{"type":"function","name":"getAttesterStake","inputs":[{"name":"domain","type":"address","internalType":"address"},{"name":"epoch","type":"uint256","internalType":"uint256"},{"name":"attester","type":"address","internalType":"address"}],"outputs":[{"name":"","type":"uint256","internalType":"uint256"}],"stateMutability":"view"},{"type":"function","name":"getAttesterStakeForAcceptingEpoch","inputs":[{"name":"domain","type":"address","internalType":"address"},{"name":"attester","type":"address","internalType":"address"}],"outputs":[{"name":"","type":"uint256","internalType":"uint256"}],"stateMutability":"view"},{"type":"function","name":"getCustodianStake","inputs":[{"name":"domain","type":"address","internalType":"address"},{"name":"epoch","type":"uint256","internalType":"uint256"},{"name":"custodian","type":"address","internalType":"address"}],"outputs":[{"name":"","type":"uint256","internalType":"uint256"}],"stateMutability":"view"},{"type":"function","name":"getCustodianStakeForAcceptingEpoch","inputs":[{"name":"domain","type":"address","internalType":"address"},{"name":"custodian","type":"address","internalType":"address"}],"outputs":[{"name":"","type":"uint256","internalType":"uint256"}],"stateMutability":"view"},{"type":"function","name":"getEpochByL1BlockTime","inputs":[{"name":"domain","type":"address","internalType":"address"}],"outputs":[{"name":"","type":"uint256","internalType":"uint256"}],"stateMutability":"view"},{"type":"function","name":"getEpochDuration","inputs":[{"name":"domain","type":"address","internalType":"address"}],"outputs":[{"name":"","type":"uint256","internalType":"uint256"}],"stateMutability":"view"},{"type":"function","name":"getNextAcceptingEpochWithException","inputs":[{"name":"domain","type":"address","internalType":"address"}],"outputs":[{"name":"","type":"uint256","internalType":"uint256"}],"stateMutability":"view"},{"type":"function","name":"getNextPresentEpochWithException","inputs":[{"name":"domain","type":"address","internalType":"address"}],"outputs":[{"name":"","type":"uint256","internalType":"uint256"}],"stateMutability":"view"},{"type":"function","name":"getRegisteredAttesters","inputs":[{"name":"domain","type":"address","internalType":"address"}],"outputs":[{"name":"","type":"address[]","internalType":"address[]"}],"stateMutability":"view"},{"type":"function","name":"getRegisteredCustodians","inputs":[{"name":"domain","type":"address","internalType":"address"}],"outputs":[{"name":"","type":"address[]","internalType":"address[]"}],"stateMutability":"view"},{"type":"function","name":"getRoleAdmin","inputs":[{"name":"role","type":"bytes32","internalType":"bytes32"}],"outputs":[{"name":"","type":"bytes32","internalType":"bytes32"}],"stateMutability":"view"},{"type":"function","name":"getStake","inputs":[{"name":"domain","type":"address","internalType":"address"},{"name":"epoch","type":"uint256","internalType":"uint256"},{"name":"custodian","type":"address","internalType":"address"},{"name":"attester","type":"address","internalType":"address"}],"outputs":[{"name":"","type":"uint256","internalType":"uint256"}],"stateMutability":"view"},{"type":"function","name":"getStakeForAcceptingEpoch","inputs":[{"name":"domain","type":"address","internalType":"address"},{"name":"custodian","type":"address","internalType":"address"},{"name":"attester","type":"address","internalType":"address"}],"outputs":[{"name":"","type":"uint256","internalType":"uint256"}],"stateMutability":"view"},{"type":"function","name":"getStakedAttestersForAcceptingEpoch","inputs":[{"name":"domain","type":"address","internalType":"address"}],"outputs":[{"name":"","type":"address[]","internalType":"address[]"}],"stateMutability":"view"},{"type":"function","name":"getUnstake","inputs":[{"name":"domain","type":"address","internalType":"address"},{"name":"epoch","type":"uint256","internalType":"uint256"},{"name":"custodian","type":"address","internalType":"address"},{"name":"attester","type":"address","internalType":"address"}],"outputs":[{"name":"","type":"uint256","internalType":"uint256"}],"stateMutability":"view"},{"type":"function","name":"getUnstakeForAcceptingEpoch","inputs":[{"name":"domain","type":"address","internalType":"address"},{"name":"custodian","type":"address","internalType":"address"},{"name":"attester","type":"address","internalType":"address"}],"outputs":[{"name":"","type":"uint256","internalType":"uint256"}],"stateMutability":"view"},{"type":"function","name":"grantRole","inputs":[{"name":"role","type":"bytes32","internalType":"bytes32"},{"name":"account","type":"address","internalType":"address"}],"outputs":[],"stateMutability":"nonpayable"},{"type":"function","name":"hasRole","inputs":[{"name":"role","type":"bytes32","internalType":"bytes32"},{"name":"account","type":"address","internalType":"address"}],"outputs":[{"name":"","type":"bool","internalType":"bool"}],"stateMutability":"view"},{"type":"function","name":"initialize","inputs":[],"outputs":[],"stateMutability":"nonpayable"},{"type":"function","name":"initialize","inputs":[{"name":"_token","type":"address","internalType":"contract IERC20"}],"outputs":[],"stateMutability":"nonpayable"},{"type":"function","name":"proxiableUUID","inputs":[],"outputs":[{"name":"","type":"bytes32","internalType":"bytes32"}],"stateMutability":"view"},{"type":"function","name":"registerDomain","inputs":[{"name":"epochDuration","type":"uint256","internalType":"uint256"},{"name":"custodians","type":"address[]","internalType":"address[]"}],"outputs":[],"stateMutability":"nonpayable"},{"type":"function","name":"removeAddressFromWhitelist","inputs":[{"name":"addr","type":"address","internalType":"address"}],"outputs":[],"stateMutability":"nonpayable"},{"type":"function","name":"renounceRole","inputs":[{"name":"role","type":"bytes32","internalType":"bytes32"},{"name":"callerConfirmation","type":"address","internalType":"address"}],"outputs":[],"stateMutability":"nonpayable"},{"type":"function","name":"revokeRole","inputs":[{"name":"role","type":"bytes32","internalType":"bytes32"},{"name":"account","type":"address","internalType":"address"}],"outputs":[],"stateMutability":"nonpayable"},{"type":"function","name":"rewardArray","inputs":[{"name":"attesters","type":"address[]","internalType":"address[]"},{"name":"amounts","type":"uint256[]","internalType":"uint256[]"},{"name":"custodians","type":"address[]","internalType":"address[]"}],"outputs":[],"stateMutability":"nonpayable"},{"type":"function","name":"rewardFromDomain","inputs":[{"name":"attester","type":"address","internalType":"address"},{"name":"amount","type":"uint256","internalType":"uint256"},{"name":"custodian","type":"address","internalType":"address"}],"outputs":[],"stateMutability":"nonpayable"},{"type":"function","name":"rollOverEpoch","inputs":[],"outputs":[],"stateMutability":"nonpayable"},{"type":"function","name":"setAcceptingEpoch","inputs":[{"name":"domain","type":"address","internalType":"address"},{"name":"newEpoch","type":"uint256","internalType":"uint256"}],"outputs":[],"stateMutability":"nonpayable"},{"type":"function","name":"slash","inputs":[{"name":"custodians","type":"address[]","internalType":"address[]"},{"name":"attesters","type":"address[]","internalType":"address[]"},{"name":"amounts","type":"uint256[]","internalType":"uint256[]"},{"name":"refundAmounts","type":"uint256[]","internalType":"uint256[]"}],"outputs":[],"stateMutability":"nonpayable"},{"type":"function","name":"stake","inputs":[{"name":"domain","type":"address","internalType":"address"},{"name":"custodian","type":"address","internalType":"contract IERC20"},{"name":"amount","type":"uint256","internalType":"uint256"}],"outputs":[],"stateMutability":"nonpayable"},{"type":"function","name":"stakesByDomainEpochCustodian","inputs":[{"name":"domain","type":"address","internalType":"address"},{"name":"epoch","type":"uint256","internalType":"uint256"},{"name":"custodian","type":"address","internalType":"address"}],"outputs":[{"name":"stake","type":"uint256","internalType":"uint256"}],"stateMutability":"view"},{"type":"function","name":"stakesByDomainEpochCustodianAttester","inputs":[{"name":"domain","type":"address","internalType":"address"},{"name":"epoch","type":"uint256","internalType":"uint256"},{"name":"custodian","type":"address","internalType":"address"},{"name":"attester","type":"address","internalType":"address"}],"outputs":[{"name":"stake","type":"uint256","internalType":"uint256"}],"stateMutability":"view"},{"type":"function","name":"supportsInterface","inputs":[{"name":"interfaceId","type":"bytes4","internalType":"bytes4"}],"outputs":[{"name":"","type":"bool","internalType":"bool"}],"stateMutability":"view"},{"type":"function","name":"token","inputs":[],"outputs":[{"name":"","type":"address","internalType":"contract IERC20"}],"stateMutability":"view"},{"type":"function","name":"unstake","inputs":[{"name":"domain","type":"address","internalType":"address"},{"name":"custodian","type":"address","internalType":"address"},{"name":"amount","type":"uint256","internalType":"uint256"}],"outputs":[],"stateMutability":"nonpayable"},{"type":"function","name":"unstakesByDomainEpochCustodianAttester","inputs":[{"name":"domain","type":"address","internalType":"address"},{"name":"epoch","type":"uint256","internalType":"uint256"},{"name":"custodian","type":"address","internalType":"address"},{"name":"attester","type":"address","internalType":"address"}],"outputs":[{"name":"stake","type":"uint256","internalType":"uint256"}],"stateMutability":"view"},{"type":"function","name":"upgradeToAndCall","inputs":[{"name":"newImplementation","type":"address","internalType":"address"},{"name":"data","type":"bytes","internalType":"bytes"}],"outputs":[],"stateMutability":"payable"},{"type":"function","name":"whitelistAddress","inputs":[{"name":"addr","type":"address","internalType":"address"}],"outputs":[],"stateMutability":"nonpayable"},{"type":"event","name":"AttesterEpochRolledOver","inputs":[{"name":"attester","type":"address","indexed":true,"internalType":"address"},{"name":"epoch","type":"uint256","indexed":true,"internalType":"uint256"},{"name":"custodian","type":"address","indexed":true,"internalType":"address"},{"name":"stake","type":"uint256","indexed":false,"internalType":"uint256"},{"name":"unstake","type":"uint256","indexed":false,"internalType":"uint256"}],"anonymous":false},{"type":"event","name":"AttesterStaked","inputs":[{"name":"domain","type":"address","indexed":true,"internalType":"address"},{"name":"epoch","type":"uint256","indexed":true,"internalType":"uint256"},{"name":"custodian","type":"address","indexed":true,"internalType":"address"},{"name":"attester","type":"address","indexed":false,"internalType":"address"},{"name":"stake","type":"uint256","indexed":false,"internalType":"uint256"}],"anonymous":false},{"type":"event","name":"AttesterUnstaked","inputs":[{"name":"domain","type":"address","indexed":true,"internalType":"address"},{"name":"epoch","type":"uint256","indexed":true,"internalType":"uint256"},{"name":"custodian","type":"address","indexed":true,"internalType":"address"},{"name":"attester","type":"address","indexed":false,"internalType":"address"},{"name":"stake","type":"uint256","indexed":false,"internalType":"uint256"}],"anonymous":false},{"type":"event","name":"EpochRolledOver","inputs":[{"name":"domain","type":"address","indexed":true,"internalType":"address"},{"name":"epoch","type":"uint256","indexed":false,"internalType":"uint256"}],"anonymous":false},{"type":"event","name":"Initialized","inputs":[{"name":"version","type":"uint64","indexed":false,"internalType":"uint64"}],"anonymous":false},{"type":"event","name":"RoleAdminChanged","inputs":[{"name":"role","type":"bytes32","indexed":true,"internalType":"bytes32"},{"name":"previousAdminRole","type":"bytes32","indexed":true,"internalType":"bytes32"},{"name":"newAdminRole","type":"bytes32","indexed":true,"internalType":"bytes32"}],"anonymous":false},{"type":"event","name":"RoleGranted","inputs":[{"name":"role","type":"bytes32","indexed":true,"internalType":"bytes32"},{"name":"account","type":"address","indexed":true,"internalType":"address"},{"name":"sender","type":"address","indexed":true,"internalType":"address"}],"anonymous":false},{"type":"event","name":"RoleRevoked","inputs":[{"name":"role","type":"bytes32","indexed":true,"internalType":"bytes32"},{"name":"account","type":"address","indexed":true,"internalType":"address"},{"name":"sender","type":"address","indexed":true,"internalType":"address"}],"anonymous":false},{"type":"event","name":"Upgraded","inputs":[{"name":"implementation","type":"address","indexed":true,"internalType":"address"}],"anonymous":false},{"type":"error","name":"AccessControlBadConfirmation","inputs":[]},{"type":"error","name":"AccessControlUnauthorizedAccount","inputs":[{"name":"account","type":"address","internalType":"address"},{"name":"neededRole","type":"bytes32","internalType":"bytes32"}]},{"type":"error","name":"AddressEmptyCode","inputs":[{"name":"target","type":"address","internalType":"address"}]},{"type":"error","name":"CustodianTransferAmountMismatch","inputs":[]},{"type":"error","name":"ERC1967InvalidImplementation","inputs":[{"name":"implementation","type":"address","internalType":"address"}]},{"type":"error","name":"ERC1967NonPayable","inputs":[]},{"type":"error","name":"EpochDurationNotSet","inputs":[]},{"type":"error","name":"FailedCall","inputs":[]},{"type":"error","name":"GenesisAlreadyAccepted","inputs":[]},{"type":"error","name":"InvalidInitialization","inputs":[]},{"type":"error","name":"NotInitializing","inputs":[]},{"type":"error","name":"ReentrancyGuardReentrantCall","inputs":[]},{"type":"error","name":"StakeExceedsGenesisStake","inputs":[]},{"type":"error","name":"UUPSUnauthorizedCallContext","inputs":[]},{"type":"error","name":"UUPSUnsupportedProxiableUUID","inputs":[{"name":"slot","type":"bytes32","internalType":"bytes32"}]}],"bytecode":{"object":"0x60a060405230608052348015601357600080fd5b5060016009556080516132f161004260003960008181611f2801528181611f51015261209501526132f16000f3fe6080604052600436106102ae5760003560e01c80635e00bf4611610175578063a78d1fef116100dc578063c4d66de811610095578063d547741f1161006f578063d547741f146108e6578063d980b40d14610906578063e6e3fb3a14610926578063fc0c546a1461096d57600080fd5b8063c4d66de814610876578063d1ba90ff14610896578063d37304f8146108c657600080fd5b8063a78d1fef14610796578063a885c975146107b6578063a887b71c146107d6578063ad3cb1cc146107eb578063b1de97f714610829578063bf6eac2f1461085657600080fd5b806386af70d11161012e57806386af70d1146106ce57806391d148541461070c57806392a2ebf31461072c57806393dfb85c146107415780639db92f6814610761578063a217fddf1461078157600080fd5b80635e00bf461461061757806360829f8a14610637578063771fcfc4146106575780637a997ab7146106775780637d93768b146106995780638129fc1c146106b957600080fd5b806336568abe116102195780634f1ef286116101d25780634f1ef2861461055957806352d1902d1461056c57806355bdbe4c14610581578063574663a9146105a157806357dd6a94146105c15780635c534359146105e157600080fd5b806336568abe1461048c5780633bccf635146104ac5780633debeadc146104d957806341566585146104f95780634234a479146105195780634e76a1391461053957600080fd5b8063248a9ca31161026b578063248a9ca3146103cc57806324fdfddf146103ec578063286dd3f51461040c5780632f2ff15d1461042c578063341d5ef51461044c57806334eada3a1461046c57600080fd5b806301ffc9a7146102b35780630c8f522f146102e85780630ce52af51461033d5780631789aeb41461035d5780631dc8b9491461038a57806322fceb75146103ac575b600080fd5b3480156102bf57600080fd5b506102d36102ce366004612bc9565b6109a5565b60405190151581526020015b60405180910390f35b3480156102f457600080fd5b5061032f610303366004612c08565b600560209081526000948552604080862082529385528385208152918452828420909152825290205481565b6040519081526020016102df565b34801561034957600080fd5b5061032f610358366004612c5b565b6109dc565b34801561036957600080fd5b5061037d610378366004612c9d565b610a12565b6040516102df9190612cba565b34801561039657600080fd5b506103aa6103a5366004612cfb565b610b00565b005b3480156103b857600080fd5b5061032f6103c7366004612c9d565b610c3d565b3480156103d857600080fd5b5061032f6103e7366004612d27565b610c58565b3480156103f857600080fd5b5061032f610407366004612c5b565b610c7a565b34801561041857600080fd5b506103aa610427366004612c9d565b610cf4565b34801561043857600080fd5b506103aa610447366004612d40565b610d1b565b34801561045857600080fd5b5061037d610467366004612c9d565b610d3d565b34801561047857600080fd5b5061032f610487366004612d70565b610e24565b34801561049857600080fd5b506103aa6104a7366004612d40565b610e42565b3480156104b857600080fd5b5061032f6104c7366004612c9d565b60016020526000908152604090205481565b3480156104e557600080fd5b5061032f6104f4366004612db0565b610e7a565b34801561050557600080fd5b506103aa610514366004612c9d565b610e8f565b34801561052557600080fd5b5061037d610534366004612c9d565b610eb2565b34801561054557600080fd5b506103aa610554366004612e29565b611008565b6103aa610567366004612ee2565b6110a6565b34801561057857600080fd5b5061032f6110c1565b34801561058d57600080fd5b5061032f61059c366004612cfb565b6110de565b3480156105ad57600080fd5b5061032f6105bc366004612c9d565b611177565b3480156105cd57600080fd5b5061032f6105dc366004612c9d565b611186565b3480156105ed57600080fd5b5061032f6105fc366004612c9d565b6001600160a01b031660009081526001602052604090205490565b34801561062357600080fd5b506103aa610632366004612c5b565b6111b7565b34801561064357600080fd5b506103aa610652366004612fab565b6111d5565b34801561066357600080fd5b5061032f610672366004612c9d565b61126b565b34801561068357600080fd5b5061032f60008051602061325c83398151915281565b3480156106a557600080fd5b5061032f6106b4366004612c08565b611284565b3480156106c557600080fd5b506103aa6112c2565b3480156106da57600080fd5b5061032f6106e9366004612c5b565b600760209081526000938452604080852082529284528284209052825290205481565b34801561071857600080fd5b506102d3610727366004612d40565b6113ce565b34801561073857600080fd5b506103aa611406565b34801561074d57600080fd5b5061032f61075c366004612c08565b6115a4565b34801561076d57600080fd5b5061032f61077c366004612db0565b6115e2565b34801561078d57600080fd5b5061032f600081565b3480156107a257600080fd5b5061032f6107b1366004612d70565b6115f7565b3480156107c257600080fd5b506103aa6107d1366004612fec565b61160d565b3480156107e257600080fd5b506103aa611831565b3480156107f757600080fd5b5061081c604051806040016040528060058152602001640352e302e360dc1b81525081565b6040516102df91906130e3565b34801561083557600080fd5b5061032f610844366004612c9d565b60026020526000908152604090205481565b34801561086257600080fd5b506103aa610871366004612fab565b611843565b34801561088257600080fd5b506103aa610891366004612c9d565b611a79565b3480156108a257600080fd5b506102d36108b1366004612c9d565b60086020526000908152604090205460ff1681565b3480156108d257600080fd5b506103aa6108e1366004613116565b611ba0565b3480156108f257600080fd5b506103aa610901366004612d40565b611c20565b34801561091257600080fd5b5061032f610921366004612c9d565b611c3c565b34801561093257600080fd5b5061032f610941366004612c08565b600660209081526000948552604080862082529385528385208152918452828420909152825290205481565b34801561097957600080fd5b5060005461098d906001600160a01b031681565b6040516001600160a01b0390911681526020016102df565b60006001600160e01b03198216637965db0b60e01b14806109d657506301ffc9a760e01b6001600160e01b03198316145b92915050565b6001600160a01b0380841660009081526007602090815260408083208684528252808320938516835292905220545b9392505050565b6001600160a01b038116600090815260036020526040812060609190610a3790611c97565b6001600160401b03811115610a4e57610a4e612ecc565b604051908082528060200260200182016040528015610a77578160200160208202803683370190505b50905060005b6001600160a01b0384166000908152600360205260409020610a9e90611c97565b811015610af9576001600160a01b0384166000908152600360205260409020610ac79082611ca1565b828281518110610ad957610ad9613161565b6001600160a01b0390921660209283029190910190910152600101610a7d565b5092915050565b610b0982611c3c565b811115610b6f5760405162461bcd60e51b815260206004820152602960248201527f4e45575f45504f43485f4d5553545f42455f4c4553535f5448414e5f5052455360448201526808a9ca8be8aa09e86960bb1b60648201526084015b60405180910390fd5b610b7882610c3d565b8111610bda5760405162461bcd60e51b815260206004820152602b60248201527f4e45575f45504f43485f4d5553545f42455f4849474845525f5448414e5f435560448201526a0a4a48a9ca8be8aa09e86960ab1b6064820152608401610b66565b336001600160a01b03831614610c215760405162461bcd60e51b815260206004820152600c60248201526b15539055551213d49256915160a21b6044820152606401610b66565b6001600160a01b03909116600090815260026020526040902055565b6001600160a01b031660009081526002602052604090205490565b600090815260008051602061329c833981519152602052604090206001015490565b600080805b6001600160a01b0386166000908152600460205260409020610ca090611c97565b811015610ceb576001600160a01b0386166000908152600460205260409020610cd79087908790610cd19085611ca1565b876115a4565b610ce1908361318d565b9150600101610c7f565b50949350505050565b6000610cff81611cad565b610d1760008051602061325c83398151915283611c20565b5050565b610d2482610c58565b610d2d81611cad565b610d378383611cba565b50505050565b6001600160a01b038116600090815260046020526040812060609190610d6290611c97565b6001600160401b03811115610d7957610d79612ecc565b604051908082528060200260200182016040528015610da2578160200160208202803683370190505b50905060005b6001600160a01b0384166000908152600460205260409020610dc990611c97565b811015610af9576001600160a01b0384166000908152600460205260409020610df29082611ca1565b828281518110610e0457610e04613161565b6001600160a01b0390921660209283029190910190910152600101610da8565b6000610e3a84610e3386610c3d565b8585611284565b949350505050565b6001600160a01b0381163314610e6b5760405163334bd91960e11b815260040160405180910390fd5b610e758282611d5f565b505050565b6000610a0b83610e8985610c3d565b84610c7a565b6000610e9a81611cad565b610d1760008051602061325c83398151915283610d1b565b6001600160a01b038116600090815260036020526040812060609190610ed790611c97565b90506000805b82811015610f32576001600160a01b0385166000908152600360205260408120610f079083611ca1565b90506000610f158783610e7a565b1115610f295782610f25816131a0565b9350505b50600101610edd565b506000816001600160401b03811115610f4d57610f4d612ecc565b604051908082528060200260200182016040528015610f76578160200160208202803683370190505b5090506000805b84811015610ffd576001600160a01b0387166000908152600360205260408120610fa79083611ca1565b90506000610fb58983610e7a565b1115610ff45780848481518110610fce57610fce613161565b6001600160a01b039092166020928302919091019091015282610ff0816131a0565b9350505b50600101610f7d565b509095945050505050565b611010611ddb565b60005b858110156110935761108b3388888481811061103157611031613161565b90506020020160208101906110469190612c9d565b85858581811061105857611058613161565b905060200201602081019061106d9190612c9d565b88888681811061107f5761107f613161565b90506020020135611e05565b600101611013565b5061109e6001600955565b505050505050565b6110ae611f1d565b6110b782611fc2565b610d178282611fcd565b60006110cb61208a565b5060008051602061327c83398151915290565b6000806110ea84610d3d565b905060006110f785610a12565b90506000805b835181101561116d5760005b835181101561116457611150888887858151811061112957611129613161565b602002602001015187858151811061114357611143613161565b60200260200101516115a4565b61115a908461318d565b9250600101611109565b506001016110fd565b5095945050505050565b60006109d68261059c84610c3d565b600061119182610c3d565b156111af5761119f82611c3c565b6111aa90600161318d565b6109d6565b600092915050565b6111bf611ddb565b6111cb33848385611e05565b610e756001600955565b60008051602061325c8339815191526111ed81611cad565b6111f5611ddb565b61120a846112028661126b565b8533866120d3565b826001600160a01b031661121d8561126b565b60408051338152602081018690526001600160a01b038816917fd41c64546a5c34c283150998874c7ee0412c8954f57aef484c681f6e137827df910160405180910390a4610d376001600955565b600061127682610c3d565b156111af5761119f82610c3d565b6001600160a01b0393841660009081526006602090815260408083209583529481528482209386168252928352838120919094168452905290205490565b7ff0c57e16840df040f15088dc2f81fe391c3923bec73e23a9662efc9c229c6a008054600160401b810460ff1615906001600160401b03166000811580156113075750825b90506000826001600160401b031660011480156113235750303b155b905081158015611331575080155b1561134f5760405163f92ee8a960e01b815260040160405180910390fd5b845467ffffffffffffffff19166001178555831561137957845460ff60401b1916600160401b1785555b611381612128565b83156113c757845460ff60401b19168555604051600181527fc7f505b2f371ae2175ee4913f4499e1f2633a7b5936321eed1cdaeb6115181d29060200160405180910390a15b5050505050565b600091825260008051602061329c833981519152602090815260408084206001600160a01b0393909316845291905290205460ff1690565b61140e611ddb565b3360008181526008602052604090205460ff161561143e5760405162fe178760e01b815260040160405180910390fd5b6001600160a01b0381166000908152600860209081526040808320805460ff19166001908117909155909152902054611479576114796131b9565b61148281611c3c565b6001600160a01b0382166000908152600260205260408120919091555b6001600160a01b03821660009081526003602052604090206114c090611c97565b811015611596576001600160a01b03821660009081526003602052604081206114e99083611ca1565b905060005b6001600160a01b038416600090815260046020526040902061150f90611c97565b81101561158c576001600160a01b03841660009081526004602052604081206115389083611ca1565b9050600061154986600084876115a4565b9050600061155687610c3d565b111561158257600061156787610c3d565b1115611582576115828661157a88610c3d565b848785612138565b50506001016114ee565b505060010161149f565b50506115a26001600955565b565b6001600160a01b0393841660009081526005602090815260408083209583529481528482209386168252928352838120919094168452905290205490565b6000610a0b836115f185610c3d565b846109dc565b6000610e3a8461160686610c3d565b85856115a4565b611615611ddb565b60005b8581101561181c5760006116e06116a1336116538b8b8781811061163e5761163e613161565b90506020020160208101906103c79190612c9d565b8d8d8781811061166557611665613161565b905060200201602081019061167a9190612c9d565b8c8c8881811061168c5761168c613161565b905060200201602081019061075c9190612c9d565b6116db8888868181106116b6576116b6613161565b905060200201358787878181106116cf576116cf613161565b905060200201356121c5565b6121c5565b905061173a308989858181106116f8576116f8613161565b905060200201602081019061170d9190612c9d565b8c8c8681811061171f5761171f613161565b90506020020160208101906117349190612c9d565b846121d5565b6117b33361174733610c3d565b8c8c8681811061175957611759613161565b905060200201602081019061176e9190612c9d565b8b8b8781811061178057611780613161565b90506020020160208101906117959190612c9d565b8a8a888181106117a7576117a7613161565b90506020020135612244565b611813336117c033610c3d565b8c8c868181106117d2576117d2613161565b90506020020160208101906117e79190612c9d565b8b8b878181106117f9576117f9613161565b905060200201602081019061180e9190612c9d565b612285565b50600101611618565b506118276001600955565b5050505050505050565b6115a23361183e33610c3d565b6122fb565b60008051602061325c83398151915261185b81611cad565b611863611ddb565b6001600160a01b0384166000908152600360205260409020611885903361241f565b50600080546040516370a0823160e01b81523060048201526001600160a01b03909116906370a0823190602401602060405180830381865afa1580156118cf573d6000803e3d6000fd5b505050506040513d601f19601f820116820180604052508101906118f391906131cf565b6040516323b872dd60e01b8152336004820152306024820152604481018590529091506001600160a01b038516906323b872dd906064016020604051808303816000875af1158015611949573d6000803e3d6000fd5b505050506040513d601f19601f8201168201806040525081019061196d91906131e8565b50611978838261318d565b6000546040516370a0823160e01b81523060048201526001600160a01b03909116906370a0823190602401602060405180830381865afa1580156119c0573d6000803e3d6000fd5b505050506040513d601f19601f820116820180604052508101906119e491906131cf565b14611a0257604051631910d68360e21b815260040160405180910390fd5b611a1785611a0f8761126b565b863387612138565b836001600160a01b0316611a2a8661126b565b60408051338152602081018790526001600160a01b038916917f7be65c2ae4d3c544de23b1db5bea4d541c02b93a5f4302852f4dc9880e0cb554910160405180910390a450610d376001600955565b7ff0c57e16840df040f15088dc2f81fe391c3923bec73e23a9662efc9c229c6a008054600160401b810460ff1615906001600160401b0316600081158015611abe5750825b90506000826001600160401b03166001148015611ada5750303b155b905081158015611ae8575080155b15611b065760405163f92ee8a960e01b815260040160405180910390fd5b845467ffffffffffffffff191660011785558315611b3057845460ff60401b1916600160401b1785555b611b38612434565b600080546001600160a01b0319166001600160a01b038816179055831561109e57845460ff60401b19168555604051600181527fc7f505b2f371ae2175ee4913f4499e1f2633a7b5936321eed1cdaeb6115181d29060200160405180910390a1505050505050565b611ba8611ddb565b3360008181526001602052604081208590555b82811015611c1457611c0b848483818110611bd857611bd8613161565b9050602002016020810190611bed9190612c9d565b6001600160a01b03841660009081526004602052604090209061241f565b50600101611bbb565b5050610e756001600955565b611c2982610c58565b611c3281611cad565b610d378383611d5f565b6001600160a01b0381166000908152600160205260408120548103611c745760405163143c378b60e01b815260040160405180910390fd5b6001600160a01b0382166000908152600160205260409020546109d6904261320a565b60006109d6825490565b6000610a0b8383612447565b611cb78133612471565b50565b600060008051602061329c833981519152611cd584846113ce565b611d55576000848152602082815260408083206001600160a01b03871684529091529020805460ff19166001179055611d0b3390565b6001600160a01b0316836001600160a01b0316857f2f8788117e7eff1d82e926ec794901d17c78024a50270940304540a733656f0d60405160405180910390a460019150506109d6565b60009150506109d6565b600060008051602061329c833981519152611d7a84846113ce565b15611d55576000848152602082815260408083206001600160a01b0387168085529252808320805460ff1916905551339287917ff6391f5c32d9c69d2a47ea670b442974b53935d1edc7fd64eb21e047a839171b9190a460019150506109d6565b600260095403611dfe57604051633ee5aeb560e01b815260040160405180910390fd5b6002600955565b303303611e4a5760405162461bcd60e51b81526020600482015260136024820152724f6e6c792065787465726e616c2063616c6c7360681b6044820152606401610b66565b6000546001600160a01b03838116911614611e9d5760405162461bcd60e51b815260206004820152601360248201527226bab9ba103ab9b2903130b9b2903a37b5b2b760691b6044820152606401610b66565b6000546040516323b872dd60e01b81526001600160a01b038681166004830152858116602483015260448201849052909116906323b872dd906064015b6020604051808303816000875af1158015611ef9573d6000803e3d6000fd5b505050506040513d601f19601f820116820180604052508101906113c791906131e8565b306001600160a01b037f0000000000000000000000000000000000000000000000000000000000000000161480611fa457507f00000000000000000000000000000000000000000000000000000000000000006001600160a01b0316611f9860008051602061327c833981519152546001600160a01b031690565b6001600160a01b031614155b156115a25760405163703e46dd60e11b815260040160405180910390fd5b6000610d1781611cad565b816001600160a01b03166352d1902d6040518163ffffffff1660e01b8152600401602060405180830381865afa925050508015612027575060408051601f3d908101601f19168201909252612024918101906131cf565b60015b61204f57604051634c9c8ce360e01b81526001600160a01b0383166004820152602401610b66565b60008051602061327c833981519152811461208057604051632a87526960e21b815260048101829052602401610b66565b610e7583836124aa565b306001600160a01b037f000000000000000000000000000000000000000000000000000000000000000016146115a25760405163703e46dd60e11b815260040160405180910390fd5b6001600160a01b0380861660009081526006602090815260408083208884528252808320878516845282528083209386168352929052908120805483929061211c90849061318d565b90915550505050505050565b612130612500565b6115a2612434565b6001600160a01b0380861660009081526005602090815260408083208884528252808320878516845282528083209386168352929052908120805483929061218190849061318d565b90915550506001600160a01b03808616600090815260076020908152604080832088845282528083209387168352929052908120805483929061211c90849061318d565b6000828218828410028218610a0b565b306001600160a01b03851603612217576000546001600160a01b0380841691160361220b5761220684848484612549565b610d37565b61220684848484612637565b6000546001600160a01b038084169116036122385761220684848484611e05565b610d37848484846127c8565b836000612253878387876115a4565b90508281101561226f5761226a87838787856128a2565b61227c565b61227c87838787876128a2565b50505050505050565b6000612293858585856115a4565b905060006122a285600161318d565b905060006122b287838787611284565b90508281111561227c576001600160a01b0380881660009081526006602090815260408083208684528252808320848a168452825280832093881683529290522083905561227c565b60005b6001600160a01b038316600090815260036020526040902061231f90611c97565b8110156123b8576001600160a01b03831660009081526003602052604081206123489083611ca1565b905060005b6001600160a01b038516600090815260046020526040902061236e90611c97565b8110156123ae576001600160a01b03851660009081526004602052604081206123979083611ca1565b90506123a58686838661292f565b5060010161234d565b50506001016122fe565b506123c481600161318d565b6001600160a01b038316600081815260026020526040908190209290925590517fb693195b5ff3e376f8b562486abc516e10fe2467b75f0e4165e79cf4ab70dc41906124139084815260200190565b60405180910390a25050565b6000610a0b836001600160a01b0384166129fb565b61243c612500565b611cb7600033611cba565b600082600001828154811061245e5761245e613161565b9060005260206000200154905092915050565b61247b82826113ce565b610d175760405163e2517d3f60e01b81526001600160a01b038216600482015260248101839052604401610b66565b6124b382612a4a565b6040516001600160a01b038316907fbc7cd75a20ee27fd9adebab32041f755214dbc6bffa90cc0225b39da2e5c2d3b90600090a28051156124f857610e758282612aaf565b610d17612b25565b7ff0c57e16840df040f15088dc2f81fe391c3923bec73e23a9662efc9c229c6a0054600160401b900460ff166115a257604051631afcd79f60e31b815260040160405180910390fd5b6001600160a01b03841630146125ab5760405162461bcd60e51b815260206004820152602160248201527f4f6e6c7920636f6e74726163742063616e2063616c6c206469726563746c79206044820152603160f81b6064820152608401610b66565b6000546001600160a01b038381169116146125fe5760405162461bcd60e51b815260206004820152601360248201527226bab9ba103ab9b2903130b9b2903a37b5b2b760691b6044820152606401610b66565b60005460405163a9059cbb60e01b81526001600160a01b038581166004830152602482018490529091169063a9059cbb90604401611eda565b6001600160a01b03841630146126995760405162461bcd60e51b815260206004820152602160248201527f4f6e6c7920636f6e74726163742063616e2063616c6c206469726563746c79206044820152601960f91b6064820152608401610b66565b6000546001600160a01b038084169116036126f15760405162461bcd60e51b815260206004820152601860248201527726bab9ba103ab9b29031bab9ba37b234b0b7103a37b5b2b760411b6044820152606401610b66565b60005460405163095ea7b360e01b81526001600160a01b038481166004830152602482018490529091169063095ea7b3906044016020604051808303816000875af1158015612744573d6000803e3d6000fd5b505050506040513d601f19601f8201168201806040525081019061276891906131e8565b506040516318950c7160e01b81526001600160a01b038481166004830152602482018390528316906318950c71906044015b600060405180830381600087803b1580156127b457600080fd5b505af1158015611827573d6000803e3d6000fd5b30330361280d5760405162461bcd60e51b81526020600482015260136024820152724f6e6c792065787465726e616c2063616c6c7360681b6044820152606401610b66565b6000546001600160a01b038084169116036128655760405162461bcd60e51b815260206004820152601860248201527726bab9ba103ab9b29031bab9ba37b234b0b7103a37b5b2b760411b6044820152606401610b66565b60405163c4652d8360e01b81526001600160a01b03858116600483015284811660248301526044820183905283169063c4652d839060640161279a565b6001600160a01b038086166000908152600560209081526040808320888452825280832087851684528252808320938616835292905290812080548392906128eb90849061322c565b90915550506001600160a01b03808616600090815260076020908152604080832088845282528083209387168352929052908120805483929061211c90849061322c565b600061293d858585856115a4565b905060006129578661295087600161318d565b8686611284565b9050818111156129645750805b6000612970828461322c565b90506129898761298188600161318d565b878785612138565b811561299b5761299b30858785612549565b846001600160a01b031686856001600160a01b03167f3ddb7f725ac69363a1df8296c965af4d268f31b082480dcd8419d284fb7fd34286866040516129ea929190918252602082015260400190565b60405180910390a450505050505050565b6000818152600183016020526040812054612a42575081546001818101845560008481526020808220909301849055845484825282860190935260409020919091556109d6565b5060006109d6565b806001600160a01b03163b600003612a8057604051634c9c8ce360e01b81526001600160a01b0382166004820152602401610b66565b60008051602061327c83398151915280546001600160a01b0319166001600160a01b0392909216919091179055565b6060600080846001600160a01b031684604051612acc919061323f565b600060405180830381855af49150503d8060008114612b07576040519150601f19603f3d011682016040523d82523d6000602084013e612b0c565b606091505b5091509150612b1c858383612b44565b95945050505050565b34156115a25760405163b398979f60e01b815260040160405180910390fd5b606082612b5957612b5482612ba0565b610a0b565b8151158015612b7057506001600160a01b0384163b155b15612b9957604051639996b31560e01b81526001600160a01b0385166004820152602401610b66565b5080610a0b565b805115612bb05780518082602001fd5b60405163d6bda27560e01b815260040160405180910390fd5b600060208284031215612bdb57600080fd5b81356001600160e01b031981168114610a0b57600080fd5b6001600160a01b0381168114611cb757600080fd5b60008060008060808587031215612c1e57600080fd5b8435612c2981612bf3565b9350602085013592506040850135612c4081612bf3565b91506060850135612c5081612bf3565b939692955090935050565b600080600060608486031215612c7057600080fd5b8335612c7b81612bf3565b9250602084013591506040840135612c9281612bf3565b809150509250925092565b600060208284031215612caf57600080fd5b8135610a0b81612bf3565b602080825282518282018190526000918401906040840190835b81811015610ffd5783516001600160a01b0316835260209384019390920191600101612cd4565b60008060408385031215612d0e57600080fd5b8235612d1981612bf3565b946020939093013593505050565b600060208284031215612d3957600080fd5b5035919050565b60008060408385031215612d5357600080fd5b823591506020830135612d6581612bf3565b809150509250929050565b600080600060608486031215612d8557600080fd5b8335612d9081612bf3565b92506020840135612da081612bf3565b91506040840135612c9281612bf3565b60008060408385031215612dc357600080fd5b8235612dce81612bf3565b91506020830135612d6581612bf3565b60008083601f840112612df057600080fd5b5081356001600160401b03811115612e0757600080fd5b6020830191508360208260051b8501011115612e2257600080fd5b9250929050565b60008060008060008060608789031215612e4257600080fd5b86356001600160401b03811115612e5857600080fd5b612e6489828a01612dde565b90975095505060208701356001600160401b03811115612e8357600080fd5b612e8f89828a01612dde565b90955093505060408701356001600160401b03811115612eae57600080fd5b612eba89828a01612dde565b979a9699509497509295939492505050565b634e487b7160e01b600052604160045260246000fd5b60008060408385031215612ef557600080fd5b8235612f0081612bf3565b915060208301356001600160401b03811115612f1b57600080fd5b8301601f81018513612f2c57600080fd5b80356001600160401b03811115612f4557612f45612ecc565b604051601f8201601f19908116603f011681016001600160401b0381118282101715612f7357612f73612ecc565b604052818152828201602001871015612f8b57600080fd5b816020840160208301376000602083830101528093505050509250929050565b600080600060608486031215612fc057600080fd5b8335612fcb81612bf3565b92506020840135612fdb81612bf3565b929592945050506040919091013590565b6000806000806000806000806080898b03121561300857600080fd5b88356001600160401b0381111561301e57600080fd5b61302a8b828c01612dde565b90995097505060208901356001600160401b0381111561304957600080fd5b6130558b828c01612dde565b90975095505060408901356001600160401b0381111561307457600080fd5b6130808b828c01612dde565b90955093505060608901356001600160401b0381111561309f57600080fd5b6130ab8b828c01612dde565b999c989b5096995094979396929594505050565b60005b838110156130da5781810151838201526020016130c2565b50506000910152565b60208152600082518060208401526131028160408501602087016130bf565b601f01601f19169190910160400192915050565b60008060006040848603121561312b57600080fd5b8335925060208401356001600160401b0381111561314857600080fd5b61315486828701612dde565b9497909650939450505050565b634e487b7160e01b600052603260045260246000fd5b634e487b7160e01b600052601160045260246000fd5b808201808211156109d6576109d6613177565b6000600182016131b2576131b2613177565b5060010190565b634e487b7160e01b600052600160045260246000fd5b6000602082840312156131e157600080fd5b5051919050565b6000602082840312156131fa57600080fd5b81518015158114610a0b57600080fd5b60008261322757634e487b7160e01b600052601260045260246000fd5b500490565b818103818111156109d6576109d6613177565b600082516132518184602087016130bf565b919091019291505056fedc72ed553f2544c34465af23b847953efeb813428162d767f9ba5f4013be6760360894a13ba1a3210667c828492db98dca3e2076cc3735a920a3ca505d382bbc02dd7bc7dec4dceedda775e58dd541e08a116c6c53815c0bd028192f7b626800a2646970667358221220409e4fa85a567670d7b68d3ae8bb2e8baafc4fd70394c21ecdc96859cc9df63764736f6c634300081a0033","linkReferences":{}},"methodIdentifiers":{"DEFAULT_ADMIN_ROLE()":"a217fddf","UPGRADE_INTERFACE_VERSION()":"ad3cb1cc","WHITELIST_ROLE()":"7a997ab7","acceptGenesisCeremony()":"92a2ebf3","computeAllStake(address,uint256)":"55bdbe4c","computeAllStakeForAcceptingEpoch(address)":"574663a9","currentAcceptingEpochByDomain(address)":"b1de97f7","domainGenesisAccepted(address)":"d1ba90ff","epochDurationByDomain(address)":"3bccf635","getAcceptingEpoch(address)":"22fceb75","getAttesterStake(address,uint256,address)":"24fdfddf","getAttesterStakeForAcceptingEpoch(address,address)":"3debeadc","getCustodianStake(address,uint256,address)":"0ce52af5","getCustodianStakeForAcceptingEpoch(address,address)":"9db92f68","getEpochByL1BlockTime(address)":"d980b40d","getEpochDuration(address)":"5c534359","getNextAcceptingEpochWithException(address)":"771fcfc4","getNextPresentEpochWithException(address)":"57dd6a94","getRegisteredAttesters(address)":"1789aeb4","getRegisteredCustodians(address)":"341d5ef5","getRoleAdmin(bytes32)":"248a9ca3","getStake(address,uint256,address,address)":"93dfb85c","getStakeForAcceptingEpoch(address,address,address)":"a78d1fef","getStakedAttestersForAcceptingEpoch(address)":"4234a479","getUnstake(address,uint256,address,address)":"7d93768b","getUnstakeForAcceptingEpoch(address,address,address)":"34eada3a","grantRole(bytes32,address)":"2f2ff15d","hasRole(bytes32,address)":"91d14854","initialize()":"8129fc1c","initialize(address)":"c4d66de8","proxiableUUID()":"52d1902d","registerDomain(uint256,address[])":"d37304f8","removeAddressFromWhitelist(address)":"286dd3f5","renounceRole(bytes32,address)":"36568abe","revokeRole(bytes32,address)":"d547741f","rewardArray(address[],uint256[],address[])":"4e76a139","rewardFromDomain(address,uint256,address)":"5e00bf46","rollOverEpoch()":"a887b71c","setAcceptingEpoch(address,uint256)":"1dc8b949","slash(address[],address[],uint256[],uint256[])":"a885c975","stake(address,address,uint256)":"bf6eac2f","stakesByDomainEpochCustodian(address,uint256,address)":"86af70d1","stakesByDomainEpochCustodianAttester(address,uint256,address,address)":"0c8f522f","supportsInterface(bytes4)":"01ffc9a7","token()":"fc0c546a","unstake(address,address,uint256)":"60829f8a","unstakesByDomainEpochCustodianAttester(address,uint256,address,address)":"e6e3fb3a","upgradeToAndCall(address,bytes)":"4f1ef286","whitelistAddress(address)":"41566585"},"id":111}