{"abi":[{"type":"function","name":"COMMITMENT_ADMIN","inputs":[],"outputs":[{"name":"","type":"bytes32","internalType":"bytes32"}],"stateMutability":"view"},{"type":"function","name":"DEFAULT_ADMIN_ROLE","inputs":[],"outputs":[{"name":"","type":"bytes32","internalType":"bytes32"}],"stateMutability":"view"},{"type":"function","name":"TRUSTED_ATTESTER","inputs":[],"outputs":[{"name":"","type":"bytes32","internalType":"bytes32"}],"stateMutability":"view"},{"type":"function","name":"UPGRADE_INTERFACE_VERSION","inputs":[],"outputs":[{"name":"","type":"string","internalType":"string"}],"stateMutability":"view"},{"type":"function","name":"acceptGenesisCeremony","inputs":[],"outputs":[],"stateMutability":"nonpayable"},{"type":"function","name":"attesterRewardPoints","inputs":[{"name":"epoch","type":"uint256","internalType":"uint256"},{"name":"attester","type":"address","internalType":"address"}],"outputs":[{"name":"points","type":"uint256","internalType":"uint256"}],"stateMutability":"view"},{"type":"function","name":"batchGrantCommitmentAdmin","inputs":[{"name":"accounts","type":"address[]","internalType":"address[]"}],"outputs":[],"stateMutability":"nonpayable"},{"type":"function","name":"batchGrantTrustedAttester","inputs":[{"name":"attesters","type":"address[]","internalType":"address[]"}],"outputs":[],"stateMutability":"nonpayable"},{"type":"function","name":"commitmentFirstSeenAt","inputs":[{"name":"superBlockHeight","type":"uint256","internalType":"uint256"},{"name":"commitment","type":"bytes32","internalType":"bytes32"}],"outputs":[{"name":"timestamp","type":"uint256","internalType":"uint256"}],"stateMutability":"view"},{"type":"function","name":"commitmentStake","inputs":[{"name":"superBlockHeight","type":"uint256","internalType":"uint256"},{"name":"commitement","type":"bytes32","internalType":"bytes32"}],"outputs":[{"name":"stake","type":"uint256","internalType":"uint256"}],"stateMutability":"view"},{"type":"function","name":"commitments","inputs":[{"name":"superBlockHeight","type":"uint256","internalType":"uint256"},{"name":"attester","type":"address","internalType":"address"}],"outputs":[{"name":"height","type":"uint256","internalType":"uint256"},{"name":"commitment","type":"bytes32","internalType":"bytes32"},{"name":"blockId","type":"bytes32","internalType":"bytes32"}],"stateMutability":"view"},{"type":"function","name":"createSuperBlockCommitment","inputs":[{"name":"height","type":"uint256","internalType":"uint256"},{"name":"commitment","type":"bytes32","internalType":"bytes32"},{"name":"blockId","type":"bytes32","internalType":"bytes32"}],"outputs":[{"name":"","type":"tuple","internalType":"struct PCPStorage.SuperBlockCommitment","components":[{"name":"height","type":"uint256","internalType":"uint256"},{"name":"commitment","type":"bytes32","internalType":"bytes32"},{"name":"blockId","type":"bytes32","internalType":"bytes32"}]}],"stateMutability":"pure"},{"type":"function","name":"forceLatestCommitment","inputs":[{"name":"superBlockCommitment","type":"tuple","internalType":"struct PCPStorage.SuperBlockCommitment","components":[{"name":"height","type":"uint256","internalType":"uint256"},{"name":"commitment","type":"bytes32","internalType":"bytes32"},{"name":"blockId","type":"bytes32","internalType":"bytes32"}]}],"outputs":[],"stateMutability":"nonpayable"},{"type":"function","name":"getAcceptingEpoch","inputs":[],"outputs":[{"name":"","type":"uint256","internalType":"uint256"}],"stateMutability":"view"},{"type":"function","name":"getAttesterRewardPoints","inputs":[{"name":"epoch","type":"uint256","internalType":"uint256"},{"name":"attester","type":"address","internalType":"address"}],"outputs":[{"name":"","type":"uint256","internalType":"uint256"}],"stateMutability":"view"},{"type":"function","name":"getAttesterStake","inputs":[{"name":"epoch","type":"uint256","internalType":"uint256"},{"name":"attester","type":"address","internalType":"address"}],"outputs":[{"name":"","type":"uint256","internalType":"uint256"}],"stateMutability":"view"},{"type":"function","name":"getAttesterStakeForAcceptingEpoch","inputs":[{"name":"attester","type":"address","internalType":"address"}],"outputs":[{"name":"","type":"uint256","internalType":"uint256"}],"stateMutability":"view"},{"type":"function","name":"getCommitmentByAttester","inputs":[{"name":"height","type":"uint256","internalType":"uint256"},{"name":"attester","type":"address","internalType":"address"}],"outputs":[{"name":"","type":"tuple","internalType":"struct PCPStorage.SuperBlockCommitment","components":[{"name":"height","type":"uint256","internalType":"uint256"},{"name":"commitment","type":"bytes32","internalType":"bytes32"},{"name":"blockId","type":"bytes32","internalType":"bytes32"}]}],"stateMutability":"view"},{"type":"function","name":"getCommitmentFirstSeenAt","inputs":[{"name":"superBlockCommitment","type":"tuple","internalType":"struct PCPStorage.SuperBlockCommitment","components":[{"name":"height","type":"uint256","internalType":"uint256"},{"name":"commitment","type":"bytes32","internalType":"bytes32"},{"name":"blockId","type":"bytes32","internalType":"bytes32"}]}],"outputs":[{"name":"","type":"uint256","internalType":"uint256"}],"stateMutability":"view"},{"type":"function","name":"getCustodianStake","inputs":[{"name":"epoch","type":"uint256","internalType":"uint256"},{"name":"custodian","type":"address","internalType":"address"}],"outputs":[{"name":"","type":"uint256","internalType":"uint256"}],"stateMutability":"view"},{"type":"function","name":"getCustodianStakeForAcceptingEpoch","inputs":[{"name":"custodian","type":"address","internalType":"address"}],"outputs":[{"name":"","type":"uint256","internalType":"uint256"}],"stateMutability":"view"},{"type":"function","name":"getEpochDuration","inputs":[],"outputs":[{"name":"","type":"uint256","internalType":"uint256"}],"stateMutability":"view"},{"type":"function","name":"getEpochStartTime","inputs":[],"outputs":[{"name":"","type":"uint256","internalType":"uint256"}],"stateMutability":"view"},{"type":"function","name":"getLastPostconfirmedSuperBlockHeight","inputs":[],"outputs":[{"name":"","type":"uint256","internalType":"uint256"}],"stateMutability":"view"},{"type":"function","name":"getMaxTolerableSuperBlockHeight","inputs":[],"outputs":[{"name":"","type":"uint256","internalType":"uint256"}],"stateMutability":"view"},{"type":"function","name":"getMinCommitmentAgeForPostconfirmation","inputs":[],"outputs":[{"name":"","type":"uint256","internalType":"uint256"}],"stateMutability":"view"},{"type":"function","name":"getNextAcceptingEpochWithException","inputs":[],"outputs":[{"name":"","type":"uint256","internalType":"uint256"}],"stateMutability":"view"},{"type":"function","name":"getPostconfirmedCommitment","inputs":[{"name":"height","type":"uint256","internalType":"uint256"}],"outputs":[{"name":"","type":"tuple","internalType":"struct PCPStorage.SuperBlockCommitment","components":[{"name":"height","type":"uint256","internalType":"uint256"},{"name":"commitment","type":"bytes32","internalType":"bytes32"},{"name":"blockId","type":"bytes32","internalType":"bytes32"}]}],"stateMutability":"view"},{"type":"function","name":"getPostconfirmer","inputs":[],"outputs":[{"name":"","type":"address","internalType":"address"}],"stateMutability":"view"},{"type":"function","name":"getPostconfirmerDuration","inputs":[],"outputs":[{"name":"","type":"uint256","internalType":"uint256"}],"stateMutability":"view"},{"type":"function","name":"getPostconfirmerPrivilegeDuration","inputs":[],"outputs":[{"name":"","type":"uint256","internalType":"uint256"}],"stateMutability":"view"},{"type":"function","name":"getPostconfirmerRewardPoints","inputs":[{"name":"epoch","type":"uint256","internalType":"uint256"},{"name":"postconfirmer","type":"address","internalType":"address"}],"outputs":[{"name":"","type":"uint256","internalType":"uint256"}],"stateMutability":"view"},{"type":"function","name":"getPostconfirmerStartTime","inputs":[],"outputs":[{"name":"","type":"uint256","internalType":"uint256"}],"stateMutability":"view"},{"type":"function","name":"getPresentEpoch","inputs":[],"outputs":[{"name":"","type":"uint256","internalType":"uint256"}],"stateMutability":"view"},{"type":"function","name":"getRoleAdmin","inputs":[{"name":"role","type":"bytes32","internalType":"bytes32"}],"outputs":[{"name":"","type":"bytes32","internalType":"bytes32"}],"stateMutability":"view"},{"type":"function","name":"getStake","inputs":[{"name":"epoch","type":"uint256","internalType":"uint256"},{"name":"custodian","type":"address","internalType":"address"},{"name":"attester","type":"address","internalType":"address"}],"outputs":[{"name":"","type":"uint256","internalType":"uint256"}],"stateMutability":"view"},{"type":"function","name":"getStakeForAcceptingEpoch","inputs":[{"name":"custodian","type":"address","internalType":"address"},{"name":"attester","type":"address","internalType":"address"}],"outputs":[{"name":"","type":"uint256","internalType":"uint256"}],"stateMutability":"view"},{"type":"function","name":"getStakedAttestersForAcceptingEpoch","inputs":[],"outputs":[{"name":"","type":"address[]","internalType":"address[]"}],"stateMutability":"view"},{"type":"function","name":"getSuperBlockHeightAssignedEpoch","inputs":[{"name":"height","type":"uint256","internalType":"uint256"}],"outputs":[{"name":"","type":"uint256","internalType":"uint256"}],"stateMutability":"view"},{"type":"function","name":"getTotalStake","inputs":[{"name":"epoch","type":"uint256","internalType":"uint256"}],"outputs":[{"name":"","type":"uint256","internalType":"uint256"}],"stateMutability":"view"},{"type":"function","name":"getTotalStakeForAcceptingEpoch","inputs":[],"outputs":[{"name":"","type":"uint256","internalType":"uint256"}],"stateMutability":"view"},{"type":"function","name":"getValidatorCommitmentAtSuperBlockHeight","inputs":[{"name":"height","type":"uint256","internalType":"uint256"},{"name":"attester","type":"address","internalType":"address"}],"outputs":[{"name":"","type":"tuple","internalType":"struct PCPStorage.SuperBlockCommitment","components":[{"name":"height","type":"uint256","internalType":"uint256"},{"name":"commitment","type":"bytes32","internalType":"bytes32"},{"name":"blockId","type":"bytes32","internalType":"bytes32"}]}],"stateMutability":"view"},{"type":"function","name":"grantCommitmentAdmin","inputs":[{"name":"account","type":"address","internalType":"address"}],"outputs":[],"stateMutability":"nonpayable"},{"type":"function","name":"grantRole","inputs":[{"name":"role","type":"bytes32","internalType":"bytes32"},{"name":"account","type":"address","internalType":"address"}],"outputs":[],"stateMutability":"nonpayable"},{"type":"function","name":"grantTrustedAttester","inputs":[{"name":"attester","type":"address","internalType":"address"}],"outputs":[],"stateMutability":"nonpayable"},{"type":"function","name":"hasRole","inputs":[{"name":"role","type":"bytes32","internalType":"bytes32"},{"name":"account","type":"address","internalType":"address"}],"outputs":[{"name":"","type":"bool","internalType":"bool"}],"stateMutability":"view"},{"type":"function","name":"initialize","inputs":[{"name":"_stakingContract","type":"address","internalType":"contract IMovementStaking"},{"name":"_lastPostconfirmedSuperBlockHeight","type":"uint256","internalType":"uint256"},{"name":"_leadingSuperBlockTolerance","type":"uint256","internalType":"uint256"},{"name":"_epochDuration","type":"uint256","internalType":"uint256"},{"name":"_custodians","type":"address[]","internalType":"address[]"},{"name":"_postconfirmerDuration","type":"uint256","internalType":"uint256"},{"name":"_moveTokenAddress","type":"address","internalType":"address"}],"outputs":[],"stateMutability":"nonpayable"},{"type":"function","name":"initialize","inputs":[],"outputs":[],"stateMutability":"nonpayable"},{"type":"function","name":"isCommitted","inputs":[{"name":"height","type":"uint256","internalType":"uint256"}],"outputs":[{"name":"","type":"bool","internalType":"bool"}],"stateMutability":"view"},{"type":"function","name":"isPostconfirmed","inputs":[{"name":"height","type":"uint256","internalType":"uint256"}],"outputs":[{"name":"","type":"bool","internalType":"bool"}],"stateMutability":"view"},{"type":"function","name":"isWithinPostconfirmerPrivilegeDuration","inputs":[{"name":"superBlockCommitment","type":"tuple","internalType":"struct PCPStorage.SuperBlockCommitment","components":[{"name":"height","type":"uint256","internalType":"uint256"},{"name":"commitment","type":"bytes32","internalType":"bytes32"},{"name":"blockId","type":"bytes32","internalType":"bytes32"}]}],"outputs":[{"name":"","type":"bool","internalType":"bool"}],"stateMutability":"view"},{"type":"function","name":"lastPostconfirmedSuperBlockHeight","inputs":[],"outputs":[{"name":"","type":"uint256","internalType":"uint256"}],"stateMutability":"view"},{"type":"function","name":"leadingSuperBlockTolerance","inputs":[],"outputs":[{"name":"","type":"uint256","internalType":"uint256"}],"stateMutability":"view"},{"type":"function","name":"minCommitmentAgeForPostconfirmation","inputs":[],"outputs":[{"name":"","type":"uint256","internalType":"uint256"}],"stateMutability":"view"},{"type":"function","name":"moveTokenAddress","inputs":[],"outputs":[{"name":"","type":"address","internalType":"address"}],"stateMutability":"view"},{"type":"function","name":"openAttestationEnabled","inputs":[],"outputs":[{"name":"","type":"bool","internalType":"bool"}],"stateMutability":"view"},{"type":"function","name":"postconfirmSuperBlocksAndRollover","inputs":[],"outputs":[],"stateMutability":"nonpayable"},{"type":"function","name":"postconfirmedAtL1BlockHeight","inputs":[{"name":"superBlockHeight","type":"uint256","internalType":"uint256"}],"outputs":[{"name":"L1BlockHeight","type":"uint256","internalType":"uint256"}],"stateMutability":"view"},{"type":"function","name":"postconfirmedAtL1BlockHeightByPostconfirmer","inputs":[{"name":"superBlockHeight","type":"uint256","internalType":"uint256"}],"outputs":[{"name":"L1BlockHeight","type":"uint256","internalType":"uint256"}],"stateMutability":"view"},{"type":"function","name":"postconfirmedAtL1BlockTimestamp","inputs":[{"name":"superBlockHeight","type":"uint256","internalType":"uint256"}],"outputs":[{"name":"L1BlockTimestamp","type":"uint256","internalType":"uint256"}],"stateMutability":"view"},{"type":"function","name":"postconfirmedBy","inputs":[{"name":"superBlockHeight","type":"uint256","internalType":"uint256"}],"outputs":[{"name":"attester","type":"address","internalType":"address"}],"stateMutability":"view"},{"type":"function","name":"postconfirmedByPostconfirmer","inputs":[{"name":"superBlockHeight","type":"uint256","internalType":"uint256"}],"outputs":[{"name":"","type":"bool","internalType":"bool"}],"stateMutability":"view"},{"type":"function","name":"postconfirmedSuperBlocks","inputs":[{"name":"superBlockHeight","type":"uint256","internalType":"uint256"}],"outputs":[{"name":"height","type":"uint256","internalType":"uint256"},{"name":"commitment","type":"bytes32","internalType":"bytes32"},{"name":"blockId","type":"bytes32","internalType":"bytes32"}],"stateMutability":"view"},{"type":"function","name":"postconfirmedSuperBlocksVersion","inputs":[],"outputs":[{"name":"","type":"uint256","internalType":"uint256"}],"stateMutability":"view"},{"type":"function","name":"postconfirmerDuration","inputs":[],"outputs":[{"name":"","type":"uint256","internalType":"uint256"}],"stateMutability":"view"},{"type":"function","name":"postconfirmerPrivilegeDuration","inputs":[],"outputs":[{"name":"","type":"uint256","internalType":"uint256"}],"stateMutability":"view"},{"type":"function","name":"postconfirmerRewardPoints","inputs":[{"name":"epoch","type":"uint256","internalType":"uint256"},{"name":"postconfirmer","type":"address","internalType":"address"}],"outputs":[{"name":"points","type":"uint256","internalType":"uint256"}],"stateMutability":"view"},{"type":"function","name":"proxiableUUID","inputs":[],"outputs":[{"name":"","type":"bytes32","internalType":"bytes32"}],"stateMutability":"view"},{"type":"function","name":"renounceRole","inputs":[{"name":"role","type":"bytes32","internalType":"bytes32"},{"name":"callerConfirmation","type":"address","internalType":"address"}],"outputs":[],"stateMutability":"nonpayable"},{"type":"function","name":"revokeRole","inputs":[{"name":"role","type":"bytes32","internalType":"bytes32"},{"name":"account","type":"address","internalType":"address"}],"outputs":[],"stateMutability":"nonpayable"},{"type":"function","name":"rewardPerAttestationPoint","inputs":[],"outputs":[{"name":"","type":"uint256","internalType":"uint256"}],"stateMutability":"view"},{"type":"function","name":"rewardPerPostconfirmationPoint","inputs":[],"outputs":[{"name":"","type":"uint256","internalType":"uint256"}],"stateMutability":"view"},{"type":"function","name":"setAcceptingEpoch","inputs":[{"name":"newEpoch","type":"uint256","internalType":"uint256"}],"outputs":[],"stateMutability":"nonpayable"},{"type":"function","name":"setMinCommitmentAgeForPostconfirmation","inputs":[{"name":"_minCommitmentAgeForPostconfirmation","type":"uint256","internalType":"uint256"}],"outputs":[],"stateMutability":"nonpayable"},{"type":"function","name":"setOpenAttestationEnabled","inputs":[{"name":"enabled","type":"bool","internalType":"bool"}],"outputs":[],"stateMutability":"nonpayable"},{"type":"function","name":"setPostconfirmedCommitmentAtBlockHeight","inputs":[{"name":"superBlockCommitment","type":"tuple","internalType":"struct PCPStorage.SuperBlockCommitment","components":[{"name":"height","type":"uint256","internalType":"uint256"},{"name":"commitment","type":"bytes32","internalType":"bytes32"},{"name":"blockId","type":"bytes32","internalType":"bytes32"}]}],"outputs":[],"stateMutability":"nonpayable"},{"type":"function","name":"setPostconfirmerDuration","inputs":[{"name":"_postconfirmerDuration","type":"uint256","internalType":"uint256"}],"outputs":[],"stateMutability":"nonpayable"},{"type":"function","name":"setPostconfirmerPrivilegeDuration","inputs":[{"name":"_postconfirmerPrivilegeDuration","type":"uint256","internalType":"uint256"}],"outputs":[],"stateMutability":"nonpayable"},{"type":"function","name":"setRewardPerAttestationPoint","inputs":[{"name":"rewardPerPoint","type":"uint256","internalType":"uint256"}],"outputs":[],"stateMutability":"nonpayable"},{"type":"function","name":"setRewardPerPostconfirmationPoint","inputs":[{"name":"rewardPerPoint","type":"uint256","internalType":"uint256"}],"outputs":[],"stateMutability":"nonpayable"},{"type":"function","name":"stakingContract","inputs":[],"outputs":[{"name":"","type":"address","internalType":"contract IMovementStaking"}],"stateMutability":"view"},{"type":"function","name":"submitBatchSuperBlockCommitment","inputs":[{"name":"superBlockCommitments","type":"tuple[]","internalType":"struct PCPStorage.SuperBlockCommitment[]","components":[{"name":"height","type":"uint256","internalType":"uint256"},{"name":"commitment","type":"bytes32","internalType":"bytes32"},{"name":"blockId","type":"bytes32","internalType":"bytes32"}]}],"outputs":[],"stateMutability":"nonpayable"},{"type":"function","name":"submitSuperBlockCommitment","inputs":[{"name":"superBlockCommitment","type":"tuple","internalType":"struct PCPStorage.SuperBlockCommitment","components":[{"name":"height","type":"uint256","internalType":"uint256"},{"name":"commitment","type":"bytes32","internalType":"bytes32"},{"name":"blockId","type":"bytes32","internalType":"bytes32"}]}],"outputs":[],"stateMutability":"nonpayable"},{"type":"function","name":"superBlockHeightAssignedEpoch","inputs":[{"name":"superBlockHeight","type":"uint256","internalType":"uint256"}],"outputs":[{"name":"epoch","type":"uint256","internalType":"uint256"}],"stateMutability":"view"},{"type":"function","name":"supportsInterface","inputs":[{"name":"interfaceId","type":"bytes4","internalType":"bytes4"}],"outputs":[{"name":"","type":"bool","internalType":"bool"}],"stateMutability":"view"},{"type":"function","name":"upgradeToAndCall","inputs":[{"name":"newImplementation","type":"address","internalType":"address"},{"name":"data","type":"bytes","internalType":"bytes"}],"outputs":[],"stateMutability":"payable"},{"type":"function","name":"versionedPostconfirmedSuperBlocks","inputs":[{"name":"","type":"uint256","internalType":"uint256"},{"name":"superBlockHeight","type":"uint256","internalType":"uint256"}],"outputs":[{"name":"height","type":"uint256","internalType":"uint256"},{"name":"commitment","type":"bytes32","internalType":"bytes32"},{"name":"blockId","type":"bytes32","internalType":"bytes32"}],"stateMutability":"view"},{"type":"event","name":"Initialized","inputs":[{"name":"version","type":"uint64","indexed":false,"internalType":"uint64"}],"anonymous":false},{"type":"event","name":"RoleAdminChanged","inputs":[{"name":"role","type":"bytes32","indexed":true,"internalType":"bytes32"},{"name":"previousAdminRole","type":"bytes32","indexed":true,"internalType":"bytes32"},{"name":"newAdminRole","type":"bytes32","indexed":true,"internalType":"bytes32"}],"anonymous":false},{"type":"event","name":"RoleGranted","inputs":[{"name":"role","type":"bytes32","indexed":true,"internalType":"bytes32"},{"name":"account","type":"address","indexed":true,"internalType":"address"},{"name":"sender","type":"address","indexed":true,"internalType":"address"}],"anonymous":false},{"type":"event","name":"RoleRevoked","inputs":[{"name":"role","type":"bytes32","indexed":true,"internalType":"bytes32"},{"name":"account","type":"address","indexed":true,"internalType":"address"},{"name":"sender","type":"address","indexed":true,"internalType":"address"}],"anonymous":false},{"type":"event","name":"SuperBlockCommitmentSubmitted","inputs":[{"name":"blockHash","type":"bytes32","indexed":true,"internalType":"bytes32"},{"name":"stateCommitment","type":"bytes32","indexed":false,"internalType":"bytes32"},{"name":"attesterStake","type":"uint256","indexed":false,"internalType":"uint256"}],"anonymous":false},{"type":"event","name":"SuperBlockPostconfirmed","inputs":[{"name":"blockHash","type":"bytes32","indexed":true,"internalType":"bytes32"},{"name":"stateCommitment","type":"bytes32","indexed":false,"internalType":"bytes32"},{"name":"height","type":"uint256","indexed":false,"internalType":"uint256"}],"anonymous":false},{"type":"event","name":"Upgraded","inputs":[{"name":"implementation","type":"address","indexed":true,"internalType":"address"}],"anonymous":false},{"type":"error","name":"AccessControlBadConfirmation","inputs":[]},{"type":"error","name":"AccessControlUnauthorizedAccount","inputs":[{"name":"account","type":"address","internalType":"address"},{"name":"neededRole","type":"bytes32","internalType":"bytes32"}]},{"type":"error","name":"AddressEmptyCode","inputs":[{"name":"target","type":"address","internalType":"address"}]},{"type":"error","name":"AttesterAlreadyCommitted","inputs":[]},{"type":"error","name":"ERC1967InvalidImplementation","inputs":[{"name":"implementation","type":"address","internalType":"address"}]},{"type":"error","name":"ERC1967NonPayable","inputs":[]},{"type":"error","name":"FailedCall","inputs":[]},{"type":"error","name":"InvalidInitialization","inputs":[]},{"type":"error","name":"NotInitializing","inputs":[]},{"type":"error","name":"PostconfirmerDurationTooLong","inputs":[]},{"type":"error","name":"PostconfirmerDurationTooLongForEpoch","inputs":[]},{"type":"error","name":"UUPSUnauthorizedCallContext","inputs":[]},{"type":"error","name":"UUPSUnsupportedProxiableUUID","inputs":[{"name":"slot","type":"bytes32","internalType":"bytes32"}]},{"type":"error","name":"UnacceptableSuperBlockCommitment","inputs":[]},{"type":"error","name":"minCommitmentAgeForPostconfirmationTooLong","inputs":[]},{"type":"error","name":"postconfirmerPrivilegeDurationTooLong","inputs":[]}],"bytecode":{"object":"0x60a060405230608052348015601357600080fd5b50608051613c4561003d600039600081816126e60152818161270f01526128530152613c456000f3fe6080604052600436106104c05760003560e01c80636c713af811610276578063bff92c8c1161014f578063e07472ef116100c1578063ed8a1d5911610085578063ed8a1d59146110a3578063eda67fc4146110e6578063ee99205c14611122578063ef9ae15c14611142578063f1949add14610962578063fdafe9ca1461115c57600080fd5b8063e07472ef14610f94578063e4a3fb7414610fd0578063e90d4c061461100a578063ec18c18614611051578063ec23ec2e1461106757600080fd5b8063d283392e11610113578063d283392e14610eb9578063d3eef4cc14610ee6578063d440116d14610efc578063d547741f14610f1c578063d783068814610f3c578063da7d28b614610f7457600080fd5b8063bff92c8c14610e0b578063c19b406c14610e21578063cf6772ad14610e59578063d03509ec14610e79578063d2526fef14610e9957600080fd5b806391d14854116101e8578063a217fddf116101ac578063a217fddf14610d41578063aa0d6fcd14610d56578063ab208ebd14610d78578063ad3cb1cc14610d8d578063ba26513e14610dcb578063bb04bd2f14610deb57600080fd5b806391d1485414610caa57806392a2ebf314610cca578063943b79e214610cdf578063949d7c2a14610cf4578063a207fe2f14610d1457600080fd5b806380e460f01161023a57806380e460f014610bdb5780638129fc1c14610bfd57806381df174614610c1257806385e6b8c214610c3257806390879f6414610c5f57806391807e4f14610c7457600080fd5b80636c713af814610b145780636f86529414610b295780637aa81c2a14610b615780637ac561c814610b815780637cfd820514610bae57600080fd5b806336568abe116103a8578063556d97c81161031a5780635d3ea8f1116102de5780635d3ea8f114610a4f5780635db916ab14610a645780635f4d642e14610a865780635f83c7d514610a9b578063622e361614610ab15780636978ab1214610ad157600080fd5b8063556d97c81461096257806355b8119d146109e457806357342282146109fa5780635837687714610a1a57806359b9959714610a3a57600080fd5b806345367f231161036c57806345367f23146108c4578063491d0467146108e45780634b47d955146109045780634ceb2e66146109245780634f1ef2861461093a57806352d1902d1461094d57600080fd5b806336568abe146107f85780633752d6751461081857806337d7f58f1461082d5780633ba18005146108425780633d645927146108a457600080fd5b80631241ebe311610441578063248a9ca311610405578063248a9ca3146106e557806326624e37146107055780632bfd11d61461071a5780632f2ff15d1461078b5780633119edd4146107ab57806335ea1c63146107cb57600080fd5b80631241ebe31461064357806314e38026146106585780631db859c71461066d5780631de38fe1146106a55780631f83e2a3146106c557600080fd5b806308c7050f1161048857806308c7050f146105a15780630cf6b6bd146105c35780630d39f7f0146105e35780630e74b60914610603578063107e21ca1461062357600080fd5b806301ffc9a7146104c5578063026583d7146104fa578063028e490a1461053c57806303d3f7fd1461055b57806308750a3214610571575b600080fd5b3480156104d157600080fd5b506104e56104e03660046133da565b611172565b60405190151581526020015b60405180910390f35b34801561050657600080fd5b5061051a610515366004613404565b6111a9565b60408051825181526020808401519082015291810151908201526060016104f1565b34801561054857600080fd5b506006545b6040519081526020016104f1565b34801561056757600080fd5b5061054d60025481565b34801561057d57600080fd5b506104e561058c366004613430565b600c6020526000908152604090205460ff1681565b3480156105ad57600080fd5b506105c16105bc3660046134e7565b6111e3565b005b3480156105cf57600080fd5b506104e56105de3660046134e7565b611271565b3480156105ef57600080fd5b506105c16105fe366004613430565b6112f5565b34801561060f57600080fd5b506105c161061e3660046134e7565b611313565b34801561062f57600080fd5b506105c161063e3660046135b1565b61135d565b34801561064f57600080fd5b5060045461054d565b34801561066457600080fd5b5061054d611545565b34801561067957600080fd5b5061054d61068836600461363b565b601560209081526000928352604080842090915290825290205481565b3480156106b157600080fd5b5061054d6106c036600461363b565b611557565b3480156106d157600080fd5b506105c16106e0366004613430565b6115d3565b3480156106f157600080fd5b5061054d610700366004613430565b611689565b34801561071157600080fd5b506105c16116ab565b34801561072657600080fd5b5061051a610735366004613430565b604080516060808201835260008083526020808401829052928401819052601354815260128352838120948152938252928290208251938401835280548452600181015491840191909152600201549082015290565b34801561079757600080fd5b506105c16107a636600461363b565b6116b6565b3480156107b757600080fd5b506105c16107c63660046134e7565b6116d8565b3480156107d757600080fd5b506107e06117a6565b6040516001600160a01b0390911681526020016104f1565b34801561080457600080fd5b506105c161081336600461363b565b6118b0565b34801561082457600080fd5b5061054d6118e8565b34801561083957600080fd5b5061054d611956565b34801561084e57600080fd5b5061088961085d36600461366b565b601260209081526000928352604080842090915290825290208054600182015460029092015490919083565b604080519384526020840192909252908201526060016104f1565b3480156108b057600080fd5b506105c16108bf366004613430565b611987565b3480156108d057600080fd5b5061054d6108df366004613430565b611a3f565b3480156108f057600080fd5b5061054d6108ff36600461368d565b611afe565b34801561091057600080fd5b506105c161091f3660046136aa565b611b11565b34801561093057600080fd5b5061054d60045481565b6105c16109483660046136de565b611b81565b34801561095957600080fd5b5061054d611b9c565b34801561096e57600080fd5b5061051a61097d36600461363b565b60408051606081018252600080825260208201819052918101919091525060009182526008602090815260408084206001600160a01b0393909316845291815291819020815160608101835281548152600182015493810193909352600201549082015290565b3480156109f057600080fd5b5061054d60065481565b348015610a0657600080fd5b506105c1610a15366004613430565b611bb9565b348015610a2657600080fd5b506001546107e0906001600160a01b031681565b348015610a4657600080fd5b5060035461054d565b348015610a5b57600080fd5b5061054d611bd7565b348015610a7057600080fd5b5061054d600080516020613bf083398151915281565b348015610a9257600080fd5b5061054d611c08565b348015610aa757600080fd5b5061054d60165481565b348015610abd57600080fd5b506105c1610acc366004613789565b611ca4565b348015610add57600080fd5b5061054d610aec36600461363b565b60009182526014602090815260408084206001600160a01b0393909316845291905290205490565b348015610b2057600080fd5b5061054d611d1b565b348015610b3557600080fd5b5061054d610b4436600461363b565b601460209081526000928352604080842090915290825290205481565b348015610b6d57600080fd5b5061054d610b7c366004613828565b611d4c565b348015610b8d57600080fd5b5061054d610b9c366004613430565b600d6020526000908152604090205481565b348015610bba57600080fd5b5061054d610bc9366004613430565b600f6020526000908152604090205481565b348015610be757600080fd5b5061054d600080516020613b9083398151915281565b348015610c0957600080fd5b506105c1611dd8565b348015610c1e57600080fd5b506105c1610c2d36600461368d565b611ee4565b348015610c3e57600080fd5b5061054d610c4d366004613430565b60076020526000908152604090205481565b348015610c6b57600080fd5b5061054d611f14565b348015610c8057600080fd5b506107e0610c8f366004613430565b600b602052600090815260409020546001600160a01b031681565b348015610cb657600080fd5b506104e5610cc536600461363b565b611f9b565b348015610cd657600080fd5b506105c1611fd3565b348015610ceb57600080fd5b5061054d61208d565b348015610d0057600080fd5b506105c1610d0f36600461368d565b61209f565b348015610d2057600080fd5b5061054d610d2f366004613430565b600e6020526000908152604090205481565b348015610d4d57600080fd5b5061054d600081565b348015610d6257600080fd5b50610d6b6120de565b6040516104f191906138af565b348015610d8457600080fd5b5060055461054d565b348015610d9957600080fd5b50610dbe604051806040016040528060058152602001640352e302e360dc1b81525081565b6040516104f191906138e6565b348015610dd757600080fd5b5061054d610de636600461363b565b61214f565b348015610df757600080fd5b5061054d610e06366004613919565b612210565b348015610e1757600080fd5b5061054d60055481565b348015610e2d57600080fd5b5061054d610e3c36600461366b565b600960209081526000928352604080842090915290825290205481565b348015610e6557600080fd5b506105c1610e743660046136aa565b612224565b348015610e8557600080fd5b506105c1610e94366004613430565b612274565b348015610ea557600080fd5b506105c1610eb4366004613947565b6122f4565b348015610ec557600080fd5b5061054d610ed4366004613430565b60009081526007602052604090205490565b348015610ef257600080fd5b5061054d60175481565b348015610f0857600080fd5b5061054d610f1736600461368d565b612320565b348015610f2857600080fd5b506105c1610f3736600461363b565b612333565b348015610f4857600080fd5b5061054d610f5736600461366b565b600a60209081526000928352604080842090915290825290205481565b348015610f8057600080fd5b506105c1610f8f366004613430565b61234f565b348015610fa057600080fd5b5061054d610faf3660046134e7565b80516000908152600a60209081526040808320938201518352929052205490565b348015610fdc57600080fd5b506104e5610feb366004613430565b6000908152600860209081526040808320338452909152902054151590565b34801561101657600080fd5b5061088961102536600461363b565b600860209081526000928352604080842090915290825290208054600182015460029092015490919083565b34801561105d57600080fd5b5061054d60135481565b34801561107357600080fd5b506104e5611082366004613430565b60135460009081526012602090815260408083209383529290522054151590565b3480156110af57600080fd5b5061054d6110be36600461363b565b60009182526015602090815260408084206001600160a01b0393909316845291905290205490565b3480156110f257600080fd5b50610889611101366004613430565b60106020526000908152604090208054600182015460029092015490919083565b34801561112e57600080fd5b506000546107e0906001600160a01b031681565b34801561114e57600080fd5b506011546104e59060ff1681565b34801561116857600080fd5b5061054d60035481565b60006001600160e01b03198216637965db0b60e01b14806111a357506301ffc9a760e01b6001600160e01b03198316145b92915050565b60408051606080820183526000808352602080840182905292840152825190810183528581529081018490529081018290525b9392505050565b6111fb600080516020613b9083398151915233611f9b565b6112655760405162461bcd60e51b815260206004820152603060248201527f464f5243455f4c41544553545f434f4d4d49544d454e545f49535f434f4d4d4960448201526f544d454e545f41444d494e5f4f4e4c5960801b60648201526084015b60405180910390fd5b61126e816116d8565b50565b80516000908152600a6020908152604080832082850151845290915281205460000361129f57506000919050565b426112a960065490565b60055484516000908152600a602090815260408083208289015184529091529020546112d5919061397f565b6112df919061397f565b10156112ed57506000919050565b506001919050565b600080516020613b9083398151915261130d81612405565b50601655565b60115460ff16806113375750611337600080516020613bf083398151915233611f9b565b6113535760405162461bcd60e51b815260040161125c90613992565b61126e338261240f565b7ff0c57e16840df040f15088dc2f81fe391c3923bec73e23a9662efc9c229c6a008054600160401b810460ff1615906001600160401b03166000811580156113a25750825b90506000826001600160401b031660011480156113be5750303b155b9050811580156113cc575080155b156113ea5760405163f92ee8a960e01b815260040160405180910390fd5b845467ffffffffffffffff19166001178555831561141457845460ff60401b1916600160401b1785555b61141c612589565b600080546001600160a01b0319166001600160a01b038e1690811790915560028b905560038c9055604051631a6e609f60e31b815263d37304f890611467908c908c906004016139d4565b600060405180830381600087803b15801561148157600080fd5b505af1158015611495573d6000803e3d6000fd5b505050506114a23361209f565b6114ab33611ee4565b6004879055600180546001600160a01b0319166001600160a01b0388161790556114d6600a8a613a03565b6005556114e4600a8a613a03565b60065560016016819055601755831561153757845460ff60401b19168555604051600181527fc7f505b2f371ae2175ee4913f4499e1f2633a7b5936321eed1cdaeb6115181d29060200160405180910390a15b505050505050505050505050565b60006115526108df611d1b565b905090565b60008054604051630ce52af560e01b8152306004820152602481018590526001600160a01b03848116604483015290911690630ce52af590606401602060405180830381865afa1580156115af573d6000803e3d6000fd5b505050506040513d601f19601f820116820180604052508101906111dc9190613a17565b600080516020613b908339815191526115eb81612405565b600654600054604051635c53435960e01b81523060048201526001600160a01b0390911690635c53435990602401602060405180830381865afa158015611636573d6000803e3d6000fd5b505050506040513d601f19601f8201168201806040525081019061165a9190613a17565b6116649190613a30565b82106116835760405163a7075e5f60e01b815260040160405180910390fd5b50600555565b6000908152600080516020613bd0833981519152602052604090206001015490565b6116b43361259c565b565b6116bf82611689565b6116c881612405565b6116d283836125ba565b50505050565b6116f0600080516020613b9083398151915233611f9b565b6117705760405162461bcd60e51b8152602060048201526044602482018190527f5345545f4c4153545f504f5354434f4e4649524d45445f434f4d4d49544d454e908201527f545f41545f4845494748545f49535f434f4d4d49544d454e545f41444d494e5f6064820152634f4e4c5960e01b608482015260a40161125c565b60135460009081526012602090815260408083208451845282529182902083518155908301516001820155910151600290910155565b6000806117b1611c08565b905060006117bd611f14565b60008054604051634234a47960e01b815230600482015292935090916001600160a01b0390911690634234a47990602401600060405180830381865afa15801561180b573d6000803e3d6000fd5b505050506040513d6000823e601f3d908101601f191682016040526118339190810190613a43565b90508051600003611848576000935050505090565b600081518484604051602001611868929190918252602082015260400190565b6040516020818303038152906040528051906020012060001c61188b9190613ad7565b905081818151811061189f5761189f613aeb565b602002602001015194505050505090565b6001600160a01b03811633146118d95760405163334bd91960e11b815260040160405180910390fd5b6118e3828261265f565b505050565b60008054604051631dc7f3f160e21b81523060048201526001600160a01b039091169063771fcfc4906024015b602060405180830381865afa158015611932573d6000803e3d6000fd5b505050506040513d601f19601f820116820180604052508101906115529190613a17565b6000805460405163d980b40d60e01b81523060048201526001600160a01b039091169063d980b40d90602401611915565b600080516020613b9083398151915261199f81612405565b60008054604051635c53435960e01b81523060048201526001600160a01b0390911690635c53435990602401602060405180830381865afa1580156119e8573d6000803e3d6000fd5b505050506040513d601f19601f82011682018060405250810190611a0c9190613a17565b905080611a1a846002613b01565b10611a38576040516360bc402f60e01b815260040160405180910390fd5b5050600455565b6000805460405163341d5ef560e01b815230600482015282916001600160a01b03169063341d5ef590602401600060405180830381865afa158015611a88573d6000803e3d6000fd5b505050506040513d6000823e601f3d908101601f19168201604052611ab09190810190613a43565b90506000805b8251811015611af657611ae285848381518110611ad557611ad5613aeb565b6020026020010151611557565b611aec908361397f565b9150600101611ab6565b509392505050565b60006111a3611b0b611d1b565b8361214f565b611b1c600033611f9b565b611b385760405162461bcd60e51b815260040161125c90613b18565b60005b8151811015611b7d57611b75600080516020613b90833981519152838381518110611b6857611b68613aeb565b60200260200101516116b6565b600101611b3b565b5050565b611b896126db565b611b9282612780565b611b7d828261278b565b6000611ba6612848565b50600080516020613bb083398151915290565b600080516020613b90833981519152611bd181612405565b50601755565b60008054604051635c53435960e01b81523060048201526001600160a01b0390911690635c53435990602401611915565b60008054604051635c53435960e01b8152306004820152429183916001600160a01b0390911690635c53435990602401602060405180830381865afa158015611c55573d6000803e3d6000fd5b505050506040513d601f19601f82011682018060405250810190611c799190613a17565b611c839083613ad7565b905060045481611c939190613ad7565b611c9d9082613a30565b9250505090565b60115460ff1680611cc85750611cc8600080516020613bf083398151915233611f9b565b611ce45760405162461bcd60e51b815260040161125c90613992565b60005b8151811015611b7d57611d1333838381518110611d0657611d06613aeb565b602002602001015161240f565b600101611ce7565b600080546040516322fceb7560e01b81523060048201526001600160a01b03909116906322fceb7590602401611915565b600080546040516324f7ee1760e21b8152306004820152602481018690526001600160a01b0385811660448301528481166064830152909116906393dfb85c90608401602060405180830381865afa158015611dac573d6000803e3d6000fd5b505050506040513d601f19601f82011682018060405250810190611dd09190613a17565b949350505050565b7ff0c57e16840df040f15088dc2f81fe391c3923bec73e23a9662efc9c229c6a008054600160401b810460ff1615906001600160401b0316600081158015611e1d5750825b90506000826001600160401b03166001148015611e395750303b155b905081158015611e47575080155b15611e655760405163f92ee8a960e01b815260040160405180910390fd5b845467ffffffffffffffff191660011785558315611e8f57845460ff60401b1916600160401b1785555b611e97612891565b8315611edd57845460ff60401b19168555604051600181527fc7f505b2f371ae2175ee4913f4499e1f2633a7b5936321eed1cdaeb6115181d29060200160405180910390a15b5050505050565b600080516020613b90833981519152611efc81612405565b611b7d600080516020613bf0833981519152836116b6565b60008054604051635c53435960e01b815230600482015242916001600160a01b031690635c53435990602401602060405180830381865afa158015611f5d573d6000803e3d6000fd5b505050506040513d601f19601f82011682018060405250810190611f819190613a17565b611f8b9082613ad7565b611f959082613a30565b91505090565b6000918252600080516020613bd0833981519152602090815260408084206001600160a01b0393909316845291905290205460ff1690565b611fde600033611f9b565b6120385760405162461bcd60e51b815260206004820152602560248201527f4143434550545f47454e455349535f434552454d4f4e595f49535f41444d494e6044820152645f4f4e4c5960d81b606482015260840161125c565b60008054604080516392a2ebf360e01b815290516001600160a01b03909216926392a2ebf39260048084019382900301818387803b15801561207957600080fd5b505af11580156116d2573d6000803e3d6000fd5b6000600254600354611552919061397f565b6120aa600033611f9b565b6120c65760405162461bcd60e51b815260040161125c90613b18565b61126e600080516020613b90833981519152826116b6565b600054604051634234a47960e01b81523060048201526060916001600160a01b031690634234a47990602401600060405180830381865afa158015612127573d6000803e3d6000fd5b505050506040513d6000823e601f3d908101601f191682016040526115529190810190613a43565b6000805460405163341d5ef560e01b815230600482015282916001600160a01b03169063341d5ef590602401600060405180830381865afa158015612198573d6000803e3d6000fd5b505050506040513d6000823e601f3d908101601f191682016040526121c09190810190613a43565b90506000805b8251811015612207576121f3868483815181106121e5576121e5613aeb565b602002602001015187611d4c565b6121fd908361397f565b91506001016121c6565b50949350505050565b60006111dc61221d611d1b565b8484611d4c565b600080516020613b9083398151915261223c81612405565b60005b82518110156118e35761226c600080516020613bf0833981519152848381518110611b6857611b68613aeb565b60010161223f565b600080516020613b9083398151915261228c81612405565b600054604051631dc8b94960e01b8152306004820152602481018490526001600160a01b0390911690631dc8b94990604401600060405180830381600087803b1580156122d857600080fd5b505af11580156122ec573d6000803e3d6000fd5b505050505050565b600080516020613b9083398151915261230c81612405565b506011805460ff1916911515919091179055565b60006111a361232d611d1b565b83611557565b61233c82611689565b61234581612405565b6116d2838361265f565b600080516020613b9083398151915261236781612405565b600554600054604051635c53435960e01b81523060048201526001600160a01b0390911690635c53435990602401602060405180830381865afa1580156123b2573d6000803e3d6000fd5b505050506040513d601f19601f820116820180604052508101906123d69190613a17565b6123e09190613a30565b82106123ff57604051633c9f1a5360e01b815260040160405180910390fd5b50600655565b61126e81336128a1565b805160009081526008602090815260408083206001600160a01b03861684529091529020541561245257604051630ae09ad960e41b815260040160405180910390fd5b8051600254600354612464919061397f565b101561248357604051630ae09ad960e41b815260040160405180910390fd5b805160009081526007602052604081205490036124b4576124a2611956565b81516000908152600760205260409020555b805160009081526008602090815260408083206001600160a01b038616845282529182902083518082559184015160018201819055928401516002909101556124fd91426128da565b600061250883611afe565b8251600090815260096020908152604080832082870151845290915281208054929350839290919061253b90849061397f565b9091555050604080830151602080850151835190815290810184905290917fa8445a6b8a16633ad62fbc0954848ec55c4d5323d90b9745dbda4121ec5ce12b910160405180910390a2505050565b612591612927565b61126e6000336125ba565b6125b360035460016125ae919061397f565b612970565b61259c5750565b6000600080516020613bd08339815191526125d58484611f9b565b612655576000848152602082815260408083206001600160a01b03871684529091529020805460ff1916600117905561260b3390565b6001600160a01b0316836001600160a01b0316857f2f8788117e7eff1d82e926ec794901d17c78024a50270940304540a733656f0d60405160405180910390a460019150506111a3565b60009150506111a3565b6000600080516020613bd083398151915261267a8484611f9b565b15612655576000848152602082815260408083206001600160a01b0387168085529252808320805460ff1916905551339287917ff6391f5c32d9c69d2a47ea670b442974b53935d1edc7fd64eb21e047a839171b9190a460019150506111a3565b306001600160a01b037f000000000000000000000000000000000000000000000000000000000000000016148061276257507f00000000000000000000000000000000000000000000000000000000000000006001600160a01b0316612756600080516020613bb0833981519152546001600160a01b031690565b6001600160a01b031614155b156116b45760405163703e46dd60e11b815260040160405180910390fd5b6000611b7d81612405565b816001600160a01b03166352d1902d6040518163ffffffff1660e01b8152600401602060405180830381865afa9250505080156127e5575060408051601f3d908101601f191682019092526127e291810190613a17565b60015b61280d57604051634c9c8ce360e01b81526001600160a01b038316600482015260240161125c565b600080516020613bb0833981519152811461283e57604051632a87526960e21b81526004810182905260240161125c565b6118e38383612bed565b306001600160a01b037f000000000000000000000000000000000000000000000000000000000000000016146116b45760405163703e46dd60e11b815260040160405180910390fd5b612899612927565b6116b4612589565b6128ab8282611f9b565b611b7d5760405163e2517d3f60e01b81526001600160a01b03821660048201526024810183905260440161125c565b6000838152600a60209081526040808320858452909152902054156128fe57505050565b8060000361290b57505050565b6000928352600a60209081526040808520938552929052912055565b7ff0c57e16840df040f15088dc2f81fe391c3923bec73e23a9662efc9c229c6a0054600160401b900460ff166116b457604051631afcd79f60e31b815260040160405180910390fd5b60008181526007602052604081205460035415612a48576000600781612997600187613a30565b815260200190815260200160002054905080821015612a465760006129ba6120de565b905060005b8151811015612a40576008600087815260200190815260200160002060008383815181106129ef576129ef613aeb565b60200260200101516001600160a01b03166001600160a01b0316815260200190815260200160002060000154600014612a38576000868152600760205260409020839055612a40565b6001016129bf565b50819250505b505b80612a51611d1b565b1015612a6457612a5f612c43565b612a48565b60006003612a7183611a3f565b612a7c906002613b01565b612a869190613a03565b612a9190600161397f565b90506000612a9d6120de565b90506000805b8251811015612bac576000838281518110612ac057612ac0613aeb565b60209081029190910181015160008a81526008835260408082206001600160a01b03841683528452908190208151606081018352815480825260018301549582019590955260029091015491810191909152909250908914612b23575050612ba4565b80516000908152600960209081526040808320828501518452909152902054868110612ba05781516000908152600a60209081526040808320828601518452909152902054600554612b75908261397f565b421015612b855750505050612bac565b612b8f8333612fa2565b5060019a9950505050505050505050565b5050505b600101612aa3565b5080158015612bc85750612bbe611d1b565b612bc6611956565b115b15612be157612bd5612c43565b50600195945050505050565b50600095945050505050565b612bf68261325b565b6040516001600160a01b038316907fbc7cd75a20ee27fd9adebab32041f755214dbc6bffa90cc0225b39da2e5c2d3b90600090a2805115612c3b576118e382826132c0565b611b7d613336565b6000612c4d611d1b565b90506000612c596120de565b905060005b8151811015612f6057600083815260146020526040812083518290859085908110612c8b57612c8b613aeb565b60200260200101516001600160a01b03166001600160a01b03168152602001908152602001600020541115612de6576000612cde838381518110612cd157612cd1613aeb565b6020026020010151611afe565b601654601460008781526020019081526020016000206000868681518110612d0857612d08613aeb565b60200260200101516001600160a01b03166001600160a01b0316815260200190815260200160002054612d3b9190613b01565b612d459190613b01565b60005484519192506001600160a01b031690635e00bf4690859085908110612d6f57612d6f613aeb565b60209081029190910101516001546040516001600160e01b031960e085901b1681526001600160a01b0392831660048201526024810186905291166044820152606401600060405180830381600087803b158015612dcc57600080fd5b505af1158015612de0573d6000803e3d6000fd5b50505050505b600083815260156020526040812083518290859085908110612e0a57612e0a613aeb565b60200260200101516001600160a01b03166001600160a01b03168152602001908152602001600020541115612f58576000612e50838381518110612cd157612cd1613aeb565b601754601560008781526020019081526020016000206000868681518110612e7a57612e7a613aeb565b60200260200101516001600160a01b03166001600160a01b0316815260200190815260200160002054612ead9190613b01565b612eb79190613b01565b60005484519192506001600160a01b031690635e00bf4690859085908110612ee157612ee1613aeb565b60209081029190910101516001546040516001600160e01b031960e085901b1681526001600160a01b0392831660048201526024810186905291166044820152606401600060405180830381600087803b158015612f3e57600080fd5b505af1158015612f52573d6000803e3d6000fd5b50505050505b600101612c5e565b506000805460408051632a21edc760e21b815290516001600160a01b039092169263a887b71c9260048084019382900301818387803b1580156122d857600080fd5b6000612fac611d1b565b83516000908152600760205260409020549091508114612fdf57604051631f2d18b160e31b815260040160405180910390fd5b8251612fed90600190613a30565b6003541461300e57604051631f2d18b160e31b815260040160405180910390fd5b60006130186120de565b905060005b81518110156130f55784602001516008600087600001518152602001908152602001600020600084848151811061305657613056613aeb565b60200260200101516001600160a01b03166001600160a01b0316815260200190815260200160002060010154036130ed576014600084815260200190815260200160002060008383815181106130ae576130ae613aeb565b60200260200101516001600160a01b03166001600160a01b0316815260200190815260200160002060008154809291906130e790613b5a565b91905055505b60010161301d565b506130ff84611271565b6131415760008281526015602090815260408083206001600160a01b0387168452909152812080546001929061313690849061397f565b9091555061319a9050565b826001600160a01b03166131536117a6565b6001600160a01b03160361319a5760008281526015602090815260408083206001600160a01b0387168452909152812080546001929061319490849061397f565b90915550505b601354600090815260126020908152604080832087518452825280832087518082558884018051600184015589840180516002909401939093556003829055908552600b845282852080546001600160a01b0319166001600160a01b038a1617905588518552600d845282852043905588518552600e84529382902042905551925187518251918252928101929092527fc28fbeddd1d6ba9496d1b91564f9aa2bc4dffed78aae631bbc6ef67296ad3c3c910160405180910390a250505050565b806001600160a01b03163b60000361329157604051634c9c8ce360e01b81526001600160a01b038216600482015260240161125c565b600080516020613bb083398151915280546001600160a01b0319166001600160a01b0392909216919091179055565b6060600080846001600160a01b0316846040516132dd9190613b73565b600060405180830381855af49150503d8060008114613318576040519150601f19603f3d011682016040523d82523d6000602084013e61331d565b606091505b509150915061332d858383613355565b95945050505050565b34156116b45760405163b398979f60e01b815260040160405180910390fd5b60608261336a57613365826133b1565b6111dc565b815115801561338157506001600160a01b0384163b155b156133aa57604051639996b31560e01b81526001600160a01b038516600482015260240161125c565b50806111dc565b8051156133c15780518082602001fd5b60405163d6bda27560e01b815260040160405180910390fd5b6000602082840312156133ec57600080fd5b81356001600160e01b0319811681146111dc57600080fd5b60008060006060848603121561341957600080fd5b505081359360208301359350604090920135919050565b60006020828403121561344257600080fd5b5035919050565b634e487b7160e01b600052604160045260246000fd5b604051601f8201601f191681016001600160401b038111828210171561348757613487613449565b604052919050565b6000606082840312156134a157600080fd5b604051606081016001600160401b03811182821017156134c3576134c3613449565b60409081528335825260208085013590830152928301359281019290925250919050565b6000606082840312156134f957600080fd5b6111dc838361348f565b6001600160a01b038116811461126e57600080fd5b60006001600160401b0382111561353157613531613449565b5060051b60200190565b600082601f83011261354c57600080fd5b813561355f61355a82613518565b61345f565b8082825260208201915060208360051b86010192508583111561358157600080fd5b602085015b838110156135a757803561359981613503565b835260209283019201613586565b5095945050505050565b600080600080600080600060e0888a0312156135cc57600080fd5b87356135d781613503565b965060208801359550604088013594506060880135935060808801356001600160401b0381111561360757600080fd5b6136138a828b0161353b565b93505060a0880135915060c088013561362b81613503565b8091505092959891949750929550565b6000806040838503121561364e57600080fd5b82359150602083013561366081613503565b809150509250929050565b6000806040838503121561367e57600080fd5b50508035926020909101359150565b60006020828403121561369f57600080fd5b81356111dc81613503565b6000602082840312156136bc57600080fd5b81356001600160401b038111156136d257600080fd5b611dd08482850161353b565b600080604083850312156136f157600080fd5b82356136fc81613503565b915060208301356001600160401b0381111561371757600080fd5b8301601f8101851361372857600080fd5b80356001600160401b0381111561374157613741613449565b613754601f8201601f191660200161345f565b81815286602083850101111561376957600080fd5b816020840160208301376000602083830101528093505050509250929050565b60006020828403121561379b57600080fd5b81356001600160401b038111156137b157600080fd5b8201601f810184136137c257600080fd5b80356137d061355a82613518565b808282526020820191506020606084028501019250868311156137f257600080fd5b6020840193505b8284101561381e5761380b878561348f565b82526020820191506060840193506137f9565b9695505050505050565b60008060006060848603121561383d57600080fd5b83359250602084013561384f81613503565b9150604084013561385f81613503565b809150509250925092565b600081518084526020840193506020830160005b828110156138a55781516001600160a01b031686526020958601959091019060010161387e565b5093949350505050565b6020815260006111dc602083018461386a565b60005b838110156138dd5781810151838201526020016138c5565b50506000910152565b60208152600082518060208401526139058160408501602087016138c2565b601f01601f19169190910160400192915050565b6000806040838503121561392c57600080fd5b823561393781613503565b9150602083013561366081613503565b60006020828403121561395957600080fd5b813580151581146111dc57600080fd5b634e487b7160e01b600052601160045260246000fd5b808201808211156111a3576111a3613969565b60208082526022908201527f554e415554484f52495a45445f5355504552424c4f434b5f434f4d4d49544d45604082015261139560f21b606082015260800190565b828152604060208201526000611dd0604083018461386a565b634e487b7160e01b600052601260045260246000fd5b600082613a1257613a126139ed565b500490565b600060208284031215613a2957600080fd5b5051919050565b818103818111156111a3576111a3613969565b600060208284031215613a5557600080fd5b81516001600160401b03811115613a6b57600080fd5b8201601f81018413613a7c57600080fd5b8051613a8a61355a82613518565b8082825260208201915060208360051b850101925086831115613aac57600080fd5b6020840193505b8284101561381e578351613ac681613503565b825260209384019390910190613ab3565b600082613ae657613ae66139ed565b500690565b634e487b7160e01b600052603260045260246000fd5b80820281158282048414176111a3576111a3613969565b60208082526022908201527f4144445f434f4d4d49544d454e545f41444d494e5f49535f41444d494e5f4f4e6040820152614c5960f01b606082015260800190565b600060018201613b6c57613b6c613969565b5060010190565b60008251613b858184602087016138c2565b919091019291505056fedb2bf73e90d393604e56f0a2a54fed3fbd75332bf39c5ea0704b3b6973a3463c360894a13ba1a3210667c828492db98dca3e2076cc3735a920a3ca505d382bbc02dd7bc7dec4dceedda775e58dd541e08a116c6c53815c0bd028192f7b626800981fe5f60e354ed88ff0544e367c13a4d3342da7c82eb6627f804b747e046e18a2646970667358221220656f27229b704d593f2433b2c2e9c811cafaa061388018f7b6de9dc5e07be8b664736f6c634300081a0033","linkReferences":{}},"methodIdentifiers":{"COMMITMENT_ADMIN()":"80e460f0","DEFAULT_ADMIN_ROLE()":"a217fddf","TRUSTED_ATTESTER()":"5db916ab","UPGRADE_INTERFACE_VERSION()":"ad3cb1cc","acceptGenesisCeremony()":"92a2ebf3","attesterRewardPoints(uint256,address)":"6f865294","batchGrantCommitmentAdmin(address[])":"4b47d955","batchGrantTrustedAttester(address[])":"cf6772ad","commitmentFirstSeenAt(uint256,bytes32)":"d7830688","commitmentStake(uint256,bytes32)":"c19b406c","commitments(uint256,address)":"e90d4c06","createSuperBlockCommitment(uint256,bytes32,bytes32)":"026583d7","forceLatestCommitment((uint256,bytes32,bytes32))":"08c7050f","getAcceptingEpoch()":"6c713af8","getAttesterRewardPoints(uint256,address)":"6978ab12","getAttesterStake(uint256,address)":"ba26513e","getAttesterStakeForAcceptingEpoch(address)":"491d0467","getCommitmentByAttester(uint256,address)":"f1949add","getCommitmentFirstSeenAt((uint256,bytes32,bytes32))":"e07472ef","getCustodianStake(uint256,address)":"1de38fe1","getCustodianStakeForAcceptingEpoch(address)":"d440116d","getEpochDuration()":"5d3ea8f1","getEpochStartTime()":"90879f64","getLastPostconfirmedSuperBlockHeight()":"59b99597","getMaxTolerableSuperBlockHeight()":"943b79e2","getMinCommitmentAgeForPostconfirmation()":"ab208ebd","getNextAcceptingEpochWithException()":"3752d675","getPostconfirmedCommitment(uint256)":"2bfd11d6","getPostconfirmer()":"35ea1c63","getPostconfirmerDuration()":"1241ebe3","getPostconfirmerPrivilegeDuration()":"028e490a","getPostconfirmerRewardPoints(uint256,address)":"ed8a1d59","getPostconfirmerStartTime()":"5f4d642e","getPresentEpoch()":"37d7f58f","getRoleAdmin(bytes32)":"248a9ca3","getStake(uint256,address,address)":"7aa81c2a","getStakeForAcceptingEpoch(address,address)":"bb04bd2f","getStakedAttestersForAcceptingEpoch()":"aa0d6fcd","getSuperBlockHeightAssignedEpoch(uint256)":"d283392e","getTotalStake(uint256)":"45367f23","getTotalStakeForAcceptingEpoch()":"14e38026","getValidatorCommitmentAtSuperBlockHeight(uint256,address)":"556d97c8","grantCommitmentAdmin(address)":"949d7c2a","grantRole(bytes32,address)":"2f2ff15d","grantTrustedAttester(address)":"81df1746","hasRole(bytes32,address)":"91d14854","initialize()":"8129fc1c","initialize(address,uint256,uint256,uint256,address[],uint256,address)":"107e21ca","isCommitted(uint256)":"e4a3fb74","isPostconfirmed(uint256)":"ec23ec2e","isWithinPostconfirmerPrivilegeDuration((uint256,bytes32,bytes32))":"0cf6b6bd","lastPostconfirmedSuperBlockHeight()":"fdafe9ca","leadingSuperBlockTolerance()":"03d3f7fd","minCommitmentAgeForPostconfirmation()":"bff92c8c","moveTokenAddress()":"58376877","openAttestationEnabled()":"ef9ae15c","postconfirmSuperBlocksAndRollover()":"26624e37","postconfirmedAtL1BlockHeight(uint256)":"7ac561c8","postconfirmedAtL1BlockHeightByPostconfirmer(uint256)":"7cfd8205","postconfirmedAtL1BlockTimestamp(uint256)":"a207fe2f","postconfirmedBy(uint256)":"91807e4f","postconfirmedByPostconfirmer(uint256)":"08750a32","postconfirmedSuperBlocks(uint256)":"eda67fc4","postconfirmedSuperBlocksVersion()":"ec18c186","postconfirmerDuration()":"4ceb2e66","postconfirmerPrivilegeDuration()":"55b8119d","postconfirmerRewardPoints(uint256,address)":"1db859c7","proxiableUUID()":"52d1902d","renounceRole(bytes32,address)":"36568abe","revokeRole(bytes32,address)":"d547741f","rewardPerAttestationPoint()":"5f83c7d5","rewardPerPostconfirmationPoint()":"d3eef4cc","setAcceptingEpoch(uint256)":"d03509ec","setMinCommitmentAgeForPostconfirmation(uint256)":"1f83e2a3","setOpenAttestationEnabled(bool)":"d2526fef","setPostconfirmedCommitmentAtBlockHeight((uint256,bytes32,bytes32))":"3119edd4","setPostconfirmerDuration(uint256)":"3d645927","setPostconfirmerPrivilegeDuration(uint256)":"da7d28b6","setRewardPerAttestationPoint(uint256)":"0d39f7f0","setRewardPerPostconfirmationPoint(uint256)":"57342282","stakingContract()":"ee99205c","submitBatchSuperBlockCommitment((uint256,bytes32,bytes32)[])":"622e3616","submitSuperBlockCommitment((uint256,bytes32,bytes32))":"0e74b609","superBlockHeightAssignedEpoch(uint256)":"85e6b8c2","supportsInterface(bytes4)":"01ffc9a7","upgradeToAndCall(address,bytes)":"4f1ef286","versionedPostconfirmedSuperBlocks(uint256,uint256)":"3ba18005"},"id":107}