{"abi":[{"type":"function","name":"COMMITMENT_ADMIN","inputs":[],"outputs":[{"name":"","type":"bytes32","internalType":"bytes32"}],"stateMutability":"view"},{"type":"function","name":"DEFAULT_ADMIN_ROLE","inputs":[],"outputs":[{"name":"","type":"bytes32","internalType":"bytes32"}],"stateMutability":"view"},{"type":"function","name":"TRUSTED_ATTESTER","inputs":[],"outputs":[{"name":"","type":"bytes32","internalType":"bytes32"}],"stateMutability":"view"},{"type":"function","name":"UPGRADE_INTERFACE_VERSION","inputs":[],"outputs":[{"name":"","type":"string","internalType":"string"}],"stateMutability":"view"},{"type":"function","name":"acceptGenesisCeremony","inputs":[],"outputs":[],"stateMutability":"nonpayable"},{"type":"function","name":"attesterRewardPoints","inputs":[{"name":"epoch","type":"uint256","internalType":"uint256"},{"name":"attester","type":"address","internalType":"address"}],"outputs":[{"name":"points","type":"uint256","internalType":"uint256"}],"stateMutability":"view"},{"type":"function","name":"batchGrantCommitmentAdmin","inputs":[{"name":"accounts","type":"address[]","internalType":"address[]"}],"outputs":[],"stateMutability":"nonpayable"},{"type":"function","name":"batchGrantTrustedAttester","inputs":[{"name":"attesters","type":"address[]","internalType":"address[]"}],"outputs":[],"stateMutability":"nonpayable"},{"type":"function","name":"commitmentFirstSeenAt","inputs":[{"name":"commitmentHeight","type":"uint256","internalType":"uint256"},{"name":"commitment","type":"bytes32","internalType":"bytes32"}],"outputs":[{"name":"timestamp","type":"uint256","internalType":"uint256"}],"stateMutability":"view"},{"type":"function","name":"commitmentHeightAssignedEpoch","inputs":[{"name":"commitmentHeight","type":"uint256","internalType":"uint256"}],"outputs":[{"name":"epoch","type":"uint256","internalType":"uint256"}],"stateMutability":"view"},{"type":"function","name":"commitmentStake","inputs":[{"name":"commitmentHeight","type":"uint256","internalType":"uint256"},{"name":"commitment","type":"bytes32","internalType":"bytes32"}],"outputs":[{"name":"stake","type":"uint256","internalType":"uint256"}],"stateMutability":"view"},{"type":"function","name":"commitments","inputs":[{"name":"commitmentHeight","type":"uint256","internalType":"uint256"},{"name":"attester","type":"address","internalType":"address"}],"outputs":[{"name":"height","type":"uint256","internalType":"uint256"},{"name":"commitmentValue","type":"bytes32","internalType":"bytes32"},{"name":"commitmentId","type":"bytes32","internalType":"bytes32"}],"stateMutability":"view"},{"type":"function","name":"createCommitment","inputs":[{"name":"height","type":"uint256","internalType":"uint256"},{"name":"commitmentValue","type":"bytes32","internalType":"bytes32"},{"name":"commitmentId","type":"bytes32","internalType":"bytes32"}],"outputs":[{"name":"","type":"tuple","internalType":"struct PCPStorage.Commitment","components":[{"name":"height","type":"uint256","internalType":"uint256"},{"name":"commitmentValue","type":"bytes32","internalType":"bytes32"},{"name":"commitmentId","type":"bytes32","internalType":"bytes32"}]}],"stateMutability":"pure"},{"type":"function","name":"forceLatestCommitment","inputs":[{"name":"commitment","type":"tuple","internalType":"struct PCPStorage.Commitment","components":[{"name":"height","type":"uint256","internalType":"uint256"},{"name":"commitmentValue","type":"bytes32","internalType":"bytes32"},{"name":"commitmentId","type":"bytes32","internalType":"bytes32"}]}],"outputs":[],"stateMutability":"nonpayable"},{"type":"function","name":"getAcceptingEpoch","inputs":[],"outputs":[{"name":"","type":"uint256","internalType":"uint256"}],"stateMutability":"view"},{"type":"function","name":"getAttesterRewardPoints","inputs":[{"name":"epoch","type":"uint256","internalType":"uint256"},{"name":"attester","type":"address","internalType":"address"}],"outputs":[{"name":"","type":"uint256","internalType":"uint256"}],"stateMutability":"view"},{"type":"function","name":"getAttesterStake","inputs":[{"name":"epoch","type":"uint256","internalType":"uint256"},{"name":"attester","type":"address","internalType":"address"}],"outputs":[{"name":"","type":"uint256","internalType":"uint256"}],"stateMutability":"view"},{"type":"function","name":"getAttesterStakeForAcceptingEpoch","inputs":[{"name":"attester","type":"address","internalType":"address"}],"outputs":[{"name":"","type":"uint256","internalType":"uint256"}],"stateMutability":"view"},{"type":"function","name":"getCommitmentByAttester","inputs":[{"name":"height","type":"uint256","internalType":"uint256"},{"name":"attester","type":"address","internalType":"address"}],"outputs":[{"name":"","type":"tuple","internalType":"struct PCPStorage.Commitment","components":[{"name":"height","type":"uint256","internalType":"uint256"},{"name":"commitmentValue","type":"bytes32","internalType":"bytes32"},{"name":"commitmentId","type":"bytes32","internalType":"bytes32"}]}],"stateMutability":"view"},{"type":"function","name":"getCommitmentFirstSeenAt","inputs":[{"name":"commitment","type":"tuple","internalType":"struct PCPStorage.Commitment","components":[{"name":"height","type":"uint256","internalType":"uint256"},{"name":"commitmentValue","type":"bytes32","internalType":"bytes32"},{"name":"commitmentId","type":"bytes32","internalType":"bytes32"}]}],"outputs":[{"name":"","type":"uint256","internalType":"uint256"}],"stateMutability":"view"},{"type":"function","name":"getCommitmentHeightAssignedEpoch","inputs":[{"name":"height","type":"uint256","internalType":"uint256"}],"outputs":[{"name":"","type":"uint256","internalType":"uint256"}],"stateMutability":"view"},{"type":"function","name":"getCustodianStake","inputs":[{"name":"epoch","type":"uint256","internalType":"uint256"},{"name":"custodian","type":"address","internalType":"address"}],"outputs":[{"name":"","type":"uint256","internalType":"uint256"}],"stateMutability":"view"},{"type":"function","name":"getCustodianStakeForAcceptingEpoch","inputs":[{"name":"custodian","type":"address","internalType":"address"}],"outputs":[{"name":"","type":"uint256","internalType":"uint256"}],"stateMutability":"view"},{"type":"function","name":"getEpochDuration","inputs":[],"outputs":[{"name":"","type":"uint256","internalType":"uint256"}],"stateMutability":"view"},{"type":"function","name":"getEpochStartTime","inputs":[],"outputs":[{"name":"","type":"uint256","internalType":"uint256"}],"stateMutability":"view"},{"type":"function","name":"getLastPostconfirmedCommitmentHeight","inputs":[],"outputs":[{"name":"","type":"uint256","internalType":"uint256"}],"stateMutability":"view"},{"type":"function","name":"getMaxTolerableCommitmentHeight","inputs":[],"outputs":[{"name":"","type":"uint256","internalType":"uint256"}],"stateMutability":"view"},{"type":"function","name":"getMinCommitmentAgeForPostconfirmation","inputs":[],"outputs":[{"name":"","type":"uint256","internalType":"uint256"}],"stateMutability":"view"},{"type":"function","name":"getNextAcceptingEpochWithException","inputs":[],"outputs":[{"name":"","type":"uint256","internalType":"uint256"}],"stateMutability":"view"},{"type":"function","name":"getPostconfirmedCommitment","inputs":[{"name":"height","type":"uint256","internalType":"uint256"}],"outputs":[{"name":"","type":"tuple","internalType":"struct PCPStorage.Commitment","components":[{"name":"height","type":"uint256","internalType":"uint256"},{"name":"commitmentValue","type":"bytes32","internalType":"bytes32"},{"name":"commitmentId","type":"bytes32","internalType":"bytes32"}]}],"stateMutability":"view"},{"type":"function","name":"getPostconfirmer","inputs":[],"outputs":[{"name":"","type":"address","internalType":"address"}],"stateMutability":"view"},{"type":"function","name":"getPostconfirmerDuration","inputs":[],"outputs":[{"name":"","type":"uint256","internalType":"uint256"}],"stateMutability":"view"},{"type":"function","name":"getPostconfirmerPrivilegeDuration","inputs":[],"outputs":[{"name":"","type":"uint256","internalType":"uint256"}],"stateMutability":"view"},{"type":"function","name":"getPostconfirmerRewardPoints","inputs":[{"name":"epoch","type":"uint256","internalType":"uint256"},{"name":"postconfirmer","type":"address","internalType":"address"}],"outputs":[{"name":"","type":"uint256","internalType":"uint256"}],"stateMutability":"view"},{"type":"function","name":"getPostconfirmerStartTime","inputs":[],"outputs":[{"name":"","type":"uint256","internalType":"uint256"}],"stateMutability":"view"},{"type":"function","name":"getPresentEpoch","inputs":[],"outputs":[{"name":"","type":"uint256","internalType":"uint256"}],"stateMutability":"view"},{"type":"function","name":"getRoleAdmin","inputs":[{"name":"role","type":"bytes32","internalType":"bytes32"}],"outputs":[{"name":"","type":"bytes32","internalType":"bytes32"}],"stateMutability":"view"},{"type":"function","name":"getStake","inputs":[{"name":"epoch","type":"uint256","internalType":"uint256"},{"name":"custodian","type":"address","internalType":"address"},{"name":"attester","type":"address","internalType":"address"}],"outputs":[{"name":"","type":"uint256","internalType":"uint256"}],"stateMutability":"view"},{"type":"function","name":"getStakeForAcceptingEpoch","inputs":[{"name":"custodian","type":"address","internalType":"address"},{"name":"attester","type":"address","internalType":"address"}],"outputs":[{"name":"","type":"uint256","internalType":"uint256"}],"stateMutability":"view"},{"type":"function","name":"getStakedAttestersForAcceptingEpoch","inputs":[],"outputs":[{"name":"","type":"address[]","internalType":"address[]"}],"stateMutability":"view"},{"type":"function","name":"getTotalStake","inputs":[{"name":"epoch","type":"uint256","internalType":"uint256"}],"outputs":[{"name":"","type":"uint256","internalType":"uint256"}],"stateMutability":"view"},{"type":"function","name":"getTotalStakeForAcceptingEpoch","inputs":[],"outputs":[{"name":"","type":"uint256","internalType":"uint256"}],"stateMutability":"view"},{"type":"function","name":"getValidatorCommitmentAtCommitmentHeight","inputs":[{"name":"height","type":"uint256","internalType":"uint256"},{"name":"attester","type":"address","internalType":"address"}],"outputs":[{"name":"","type":"tuple","internalType":"struct PCPStorage.Commitment","components":[{"name":"height","type":"uint256","internalType":"uint256"},{"name":"commitmentValue","type":"bytes32","internalType":"bytes32"},{"name":"commitmentId","type":"bytes32","internalType":"bytes32"}]}],"stateMutability":"view"},{"type":"function","name":"grantCommitmentAdmin","inputs":[{"name":"account","type":"address","internalType":"address"}],"outputs":[],"stateMutability":"nonpayable"},{"type":"function","name":"grantRole","inputs":[{"name":"role","type":"bytes32","internalType":"bytes32"},{"name":"account","type":"address","internalType":"address"}],"outputs":[],"stateMutability":"nonpayable"},{"type":"function","name":"grantTrustedAttester","inputs":[{"name":"attester","type":"address","internalType":"address"}],"outputs":[],"stateMutability":"nonpayable"},{"type":"function","name":"hasRole","inputs":[{"name":"role","type":"bytes32","internalType":"bytes32"},{"name":"account","type":"address","internalType":"address"}],"outputs":[{"name":"","type":"bool","internalType":"bool"}],"stateMutability":"view"},{"type":"function","name":"initialize","inputs":[{"name":"_stakingContract","type":"address","internalType":"contract IMovementStaking"},{"name":"_lastPostconfirmedCommitmentHeight","type":"uint256","internalType":"uint256"},{"name":"_leadingCommitmentTolerance","type":"uint256","internalType":"uint256"},{"name":"_epochDuration","type":"uint256","internalType":"uint256"},{"name":"_custodians","type":"address[]","internalType":"address[]"},{"name":"_postconfirmerDuration","type":"uint256","internalType":"uint256"},{"name":"_moveTokenAddress","type":"address","internalType":"address"}],"outputs":[],"stateMutability":"nonpayable"},{"type":"function","name":"initialize","inputs":[],"outputs":[],"stateMutability":"nonpayable"},{"type":"function","name":"isCommitted","inputs":[{"name":"height","type":"uint256","internalType":"uint256"}],"outputs":[{"name":"","type":"bool","internalType":"bool"}],"stateMutability":"view"},{"type":"function","name":"isPostconfirmed","inputs":[{"name":"height","type":"uint256","internalType":"uint256"}],"outputs":[{"name":"","type":"bool","internalType":"bool"}],"stateMutability":"view"},{"type":"function","name":"isWithinPostconfirmerPrivilegeDuration","inputs":[{"name":"commitment","type":"tuple","internalType":"struct PCPStorage.Commitment","components":[{"name":"height","type":"uint256","internalType":"uint256"},{"name":"commitmentValue","type":"bytes32","internalType":"bytes32"},{"name":"commitmentId","type":"bytes32","internalType":"bytes32"}]}],"outputs":[{"name":"","type":"bool","internalType":"bool"}],"stateMutability":"view"},{"type":"function","name":"lastPostconfirmedCommitmentHeight","inputs":[],"outputs":[{"name":"","type":"uint256","internalType":"uint256"}],"stateMutability":"view"},{"type":"function","name":"leadingCommitmentTolerance","inputs":[],"outputs":[{"name":"","type":"uint256","internalType":"uint256"}],"stateMutability":"view"},{"type":"function","name":"minCommitmentAgeForPostconfirmation","inputs":[],"outputs":[{"name":"","type":"uint256","internalType":"uint256"}],"stateMutability":"view"},{"type":"function","name":"moveTokenAddress","inputs":[],"outputs":[{"name":"","type":"address","internalType":"address"}],"stateMutability":"view"},{"type":"function","name":"openAttestationEnabled","inputs":[],"outputs":[{"name":"","type":"bool","internalType":"bool"}],"stateMutability":"view"},{"type":"function","name":"postconfirmCommitmentsAndRollover","inputs":[],"outputs":[],"stateMutability":"nonpayable"},{"type":"function","name":"postconfirmedAtL1BlockHeight","inputs":[{"name":"commitmentHeight","type":"uint256","internalType":"uint256"}],"outputs":[{"name":"L1BlockHeight","type":"uint256","internalType":"uint256"}],"stateMutability":"view"},{"type":"function","name":"postconfirmedAtL1BlockHeightByPostconfirmer","inputs":[{"name":"commitmentHeight","type":"uint256","internalType":"uint256"}],"outputs":[{"name":"L1BlockHeight","type":"uint256","internalType":"uint256"}],"stateMutability":"view"},{"type":"function","name":"postconfirmedAtL1BlockTimestamp","inputs":[{"name":"commitmentHeight","type":"uint256","internalType":"uint256"}],"outputs":[{"name":"L1BlockTimestamp","type":"uint256","internalType":"uint256"}],"stateMutability":"view"},{"type":"function","name":"postconfirmedBy","inputs":[{"name":"commitmentHeight","type":"uint256","internalType":"uint256"}],"outputs":[{"name":"attester","type":"address","internalType":"address"}],"stateMutability":"view"},{"type":"function","name":"postconfirmedByPostconfirmer","inputs":[{"name":"commitmentHeight","type":"uint256","internalType":"uint256"}],"outputs":[{"name":"","type":"bool","internalType":"bool"}],"stateMutability":"view"},{"type":"function","name":"postconfirmedCommitments","inputs":[{"name":"commitmentHeight","type":"uint256","internalType":"uint256"}],"outputs":[{"name":"height","type":"uint256","internalType":"uint256"},{"name":"commitmentValue","type":"bytes32","internalType":"bytes32"},{"name":"commitmentId","type":"bytes32","internalType":"bytes32"}],"stateMutability":"view"},{"type":"function","name":"postconfirmedCommitmentsVersion","inputs":[],"outputs":[{"name":"","type":"uint256","internalType":"uint256"}],"stateMutability":"view"},{"type":"function","name":"postconfirmerDuration","inputs":[],"outputs":[{"name":"","type":"uint256","internalType":"uint256"}],"stateMutability":"view"},{"type":"function","name":"postconfirmerPrivilegeDuration","inputs":[],"outputs":[{"name":"","type":"uint256","internalType":"uint256"}],"stateMutability":"view"},{"type":"function","name":"postconfirmerRewardPoints","inputs":[{"name":"epoch","type":"uint256","internalType":"uint256"},{"name":"postconfirmer","type":"address","internalType":"address"}],"outputs":[{"name":"points","type":"uint256","internalType":"uint256"}],"stateMutability":"view"},{"type":"function","name":"proxiableUUID","inputs":[],"outputs":[{"name":"","type":"bytes32","internalType":"bytes32"}],"stateMutability":"view"},{"type":"function","name":"renounceRole","inputs":[{"name":"role","type":"bytes32","internalType":"bytes32"},{"name":"callerConfirmation","type":"address","internalType":"address"}],"outputs":[],"stateMutability":"nonpayable"},{"type":"function","name":"revokeRole","inputs":[{"name":"role","type":"bytes32","internalType":"bytes32"},{"name":"account","type":"address","internalType":"address"}],"outputs":[],"stateMutability":"nonpayable"},{"type":"function","name":"rewardPerAttestationPoint","inputs":[],"outputs":[{"name":"","type":"uint256","internalType":"uint256"}],"stateMutability":"view"},{"type":"function","name":"rewardPerPostconfirmationPoint","inputs":[],"outputs":[{"name":"","type":"uint256","internalType":"uint256"}],"stateMutability":"view"},{"type":"function","name":"setAcceptingEpoch","inputs":[{"name":"newEpoch","type":"uint256","internalType":"uint256"}],"outputs":[],"stateMutability":"nonpayable"},{"type":"function","name":"setMinCommitmentAgeForPostconfirmation","inputs":[{"name":"_minCommitmentAgeForPostconfirmation","type":"uint256","internalType":"uint256"}],"outputs":[],"stateMutability":"nonpayable"},{"type":"function","name":"setOpenAttestationEnabled","inputs":[{"name":"enabled","type":"bool","internalType":"bool"}],"outputs":[],"stateMutability":"nonpayable"},{"type":"function","name":"setPostconfirmedCommitmentAtBlockHeight","inputs":[{"name":"commitment","type":"tuple","internalType":"struct PCPStorage.Commitment","components":[{"name":"height","type":"uint256","internalType":"uint256"},{"name":"commitmentValue","type":"bytes32","internalType":"bytes32"},{"name":"commitmentId","type":"bytes32","internalType":"bytes32"}]}],"outputs":[],"stateMutability":"nonpayable"},{"type":"function","name":"setPostconfirmerDuration","inputs":[{"name":"_postconfirmerDuration","type":"uint256","internalType":"uint256"}],"outputs":[],"stateMutability":"nonpayable"},{"type":"function","name":"setPostconfirmerPrivilegeDuration","inputs":[{"name":"_postconfirmerPrivilegeDuration","type":"uint256","internalType":"uint256"}],"outputs":[],"stateMutability":"nonpayable"},{"type":"function","name":"setRewardPerAttestationPoint","inputs":[{"name":"rewardPerPoint","type":"uint256","internalType":"uint256"}],"outputs":[],"stateMutability":"nonpayable"},{"type":"function","name":"setRewardPerPostconfirmationPoint","inputs":[{"name":"rewardPerPoint","type":"uint256","internalType":"uint256"}],"outputs":[],"stateMutability":"nonpayable"},{"type":"function","name":"stakingContract","inputs":[],"outputs":[{"name":"","type":"address","internalType":"contract IMovementStaking"}],"stateMutability":"view"},{"type":"function","name":"submitBatchCommitment","inputs":[{"name":"commitments","type":"tuple[]","internalType":"struct PCPStorage.Commitment[]","components":[{"name":"height","type":"uint256","internalType":"uint256"},{"name":"commitmentValue","type":"bytes32","internalType":"bytes32"},{"name":"commitmentId","type":"bytes32","internalType":"bytes32"}]}],"outputs":[],"stateMutability":"nonpayable"},{"type":"function","name":"submitCommitment","inputs":[{"name":"commitment","type":"tuple","internalType":"struct PCPStorage.Commitment","components":[{"name":"height","type":"uint256","internalType":"uint256"},{"name":"commitmentValue","type":"bytes32","internalType":"bytes32"},{"name":"commitmentId","type":"bytes32","internalType":"bytes32"}]}],"outputs":[],"stateMutability":"nonpayable"},{"type":"function","name":"supportsInterface","inputs":[{"name":"interfaceId","type":"bytes4","internalType":"bytes4"}],"outputs":[{"name":"","type":"bool","internalType":"bool"}],"stateMutability":"view"},{"type":"function","name":"upgradeToAndCall","inputs":[{"name":"newImplementation","type":"address","internalType":"address"},{"name":"data","type":"bytes","internalType":"bytes"}],"outputs":[],"stateMutability":"payable"},{"type":"function","name":"versionedPostconfirmedCommitments","inputs":[{"name":"","type":"uint256","internalType":"uint256"},{"name":"commitmentHeight","type":"uint256","internalType":"uint256"}],"outputs":[{"name":"height","type":"uint256","internalType":"uint256"},{"name":"commitmentValue","type":"bytes32","internalType":"bytes32"},{"name":"commitmentId","type":"bytes32","internalType":"bytes32"}],"stateMutability":"view"},{"type":"event","name":"CommitmentPostconfirmed","inputs":[{"name":"blockHash","type":"bytes32","indexed":true,"internalType":"bytes32"},{"name":"stateCommitment","type":"bytes32","indexed":false,"internalType":"bytes32"},{"name":"height","type":"uint256","indexed":false,"internalType":"uint256"}],"anonymous":false},{"type":"event","name":"CommitmentSubmitted","inputs":[{"name":"blockHash","type":"bytes32","indexed":true,"internalType":"bytes32"},{"name":"stateCommitment","type":"bytes32","indexed":false,"internalType":"bytes32"},{"name":"attesterStake","type":"uint256","indexed":false,"internalType":"uint256"}],"anonymous":false},{"type":"event","name":"Initialized","inputs":[{"name":"version","type":"uint64","indexed":false,"internalType":"uint64"}],"anonymous":false},{"type":"event","name":"RoleAdminChanged","inputs":[{"name":"role","type":"bytes32","indexed":true,"internalType":"bytes32"},{"name":"previousAdminRole","type":"bytes32","indexed":true,"internalType":"bytes32"},{"name":"newAdminRole","type":"bytes32","indexed":true,"internalType":"bytes32"}],"anonymous":false},{"type":"event","name":"RoleGranted","inputs":[{"name":"role","type":"bytes32","indexed":true,"internalType":"bytes32"},{"name":"account","type":"address","indexed":true,"internalType":"address"},{"name":"sender","type":"address","indexed":true,"internalType":"address"}],"anonymous":false},{"type":"event","name":"RoleRevoked","inputs":[{"name":"role","type":"bytes32","indexed":true,"internalType":"bytes32"},{"name":"account","type":"address","indexed":true,"internalType":"address"},{"name":"sender","type":"address","indexed":true,"internalType":"address"}],"anonymous":false},{"type":"event","name":"Upgraded","inputs":[{"name":"implementation","type":"address","indexed":true,"internalType":"address"}],"anonymous":false},{"type":"error","name":"AccessControlBadConfirmation","inputs":[]},{"type":"error","name":"AccessControlUnauthorizedAccount","inputs":[{"name":"account","type":"address","internalType":"address"},{"name":"neededRole","type":"bytes32","internalType":"bytes32"}]},{"type":"error","name":"AddressEmptyCode","inputs":[{"name":"target","type":"address","internalType":"address"}]},{"type":"error","name":"AttesterAlreadyCommitted","inputs":[]},{"type":"error","name":"ERC1967InvalidImplementation","inputs":[{"name":"implementation","type":"address","internalType":"address"}]},{"type":"error","name":"ERC1967NonPayable","inputs":[]},{"type":"error","name":"FailedCall","inputs":[]},{"type":"error","name":"InvalidInitialization","inputs":[]},{"type":"error","name":"NotInitializing","inputs":[]},{"type":"error","name":"PostconfirmerDurationTooLong","inputs":[]},{"type":"error","name":"PostconfirmerDurationTooLongForEpoch","inputs":[]},{"type":"error","name":"UUPSUnauthorizedCallContext","inputs":[]},{"type":"error","name":"UUPSUnsupportedProxiableUUID","inputs":[{"name":"slot","type":"bytes32","internalType":"bytes32"}]},{"type":"error","name":"UnacceptableCommitment","inputs":[]},{"type":"error","name":"minCommitmentAgeForPostconfirmationTooLong","inputs":[]},{"type":"error","name":"postconfirmerPrivilegeDurationTooLong","inputs":[]}],"bytecode":{"object":"0x60a060405230608052348015601357600080fd5b50608051613c4e61003d60003960008181612599015281816125c201526127060152613c4e6000f3fe6080604052600436106104c05760003560e01c80636f86529411610276578063bb04bd2f1161014f578063da63d355116100c1578063ec23ec2e11610085578063ec23ec2e146110c7578063ed8a1d5914611103578063ee99205c14611146578063ef9ae15c14611166578063f1949add14610db6578063f1f365951461118057600080fd5b8063da63d35514610fca578063da7d28b614610fea578063e07472ef1461100a578063e4a3fb7414611046578063e90d4c061461108057600080fd5b8063d2526fef11610113578063d2526fef14610f06578063d3eef4cc14610f26578063d440116d14610f3c578063d452857714610f5c578063d547741f14610f72578063d783068814610f9257600080fd5b8063bb04bd2f14610e58578063bff92c8c14610e78578063c19b406c14610e8e578063cf6772ad14610ec6578063d03509ec14610ee657600080fd5b806391d14854116101e8578063a5b3286e116101ac578063a5b3286e14610d2c578063aa0d6fcd14610d41578063ab208ebd14610d63578063ad3cb1cc14610d78578063b1ebd28f14610db6578063ba26513e14610e3857600080fd5b806391d1485414610c9557806392a2ebf314610cb5578063949d7c2a14610cca578063a207fe2f14610cea578063a217fddf14610d1757600080fd5b806380e460f01161023a57806380e460f014610bac5780638129fc1c14610bce57806381df174614610be357806388a867a714610c0357806390879f6414610c4a57806391807e4f14610c5f57600080fd5b80636f86529414610aac5780637a9b786514610ae45780637aa81c2a14610b325780637ac561c814610b525780637cfd820514610b7f57600080fd5b806337d7f58f116103a8578063583768771161031a5780635f83c7d5116102de5780635f83c7d5146109fd578063632a79df14610a13578063652bb4b514610a285780636978ab1214610a3e5780636c713af814610a815780636f0043a614610a9657600080fd5b80635837687714610964578063595ca04e146109845780635d3ea8f1146109b15780635db916ab146109c65780635f4d642e146109e857600080fd5b80634ceb2e661161036c5780634ceb2e66146108db5780634f1ef286146108f157806351be4f191461090457806352d1902d1461091957806355b8119d1461092e578063573422821461094457600080fd5b806337d7f58f146108465780633d6459271461085b57806345367f231461087b578063491d04671461089b5780634b47d955146108bb57600080fd5b80631ce6006a116104415780632bfd11d6116104055780632bfd11d6146107115780632f2ff15d146107a45780633119edd4146107c457806335ea1c63146107e457806336568abe146108115780633752d6751461083157600080fd5b80631ce6006a146106225780631db859c7146106795780631de38fe1146106b15780631f83e2a3146106d1578063248a9ca3146106f157600080fd5b80630cf6b6bd116104885780630cf6b6bd146105985780630d39f7f0146105b8578063107e21ca146105d85780631241ebe3146105f857806314e380261461060d57600080fd5b806301ffc9a7146104c5578063028e490a146104fa57806308750a321461051957806308c7050f146105495780630b672e5d1461056b575b600080fd5b3480156104d157600080fd5b506104e56104e0366004613425565b6111a0565b60405190151581526020015b60405180910390f35b34801561050657600080fd5b506006545b6040519081526020016104f1565b34801561052557600080fd5b506104e561053436600461344f565b600c6020526000908152604090205460ff1681565b34801561055557600080fd5b50610569610564366004613506565b6111d7565b005b34801561057757600080fd5b5061050b61058636600461344f565b60009081526007602052604090205490565b3480156105a457600080fd5b506104e56105b3366004613506565b611265565b3480156105c457600080fd5b506105696105d336600461344f565b6112e9565b3480156105e457600080fd5b506105696105f33660046135d0565b611307565b34801561060457600080fd5b5060045461050b565b34801561061957600080fd5b5061050b6114ef565b34801561062e57600080fd5b5061065e61063d36600461344f565b60106020526000908152604090208054600182015460029092015490919083565b604080519384526020840192909252908201526060016104f1565b34801561068557600080fd5b5061050b61069436600461365a565b601560209081526000928352604080842090915290825290205481565b3480156106bd57600080fd5b5061050b6106cc36600461365a565b611501565b3480156106dd57600080fd5b506105696106ec36600461344f565b611584565b3480156106fd57600080fd5b5061050b61070c36600461344f565b61163a565b34801561071d57600080fd5b5061078261072c36600461344f565b604080516060808201835260008083526020808401829052928401819052601354815260128352838120948152938252928290208251938401835280548452600181015491840191909152600201549082015290565b60408051825181526020808401519082015291810151908201526060016104f1565b3480156107b057600080fd5b506105696107bf36600461365a565b61165c565b3480156107d057600080fd5b506105696107df366004613506565b61167e565b3480156107f057600080fd5b506107f961174c565b6040516001600160a01b0390911681526020016104f1565b34801561081d57600080fd5b5061056961082c36600461365a565b611856565b34801561083d57600080fd5b5061050b61188e565b34801561085257600080fd5b5061050b6118fc565b34801561086757600080fd5b5061056961087636600461344f565b61192d565b34801561088757600080fd5b5061050b61089636600461344f565b6119e5565b3480156108a757600080fd5b5061050b6108b636600461368a565b611aa4565b3480156108c757600080fd5b506105696108d63660046136a7565b611ab7565b3480156108e757600080fd5b5061050b60045481565b6105696108ff3660046136db565b611b27565b34801561091057600080fd5b5060035461050b565b34801561092557600080fd5b5061050b611b42565b34801561093a57600080fd5b5061050b60065481565b34801561095057600080fd5b5061056961095f36600461344f565b611b5f565b34801561097057600080fd5b506001546107f9906001600160a01b031681565b34801561099057600080fd5b5061050b61099f36600461344f565b60076020526000908152604090205481565b3480156109bd57600080fd5b5061050b611b7d565b3480156109d257600080fd5b5061050b600080516020613bf983398151915281565b3480156109f457600080fd5b5061050b611bae565b348015610a0957600080fd5b5061050b60165481565b348015610a1f57600080fd5b50610569611c4a565b348015610a3457600080fd5b5061050b60035481565b348015610a4a57600080fd5b5061050b610a5936600461365a565b60009182526014602090815260408084206001600160a01b0393909316845291905290205490565b348015610a8d57600080fd5b5061050b611c55565b348015610aa257600080fd5b5061050b60135481565b348015610ab857600080fd5b5061050b610ac736600461365a565b601460209081526000928352604080842090915290825290205481565b348015610af057600080fd5b50610782610aff366004613786565b60408051606080820183526000808352602080840182905292840152825190810183529485528401929092529082015290565b348015610b3e57600080fd5b5061050b610b4d3660046137b2565b611c86565b348015610b5e57600080fd5b5061050b610b6d36600461344f565b600d6020526000908152604090205481565b348015610b8b57600080fd5b5061050b610b9a36600461344f565b600f6020526000908152604090205481565b348015610bb857600080fd5b5061050b600080516020613b9983398151915281565b348015610bda57600080fd5b50610569611d12565b348015610bef57600080fd5b50610569610bfe36600461368a565b611e1e565b348015610c0f57600080fd5b5061065e610c1e3660046137f4565b601260209081526000928352604080842090915290825290208054600182015460029092015490919083565b348015610c5657600080fd5b5061050b611e4e565b348015610c6b57600080fd5b506107f9610c7a36600461344f565b600b602052600090815260409020546001600160a01b031681565b348015610ca157600080fd5b506104e5610cb036600461365a565b611ed5565b348015610cc157600080fd5b50610569611f0d565b348015610cd657600080fd5b50610569610ce536600461368a565b611fc7565b348015610cf657600080fd5b5061050b610d0536600461344f565b600e6020526000908152604090205481565b348015610d2357600080fd5b5061050b600081565b348015610d3857600080fd5b5061050b612006565b348015610d4d57600080fd5b50610d56612018565b6040516104f1919061385b565b348015610d6f57600080fd5b5060055461050b565b348015610d8457600080fd5b50610da9604051806040016040528060058152602001640352e302e360dc1b81525081565b6040516104f19190613892565b348015610dc257600080fd5b50610782610dd136600461365a565b60408051606081018252600080825260208201819052918101919091525060009182526008602090815260408084206001600160a01b0393909316845291815291819020815160608101835281548152600182015493810193909352600201549082015290565b348015610e4457600080fd5b5061050b610e5336600461365a565b612089565b348015610e6457600080fd5b5061050b610e733660046138c5565b61214a565b348015610e8457600080fd5b5061050b60055481565b348015610e9a57600080fd5b5061050b610ea93660046137f4565b600960209081526000928352604080842090915290825290205481565b348015610ed257600080fd5b50610569610ee13660046136a7565b61215e565b348015610ef257600080fd5b50610569610f0136600461344f565b6121ae565b348015610f1257600080fd5b50610569610f213660046138f3565b61222e565b348015610f3257600080fd5b5061050b60175481565b348015610f4857600080fd5b5061050b610f5736600461368a565b61225a565b348015610f6857600080fd5b5061050b60025481565b348015610f7e57600080fd5b50610569610f8d36600461365a565b61226d565b348015610f9e57600080fd5b5061050b610fad3660046137f4565b600a60209081526000928352604080842090915290825290205481565b348015610fd657600080fd5b50610569610fe5366004613915565b612289565b348015610ff657600080fd5b5061056961100536600461344f565b61232a565b34801561101657600080fd5b5061050b611025366004613506565b80516000908152600a60209081526040808320938201518352929052205490565b34801561105257600080fd5b506104e561106136600461344f565b6000908152600860209081526040808320338452909152902054151590565b34801561108c57600080fd5b5061065e61109b36600461365a565b600860209081526000928352604080842090915290825290208054600182015460029092015490919083565b3480156110d357600080fd5b506104e56110e236600461344f565b60135460009081526012602090815260408083209383529290522054151590565b34801561110f57600080fd5b5061050b61111e36600461365a565b60009182526015602090815260408084206001600160a01b0393909316845291905290205490565b34801561115257600080fd5b506000546107f9906001600160a01b031681565b34801561117257600080fd5b506011546104e59060ff1681565b34801561118c57600080fd5b5061056961119b366004613506565b6123e0565b60006001600160e01b03198216637965db0b60e01b14806111d157506301ffc9a760e01b6001600160e01b03198316145b92915050565b6111ef600080516020613b9983398151915233611ed5565b6112595760405162461bcd60e51b815260206004820152603060248201527f464f5243455f4c41544553545f434f4d4d49544d454e545f49535f434f4d4d4960448201526f544d454e545f41444d494e5f4f4e4c5960801b60648201526084015b60405180910390fd5b6112628161167e565b50565b80516000908152600a6020908152604080832082850151845290915281205460000361129357506000919050565b4261129d60065490565b60055484516000908152600a602090815260408083208289015184529091529020546112c991906139ca565b6112d391906139ca565b10156112e157506000919050565b506001919050565b600080516020613b9983398151915261130181612454565b50601655565b7ff0c57e16840df040f15088dc2f81fe391c3923bec73e23a9662efc9c229c6a008054600160401b810460ff1615906001600160401b031660008115801561134c5750825b90506000826001600160401b031660011480156113685750303b155b905081158015611376575080155b156113945760405163f92ee8a960e01b815260040160405180910390fd5b845467ffffffffffffffff1916600117855583156113be57845460ff60401b1916600160401b1785555b6113c661245e565b600080546001600160a01b0319166001600160a01b038e1690811790915560028b905560038c9055604051631a6e609f60e31b815263d37304f890611411908c908c906004016139dd565b600060405180830381600087803b15801561142b57600080fd5b505af115801561143f573d6000803e3d6000fd5b5050505061144c33611fc7565b61145533611e1e565b6004879055600180546001600160a01b0319166001600160a01b038816179055611480600a8a613a0c565b60055561148e600a8a613a0c565b6006556001601681905560175583156114e157845460ff60401b19168555604051600181527fc7f505b2f371ae2175ee4913f4499e1f2633a7b5936321eed1cdaeb6115181d29060200160405180910390a15b505050505050505050505050565b60006114fc610896611c55565b905090565b60008054604051630ce52af560e01b8152306004820152602481018590526001600160a01b03848116604483015290911690630ce52af590606401602060405180830381865afa158015611559573d6000803e3d6000fd5b505050506040513d601f19601f8201168201806040525081019061157d9190613a20565b9392505050565b600080516020613b9983398151915261159c81612454565b600654600054604051635c53435960e01b81523060048201526001600160a01b0390911690635c53435990602401602060405180830381865afa1580156115e7573d6000803e3d6000fd5b505050506040513d601f19601f8201168201806040525081019061160b9190613a20565b6116159190613a39565b82106116345760405163a7075e5f60e01b815260040160405180910390fd5b50600555565b6000908152600080516020613bd9833981519152602052604090206001015490565b6116658261163a565b61166e81612454565b611678838361246d565b50505050565b611696600080516020613b9983398151915233611ed5565b6117165760405162461bcd60e51b8152602060048201526044602482018190527f5345545f4c4153545f504f5354434f4e4649524d45445f434f4d4d49544d454e908201527f545f41545f4845494748545f49535f434f4d4d49544d454e545f41444d494e5f6064820152634f4e4c5960e01b608482015260a401611250565b60135460009081526012602090815260408083208451845282529182902083518155908301516001820155910151600290910155565b600080611757611bae565b90506000611763611e4e565b60008054604051634234a47960e01b815230600482015292935090916001600160a01b0390911690634234a47990602401600060405180830381865afa1580156117b1573d6000803e3d6000fd5b505050506040513d6000823e601f3d908101601f191682016040526117d99190810190613a4c565b905080516000036117ee576000935050505090565b60008151848460405160200161180e929190918252602082015260400190565b6040516020818303038152906040528051906020012060001c6118319190613ae0565b905081818151811061184557611845613af4565b602002602001015194505050505090565b6001600160a01b038116331461187f5760405163334bd91960e11b815260040160405180910390fd5b6118898282612512565b505050565b60008054604051631dc7f3f160e21b81523060048201526001600160a01b039091169063771fcfc4906024015b602060405180830381865afa1580156118d8573d6000803e3d6000fd5b505050506040513d601f19601f820116820180604052508101906114fc9190613a20565b6000805460405163d980b40d60e01b81523060048201526001600160a01b039091169063d980b40d906024016118bb565b600080516020613b9983398151915261194581612454565b60008054604051635c53435960e01b81523060048201526001600160a01b0390911690635c53435990602401602060405180830381865afa15801561198e573d6000803e3d6000fd5b505050506040513d601f19601f820116820180604052508101906119b29190613a20565b9050806119c0846002613b0a565b106119de576040516360bc402f60e01b815260040160405180910390fd5b5050600455565b6000805460405163341d5ef560e01b815230600482015282916001600160a01b03169063341d5ef590602401600060405180830381865afa158015611a2e573d6000803e3d6000fd5b505050506040513d6000823e601f3d908101601f19168201604052611a569190810190613a4c565b90506000805b8251811015611a9c57611a8885848381518110611a7b57611a7b613af4565b6020026020010151611501565b611a9290836139ca565b9150600101611a5c565b509392505050565b60006111d1611ab1611c55565b83612089565b611ac2600033611ed5565b611ade5760405162461bcd60e51b815260040161125090613b21565b60005b8151811015611b2357611b1b600080516020613b99833981519152838381518110611b0e57611b0e613af4565b602002602001015161165c565b600101611ae1565b5050565b611b2f61258e565b611b3882612633565b611b23828261263e565b6000611b4c6126fb565b50600080516020613bb983398151915290565b600080516020613b99833981519152611b7781612454565b50601755565b60008054604051635c53435960e01b81523060048201526001600160a01b0390911690635c534359906024016118bb565b60008054604051635c53435960e01b8152306004820152429183916001600160a01b0390911690635c53435990602401602060405180830381865afa158015611bfb573d6000803e3d6000fd5b505050506040513d601f19601f82011682018060405250810190611c1f9190613a20565b611c299083613ae0565b905060045481611c399190613ae0565b611c439082613a39565b9250505090565b611c5333612744565b565b600080546040516322fceb7560e01b81523060048201526001600160a01b03909116906322fceb75906024016118bb565b600080546040516324f7ee1760e21b8152306004820152602481018690526001600160a01b0385811660448301528481166064830152909116906393dfb85c90608401602060405180830381865afa158015611ce6573d6000803e3d6000fd5b505050506040513d601f19601f82011682018060405250810190611d0a9190613a20565b949350505050565b7ff0c57e16840df040f15088dc2f81fe391c3923bec73e23a9662efc9c229c6a008054600160401b810460ff1615906001600160401b0316600081158015611d575750825b90506000826001600160401b03166001148015611d735750303b155b905081158015611d81575080155b15611d9f5760405163f92ee8a960e01b815260040160405180910390fd5b845467ffffffffffffffff191660011785558315611dc957845460ff60401b1916600160401b1785555b611dd1612762565b8315611e1757845460ff60401b19168555604051600181527fc7f505b2f371ae2175ee4913f4499e1f2633a7b5936321eed1cdaeb6115181d29060200160405180910390a15b5050505050565b600080516020613b99833981519152611e3681612454565b611b23600080516020613bf98339815191528361165c565b60008054604051635c53435960e01b815230600482015242916001600160a01b031690635c53435990602401602060405180830381865afa158015611e97573d6000803e3d6000fd5b505050506040513d601f19601f82011682018060405250810190611ebb9190613a20565b611ec59082613ae0565b611ecf9082613a39565b91505090565b6000918252600080516020613bd9833981519152602090815260408084206001600160a01b0393909316845291905290205460ff1690565b611f18600033611ed5565b611f725760405162461bcd60e51b815260206004820152602560248201527f4143434550545f47454e455349535f434552454d4f4e595f49535f41444d494e6044820152645f4f4e4c5960d81b6064820152608401611250565b60008054604080516392a2ebf360e01b815290516001600160a01b03909216926392a2ebf39260048084019382900301818387803b158015611fb357600080fd5b505af1158015611678573d6000803e3d6000fd5b611fd2600033611ed5565b611fee5760405162461bcd60e51b815260040161125090613b21565b611262600080516020613b998339815191528261165c565b60006002546003546114fc91906139ca565b600054604051634234a47960e01b81523060048201526060916001600160a01b031690634234a47990602401600060405180830381865afa158015612061573d6000803e3d6000fd5b505050506040513d6000823e601f3d908101601f191682016040526114fc9190810190613a4c565b6000805460405163341d5ef560e01b815230600482015282916001600160a01b03169063341d5ef590602401600060405180830381865afa1580156120d2573d6000803e3d6000fd5b505050506040513d6000823e601f3d908101601f191682016040526120fa9190810190613a4c565b90506000805b82518110156121415761212d8684838151811061211f5761211f613af4565b602002602001015187611c86565b61213790836139ca565b9150600101612100565b50949350505050565b600061157d612157611c55565b8484611c86565b600080516020613b9983398151915261217681612454565b60005b8251811015611889576121a6600080516020613bf9833981519152848381518110611b0e57611b0e613af4565b600101612179565b600080516020613b998339815191526121c681612454565b600054604051631dc8b94960e01b8152306004820152602481018490526001600160a01b0390911690631dc8b94990604401600060405180830381600087803b15801561221257600080fd5b505af1158015612226573d6000803e3d6000fd5b505050505050565b600080516020613b9983398151915261224681612454565b506011805460ff1916911515919091179055565b60006111d1612267611c55565b83611501565b6122768261163a565b61227f81612454565b6116788383612512565b60115460ff16806122ad57506122ad600080516020613bf983398151915233611ed5565b6122f35760405162461bcd60e51b815260206004820152601760248201527615539055551213d49256915117d0d3d353525513515395604a1b6044820152606401611250565b60005b8151811015611b23576123223383838151811061231557612315613af4565b6020026020010151612772565b6001016122f6565b600080516020613b9983398151915261234281612454565b600554600054604051635c53435960e01b81523060048201526001600160a01b0390911690635c53435990602401602060405180830381865afa15801561238d573d6000803e3d6000fd5b505050506040513d601f19601f820116820180604052508101906123b19190613a20565b6123bb9190613a39565b82106123da57604051633c9f1a5360e01b815260040160405180910390fd5b50600655565b60115460ff16806124045750612404600080516020613bf983398151915233611ed5565b61244a5760405162461bcd60e51b815260206004820152601760248201527615539055551213d49256915117d0d3d353525513515395604a1b6044820152606401611250565b6112623382612772565b61126281336128ec565b612466612925565b6112626000335b6000600080516020613bd98339815191526124888484611ed5565b612508576000848152602082815260408083206001600160a01b03871684529091529020805460ff191660011790556124be3390565b6001600160a01b0316836001600160a01b0316857f2f8788117e7eff1d82e926ec794901d17c78024a50270940304540a733656f0d60405160405180910390a460019150506111d1565b60009150506111d1565b6000600080516020613bd983398151915261252d8484611ed5565b15612508576000848152602082815260408083206001600160a01b0387168085529252808320805460ff1916905551339287917ff6391f5c32d9c69d2a47ea670b442974b53935d1edc7fd64eb21e047a839171b9190a460019150506111d1565b306001600160a01b037f000000000000000000000000000000000000000000000000000000000000000016148061261557507f00000000000000000000000000000000000000000000000000000000000000006001600160a01b0316612609600080516020613bb9833981519152546001600160a01b031690565b6001600160a01b031614155b15611c535760405163703e46dd60e11b815260040160405180910390fd5b6000611b2381612454565b816001600160a01b03166352d1902d6040518163ffffffff1660e01b8152600401602060405180830381865afa925050508015612698575060408051601f3d908101601f1916820190925261269591810190613a20565b60015b6126c057604051634c9c8ce360e01b81526001600160a01b0383166004820152602401611250565b600080516020613bb983398151915281146126f157604051632a87526960e21b815260048101829052602401611250565b611889838361296e565b306001600160a01b037f00000000000000000000000000000000000000000000000000000000000000001614611c535760405163703e46dd60e11b815260040160405180910390fd5b61275b600354600161275691906139ca565b6129c4565b6127445750565b61276a612925565b611c5361245e565b805160009081526008602090815260408083206001600160a01b0386168452909152902054156127b557604051630ae09ad960e41b815260040160405180910390fd5b80516002546003546127c791906139ca565b10156127e657604051630ae09ad960e41b815260040160405180910390fd5b80516000908152600760205260408120549003612817576128056118fc565b81516000908152600760205260409020555b805160009081526008602090815260408083206001600160a01b038616845282529182902083518082559184015160018201819055928401516002909101556128609142612c41565b600061286b83611aa4565b8251600090815260096020908152604080832082870151845290915281208054929350839290919061289e9084906139ca565b9091555050604080830151602080850151835190815290810184905290917fb55857cc8fd641eda5651957fe84b285cee3bdf246c783bf24c0426d040eea01910160405180910390a2505050565b6128f68282611ed5565b611b235760405163e2517d3f60e01b81526001600160a01b038216600482015260248101839052604401611250565b7ff0c57e16840df040f15088dc2f81fe391c3923bec73e23a9662efc9c229c6a0054600160401b900460ff16611c5357604051631afcd79f60e31b815260040160405180910390fd5b61297782612c8e565b6040516001600160a01b038316907fbc7cd75a20ee27fd9adebab32041f755214dbc6bffa90cc0225b39da2e5c2d3b90600090a28051156129bc576118898282612cf3565b611b23612d69565b60008181526007602052604081205460035415612a9c5760006007816129eb600187613a39565b815260200190815260200160002054905080821015612a9a576000612a0e612018565b905060005b8151811015612a9457600860008781526020019081526020016000206000838381518110612a4357612a43613af4565b60200260200101516001600160a01b03166001600160a01b0316815260200190815260200160002060000154600014612a8c576000868152600760205260409020839055612a94565b600101612a13565b50819250505b505b80612aa5611c55565b1015612ab857612ab3612d88565b612a9c565b60006003612ac5836119e5565b612ad0906002613b0a565b612ada9190613a0c565b612ae59060016139ca565b90506000612af1612018565b90506000805b8251811015612c00576000838281518110612b1457612b14613af4565b60209081029190910181015160008a81526008835260408082206001600160a01b03841683528452908190208151606081018352815480825260018301549582019590955260029091015491810191909152909250908914612b77575050612bf8565b80516000908152600960209081526040808320828501518452909152902054868110612bf45781516000908152600a60209081526040808320828601518452909152902054600554612bc990826139ca565b421015612bd95750505050612c00565b612be383336130e7565b5060019a9950505050505050505050565b5050505b600101612af7565b5080158015612c1c5750612c12611c55565b612c1a6118fc565b115b15612c3557612c29612d88565b50600195945050505050565b50600095945050505050565b6000838152600a6020908152604080832085845290915290205415612c6557505050565b80600003612c7257505050565b6000928352600a60209081526040808520938552929052912055565b806001600160a01b03163b600003612cc457604051634c9c8ce360e01b81526001600160a01b0382166004820152602401611250565b600080516020613bb983398151915280546001600160a01b0319166001600160a01b0392909216919091179055565b6060600080846001600160a01b031684604051612d109190613b63565b600060405180830381855af49150503d8060008114612d4b576040519150601f19603f3d011682016040523d82523d6000602084013e612d50565b606091505b5091509150612d608583836133a0565b95945050505050565b3415611c535760405163b398979f60e01b815260040160405180910390fd5b6000612d92611c55565b90506000612d9e612018565b905060005b81518110156130a557600083815260146020526040812083518290859085908110612dd057612dd0613af4565b60200260200101516001600160a01b03166001600160a01b03168152602001908152602001600020541115612f2b576000612e23838381518110612e1657612e16613af4565b6020026020010151611aa4565b601654601460008781526020019081526020016000206000868681518110612e4d57612e4d613af4565b60200260200101516001600160a01b03166001600160a01b0316815260200190815260200160002054612e809190613b0a565b612e8a9190613b0a565b60005484519192506001600160a01b031690635e00bf4690859085908110612eb457612eb4613af4565b60209081029190910101516001546040516001600160e01b031960e085901b1681526001600160a01b0392831660048201526024810186905291166044820152606401600060405180830381600087803b158015612f1157600080fd5b505af1158015612f25573d6000803e3d6000fd5b50505050505b600083815260156020526040812083518290859085908110612f4f57612f4f613af4565b60200260200101516001600160a01b03166001600160a01b0316815260200190815260200160002054111561309d576000612f95838381518110612e1657612e16613af4565b601754601560008781526020019081526020016000206000868681518110612fbf57612fbf613af4565b60200260200101516001600160a01b03166001600160a01b0316815260200190815260200160002054612ff29190613b0a565b612ffc9190613b0a565b60005484519192506001600160a01b031690635e00bf469085908590811061302657613026613af4565b60209081029190910101516001546040516001600160e01b031960e085901b1681526001600160a01b0392831660048201526024810186905291166044820152606401600060405180830381600087803b15801561308357600080fd5b505af1158015613097573d6000803e3d6000fd5b50505050505b600101612da3565b506000805460408051632a21edc760e21b815290516001600160a01b039092169263a887b71c9260048084019382900301818387803b15801561221257600080fd5b60006130f1611c55565b83516000908152600760205260409020549091508114613124576040516337592db360e01b815260040160405180910390fd5b825161313290600190613a39565b60035414613153576040516337592db360e01b815260040160405180910390fd5b600061315d612018565b905060005b815181101561323a5784602001516008600087600001518152602001908152602001600020600084848151811061319b5761319b613af4565b60200260200101516001600160a01b03166001600160a01b031681526020019081526020016000206001015403613232576014600084815260200190815260200160002060008383815181106131f3576131f3613af4565b60200260200101516001600160a01b03166001600160a01b03168152602001908152602001600020600081548092919061322c90613b7f565b91905055505b600101613162565b5061324484611265565b6132865760008281526015602090815260408083206001600160a01b0387168452909152812080546001929061327b9084906139ca565b909155506132df9050565b826001600160a01b031661329861174c565b6001600160a01b0316036132df5760008281526015602090815260408083206001600160a01b038716845290915281208054600192906132d99084906139ca565b90915550505b601354600090815260126020908152604080832087518452825280832087518082558884018051600184015589840180516002909401939093556003829055908552600b845282852080546001600160a01b0319166001600160a01b038a1617905588518552600d845282852043905588518552600e84529382902042905551925187518251918252928101929092527f0e4ae52c242f218bb8c8239ad2e3750d75689d0ab1f5937cff03ddb91643bfa4910160405180910390a250505050565b6060826133b5576133b0826133fc565b61157d565b81511580156133cc57506001600160a01b0384163b155b156133f557604051639996b31560e01b81526001600160a01b0385166004820152602401611250565b508061157d565b80511561340c5780518082602001fd5b60405163d6bda27560e01b815260040160405180910390fd5b60006020828403121561343757600080fd5b81356001600160e01b03198116811461157d57600080fd5b60006020828403121561346157600080fd5b5035919050565b634e487b7160e01b600052604160045260246000fd5b604051601f8201601f191681016001600160401b03811182821017156134a6576134a6613468565b604052919050565b6000606082840312156134c057600080fd5b604051606081016001600160401b03811182821017156134e2576134e2613468565b60409081528335825260208085013590830152928301359281019290925250919050565b60006060828403121561351857600080fd5b61157d83836134ae565b6001600160a01b038116811461126257600080fd5b60006001600160401b0382111561355057613550613468565b5060051b60200190565b600082601f83011261356b57600080fd5b813561357e61357982613537565b61347e565b8082825260208201915060208360051b8601019250858311156135a057600080fd5b602085015b838110156135c65780356135b881613522565b8352602092830192016135a5565b5095945050505050565b600080600080600080600060e0888a0312156135eb57600080fd5b87356135f681613522565b965060208801359550604088013594506060880135935060808801356001600160401b0381111561362657600080fd5b6136328a828b0161355a565b93505060a0880135915060c088013561364a81613522565b8091505092959891949750929550565b6000806040838503121561366d57600080fd5b82359150602083013561367f81613522565b809150509250929050565b60006020828403121561369c57600080fd5b813561157d81613522565b6000602082840312156136b957600080fd5b81356001600160401b038111156136cf57600080fd5b611d0a8482850161355a565b600080604083850312156136ee57600080fd5b82356136f981613522565b915060208301356001600160401b0381111561371457600080fd5b8301601f8101851361372557600080fd5b80356001600160401b0381111561373e5761373e613468565b613751601f8201601f191660200161347e565b81815286602083850101111561376657600080fd5b816020840160208301376000602083830101528093505050509250929050565b60008060006060848603121561379b57600080fd5b505081359360208301359350604090920135919050565b6000806000606084860312156137c757600080fd5b8335925060208401356137d981613522565b915060408401356137e981613522565b809150509250925092565b6000806040838503121561380757600080fd5b50508035926020909101359150565b600081518084526020840193506020830160005b828110156138515781516001600160a01b031686526020958601959091019060010161382a565b5093949350505050565b60208152600061157d6020830184613816565b60005b83811015613889578181015183820152602001613871565b50506000910152565b60208152600082518060208401526138b181604085016020870161386e565b601f01601f19169190910160400192915050565b600080604083850312156138d857600080fd5b82356138e381613522565b9150602083013561367f81613522565b60006020828403121561390557600080fd5b8135801515811461157d57600080fd5b60006020828403121561392757600080fd5b81356001600160401b0381111561393d57600080fd5b8201601f8101841361394e57600080fd5b803561395c61357982613537565b8082825260208201915060206060840285010192508683111561397e57600080fd5b6020840193505b828410156139aa5761399787856134ae565b8252602082019150606084019350613985565b9695505050505050565b634e487b7160e01b600052601160045260246000fd5b808201808211156111d1576111d16139b4565b828152604060208201526000611d0a6040830184613816565b634e487b7160e01b600052601260045260246000fd5b600082613a1b57613a1b6139f6565b500490565b600060208284031215613a3257600080fd5b5051919050565b818103818111156111d1576111d16139b4565b600060208284031215613a5e57600080fd5b81516001600160401b03811115613a7457600080fd5b8201601f81018413613a8557600080fd5b8051613a9361357982613537565b8082825260208201915060208360051b850101925086831115613ab557600080fd5b6020840193505b828410156139aa578351613acf81613522565b825260209384019390910190613abc565b600082613aef57613aef6139f6565b500690565b634e487b7160e01b600052603260045260246000fd5b80820281158282048414176111d1576111d16139b4565b60208082526022908201527f4144445f434f4d4d49544d454e545f41444d494e5f49535f41444d494e5f4f4e6040820152614c5960f01b606082015260800190565b60008251613b7581846020870161386e565b9190910192915050565b600060018201613b9157613b916139b4565b506001019056fedb2bf73e90d393604e56f0a2a54fed3fbd75332bf39c5ea0704b3b6973a3463c360894a13ba1a3210667c828492db98dca3e2076cc3735a920a3ca505d382bbc02dd7bc7dec4dceedda775e58dd541e08a116c6c53815c0bd028192f7b626800981fe5f60e354ed88ff0544e367c13a4d3342da7c82eb6627f804b747e046e18a2646970667358221220d87bd97f6c1a6e5f93b08635041646919f7ce15696c66d655079f3149615e04164736f6c634300081c0033","linkReferences":{}},"methodIdentifiers":{"COMMITMENT_ADMIN()":"80e460f0","DEFAULT_ADMIN_ROLE()":"a217fddf","TRUSTED_ATTESTER()":"5db916ab","UPGRADE_INTERFACE_VERSION()":"ad3cb1cc","acceptGenesisCeremony()":"92a2ebf3","attesterRewardPoints(uint256,address)":"6f865294","batchGrantCommitmentAdmin(address[])":"4b47d955","batchGrantTrustedAttester(address[])":"cf6772ad","commitmentFirstSeenAt(uint256,bytes32)":"d7830688","commitmentHeightAssignedEpoch(uint256)":"595ca04e","commitmentStake(uint256,bytes32)":"c19b406c","commitments(uint256,address)":"e90d4c06","createCommitment(uint256,bytes32,bytes32)":"7a9b7865","forceLatestCommitment((uint256,bytes32,bytes32))":"08c7050f","getAcceptingEpoch()":"6c713af8","getAttesterRewardPoints(uint256,address)":"6978ab12","getAttesterStake(uint256,address)":"ba26513e","getAttesterStakeForAcceptingEpoch(address)":"491d0467","getCommitmentByAttester(uint256,address)":"f1949add","getCommitmentFirstSeenAt((uint256,bytes32,bytes32))":"e07472ef","getCommitmentHeightAssignedEpoch(uint256)":"0b672e5d","getCustodianStake(uint256,address)":"1de38fe1","getCustodianStakeForAcceptingEpoch(address)":"d440116d","getEpochDuration()":"5d3ea8f1","getEpochStartTime()":"90879f64","getLastPostconfirmedCommitmentHeight()":"51be4f19","getMaxTolerableCommitmentHeight()":"a5b3286e","getMinCommitmentAgeForPostconfirmation()":"ab208ebd","getNextAcceptingEpochWithException()":"3752d675","getPostconfirmedCommitment(uint256)":"2bfd11d6","getPostconfirmer()":"35ea1c63","getPostconfirmerDuration()":"1241ebe3","getPostconfirmerPrivilegeDuration()":"028e490a","getPostconfirmerRewardPoints(uint256,address)":"ed8a1d59","getPostconfirmerStartTime()":"5f4d642e","getPresentEpoch()":"37d7f58f","getRoleAdmin(bytes32)":"248a9ca3","getStake(uint256,address,address)":"7aa81c2a","getStakeForAcceptingEpoch(address,address)":"bb04bd2f","getStakedAttestersForAcceptingEpoch()":"aa0d6fcd","getTotalStake(uint256)":"45367f23","getTotalStakeForAcceptingEpoch()":"14e38026","getValidatorCommitmentAtCommitmentHeight(uint256,address)":"b1ebd28f","grantCommitmentAdmin(address)":"949d7c2a","grantRole(bytes32,address)":"2f2ff15d","grantTrustedAttester(address)":"81df1746","hasRole(bytes32,address)":"91d14854","initialize()":"8129fc1c","initialize(address,uint256,uint256,uint256,address[],uint256,address)":"107e21ca","isCommitted(uint256)":"e4a3fb74","isPostconfirmed(uint256)":"ec23ec2e","isWithinPostconfirmerPrivilegeDuration((uint256,bytes32,bytes32))":"0cf6b6bd","lastPostconfirmedCommitmentHeight()":"652bb4b5","leadingCommitmentTolerance()":"d4528577","minCommitmentAgeForPostconfirmation()":"bff92c8c","moveTokenAddress()":"58376877","openAttestationEnabled()":"ef9ae15c","postconfirmCommitmentsAndRollover()":"632a79df","postconfirmedAtL1BlockHeight(uint256)":"7ac561c8","postconfirmedAtL1BlockHeightByPostconfirmer(uint256)":"7cfd8205","postconfirmedAtL1BlockTimestamp(uint256)":"a207fe2f","postconfirmedBy(uint256)":"91807e4f","postconfirmedByPostconfirmer(uint256)":"08750a32","postconfirmedCommitments(uint256)":"1ce6006a","postconfirmedCommitmentsVersion()":"6f0043a6","postconfirmerDuration()":"4ceb2e66","postconfirmerPrivilegeDuration()":"55b8119d","postconfirmerRewardPoints(uint256,address)":"1db859c7","proxiableUUID()":"52d1902d","renounceRole(bytes32,address)":"36568abe","revokeRole(bytes32,address)":"d547741f","rewardPerAttestationPoint()":"5f83c7d5","rewardPerPostconfirmationPoint()":"d3eef4cc","setAcceptingEpoch(uint256)":"d03509ec","setMinCommitmentAgeForPostconfirmation(uint256)":"1f83e2a3","setOpenAttestationEnabled(bool)":"d2526fef","setPostconfirmedCommitmentAtBlockHeight((uint256,bytes32,bytes32))":"3119edd4","setPostconfirmerDuration(uint256)":"3d645927","setPostconfirmerPrivilegeDuration(uint256)":"da7d28b6","setRewardPerAttestationPoint(uint256)":"0d39f7f0","setRewardPerPostconfirmationPoint(uint256)":"57342282","stakingContract()":"ee99205c","submitBatchCommitment((uint256,bytes32,bytes32)[])":"da63d355","submitCommitment((uint256,bytes32,bytes32))":"f1f36595","supportsInterface(bytes4)":"01ffc9a7","upgradeToAndCall(address,bytes)":"4f1ef286","versionedPostconfirmedCommitments(uint256,uint256)":"88a867a7"},"id":88}